:020000040000fa
:020000040040ba
:10000000f8ef4520d916400077394000633b4000a7
:10001000eb424000b7434000474040000000000072
:1000200000000000000000000000000051404000ff
:100030004741400000000000d1344000393d4000fd
:10004000b3374000b3374000b3374000b337400008
:10005000b3374000b3374000b3374000b3374000f8
:10006000b337400000000000b3374000b337400012
:10007000b3374000b3374000ad194000b3374000fc
:10008000b3374000b3374000b3374000b3374000c8
:10009000b3374000b3374000b3374000b3374000b8
:1000a000b3374000b3374000b3374000b3374000a8
:1000b000b3374000b3374000b3374000b337400098
:1000c000b3374000b3374000b3374000b337400088
:1000d000b337400035204000b3374000b33740000d
:1000e000b3374000b3374000b3374000b337400068
:1000f000b3374000b3374000b3374000b337400058
:10010000b3374000b3374000b3374000b337400047
:10011000b3374000b337400000000000000000008b
:10012000b3374000b3374000b3374000b337400027
:10013000b3374000b337400000000000b337400041
:10014000b3374000b3374000b3374000b337400007
:10015000b3374000b3374000b3374000b3374000f7
:08016000b3374000b337400043
:020000040000fa
:020000040040ba
:10016800f8b500bff8bc08bc9e4670479d394000f2
:10017800f8b500bff8bc08bc9e4670477939400006
:020000040000fa
:020000040040ba
:08018800080f00000100000057
:020000040000fa
:020000040040ba
:10019000a4f345201c000000000000005cf4452092
:1001a0000800000000000000c0f345201c00000013
:1001b0000000000064f4452008000000000000007a
:1001c00040f4452010000000000000006cf44520c1
:1001d000080000000000000074f445200800000042
:1001e0000000000054f34520300000000000000033
:1001f0008cf44520040000000000000090f445202d
:10020000040000000000000094f4452004000000f9
:1002100001000000aaaaaaaa98f445200400000040
:10022000000000000000402000a0000000000000ce
:100230009cf445200400000000000000a0f44520cc
:100240000400000000000000a4f4452004000000a9
:1002500000000000a8f44520040000000000000099
:1002600040f145206400000000000000acf445208f
:100270000400000000000000b0f44520040000006d
:1002800000000000b4f4452004000000000000005d
:10029000b8f445200400000000000000bcf4452034
:1002a0000400000000000000dcf345201400000002
:1002b00000000000f0f345201400000000000000e2
:1002c000c0f445200400000000000000c4f44520f4
:1002d0000400000000000000c8f4452004000000f5
:1002e00000000000ccf445200400000000000000e5
:1002f00004f445201400000000000000d0f4452064
:10030000040000000000000018f445201400000064
:10031000000000002cf44520140000000000000044
:10032000d4f445200400000000000000d8f445206b
:100330000400000000000000dcf445200400000080
:10034000000000005af445200100000000000000f9
:100350005bf44520010000000000000050f445203f
:100360000a0000000000000001f545200100000027
:100370000000000000f54520010000000000000022
:10038000e0f445200400000000000000e4f44520f3
:100390000400000000000000f4f1452048000000c7
:1003a000000000003cf24520480000000000000072
:1003b00084f245204800000000000000ccf24520f7
:1003c0004800000000000000e8f4452004000000a0
:1003d0000000000002f545200100000001000000bf
:1003e00005000000ecf445200400000000000000bf
:1003f00003f54520010000000000000004f5452041
:1004000001000000000000007cf44520080000000e
:100410000000000014f34520400000000000000030
:10042000f0f44520040000000000000005f5452020
:10043000010000000000000006f54520010000005a
:100440000000000000f04520400100000100000015
:10045000000000000000000000000000000000009c
:10046000000000000000000000000000000000008c
:10047000000000000000000000000000000000007c
:10048000000000000000000000000000000000006c
:10049000000000000000000000000000000000005c
:1004a000000000000000000000000000000000004c
:1004b000000000000000000000000000000000003c
:1004c000000000000000000000000000000000002c
:1004d000000000000000000000000000000000001c
:1004e000000000000000000000000000000000000c
:1004f00000000000000000000000000000000000fc
:1005000000000000000000000000000000000000eb
:1005100000000000000000000000000000000000db
:1005200000000000000000000000000000000000cb
:1005300000000000000000000000000000000000bb
:1005400000000000000000000000000000000000ab
:10055000000000000000000000000000000000009b
:10056000000000000000000000000000000000008b
:10057000000000000000000000000000000000007b
:10058000000000000000000000000000000000006b
:10059000f4f445200400000000000000a4f1452010
:1005a0005000000000000000f8f4452004000000a6
:1005b0000000000084f3452020000000010000003e
:1005c0000100000003000000000000000000000027
:1005d00000000000000000000000000084f445203e
:1005e00084f445200800000000000000fcf44520d1
:1005f00004000000000000000000000000000000f7
:020000040000fa
:020000040040ba
:100600002de9f04f2ded0c8b1d4692ed008bd1e9bd
:100610000083b5eec08b8db0f1ee10fa03930b6939
:100620000790d1f808900493cc6807d418f0040f11
:1006300035d118f0080734d0202302e02d23b1ee85
:10064000488b237009f1ff36012718ee901adff866
:1006500078b321f0004318ee102a4ff0000a5b45f2
:1006600008bf524504eb0700a5f141011bd1192930
:1006700004eb070094bfd049d04903f0c1fecf4836
:1006800003f064fecdf8008002464b4621460798f1
:1006900002f0fbfb0db0bdec0c8bbde8f08f2b2303
:1006a000cfe74e46d1e79b4508bf924507d21929af
:1006b00094bfc349c34903f0a3fec248e0e7302218
:1006c0001a2907f101030270b5ee408b34bf58229e
:1006d0007822f1ee10fae254b7ee009b07f1020720
:1006e000a6f102064ff0000a40f0e880b0ee49bbe8
:1006f000b0ee48cb039b9fedaadb002bacbf9b4623
:100700004ff0180b0025b0ee4dab8cee0b0b0691a5
:1007100001f08aff6b1c0593039b00ee4bcb002b73
:100720002bee0dbb069904dab5ee40cbf1ee10fad4
:1007300005d0ab4500f3e5800bf101030593b2ee64
:10074000007b2bee077bb4eec7cbf1ee10fa00f185
:10075000da80b4ee47cbf1ee10fa09d1bdeec00b52
:100760009fed916b10ee103a13f0010f06fe077b20
:1007700038ee078b18ee900adff84cc218ee102afc
:1007800020f000434ff0000b634508bf5a453ff48b
:100790006eaf049a4ff0000b053a3d46cdf818b005
:1007a0005b460992099aaa421ddd88ee090b0a935d
:1007b000089101f039fffdeec07bb0ee40bb17eeb3
:1007c000900a08990a9b002840f0a080002b00f0b6
:1007d0009d800bf1010b059a0bee498b01339a4278
:1007e00029ee0a9bded1069bdbb96319bbf1000f32
:1007f00000f0ec80039a002a40f3e88018f0010f23
:1008000040f0e4802e221a700beb050222443020c7
:1008100003f8010f9342fbd15d446fea0b0b0135e6
:100820005e4463190393049b04980022013b9245a4
:100830006255b8bfcaf1000ae254c0f1020bb8bf5a
:1008400001224ff00a0cbaf1000f40f096800beb3a
:10085000030ebef1010f00f09080002a03f1ff3c6f
:1008600014bf2d222b22023b1a2904f80c2034bf7e
:10087000502270229d4204eb0301e25402da0398f5
:1008800003f0befd08f00303022b11d1b51e002dad
:100890000edd204603f05afd013e2044031b9f421b
:1008a00077dd2a463021e01903f048fd4ff00009ba
:1008b0002046e5e60af1010ab0ee479b39ee097bd6
:1008c000b4eec78bf1ee10faf4d5b6ee007bb0eec5
:1008d000475b9fed376bb4eec98bf1ee10fa7ff5f5
:1008e00005af29ee074bb5ee404bf1ee10fa04bf11
:1008f00029ee069b28ee068b29ee059b0af1ff3aae
:10090000e9e7059d01e79fed287b31e7069a32b9bb
:100910002bb12e2262550122013e01350692089527
:1009200004eb050c5a4604e04ff0300e0cf801ebd6
:10093000013a002af8d10928089a05f1010506f1c3
:10094000ff36d4bf3030573019295d445a44a6ebe6
:100950000b060ed840f0200cacf1610cbcf1190f65
:1009600007d8cde90a32089103f01efddde90a320d
:100970000899a0544ff0000b2de7bafbfcfe013b99
:100980000cfb1eaa0af1300a04f803a0013ef2464d
:1009900059e710f80139835580e700bfaff30080b5
:1009a000000000000000b03f000000000000000058
:1009b00000000000000050435c43400060434000e2
:1009c00064434000684340000000f07f18f0100fbf
:0c09d0003ff427af2e2201351a7022e7f9
:020000040000fa
:020000040040ba
:0409dc000020704740
:020000040000fa
:020000040040ba
:1009e0002de9f04f2ded0a8b92ed00ab8fb0b5eef7
:1009f000c0ab05938b680293f1ee10fa0b69079078
:100a00008846d1e900760893cd6807d4790737d4b2
:100a100017f00803039335d0202302e02d23b1ee15
:100a20004aab2b70029b03f1ff39012303931aeeab
:100a3000903adff858b323f000411aee100a039bf6
:100a40004ff0000a59452b4408bf504504931cd170
:100a5000059b0498413b192b94bfc749c74903f034
:100a6000cffcc64803f072fc00970246029b079831
:100a7000294602f00afa0fb0bdec0a8bbde8f08ff0
:100a80002b23cee7ddf80890d1e78b4508bf8245e0
:100a90000ad2059b0498413b192b94bfb849b94928
:100aa00003f0aefcb748dde7b5ee40abf1ee10fa6f
:100ab000b2ee04cbb7ee009b4ff0000416d10598c0
:100ac00003f06bfc002ec0b2c0f2628167282ad10d
:100ad000002e08bf0126231d02dbb442c0f239817b
:100ae0004ff0650a2fe00134b0ee479b29ee0c7bf6
:100af000b4eeca7bf1ee10faf5dd0023a24a9fedb9
:100b00009a7b0ae0944205da23b92aee07ab29ee74
:100b1000079b0123013c89ee0c9bb4eec9abf1eebf
:100b200010faefd4cbe78246baf1660f06f1010660
:100b300009d1002c02dab7ee009b0024672818bf09
:100b400036194ff0660a4ff0000bb0ee498bb0ee4d
:100b50004abb8bee080b069001f066fd0bf1010b12
:100b6000fdeec07b5e4590ee08bb17ee903ab1ee0d
:100b70004bbb88ee0c8b0698ebd1b1ee047b28eed4
:100b8000078bb4eec8bbf1ee10fa7fd4b4ee48bbcd
:100b9000f1ee10fa05d19fed766b13f0010f06fe12
:100ba000088b3aee088b29ee0cabb4eec8abf1ee35
:100bb00010fa6ed8baf1660f04f101046bd1013658
:100bc000a346abeb06030a93002107f01003039e34
:100bd00006910b930a9b09965b4504d0d8f8103018
:100be000053bb3425ed8069b2bb9fa0641bf099a72
:100bf0002e23ab5401360022baf1650f05eb060037
:100c0000aa552bd1089b0899013b9442ea54c1f1a3
:100c1000030ebcbf644201220a21002c40f08a80ee
:100c20000eeb030cbcf1000f00f38480002a03f1eb
:100c3000ff3114bf2d222b226a54059a413a023b00
:100c4000192a98bf4ff0450a9e4205eb030105f8ab
:100c500003a0a9f1020901da03f0d2fb07f00303b4
:100c6000022b11d1b9f1000f0edd284603f06efb07
:100c700005eb0903039a824267dd4a463021049856
:100c800003f05cfb002302932846ebe69fed388bd4
:100c900087e7b0ee49abbaf1650f14bfa3464ff03a
:100ca000000b8ee788ee0a0bcde90c1001f0bcfcbe
:100cb000fdeec07b0b9b17ee902a1343dde90c1071
:100cc0000fd167280dd1bbf1000f19da4b1c9aee3a
:100cd000008b0bf1ff3bb1ee488b8aee0cab194653
:100ce00078e7069b63b9bbf1000f09da099b4ff067
:100cf0002e0c05f803c00123013609f1ff390693d4
:100d0000324605eb060e0b4604e04ff0300c0ef8b1
:100d100001cb013b002bf8d12a44944617ee902ad0
:100d200009f1ff3901363032a9eb01090e440cf804
:100d30000120cce7b4fbf1fc013b01fb1c44303447
:100d4000ec5409f1ff39644667e72a5c1a5401380c
:100d500090e7002cbff6f5ae4ff0660ae4e60626f3
:100d6000b9e600bfaff30080000000000000504370
:100d700000000000000000006c4340007043400091
:100d80007443400078434000d4feffff0000f07f32
:0c0d90006728e4d082460626c6e600bfb5
:020000040000fa
:020000040040ba
:100d9c002de9f04fadb00027dff8e4a20391064631
:100dac001546b8464ff0ff3903990b78002b00f02d
:100dbc00f9800cabcde907890a938023cdf8248008
:100dcc000b9300240b5d0bb1252b26d134b122469d
:100ddc00304602f0a3fe039b23440393039b1a7833
:100dec00252a40f0d78003f1010bcdf80cb0039805
:100dfc0003782b2b1ad025d8202b1bd0232b1dd0be
:100e0c002a2b27d002f08efd0990039b1a78303ada
:100e1c00092a2ed801330393f7e70134d2e7079b55
:100e2c0043f00103013007930390e0e7079b43f085
:100e3c000403f7e7079b43f00803f3e7079b43f032
:100e4c001003efe72d2bead0302bd9d1079b43f0c1
:100e5c000203e7e72b681a1d1b682a600130002b80
:100e6c000390099305da079a5b4282f0010207921c
:100e7c000993079bda0744bf23f002030793039bf4
:100e8c001a782e2a0dd1581ccdf8208003905a7850
:100e9c002a2a25d1023303932b681a1d1b682a605a
:100eac00089303a802f090fe039b0190187803f0be
:100ebc006efa6928019979d032dc632800f0c6807b
:100ecc0019dc252800f0d080612853d025238df81b
:100edc001030cdf80cb0cdf81c80cde90898c0e0ee
:100eec0002f020fd0890039b1a78303a092ad8d8d2
:100efc0001330393f7e7642858d06728e6dc2a46c9
:100f0c0004a803f010f8002800f09c80039b5a1ce6
:100f1c0003921b7804aa07a93046fff75bfd38e063
:100f2c00702873d015dc6e2800f087806f28cdd127
:100f3c002b46002204a801f01ffd002800f082803f
:100f4c00039b04aa013307a93046039302f003f96b
:100f5c001fe075283ad0782848d07328b6d180295c
:100f6c0070d1039b2a6801330393131d2b60126805
:100f7c0000235be02a4604a802f0d5ff002861d0cc
:100f8c00039b5a1c03921b7804aa07a93046fff74f
:100f9c0031fb04443c44a7426edd384b4f221a60af
:100fac004ff0ff3738462db0bde8f08f2b460122ad
:100fbc0004a801f0e1fc002844d0039b04aa0133ef
:100fcc0007a93046039301f033fce2e72b460022dd
:100fdc0004a801f0d1fc002834d0039b04aa0133ef
:100fec0007a93046039302f0b3fbd2e72b4600224d
:100ffc0004a801f0c1fc28b3039b5a1c03921b7874
:10100c0004aa07a9304600f0f5fdc2e72b460022e2
:10101c00f02104a801f0b0fca0b1039b01330393b1
:10102c00dde90423134306d10023524607a93046b9
:10103c0002f062fbade77823e2e72b463a1904a8ed
:10104c0001f09aff039b01330393a3e78029f9d1a5
:10105c00039b013303932b681a1d1b682a608df8c0
:10106c001030012304aae1e78029ebd1039b8df812
:10107c00100001330393f4e7274695e6fcf4452072
:04108c00ce41400011
:020000040000fa
:020000040040ba
:101090002de9f04f099f154604468e461e46002b4b
:1010a00040f0cc808a42b2fa82fc4cd9bcf1000fed
:1010b0000bd0ccf1200801fa0cfe20fa08f802fa55
:1010c0000cf548ea0e0e00fa0cf44fea15491ffa27
:1010d00085f8befbf9fa210c09fb1ae30afb08fbb1
:1010e00041ea03439b452ad9eb180af1ff3004d2a9
:1010f0009b4502d9aaf102002b44a3eb0b03a4b237
:10110000b3fbf9f209fb123302fb08f844ea03448b
:10111000a04516d92c1902f1ff3303d2a04501d9fd
:10112000931e2c44a4eb080443ea004027b124faa0
:101130000cf400233c607b603146bde8f08f5046e4
:10114000dbe71346eee702b9ffdebcf1000f2ed15c
:101150008b1a01264fea154eaab2b3fbfef8210cfa
:101160000efb183308fb02f941ea0343994561d9a4
:10117000eb1808f1ff3004d2994502d9a8f102001a
:101180002b44a3eb0903a4b2b3fbfef10efb113316
:101190004a4344ea0344a2424ed92c1901f1ff33d9
:1011a00003d2a24201d98b1e2c44a41abce7ccf175
:1011b000200e02fa0cf521fa0ef901fa0cf320face
:1011c0000efe4eea03034fea154800fa0cf4b9fb91
:1011d000f8f11ffa85fe08fb1192180c01fb0ef6c0
:1011e00040ea0242964221d9aa1801f1ff3003d207
:1011f000964201d9881e2a44921b9bb2b2fbf8f991
:1012000008fb192209fb0efe43ea02439e450fd953
:10121000eb1809f1ff3604d29e4502d9a9f1020666
:101220002b44a3eb0e0346ea004693e70846e3e7a8
:101230004e46f6e74046a4e70b46b6e78b4206d992
:10124000002f7ed00026c7e90001304674e7b3facc
:1012500083fcbcf1000f0fd18b4201d3824209d82d
:10126000841a61eb030e0120002f6dd0c7e9004ef8
:10127000002661e76046f7e7ccf1200e03fa0cf395
:1012800022fa0ef521fa0ef41d4301fa0cf320faae
:101290000ef10b434fea154a00fa0cf6b4fbfaf9cb
:1012a0001ffa85f80afb19401c0c09fb08f144eaf7
:1012b0000044a14202fa0cf23fd92c1909f1ff3087
:1012c00004d2a14202d9a9f102002c44641a9bb2b3
:1012d000b4fbfaf90afb194409fb08f843ea044194
:1012e00088452cd9691809f1ff3304d2884502d901
:1012f000a9f10203294443ea0040a1eb0801a0fb45
:1013000002894945c2464c4602d306d1464504d21d
:10131000b8eb020a69eb05040138afb1b6eb0a037a
:1013200061eb040606fa0efe23fa0cf34eea030301
:1013300026fa0cf6c7e900369ae74846c6e74b4658
:0c134000d9e73e463846f7e63e46f5e6a3
:020000040000fa
:020000040040ba
:10134c002de9f84f80460e4699469500284601f047
:10135c00e3ff002800f0c1800746542001f0dcffb9
:10136c000446002857d007632a46a521384602f0c8
:10137c00dfff276b002e54d0337884f8343053b110
:10138c00334604f134010f3613f8012f01f8012f05
:10139c000ab1b342f8d1002384f843300a9e042edc
:1013ac0028bf0426e66266644ff0000bc4f848b010
:1013bc0004f1040a504603f03af804f1180003f063
:1013cc0036f82461c6f10506a6616462c4f84cb017
:1013dc0084f850b0043d3d444a46414625f0070090
:1013ec0002f04afd20600b9b03b11c6002f03cfe36
:1013fc003e4a1368013313603d4b1b68abb13d4b48
:10140c001b68bbb93a4b1b68da6ae36a9a4211d87b
:10141c00374b1c600ee0384603f012f84ff0ff30eb
:10142c005de0002384f83430b8e7314b1c6013685e
:10143c00012b28d0304a136801331360e06a2f4a1d
:10144c001168012383400b43136000eb800051466d
:10145c002b4b03eb800002f0f0fe02f023ff254b38
:10146c001b68002b3dd0224b1b68da6ae36a9a4258
:10147c0039d2244b4ff080521a60bff34f8fbff319
:10148c006f8f01202be01e4d284602f0cbfe05f19c
:10149c00140002f0c7fe05f1280002f0c3fe05f1ae
:1014ac003c0002f0bffe05f1500002f0bbfe164ef0
:1014bc00304602f0b7fe154d284602f0b3fe144834
:1014cc0002f0b0fe134802f0adfe134802f0aafe83
:1014dc00124b1e60124b1d60ace74ff0ff30bde8a5
:1014ec00f88f0120fbe70120f9e700bfacf44520a1
:1014fc00a0f44520d0f44520b8f44520bcf4452098
:10150c0040f1452004ed00e0dcf34520f0f34520ec
:10151c0004f445202cf4452018f44520a4f445206f
:04152c00a8f44520ba
:020000040000fa
:020000040040ba
:101530002de9f84f0a9f9df82ca05f4c2478e4b267
:10154000012c05d05c4c2478e4b2022c40f0ab8036
:101550001c461646884605464ff0ff31574b186823
:1015600000f078f9564a82f8008056704fea162b40
:1015700082f802b0d4703b7813717b785371bb78da
:101580009371fb78d371baf1000f0bd105f5c060f0
:10159000002308224a4900f0a1fe30b90124204668
:1015a000bde8f88f05f5b060f2e702f053f90446a4
:1015b0000128f4d0baf1000f6cd1424a42494348a5
:1015c000fff70cfa20b1d0460924dff808914de06e
:1015d00000231a4619463948006800f07dfa0224b3
:1015e000dde705f5b065394b1b689d420ad0032441
:1015f00002f0fafe00231a4619463048006800f04f
:101600006bfacce7304b1978a1f14303dbb21d2b09
:101610004bd82f4a22fa03f313f0010f47d0602969
:1016200047d0294b5b78f6b2b34201d00324dfe701
:10163000254b9b785b4501d00324d9e7224b1a79cf
:101640003a705a797a709a79ba70db79fb7054469d
:10165000cee70224a31edbb2012bc9d9002cc7d0d0
:10166000b8f1090f12d8012002f0eafa02f03efaae
:1016700089f8000099f80030dbb2012bb1d0032bc0
:10168000e7d008f101085ffa88f8e3e702f0acfe62
:101690000224afe700231a4619460848006800f004
:1016a0001bfa00247be7042479e70324a0e7032442
:1016b0009ee754469ce700bf06f54520ecf4452024
:1016c0007cf4452005f5452014f34520f0f4452031
:0816d0000111002004f5452082
:020000040000fa
:020000040040ba
:1016d80008b5504b9847504b9847eff3108172b6b6
:1016e8004e4ad2f8883043f47003c2f88830bff30a
:1016f8004f8fbff36f8f01b962b6494b494a5a60a1
:101708009a6812f0010ffbd0454bdb6813f4c07fd9
:1017180013d0454b0c221a60414b444a5a609a68d0
:1017280012f0010ffbd03e4b414a5a609a6812f002
:10173800010ffbd03f4b404a1a60bff34f8fbff3f6
:101748006f8f364cd4f8903223f00103c4f89032ee
:10175800d4f8943223f00103c4f89432bff34f8fc6
:10176800bff36f8f01f0cafa344b23f07f03a360f5
:10177800334b984702f0f2f9636913f4003f12d132
:10178800bff34f8fbff36f8f0022c4f85022bff30f
:101798004f8fbff36f8f626942f400326261bff30b
:1017a8004f8fbff36f8f1d4b5b6913f4803f29d1b7
:1017b8001a4b0022c3f88420bff34f8fd3f8803030
:1017c800c3f3c906c3f34e335a0143f6e075134811
:1017d80002ea0504334644ea8371c0f86012013b0b
:1017e800b3f1ff3ff7d1203a12f1200ff0d1bff348
:1017f8004f8f0a4a536943f480335361bff34f8fc5
:10180800bff36f8f0f4b98470f4b984702f0bafd05
:10181800fee700bf474440004744400000ed00e0b9
:10182800000c0e400d00005a8cf445200c08005a9c
:101838000c07005a00180e40010000a500004000e7
:0c18480051364000474440004744400037
:020000040000fa
:020000040040ba
:101854002de9f04184b0044601914ff0000846465a
:101864004546504f49e0013ba36323684bb12369cc
:101874005bb902f01bfd4ff00108404604b0bde81f
:10188400f08102f07bfca060f1e704f1100001f0ac
:10189400b5fb0028edd0434b4ff080521a60bff3e4
:1018a4004f8fbff36f8fe4e702f000fd4ff00008a5
:1018b400e3e702a802f098fc29e084f8445032e0ff
:1018c40084f8455035e002f0d3fba06800f060ffd7
:1018d400804602f0ebfc3ce0204601f095fa00f073
:1018e40019fc09e0204601f08ffa00f013fc2046b1
:1018f40002f0b2fc002840d1012602f0b9fba36b30
:10190400002bb0d1019b002bced0002ed1d002f001
:10191400cdfc02f009fd02f0abfb94f844305bb25d
:10192400b3f1ff3fc9d094f845305bb2b3f1ff3f48
:10193400c6d002f0bbfc01a902a801f02bfe0028ce
:10194400d0d1204602f088fc0028c5d02368002ba3
:10195400b9d0019904f1240002f002fc204601f000
:1019640053fa00f0d7fb0028c6d14ff080533b60f8
:10197400bff34f8fbff36f8fbee7b8f1000f3ff493
:101984007caf02f075fb616a19b1236b1968c1f170
:101994000501a06801f0f8f902f088fc4ff0000896
:0819a4006be700bf04ed00e059
:020000040000fa
:020000040040ba
:1019ac0038b5484b5b6913f0e0030fd1454b5b69cd
:1019bc0013f0010f1cd1434b5b6913f0020f04d0e1
:1019cc00404b1b6913f0020f44d138bddbb23e4cc7
:1019dc0084f82d3002f03afa3a4be122da60002317
:1019ec0084f82c30636a002b69d0a06a9847dde735
:1019fc00354b93f82c30002bddd03249324b4a69f1
:101a0c0012f0010f13d01a6ad86990420fd98a6963
:101a1c00c2f30802486810f4003f9c69186a00f190
:101a2c0001051d6214bf24f810202254e7e7264b51
:101a3c001a6adb699a42bed3234b002283f82c200e
:101a4c00204ae121d1605b6a002bb4d01e4a906a17
:101a5c009847b0e71c4b1b7d002bb6d01a4b58682f
:101a6c001c68184b184a04e091684d1c9560615c29
:101a7c00d961596911f0020f0fd0916888420cd9c5
:101a8c00596811f4003fefd091684d1c956034f803
:101a9c001110c1f30801d961ebe70b4b9a685b6835
:101aac009a4292d3084b00221a75064a0221d16041
:101abc00db68002b89d0044a1069984785e7014bf5
:0c1acc005b6978e70080024054f345207d
:020000040000fa
:020000040040ba
:101ad8002de9f04784b00446884601921d464ff030
:101ae80000094e46434f39e02a464146204601f058
:101af800fbfa636a73b938b13e4b4ff080521a60f3
:101b0800bff34f8fbff36f8f02f0cefb012004b0fd
:101b1800bde8f08704f1240001f06efa0028f3d044
:101b2800344b4ff080521a60bff34f8fbff36f8f63
:101b3800eae702f0b9fb0020e9e702a802f052fb4d
:101b48001ae084f8446023e084f8456026e02046e3
:101b580001f058f900f0dcfa4ff0010902f086faba
:101b6800a26be36b9a42bfd3022dbdd0019b002b21
:101b7800dfd0b9f1000fe0d002f096fb02f0d2fb03
:101b880002f074fa94f844305bb2b3f1ff3fd8d056
:101b980094f845305bb2b3f1ff3fd5d002f084fb37
:101ba80001a902a801f0f4fce8b902f05ffad4f840
:101bb80038a0d4f83c9002f077fbca45c7d1019908
:101bc80004f1100002f0cafa204601f01bf900f0f7
:101bd8009ffa0028c0d14ff080533b60bff34f8f6e
:101be800bff36f8fb8e7204601f00cf900f090fac8
:081bf80000208ce704ed00e081
:020000040000fa
:020000040040ba
:101c00002de9f04f89461946d9e90153d9f80080ea
:101c1000d9f80ca0002d8bb0a8bf28f0020883468d
:101c2000b8bf012518f010009646d2e9006702906f
:101c300051d056ea07024ed0981e18f008040394bb
:101c4000d9f8104018bf00f1ff30401b013c4ff0a5
:101c5000000c049008f0020005900af804c0a1f1fd
:101c600041000690012c0add56ea070235d1002d0d
:101c700033dc049a5019002801dd059a6abb029ae8
:101c800062b1dee9006756ea070207d00aeb0402f8
:101c9000023c02f8011c30220af80420039a1ab10f
:101ca000013c20220af80420d9f81020cdf8008049
:101cb000013a121b0aeb0401584601f0e6f8dbf882
:101cc0000430db0504d5d9f804309842b8bf184673
:101cd0000bb0bde8f08f1846afe706f00f00069a8c
:101ce0000928d4bf30305730192a04f1ff340ed8f8
:101cf00040f0200cacf1610cbcf1190f07d8cde914
:101d000008e1079302f050fbdde908e1079b0af8c0
:101d10000400300940ea07704fea171c013d0646ef
:041d200067469fe78c
:020000040000fa
:020000040040ba
:101d24002de9f047384b1b68002b67d1374b1f68f0
:101d340001371f60bfb1364b1b68bb4220d9002559
:101d4400344b1b68db6a03eb83039b00324ad35892
:101d5400022b28bf0125314b1b68002b18bf01251e
:101d64002846bde8f0872e4a11682e4b186810608b
:101d740019602d4a13680133136002f097f8dae70b
:101d84000025dff89c80dff8a890dff88ca021e024
:101d94001f4b4ff0ff321a60d2e71d4a1360cfe7a2
:101da40004f1180002f028f9e06ad9f800200123b0
:101db40083401343c9f8003000eb800031460aeb3e
:101dc400800002f03efa134b1b68e26adb6a9a4217
:101dd40028bf0125d8f800301b68002bd8d0d8f8cc
:101de4000030db68dc6863689f42d6d3261d30462a
:101df40002f002f9a36a002bd2d1d5e70b4a13688b
:101e0400013313600025abe7b4f44520d4f4452036
:101e1400c4f44520a0f4452040f14520d8f44520e1
:101e2400a4f44520a8f44520c8f44520ccf445206a
:041e3400bcf4452095
:020000040000fa
:020000040040ba
:101e3800f8b505464ff4a072002102f07bfa394a42
:101e4800936943f001039361936913f0010ffbd089
:101e5800344ca36943f00203a361334a156025f0ab
:101e6800030189b231480143c4f8a01005f14803c1
:101e7800536023f003039bb20343c4f8b03005f169
:101e88009003936023f003039bb2c4f8ac3005f1d0
:101e9800d803d36023f003039bb243f08073c4f8e4
:101ea800c03005f59073136123f003039bb243f42c
:101eb8008033c4f8f03005f5947353611c4e03ce9b
:101ec800c5f82801c5f82c1123f003039bb243f48d
:101ed8000033c4f8843005f598769661154f0fcf16
:101ee800c5f83001c5f83411c5f83821c5f83c31ba
:101ef80026f00306b6b246f40036c4f888600e49e8
:101f0800d1f814210d4b2b4092b21343c1f8143170
:101f1800a36923f00103a3612246936913f0010f1b
:101f2800fbd1f8bd00400340c0f34520000001800c
:101f3800484040001c434000008008400000ffff6c
:020000040000fa
:020000040040ba
:101f48000d0a46616c6c6f206573637269747572f3
:101f5800612045504f5334000d0a46696e20746164
:101f68007265612063616e20310000000d0a4669c8
:101f78006e2074617265612063616e20320000001a
:101f880043414e6f70656e2077617320696e697486
:101f980069616c697a656420616e6420697320697f
:101fa8006e207072652d6f7065726174696f6e61f5
:101fb8006c206d6f646500004e6f2073652070752e
:101fc800646f20637265617220656c20626c6f714a
:101fd80075656f206d757465780000004572726fc5
:101fe8007220616c206d616e646172206d656e7324
:101ff800616a6520426f6f745f55700054415245a5
:10200800415f43616e31000054415245415f436175
:102018006e3200000d0a4573706572616e646f2040
:0c2028007465636c612e2e2e000000bf5a
:020000040000fa
:020000040040ba
:1020340010b5314b1c6d314b234043b12e4a13650f
:102044002f4b1b681bb12e4a51682046984714f049
:10205400010f0cd0284b01221a65d3f8a400294b98
:102064001b6823b1274a516800f07f00984714f099
:10207400100f0cd0204b10221a65d3f8b400214b5a
:102084009b6823b11f4ad16800f07f00984714f47d
:10209400002f09d0184b4ff400221a65d3f898305a
:1020a40013b113f0010f1ed114f4006f09d0124bb9
:1020b4004ff400621a65144b1b6813b1124a50683e
:1020c400984714f4805f0dd00b4b4ff480521a657f
:1020d400d3f8f4000d4b1b6823b10c4a516800f08f
:1020e4003f00984710bd0a4b1b68002bdcd0084a00
:1020f400516800209847d7e700400340eee7f7ff18
:102104005cf4452040f4452074f445206cf44520eb
:0421140064f445200a
:020000040000fa
:020000040040ba
:102118002de9f04101f0aaff2d4b1a68013a1a6027
:102128001b68002b4dd12b4b1b680bb9002449e0d1
:102138000024294e294fdff8b880336803b3f368c9
:10214800dc6804f1180001f055ff251d284601f050
:1021580051ffe06a3a680123834013433b6000eb78
:102168008000294608eb800002f069f81c4b1b68c8
:10217800e26adb6a9a42e0d31a4b01221a60dce772
:102188000cb101f091fe184b1c686cb1154e01257d
:1021980001e0013c05d0fff7c1fd0028f9d035600a
:1021a800f7e7114b00221a600e4b1c6854b10f4b15
:1021b8004ff080521a60bff34f8fbff36f8f012427
:1021c80000e0002402f070f82046bde8f08100bf6e
:1021d800b4f44520acf4452004f44520bcf4452073
:1021e800a0f44520d8f44520ccf4452004ed00e0c7
:0421f80040f145204d
:020000040000fa
:020000040040ba
:1021fc002de9f04f87b001900f4692467bb1012b31
:10220c0011d0022b13d0019b002b55d04fea0a1a88
:10221c004ff00008dff8a89009f1400b17e02848b0
:10222c0001f058ffefe7274801f054ffebe7264891
:10223c0001f050ffe7e709f19c0001f0c5fe57449f
:10224c0008f101085ffa88f8019b434534d01f4818
:10225c0001f0bafefb7813f0400f3e6814bfc6f3d2
:10226c001c06c6f38a46bc7904f00f049be80f00e9
:10227c0002ad85e80f0006ab1c4414f8105c2b462d
:10228c003246b98809f1500001f024ff09f18800a9
:10229c0001f020ff002dced0fc1d013d07f10803fd
:1022ac0053fa85f509f1940614f8011f304601f034
:1022bc0011ffac42f8d1bee707b0bde8f08f00bf0c
:1022cc00e4284000f0284000fc2840000c29400085
:020000040000fa
:020000040040ba
:1022dc002de9f041314d2c78e4b2052c02d00020d0
:1022ec00bde8f0811f4614460e460546dff8b08067
:1022fc0048220021404602f01bf8a804002360f39a
:10230c001c03c8f80030082c0ed90c2c30d9102c1a
:10231c0030d9142c30d9182c30d9202c30d9312c60
:10232c0034bf0e210f2100e021461d4b9a7961f339
:10233c0003029a71022f25d07b1edbb2012b26d90a
:10234c0054b1731e1748013c56fa84f113f8012f4f
:10235c0000f8012f8b42f9d10121134801f0c8ff7d
:10236c000e4b02221a700e49012001f05ffbb7e7f9
:10237c000921dae70a21d8e70b21d6e70c21d4e7ab
:10238c000d21d2e71a46db7843f04003d370044aa0
:10239c00937943f030039371d2e700bf02f54520e7
:0c23ac00ccf24520d3f24520753c4000e7
:020000040000fa
:020000040040ba
:1023b800002a61d02de9f84f8046154620b1012842
:1023c8002ed00020bde8f88f2c4bd3f8a440c4f3de
:1023d8000524f1b14f1e5ffa87fb0026dff8a0a0a5
:1023e8004ff0480900e01e4604ebc401daf800305b
:1023f8004a4603ebc101284601f037ffb74208d02f
:1024080048350134e4b2012c08bf4446731cb34577
:10241800e9d104f03f04194bc3f8a8400120d1e7e3
:10242800164bd3f8b440c4f30524f1b14f1e5ffa3c
:1024380087fa0026dff848904ff0480800e01e466b
:1024480004ebc401d9f80430424603ebc101284625
:1024580001f00bffbe4208d048350134e4b2012c2c
:1024680008bf0024731c5645e9d104f03f04034b10
:10247800c3f8b8400120a5e700207047004003409a
:04248800c0f3452038
:020000040000fa
:020000040040ba
:10248c00314b0022c3f81421d3f8141141f44161eb
:10249c00c3f814112d494ff400134b606ff4001363
:1024ac000b604ff0ff334b650b66c1f89030c1f8f1
:1024bc00a0300a614b618a63c1f8182101f50071e3
:1024cc0010200867486748606ff0100008604b6583
:1024dc000b66c1f89030c1f8a0300a614b618a6379
:1024ec00c1f8182101f500710a674ff4a040486744
:1024fc0048606ff4a04008604b650b66c1f89030e3
:10250c00c1f8a0300a614b618a63c1f8182101f54a
:10251c0000710b604b650b66c1f89030c1f8a030b0
:10252c000a614b618a63c1f8182101f500710b60d7
:10253c004b650b66c1f89030c1f8a0300a614b6155
:10254c008a63c1f81821704700800840000e0e40c5
:020000040000fa
:020000040040ba
:10255c0038b5044601f088fd002c37d0251d2846df
:10256c0001f046fd70b9e26a02eb82039b0022493e
:10257c00cb583bb921480368012101fa02f223ea46
:10258c0002020260a36a1bb104f1180001f030fdd5
:10259c001b4a1368013313601a4b1b68a34218d0f3
:1025ac00194a1368013b1360206b01f049ff204668
:1025bc0001f046ff01f076fc01f074fe134b1b6832
:1025cc001bb1104b1b68a3420cd038bd0d4b1c68c3
:1025dc00c4e729460e4801f030fe0e4a1368013359
:1025ec001360e9e70c4b4ff080521a60bff34f8f2a
:1025fc00bff36f8fe9e700bf40f14520bcf44520e5
:10260c00b8f44520a0f44520acf44520d0f4452086
:0c261c002cf44520b0f4452004ed00e053
:020000040000fa
:020000040040ba
:1026280053ec102bc3f30a512de9f04140f2fd7031
:102638004e1e86421d4644d8a1f2ff30002835dbe5
:10264800332831dc264bc0f120084ff0ff3c03fa59
:1026580008f2a1f21f412cfa00fc10ee104a4cead5
:10266800020c23fa01f24cea020c23fa00fe04eaf7
:102678000c0605ea0e0724ea0c0256ea070425eac6
:102688000e030fd0002a73f100040bda4ff4801503
:1026980005fa08f425fa01f10c43121925fa00f09d
:1026a80040eb030343ec102bbde8f0819fed0a7b60
:1026b800bfee000b002a73f1000327fe000bbde8f4
:1026c800f0810029f0d10a4603f0004343ec102bb7
:1026d800eae700bfaff30080000000000000000040
:0426e800ffff0f00e1
:020000040000fa
:020000040040ba
:1026ec00244b1b681bb1244b01221a60704710b598
:1026fc00214b00221a60214b1b681b6b1a68b2f12c
:10270c00a53f03d15a68b2f1a53f23d01b4b1868e3
:10271c001968343101f070fd194b1b68b3fa83f35f
:10272c00dbb2c3f11f03174a9900c81802eb8000f3
:10273c00446864684460194402460832944212d0da
:10274c0003eb83030f4a02eb83035b68da680b4be2
:10275c001a6010bd9a68b2f1a53fd7d1db68b3f10e
:10276c00a53fd3d1d8e760680a46064901eb82023f
:10277c005060e5e7b4f44520d8f44520a0f445209a
:08278c00bcf4452040f145209a
:020000040000fa
:020000040040ba
:10279400002849d038b50446c26a24490968c96a80
:1027a4008a4238d28169002905db20490968c96a4f
:1027b400c1f10501816102eb82021d4901eb820234
:1027c4006169914205d0194a1268d26ae262012015
:1027d40029e0251d284601f00ffc38b915490b687e
:1027e400e06a0122824023ea02030b600f4b1b685c
:1027f400d86ae0620f4a1168012404fa00f30b431b
:10280400136000eb80002946094b03eb800001f0c4
:1028140018fd204607e0054a1268406cd36a9842c6
:102824002cbf0020012038bd00207047a0f44520b3
:0828340040f14520bcf44520f1
:020000040000fa
:020000040040ba
:10283c002de9f041d2e900230c4686b007465fea49
:10284c00d37820684968a5680590e66841d0524263
:10285c0063eb4303002908db20f002000590b8f17c
:10286c00000f02d1059948072ad5691e05a80290c8
:10287c000a20cde90010204600f0f8fbb8f1000f5b
:10288c0002d1059b59071fd5b8f1000f00f1ff309d
:10289c0014bf2d232b2333542269059b0093013a3b
:1028ac002b46121a3118384600f0e9fa7b68db0522
:1028bc0003d563689842b8bf184606b0bde8f081ee
:1028cc000807d2d42946d1e71a07e5d501382023c9
:0828dc00e1e70029c0dac5e7bd
:020000040000fa
:020000040040ba
:1028e400205278204649464f30203a002052782022
:1028f4004649464f31203a00205278204275666698
:102904006572203a00000000204e6577204d657303
:10291400736167652052656365697665640d0000bf
:102924000001020304050607080c101418203040a7
:10293400204d657373616765202d2054696d65733f
:1029440074616d70203a2030782578204944203a0b
:102954002030782578204c656e677468203a2030e2
:1029640078257820000000004d6573736167652049
:102974003a20000030782578200000000d0000bfc8
:020000040000fa
:020000040040ba
:10298400882930b534d012dc81293fd003dc80297a
:102994003cd0002030bd82290ed08429f9d11c6896
:1029a40054f8041b1c60f2b10ab2d3171de0a0292d
:1029b40027d00cdc9029ecd11968073121f00701ec
:1029c400f1e802451960c0e900450120e2e7c029a9
:1029d40001d0f029ddd11a68111d19601368036054
:1029e40000234360f1e78ab20023c0e90023ece747
:1029f4001c6854f8041b1c600ab14ab2d5e7cab279
:102a0400f2e71a68111d19601268cee719680c1de7
:102a14001c600ab10a68c8e70b68c0e90032d4e751
:020000040000fa
:020000040040ba
:102a2400224b01229a611a46936913f0010ffbd0dd
:102a34001e4b9a6942f002029a6141f26602da6020
:102a44001b4ada6140f27772c3f8bc204ff0ff32c0
:102a5400c3f89820c3f89c200722c3f8c820282272
:102a6400c3f880206ff06042c3f8902001221a62fc
:102a74009a6942f440729a619a6922f001029a6159
:102a84001a46936913f0010ffbd1084a002393659a
:102a94000121d16507495165074a1360536093606a
:102aa400d360136153619361704700bf00400340da
:0c2ab400040d0408ddddcb3fc0f345201d
:020000040000fa
:020000040040ba
:102ac000f8b504460f464ff0ff31204b1868fef76b
:102ad000c1fe1f4b1b784bb9002400231a46194630
:102ae0001a480068fef7f8ff2046f8bd184b002290
:102af0001a702146174800f07fff174b1b788bb9df
:102b000013240a26144d304601f09af82b784bb95d
:102b1000631e13f0ff04f6d10e49384601f070fc35
:102b20000224dae701f0a6fa0a4c2146384601f001
:102b300067fc01f0bdfb234604f10a02202103f8e3
:102b4000011b9342fbd10124c7e700bfdcf4452001
:0c2b500001f5452050f445205bf44520c1
:020000040000fa
:020000040040ba
:102b5c0070b504460e461c4b1d681c4b186804309f
:102b6c0001f046fa48b9194b1a6819490b68d06a32
:102b7c000122824023ea02030b60b4f1ff3f00d133
:102b8c006eb92c44114b1b685c60a5420ed9114bdd
:102b9c0018680e4b1968043101f032f870bd0b4bfc
:102bac00196804310c4801f048fbf7e70b4b186827
:102bbc00064b1968043101f023f8094b1b68a3423a
:102bcc00ecd9074b1c60e9e7d4f44520a0f4452070
:102bdc00bcf44520a8f4452018f44520a4f4452065
:042bec00c4f44520c8
:020000040000fa
:020000040040ba
:102bf000204b214a9a629a6e12f0020ffbd01d4ab6
:102c0000136b23f07003136313469a6e12f0080fd0
:102c1000fbd0184a136b23f4407343f4807313639f
:102c200013469a6e12f0080ffbd0124a136b23f072
:102c3000030343f00203136313469a6e12f0080f66
:102c4000fbd00c4b4ff440525a60002119652421ef
:102c500059651a601a46936e03f44053b3f5405f0a
:102c6000f9d1044b4ff457321a612022c3f80021e6
:0c2c7000704700bf00060e40013f182016
:020000040000fa
:020000040040ba
:102c7c0000b585b01b4c04f1d4061b4d13e01b4b67
:102c8c0001930423009300234ff4007204f1bc0160
:102c9c001748fef755fb13e0304601f077f840f289
:102cac00dc5000f0c7ff00238df80c3003a9012085
:102cbc00fff700ff9df80c30202bedd0312bded030
:102ccc009df80c30322bead10a4b0193042300936c
:102cdc0000234ff4007204f1c8012846fef730fbc4
:102cec00dde700bf481f4000bd404000e0f4452038
:082cfc00f5354000e4f4452029
:020000040000fa
:020000040040ba
:102d04001e4b1f4a9342f0b438bf002103d203f88c
:102d1400011b9342fbd11b4ad2e9000150ea010393
:102d24004ff0000610d09468034602f10c076cb90a
:102d340021b1014403f8016b9942fbd13a46d2e92f
:102d4400000150ea0103eed1f0bc704759b101f122
:102d54000c030c38801a1a443b461c1813f8015b08
:102d640025709342f9d111f0030318bf012303eb3b
:102d7400910107eb81073a46e1e700bf00004020dc
:082d8400000040209001400016
:020000040000fa
:020000040040ba
:102d8c00002838d038b50446426c914238bf114601
:102d9c00c26a8a4202d0806c012800d038bde16240
:102dac00a069002802dbc1f10501a16102eb8202de
:102dbc00114901eb820261699142efd1251d284630
:102dcc0001f016f938b90d490b68e06a012282400e
:102ddc0023ea02030b60e06a084a1168012383406e
:102dec000b43136000eb80002946034b03eb800080
:102dfc0001f023fad2e7704740f14520bcf445209e
:020000040000fa
:020000040040ba
:102e0c0070b5054601f030f995f8454064b2002cd8
:102e1c0011dd6b6a7bb105f1240606e001f0d2faf4
:102e2c00013c64b23cb16b6a2bb1304600f0e2f865
:102e3c000028f5d0f2e7ff2385f8453001f032fa8f
:102e4c0001f012f995f8444064b2002c11dd2b69a5
:102e5c007bb105f1100606e001f0b4fa013c64b256
:102e6c003cb12b692bb1304600f0c4f80028f5d0ea
:0e2e7c00f2e7ff2385f8443001f014fa70bd30
:020000040000fa
:020000040040ba
:102e8a002de9ff471d460c9b13f0010807468946aa
:102e9a00144624d1aa4222da2e1b102e32464ff0b3
:102eaa00200128bf10226846b24601f042fa0f2ece
:102eba001edc4fea1a136ff00f0202fb03a26946e7
:102eca00384600f02cfeb8f1000f04d122464946dc
:102eda00384600f024fe284604b0bde8f0872246b2
:102eea004946384600f01bfeac42d5db2546f2e7e0
:0e2efa0010226946384600f012fe103ed7e75f
:020000040000fa
:020000040040ba
:102f0800002835d038b50446826c013a8264c06a1c
:102f1800616c884200d00ab1002038bd251d2846c2
:102f280001f068f870b9e26a02eb82039b0011496c
:102f3800cb583bb910480368012101fa02f223ea91
:102f480002020260606ce062c0f10503a3610a4af4
:102f58001168012404fa00f30b43136000eb8000ae
:102f68002946044b03eb800001f069f92046d4e7b9
:0c2f78000020704740f14520bcf44520cb
:020000040000fa
:020000040040ba
:102f8400842910b523d00cdc812903d0822913d0e5
:102f940080290bd119680c1d1c600b6803601a6032
:102fa40013e0902921d003dc882917d0002010bd1c
:102fb400a029efd0c029ece719680c1d1c600b6830
:102fc4000360d1171046c3e900010120efe7196837
:102fd4000c1d1c600b6803601a80f6e719680c1d51
:102fe4001c600b6803601a70efe719680c1d1c6005
:0c2ff40009680160d317c1e90023e6e77b
:020000040000fa
:020000040040ba
:1030000038b5c368dc6804f11805284600f0f6ffff
:10301000134b1b68e3b9251d284600f0efffe06a5b
:10302000104a1168012383400b43136000eb8000ba
:1030300029460d4b03eb800001f005f90b4b1b6893
:10304000e26adb6a9a4208d90120094b186005e060
:103050002946084801f0f7f8f0e7002038bd00bf26
:10306000b4f44520bcf4452040f14520a0f44520af
:08307000d8f4452004f44520ca
:020000040000fa
:020000040040ba
:103078002de9f84f04460c9f6668d4f80cb0246913
:1030880010463a68013c002502f0020a0b9a0bf838
:103098000450002e1946b8bf0126012390464fea76
:1030a800e279002c03dcd3b12046bde8f88f50ea62
:1030b800010209d1721b002a06dc0a9a521b002a57
:1030c800f1ddbaf1000feed042464b4600f0a8fe03
:1030d800013c134630320bf804200135e1e73b6828
:0830e80023f010033b60dfe759
:020000040000fa
:020000040040ba
:1030f00070b504461646856b026c5ab903681bb15d
:1031000000200135a56370bd8068fff7fdfe002338
:10311000a360f6e76eb9406801f0abf86368226c13
:1031200013446360a268934219d3236863603046f6
:10313000e7e7c06801f09df8226c5242e36813444f
:10314000e36021688b4202d2a3681a44e2600db1a9
:10315000022e01d00020d4e7013d0020d1e7304607
:02316000cfe7b7
:020000040000fa
:020000040040ba
:10316200f0b50c4649682368a768e56887b000296e
:103172000593a4bf23f00203059305ab0293082332
:10318200cde900730646d2e900232046fff773ff1c
:10319200059bd90642bf00f1ff3030232b54059b1b
:1031a2001a0742bf00f1ff3020232b542269059bee
:1031b2000093013a3b46121a29183046fff764fe83
:1031c2007368db0503d563689842b8bf184607b039
:0231d200f0bd4e
:020000040000fa
:020000040040ba
:1031d40000282dd030b40446174b1b7d53bb164b2f
:1031e4001860596000229a6001221a75134b124a22
:1031f40004e09068451c9560205cd861586910f023
:10320400020f0fd0906888420cd2586810f4003f27
:10321400efd09068451c956034f81000c0f30800a6
:10322400d861ebe7054b02229a60012030bc70475d
:10323400002070470020f9e754f345200080024045
:020000040000fa
:020000040040ba
:1032440038b504460d4600f013ff2268216ce36b89
:1032540003fb01f3d018a0600020a06362605b1a36
:103264001344e360ff2384f8443084f84530a5b95f
:1032740023691bb901f01af8012038bd04f11000cc
:10328400fff7bcfe0028f5d0084b4ff080521a60bf
:10329400bff34f8fbff36f8fece704f1100000f022
:1032a400c5ff04f1240000f0c1ffe3e704ed00e0f2
:020000040000fa
:020000040040ba
:1032b40080b5164c164f174edff860802368bbb1fb
:1032c40000f0d6fefb68dd68281d00f095fe33682b
:1032d400013b33602368013b236000f0e7ff286b68
:1032e40001f0b2f8284601f0aff82368002be7d1cb
:1032f400094b1b68012be1d94ff08053c8f800300b
:10330400bff34f8fbff36f8fd8e700bfb0f44520f2
:103314002cf44520acf4452040f1452004ed00e0b8
:020000040000fa
:020000040040ba
:1033240038b5044610f0070f02d020f00704083423
:1033340000f0faff124b1b687bb1124b1b681c4454
:1033440049f6f77294420ed8a3420fd3fef7e2fe79
:1033540000f061ff0025284638bd094a0a4b23f0d6
:1033640007031360e9e7fef7d5fef1e7044a1568a1
:103374001d44044b1c60fef7cdfe002debd1e7e7a6
:0c33840098f445209cf4452008004020ef
:020000040000fa
:020000040040ba
:1033900038b505460c46164b196000f085fc10f058
:1033a000070005d0072803d0124b04221a7038bd3d
:1033b00014f0ff0ffbd105ebc5020f4cd20000212a
:1033c000204600f0bbff224629460020fef7f4ff0e
:1033d00018b9084b04221a70e9e700234822214655
:1033e0002846fef70bff034b03221a70dfe700bfee
:0c33f000e8f4452002f545203cf24520a1
:020000040000fa
:020000040040ba
:1033fc0038b505460c46164b196000f04ffc10f022
:10340c00070005d0072803d0124b04221a7038bdd0
:10341c0014f0ff0ffbd105ebc5020f4cd2000021bd
:10342c00204600f085ff224629460120fef7beff0c
:10343c0018b9084b04221a70e9e7012348222146e7
:10344c002846fef7d5fe034b03221a70dfe700bfb8
:0c345c00e8f4452002f5452084f24520ec
:020000040000fa
:020000040040ba
:1034680000b583b0124b01930023009380221149c9
:103478001148fdf767ff012802d003b05df804fb8f
:103488004ff0200372b683f31188bff36f8fbff339
:103498004f8f62b6094b4ff0ff321a60084b01227a
:1034a8001a60084b00221a6000f0f6f9e5e700bf41
:1034b800c0f4452014444000b5324000c4f445200f
:0834c800d0f44520d4f44520a6
:020000040000fa
:020000040040ba
:1034d000eff30980bff36f8f154b1a681ef0100fc2
:1034e00008bf20ed108a20e9f04f10602de9090097
:1034f0004ff0200072b680f31188bff34f8fbff3f7
:103500006f8f62b6fff7f2f84ff0000080f311887a
:1035100009bc19680868b0e8f04f1ef0100f08bf2a
:10352000b0ec108a80f30988bff36f8f704700bf3b
:04353000a0f445209e
:020000040000fa
:020000040040ba
:1035340038b505460c46144b196000f0b3fb10f087
:10354400070005d0072803d0104b04221a7038bd99
:1035540014f0ff0ffbd10e4c48220021204600f04e
:10356400ebfe2146284600f0f7fc18b9074b04226d
:103574001a70ece70223482221460120fef73cfea4
:10358400024b03221a70e2e7e8f4452002f54520d5
:04359400f4f14520e9
:020000040000fa
:020000040040ba
:1035980070b504460d4600f069fd124b1a682b6899
:1035a800b3f1ff3f16d061680f480068266886426d
:1035b80001d0914213d9501a834203d800232b60bb
:1035c800012408e09b1a0b442b60204600f00afef9
:1035d800002400e0002400f067fe204670bd0124ae
:0c35e800f9e700bfd4f44520c8f44520ea
:020000040000fa
:020000040040ba
:1035f40000b583b0002000f0dbf842238df80430de
:1036040013238df8053023238df8063087238df896
:10361400073001a9012000f084fd68b1084800f0da
:10362400b9fb084b186820b1fef796ff054b002242
:103634001a6003b05df804fb034800f0abfbede750
:0c364400601f4000e0f44520481f4000db
:020000040000fa
:020000040040ba
:103650000e4a38b5002313600d4a0e4c13600e4a13
:103660000e4d13600e4a13600e4a13600e4a5362e9
:1036700013610123936000f081fe00f0e8feac428c
:1036800000d338bd54f8043b9847f8e7f8f44520d8
:10369000b0f1452074014000acf1452078014000b4
:0c36a000a4f14520a8f14520b4f145201c
:020000040000fa
:020000040040ba
:1036ac00124bd96821f4e0610904090c104a0a4351
:1036bc00da60bff35f8f62b6e02183f823100d4a06
:1036cc0082f80e134ff48040106082f825132021ed
:1036dc0051605a6a42f480225a625a6942f01002ce
:1036ec005a615a6a42f400325a62704700ed00e0a7
:0836fc000000fa0500e100e006
:020000040000fa
:020000040040ba
:103704002de9ff41134dd1f80080af88adf80c705e
:1037140006462868029002aca8798df80e00002aab
:1037240018bf1446d1e901571a461bb9204600f0c8
:103734000bfe0246002d02dbaa4228bf2a46cdf822
:1037440000803b4621463046fff79dfb04b0bde8b0
:08375400f08100bf2c4440008d
:020000040000fa
:020000040040ba
:10375c00f0b50c4649682368a668e76887b000296d
:10376c000593a4bf23f00203059305ab02930a2330
:10377c00cde900630546d2e900232046fff776fc2d
:10378c002269059b0093013a3346121a39182846d0
:10379c00fff775fb6b68db0503d563689842b8bf10
:0637ac00184607b0f0bd55
:020000040000fa
:020000040040ba
:0237b200fee730
:020000040000fa
:020000040040ba
:1037b400124b01229a611a46936913f0010ffbd050
:1037c4000e4b9a6942f002029a6140f281329a6188
:1037d4001a6942f010021a61012809d0074b4ff40c
:1037e40060729a611a46936913f0010ffbd1704716
:1037f4001a469b6943f020039361efe700400340be
:020000040000fa
:020000040040ba
:1038040008b5012000f046fc0c4b186080b1002183
:103814000b4800f0cffd00210a4800f0d1fd0a4b0f
:1038240003f10a01202203f8012b8b42fbd108bdce
:1038340021210648fff7ccfce9e700bfdcf4452072
:10384400dd434000dd3e400050f44520c43a4000d2
:020000040000fa
:020000040040ba
:1038540070b50a24104d01260ae000f0c3fd0020d3
:1038640018e000f0bffd012014e0304600f0e6f956
:1038740000f03af928702b78dbb2022bedd02b78cc
:10388400dbb2042bedd0631e13f0ff04edd100f086
:0c389400a9fd012070bd00bf03f5452018
:020000040000fa
:020000040040ba
:1038a00010b50e4b1a6842f460021a601a6842f0b2
:1038b00060421a6000f07afb0024094b1c6000f0a3
:1038c000edfc084a136843f04043136000f05afbd4
:1038d000fef70cff00f0a5fb204610bd20ed00e038
:0838e00094f4452034ef00e0f0
:020000040000fa
:020000040040ba
:1038e80008b50d4b00221a70fff788ff00f080fa28
:1038f80048b101280bd0022808d1084800f0b6f8d2
:1039080000f074fd02e0064800f0b0f808bd054874
:1039180000f0acf8fae700bf00f54520e41f4000ce
:08392800881f4000c01f400091
:020000040000fa
:020000040040ba
:1039300010b50278202a034600f10100f9d0a2f167
:1039400009010429f5d92b2a07d02d2a11d10121eb
:103950000133013b00200a2403e00021f8e7604323
:10396000801a13f8012f303a092af8d901b94042d8
:0639700010bd0021ede78f
:020000040000fa
:020000040040ba
:02397600fee76a
:020000040000fa
:020000040040ba
:1039780010b5054c227832b9044b13b10448aff3a3
:1039880000800123237010bda4f34520000000002f
:103998000000000008b5034b1bb103490348aff30f
:1039a800008008bd00000000a8f3452000000000ca
:020000040000fa
:020000040040ba
:1039b8000d4b4ff486721a6050221a604ff40c6255
:1039c8005a6051221a62094b00229a61da611a621e
:1039d80083f82c205a621a605a609a601a75da6065
:1039e80083f82d20704700bf0080024054f3452023
:020000040000fa
:020000040040ba
:1039f800c0b138b505460c4a92f82c200ab100200f
:103a080038bd0c4600f024fa074b002283f82d201d
:103a18009d61dc611a62012083f82c00034be122ce
:103a28009a60ede70020704754f34520008002407b
:020000040000fa
:020000040040ba
:103a3800012815d1a1b138b50a4dd5f8c440c4f351
:103a4800044404ebc400084bdb68482203ebc000c5
:103a580000f00bfc012000fa04f4c5f8d04038bd92
:0c3a68000020704700400340c0f34520e0
:020000040000fa
:020000040040ba
:103a740038b505460b4c4ff0ff312068fdf7e8fee2
:103a8400284600f061fc01462846fff7a1fb02210d
:103a94000548fff79dfb00231a4619462068fef7e8
:0c3aa40019f838bddcf44520e83a400079
:020000040000fa
:020000040040ba
:103ab0004572726f7220616c206c6565722055537f
:103ac000415254004e6f207365207075646f2063ff
:103ad0007265617220656c20626c6f7175656f2014
:0c3ae0006d757465780000000d0a000090
:020000040000fa
:020000040040ba
:103aec000c4b1878c0b2032803d0042809d000204e
:103afc007047094b1b7853b1012b14bf00200220d7
:103b0c007047054b1b78002b08bf03207047012022
:0c3b1c00704700bf02f54520e8f445208a
:020000040000fa
:020000040040ba
:103b280038b5436813f4807f0446154610d00369fe
:103b380040699a4228bf1d462a4600f096fb6269f2
:103b48005319636123695b1b23610023535538bdf7
:0a3b5800db06fcd400f070fcf9e776
:020000040000fa
:020000040040ba
:023b6200fee77c
:020000040000fa
:020000040040ba
:103b6400094b00225a60094ada60094a1a61094974
:103b74004a6a42f480324a6205225a60bff34f8f88
:103b8400bff36f8f704700bf90ed00e010f0452049
:083b94001700081300ed00e02a
:020000040000fa
:020000040040ba
:103b9c0007b54a68c0b2d2050b468df8070006d5aa
:103bac004a69511c5961107003b05df804fb012285
:103bbc000df10701184600f03dfc10b19df807000f
:083bcc00f2e74ff0ff30efe7d4
:020000040000fa
:020000040040ba
:103bd40030b50c4a002312f8134024b902eb430316
:103be4005b78184630bd01680d78a54209bf02eb29
:103bf400430301335b78013114bfdbb201600a2b4c
:083c0400e9d9eee7b8414000e8
:020000040000fa
:020000040040ba
:103c0c0030b40d68b5f1ff3f02d000f1080202e0bc
:103c1c00026904e01a4653681c68ac42fad953682e
:103c2c004b6099608a6051600861036801330360de
:043c3c0030bc7047e1
:020000040000fa
:020000040040ba
:103c400010b540b90a4b4ff080521a60bff34f8f46
:103c5000bff36f8f10bd044600f068fb00212046c3
:103c6000fef77cfffef758fa0028f3d1eae700bf21
:043c700004ed00e07f
:020000040000fa
:020000040040ba
:103c740010b50446094b186000f014f810f0070062
:103c840005d0072803d0064b04221a7010bde4b2f5
:103c9400012cfbd1024b03221a70f7e7e8f445200c
:043ca40002f54520c0
:020000040000fa
:020000040040ba
:103ca8000a4b586c20f4605020f018004004400c77
:103cb8009b6913f0010f08d0044a936923f00103ac
:103cc8009361936913f0010ffbd1704700400340e3
:020000040000fa
:020000040040ba
:103cd80008b500f007fbfef787fffef7d3fb4ff4ac
:103ce8000043064a5360b03a5360fef797fefff769
:103cf8005ffefff7f5fdfff7d5fc08bd00190e4084
:020000040000fa
:020000040040ba
:103d080000b583b0074b01930123009300234ff4c0
:103d1800806205490548fdf715fbfff7a1fb03b0d5
:103d28005df804fb90f44520d44140000d44400068
:020000040000fa
:020000040040ba
:103d380008b54ff0200372b683f31188bff36f8f75
:103d4800bff34f8f62b6fdf7e9ff18b1034b4ff091
:103d580080521a60002383f3118808bd04ed00e047
:020000040000fa
:020000040040ba
:103d680070b506460d4601fb00f04830fff7d6fa5d
:103d7800044648b155b100f148032360e663256461
:103d880001212046fff75afa204670bd0346f4e7a2
:020000040000fa
:020000040040ba
:103d980038b50546094c4ff0ff312068fdf756fd50
:103da800284600f0cffa01462846fff70ffa00230d
:103db8001a4619462068fdf78bfe38bddcf445200d
:020000040000fa
:020000040040ba
:103dc80008b5fef735f800220649104600f0b8f9a4
:103dd80000220549012000f0b3f90021034800f052
:103de80091fa08bd91334000fd334000353540005d
:020000040000fa
:020000040040ba
:103df80008b5012000f04cf9064b186038b10648a8
:103e0800fff7deff054b01221a70002008bd0120d4
:103e1800fce700bfecf4452000f0452006f54520fe
:020000040000fa
:020000040040ba
:103e280053b94ab9002908bf00281cbf4ff0ff3119
:103e38004ff0ff3000f004bbadf1080c6de904ce83
:103e4800fdf722f9ddf804e0dde9022304b070474c
:020000040000fa
:020000040040ba
:103e5800094b5b6913f0e00f0dd0074b4ff48072ec
:103e68001a605b6913f0010f05d0034b9a695a6910
:0c3e780012f0010ffad1704700800240e8
:020000040000fa
:020000040040ba
:103e84004ff0807340f8043c21f0010140f8081c15
:103e9400054b40f80c3c40f8202c6ff0020340f82e
:0c3ea400243c4438704700bf234040001d
:020000040000fa
:020000040040ba
:103eb000084b1b681b6823b9074b4ff0ff321a6091
:103ec0007047044b1b68db68db685a68024b1a605a
:0c3ed000704700bfa4f44520c4f4452056
:020000040000fa
:020000040040ba
:103edc0008b500f0d3f918b9054b01221a7008bdca
:103eec00044b01221a7014210348fff76df9f6e711
:0c3efc005bf445205af44520b03a400029
:020000040000fa
:020000040040ba
:103f080070b5002902fb01f614460d4618bf144689
:103f180001463246184608bf002400f08dfa864252
:0a3f280018bfb0fbf5f4204670bd91
:020000040000fa
:020000040040ba
:103f3200802910db812901dd83290cd11368073325
:103f420023f0070303f108011160d3e90023c0e95c
:0a3f52000023012070470020704793
:020000040000fa
:020000040040ba
:103f5c0060b959b108b508464822054b996800f07c
:103f6c0082f90120034bc3f8980008bd002070476c
:083f7c00c0f3452000400340a2
:020000040000fa
:020000040040ba
:103f840008480068006880f308884ff0000080f358
:103f9400148862b661b6bff34f8fbff36f8f00df33
:083fa40000bf000008ed00e081
:020000040000fa
:020000040040ba
:103fac00054b00221a6005490a60054a0549116053
:103fbc0007221a60704700bf10e000e018e000e034
:083fcc0014e000e0df930400a3
:020000040000fa
:020000040040ba
:103fd40010b5084c2368196800f092f8002807db34
:103fe40023680a20196800f017fac00f404210bd78
:083ff4000120fbe7a0f34520ca
:020000040000fa
:020000040040ba
:103ffc000369416882688a60416851605a688242ec
:10400c0006d0002202611a68013a1a6018687047db
:06401c0082685a60f5e71e
:020000040000fa
:020000040040ba
:1040220082b0002301934ff0200372b683f311880c
:10403200bff36f8fbff34f8f62b6019b002bfcd093
:0440420002b0704711
:020000040000fa
:020000040040ba
:02404600fee793
:020000040000fa
:020000040040ba
:084048006904690c00005a3cf8
:020000040000fa
:020000040040ba
:10405000074b19680868b0e8f04f80f30988bff390
:104060006f8f4ff0000080f311887047aff300802e
:04407000a0f4452053
:020000040000fa
:020000040040ba
:104074004ff0200372b683f31188bff36f8fbff341
:104084004f8f62b6024a136801331360704700bf52
:0440940094f445203b
:020000040000fa
:020000040040ba
:1040980010b5024600210120fff762fe044638b140
:1040a800002181600160c1600b460a46fdf710fde2
:0440b800204610bdd1
:020000040000fa
:020000040040ba
:1040bc0008b50648fff76afe054b186820b1fef7f5
:1040cc0047fa034b00221a6008bd00bf741f400062
:0440dc00e4f44520a3
:020000040000fa
:020000040040ba
:1040e0000fb407b5064b04aa1b6852f8041b1868e6
:1040f000019200f053f803b05df804eb04b0704790
:04410000a0f34520c3
:020000040000fa
:020000040040ba
:1041040070b50e46054600f01ff9334604460246d4
:1041140001212846fff7f6fe001b18bf4ff0ff30c1
:0241240070bd6c
:020000040000fa
:020000040040ba
:1041260000b583b000230193009146f27a02232161
:10413600fdf7fbf9b0fa80f0400903b05df804fb27
:020000040000fa
:020000040040ba
:02414600fee792
:020000040000fa
:020000040040ba
:1041480010b429b1044b43f8301003ebc0035a6094
:0c4158005df8044b704700bf40f44520a8
:020000040000fa
:020000040040ba
:1041640010b50c46044b19681831fff74dfd0121b9
:0c4174002046fef7f1fc10bda0f4452031
:020000040000fa
:020000040040ba
:10418000054b1b6823b1044b1a68936c013393648d
:0c419000014b1868704700bfa0f44520e8
:020000040000fa
:020000040040ba
:10419c0013b50446019201aafcf7fafd636813f00b
:0c41ac00100f18bf4ff0ff3002b010bd24
:020000040000fa
:020000040040ba
:1041b80068076c094c836a9074a07ac0008068888c
:1041c80000846c820081286e696c29005441524534
:1041d800415f5052494e434950414c5f5461736ba3
:0441e800730000bfa1
:020000040000fa
:020000040040ba
:1041ec00034b1b680360034b1b684360704700bfa5
:0841fc00c8f44520d4f445206d
:020000040000fa
:020000040040ba
:104204004ff0200372b683f31188bff36f8fbff3af
:064214004f8f62b6fee7c9
:020000040000fa
:020000040040ba
:10421a004ff0200372b683f31188bff36f8fbff399
:06422a004f8f62b6fee7b3
:020000040000fa
:020000040040ba
:1042300000f1080343604ff0ff328260c360036106
:064240000023036070473b
:020000040000fa
:020000040040ba
:1042460043684b609a688a605160996008610368a8
:0642560001330360704714
:020000040000fa
:020000040040ba
:10425c0010b50446fff708ffa46b00f023f8b4fa7e
:06426c0084f0400910bdc2
:020000040000fa
:020000040040ba
:1042720010b5431e0a44914200d110bd11f8014b02
:0642820003f8014ff7e70d
:020000040000fa
:020000040040ba
:10428800034b93f82d00002283f82d20704700bfc0
:0442980054f3452076
:020000040000fa
:020000040040ba
:10429c00dff80c00016841f4700101607047000008
:0442ac0088ed00e0b9
:020000040000fa
:020000040040ba
:1042b000034a1368013b13600bb983f311887047fd
:0442c00094f445200d
:020000040000fa
:020000040040ba
:1042c40008b500f0adf8024b1860586008bd00bf97
:0442d40084f4452009
:020000040000fa
:020000040040ba
:1042d800034611f8012b184603f8012b002af8d1e0
:0242e80070471d
:020000040000fa
:020000040040ba
:0242ea00fee7ed
:020000040000fa
:020000040040ba
:1042ec00014b024a1a607047000c0e400006000495
:020000040000fa
:020000040040ba
:1042fc0010b1024b18605960704700bf74f4452030
:020000040000fa
:020000040040ba
:10430c0010b1024b18605960704700bf64f445202f
:020000040000fa
:020000040040ba
:10431c00a50000f000000000960000509600001070
:020000040000fa
:020000040040ba
:10432c00024a136801331360704700bfb4f4452090
:020000040000fa
:020000040040ba
:10433c0002440346934200d1704703f8011bf9e78e
:020000040000fa
:020000040040ba
:10434c0003461a46013311780029fad1101a704726
:020000040000fa
:020000040040ba
:10435c00494e4600696e66004e414e006e616e001d
:10436c00494e4600696e66004e414e006e616e000d
:020000040000fa
:020000040040ba
:10437c0008b5fff7a1ff00f065f800f063f808bd81
:020000040000fa
:020000040040ba
:0e438c0008b50020fff7a2fcfff7b8fcfce725
:020000040000fa
:020000040040ba
:0e439a00a0f14103192b98bf40f0200070479e
:020000040000fa
:020000040040ba
:0e43a800a0f16103192b98bf00f05f00704771
:020000040000fa
:020000040040ba
:0243b600fee720
:020000040000fa
:020000040040ba
:0c43b800014bd8601961704754f3452098
:020000040000fa
:020000040040ba
:0c43c400014b58629962704754f3452089
:020000040000fa
:020000040040ba
:0c43d000014b01221a607047d8f4452010
:020000040000fa
:020000040040ba
:0c43dc00014b01221a70704701f54520ca
:020000040000fa
:020000040040ba
:0c43e800014b05221a70704702f54520b9
:020000040000fa
:020000040040ba
:0c43f400014b03221a70704706f54520ab
:020000040000fa
:020000040040ba
:0c44000010b50446fff768ff204610bd11
:020000040000fa
:020000040040ba
:08440c0008b5fef735fcfce7e2
:020000040000fa
:020000040040ba
:0844140049444c45000000bfc3
:020000040000fa
:020000040040ba
:08441c0008b5fff7bdfb08bd68
:020000040000fa
:020000040040ba
:084424000048704784f34520b5
:020000040000fa
:020000040040ba
:07442c00286e756c6c29007d
:020000040000fa
:020000040040ba
:064434004ff0ff3070475d
:020000040000fa
:020000040040ba
:06443a000023036170473e
:020000040000fa
:020000040040ba
:064440000068fff7f7bf62
:020000040000fa
:020000040040ba
:024446007047bd
:020000040000fa
:020000040040ba
:04444800704700bffa
:020000040000fa
:020000040040ba
:02444c007047b7
:020000040000fa
:020000040040ba
:04444e0070477047fc
:020000040000fa
:02000004d0002a
:0400000002000000fa
:00000001FF
