:020000040000fa
:020000040040ba
:10000000f0ff4520ad054000e71640002f1f4000df
:100010008b2140000d1940000f1940000000000026
:10002000000000000000000000000000311f400040
:100030003b2140000000000011194000551d400008
:100040000315400003154000031540000315400050
:100050000315400003154000031540000315400040
:100060000315400000000000031540000315400088
:1000700003154000031540008108400003154000af
:100080000315400003154000031540000315400010
:100090000315400003154000031540000315400000
:1000a00003154000031540000315400003154000f0
:1000b00003154000031540000315400003154000e0
:1000c00003154000031540000315400003154000d0
:1000d00003154000e90b40000315400003154000e4
:1000e00003154000031540000315400003154000b0
:1000f00003154000031540000315400003154000a0
:10010000031540000315400003154000031540008f
:10011000031540000315400000000000000000002f
:10012000031540000315400003154000031540006f
:1001300003154000031540000000000003154000b7
:10014000031540000315400003154000031540004f
:10015000031540000315400003154000031540003f
:080160000315400003154000e7
:020000040000fa
:020000040040ba
:10016800f8b500bff8bc08bc9e467047411b40006c
:10017800f8b500bff8bc08bc9e4670471d1b400080
:020000040000fa
:020000040040ba
:10018800e4a040201c000000000000009ca14020ca
:10019800080000000000000000a140201c00000032
:1001a80000000000a4a1402008000000000000009a
:1001b80080a140201000000000000000aca14020f9
:1001c8000800000000000000b4a140200800000062
:1001d80000000000b4a04020300000000000000033
:1001e800bca140200400000000000000c0a1402085
:1001f8000400000000000000c4a14020040000002a
:1002080001000000aaaaaaaac8a140200400000070
:10021800000000000000402000a0000000000000d6
:10022800cca140200400000000000000d0a1402024
:100238000400000000000000d4a1402004000000d9
:1002480000000000d8a140200400000000000000c9
:1002580000a040206400000000000000dca1402055
:100268000400000000000000e0a14020040000009d
:1002780000000000e4a1402004000000000000008d
:10028800e8a140200400000000000000eca140208c
:1002980004000000000000001ca140201400000021
:1002a8000000000030a14020140000000000000001
:1002b800f0a140200400000000000000f4a140204c
:1002c8000400000000000000f8a140200400000025
:1002d80000000000fca14020040000000000000015
:1002e80044a14020140000000000000000a24020ab
:1002f800040000000000000058a140201400000085
:10030800000000006ca14020140000000000000064
:1003180004a24020040000000000000008a24020c1
:1003280004000000000000000ca2402004000000af
:10033800000000009aa14020010000000000000019
:100348009ba14020010000000000000090a1402077
:100358000a0000000000000021a240200100000067
:100368000000000020a24020010000000000000062
:1003780010a24020040000000000000014a2402049
:10038800040000000000000018a240200400000043
:100398000000000064a040205000000000000000a1
:1003a8001ca2402004000000000000000000000023
:1003b800000000002222222222222222222222229d
:020000040000fa
:020000040040ba
:1003c8002de9f84f80460e4699469500284601f0db
:1003d8002ffa002800f0c1800746542001f028fabf
:1003e8000446002857d007632a46a521384601f05d
:1003f800b1fe276b002e54d0337884f8343053b1d3
:10040800334604f134010f3613f8012f01f8012f98
:100418000ab1b342f8d1002384f843300a9e042e6f
:1004280028bf0426e66266644ff0000bc4f848b0a3
:1004380004f1040a504601f0cbfe04f1180001f063
:10044800c7fe2461c6f10506a6616462c4f84cb013
:1004580084f850b0043d3d444a46414625f0070023
:1004680001f0d2fc20600b9b03b11c6001f06efd13
:100478003e4a1368013313603d4b1b68abb13d4bdb
:100488001b68bbb93a4b1b68da6ae36a9a4211d80f
:10049800374b1c600ee0384601f09efe4ff0ff30ef
:1004a8005de0002384f83430b8e7314b1c601368f2
:1004b800012b28d0304a136801331360e06a2f4ab1
:1004c8001168012383400b43136000eb8000514601
:1004d8002b4b03eb800001f0e4fd01f017fe254be8
:1004e8001b68002b3dd0224b1b68da6ae36a9a42ec
:1004f80039d2244b4ff080521a60bff34f8fbff3ad
:100508006f8f01202be01e4d284601f0bffd05f13d
:10051800140001f0bbfd05f1280001f0b7fd05f15d
:100528003c0001f0b3fd05f1500001f0affd164e9f
:10053800304601f0abfd154d284601f0a7fd1448e3
:1005480001f0a4fd134801f0a1fd134801f09efd40
:10055800124b1e60124b1d60ace74ff0ff30bde838
:10056800f88f0120fbe70120f9e700bfdca140205c
:10057800d0a1402000a24020e8a14020eca14020ca
:1005880000a0402004ed00e01ca1402030a1402044
:1005980044a140206ca1402058a14020d4a1402073
:0405a800d8a1402076
:020000040000fa
:020000040040ba
:1005ac0008b5504b9847504b9847eff3108172b6f3
:1005bc004e4ad2f8883043f47003c2f88830bff347
:1005cc004f8fbff36f8f01b962b6494b494a5a60de
:1005dc009a6812f0010ffbd0454bdb6813f4c07f17
:1005ec0013d0454b0c221a60414b444a5a609a680e
:1005fc0012f0010ffbd03e4b414a5a609a6812f040
:10060c00010ffbd03f4b404a1a60bff34f8fbff333
:10061c006f8f364cd4f8903223f00103c4f890322b
:10062c00d4f8943223f00103c4f89432bff34f8f03
:10063c00bff36f8f00f09cfe344b23f07f03a3605d
:10064c00334b984701f000fb636913f4003f12d160
:10065c00bff34f8fbff36f8f0022c4f85022bff34c
:10066c004f8fbff36f8f626942f400326261bff348
:10067c004f8fbff36f8f1d4b5b6913f4803f29d1f4
:10068c001a4b0022c3f88420bff34f8fd3f880306d
:10069c00c3f3c906c3f34e335a0143f6e07513484e
:1006ac0002ea0504334644ea8371c0f86012013b48
:1006bc00b3f1ff3ff7d1203a12f1200ff0d1bff385
:1006cc004f8f0a4a536943f480335361bff34f8f02
:1006dc00bff36f8f0f4b98470f4b984701f048fdb6
:1006ec00fee700bfdf214000df21400000ed00e00d
:1006fc00000c0e400d00005abca140200c08005a02
:10070c000c07005a00180e40010000a50000400024
:0c071c00d1194000df214000df21400027
:020000040000fa
:020000040040ba
:100728002de9f04184b0044601914ff00008464697
:100738004546504f49e0013ba36323684bb1236909
:100748005bb901f0e3fc4ff00108404604b0bde896
:10075800f08101f051fca060f1e704f1100000f015
:1007680049ff0028edd0434b4ff080521a60bff389
:100778004f8fbff36f8fe4e701f0c8fc4ff000081c
:10078800e3e702a801f060fc29e084f8445032e075
:1007980084f8455035e001f0d9fba06800f026fc4c
:1007a800804601f0b3fc3ce0204600f067fe00f014
:1007b80089fa09e0204600f061fe00f083fa20463d
:1007c80001f07afc002840d1012601f0bffba36ba1
:1007d800002bb0d1019b002bced0002ed1d001f040
:1007e80095fc01f0affc01f0b1fb94f844305bb22a
:1007f800b3f1ff3fc9d094f845305bb2b3f1ff3f86
:10080800c6d001f083fc01a902a801f0aff80028c6
:10081800d0d1204601f050fc0028c5d02368002b19
:10082800b9d0019904f1240001f0d8fb204600f06a
:1008380025fe00f047fa0028c6d14ff080533b60f0
:10084800bff34f8fbff36f8fbee7b8f1000f3ff4d0
:100858007caf01f07bfb616a19b1236b1968c1f1a8
:100868000501a06800f0cafd01f050fc4ff0000837
:080878006be700bf04ed00e096
:020000040000fa
:020000040040ba
:1008800038b5484b5b6913f0e0030fd1454b5b690a
:1008900013f0010f1cd1434b5b6913f0020f04d01e
:1008a000404b1b6913f0020f44d138bddbb23e4c04
:1008b00084f82d3001f096fa3a4be122da600023f9
:1008c00084f82c30636a002b69d0a06a9847dde772
:1008d000354b93f82c30002bddd03249324b4a692e
:1008e00012f0010f13d01a6ad86990420fd98a69a1
:1008f000c2f30802486810f4003f9c69186a00f1ce
:1009000001051d6214bf24f810202254e7e7264b8e
:100910001a6adb699a42bed3234b002283f82c204b
:10092000204ae121d1605b6a002bb4d01e4a906a54
:100930009847b0e71c4b1b7d002bb6d01a4b58686c
:100940001c68184b184a04e091684d1c9560615c66
:10095000d961596911f0020f0fd0916888420cd902
:10096000596811f4003fefd091684d1c956034f840
:100970001110c1f30801d961ebe70b4b9a685b6872
:100980009a4292d3084b00221a75064a0221d1607e
:10099000db68002b89d0044a1069984785e7014b32
:0c09a0005b6978e700800240b4a04020b2
:020000040000fa
:020000040040ba
:1009ac002de9f04784b00446884601921d464ff06d
:1009bc0000094e46434f39e02a464146204600f096
:1009cc0053fe636a73b938b13e4b4ff080521a60d4
:1009dc00bff34f8fbff36f8f01f096fb012004b074
:1009ec00bde8f08704f1240000f002fe0028f3d0eb
:1009fc00344b4ff080521a60bff34f8fbff36f8fa1
:100a0c00eae701f081fb0020e9e702a801f01afbfc
:100a1c001ae084f8446023e084f8456026e0204620
:100a2c0000f02afd00f04cf94ff0010901f08cfaae
:100a3c00a26be36b9a42bfd3022dbdd0019b002b5e
:100a4c00dfd0b9f1000fe0d001f05efb01f078fbd4
:100a5c0001f07afa94f844305bb2b3f1ff3fd8d08e
:100a6c0094f845305bb2b3f1ff3fd5d001f04cfbad
:100a7c0001a902a800f078ffe8b901f065fad4f8f2
:100a8c0038a0d4f83c9001f03ffbca45c7d101997e
:100a9c0004f1100001f0a0fa204600f0edfc00f08b
:100aac000ff90028c0d14ff080533b60bff34f8f3c
:100abc00bff36f8fb8e7204600f0defc00f000f9c2
:080acc0000208ce704ed00e0be
:020000040000fa
:020000040040ba
:100ad4002de9f047384b1b68002b67d1374b1f6853
:100ae40001371f60bfb1364b1b68bb4220d90025bc
:100af400344b1b68db6a03eb83039b00324ad358f5
:100b0400022b28bf0125314b1b68002b18bf012580
:100b14002846bde8f0872e4a11682e4b18681060ed
:100b240019602d4a13680133136001f085f9dae77f
:100b34000025dff89c80dff8a890dff88ca021e086
:100b44001f4b4ff0ff321a60d2e71d4a1360cfe704
:100b540004f1180001f0c4f9e06ad9f80020012377
:100b640083401343c9f8003000eb800031460aeba0
:100b7400800001f098fa134b1b68e26adb6a9a4220
:100b840028bf0125d8f800301b68002bd8d0d8f82e
:100b94000030db68dc6863689f42d6d3261d30468c
:100ba40001f09ef9a36a002bd2d1d5e70b4a136852
:100bb400013313600025abe7e4a1402004a24020e8
:100bc400f4a14020d0a1402000a0402008a2402051
:100bd400d4a14020d8a14020f8a14020fca140206d
:040be400eca1402020
:020000040000fa
:020000040040ba
:100be80010b5314b1c6d314b234043b12e4a136570
:100bf8002f4b1b681bb12e4a51682046984714f0aa
:100c0800010f0cd0284b01221a65d3f8a400294bf8
:100c18001b6823b1274a516800f07f00984714f0f9
:100c2800100f0cd0204b10221a65d3f8b400214bba
:100c38009b6823b11f4ad16800f07f00984714f4dd
:100c4800002f09d0184b4ff400221a65d3f89830ba
:100c580013b113f0010f1ed114f4006f09d0124b19
:100c68004ff400621a65144b1b6813b1124a50689e
:100c7800984714f4805f0dd00b4b4ff480521a65df
:100c8800d3f8f4000d4b1b6823b10c4a516800f0ef
:100c98003f00984710bd0a4b1b68002bdcd0084a60
:100ca800516800209847d7e700400340eee7f7ff78
:100cb8009ca1402080a14020b4a14020aca14020ac
:040cc800a4a1402083
:020000040000fa
:020000040040ba
:100ccc002de9f04101f040f92d4b1a68013a1a60f8
:100cdc001b68002b4dd12b4b1b680bb9002449e032
:100cec000024294e294fdff8b880336803b3f3682a
:100cfc00dc6804f1180001f0eff8251d284601f01e
:100d0c00ebf8e06a3a680123834013433b6000eb45
:100d1c008000294608eb800001f0c1f91c4b1b68d0
:100d2c00e26adb6a9a42e0d31a4b01221a60dce7d2
:100d3c000cb101f07df8184b1c686cb1154e0125f7
:100d4c0001e0013c05d0fff7bffe0028f9d035606b
:100d5c00f7e7114b00221a600e4b1c6854b10f4b75
:100d6c004ff080521a60bff34f8fbff36f8f012487
:100d7c0000e0002401f0c8f92046bde8f08100bf76
:100d8c00e4a14020dca1402044a14020eca1402063
:100d9c00d0a1402008a24020fca1402004ed00e09e
:040dac0000a0402043
:020000040000fa
:020000040040ba
:100db000314b0022c3f81421d3f8141141f44161de
:100dc000c3f814112d494ff400134b606ff4001356
:100dd0000b604ff0ff334b650b66c1f89030c1f8e4
:100de000a0300a614b618a63c1f8182101f50071d6
:100df00010200867486748606ff0100008604b6576
:100e00000b66c1f89030c1f8a0300a614b618a636b
:100e1000c1f8182101f500710a674ff4a040486736
:100e200048606ff4a04008604b650b66c1f89030d5
:100e3000c1f8a0300a614b618a63c1f8182101f53d
:100e400000710b604b650b66c1f89030c1f8a030a3
:100e50000a614b618a63c1f8182101f500710b60ca
:100e60004b650b66c1f89030c1f8a0300a614b6148
:100e70008a63c1f81821704700800840000e0e40b8
:020000040000fa
:020000040040ba
:100e800038b5044601f066f8002c37d0251d2846f9
:100e900001f028f870b9e26a02eb82039b00224954
:100ea000cb583bb921480368012101fa02f223ea39
:100eb00002020260a36a1bb104f1180001f012f8eb
:100ec0001b4a1368013313601a4b1b68a34218d0e6
:100ed000194a1368013b1360206b01f081f9204629
:100ee00001f07ef900f0aaff01f014f9134b1b6822
:100ef0001bb1104b1b68a3420cd038bd0d4b1c68b6
:100f0000c4e729460e4801f0d0f80e4a13680133b1
:100f10001360e9e70c4b4ff080521a60bff34f8f1c
:100f2000bff36f8fe9e700bf00a04020eca1402095
:100f3000e8a14020d0a14020dca1402000a2402018
:0c0f40006ca14020e0a1402004ed00e086
:020000040000fa
:020000040040ba
:100f4c00244b1b681bb1244b01221a60704710b54f
:100f5c00214b00221a60214b1b681b6b1a68b2f1e3
:100f6c00a53f03d15a68b2f1a53f23d01b4b18689b
:100f7c001968343101f072f8194b1b68b3fa83f31a
:100f8c00dbb2c3f11f03174a9900c81802eb8000ab
:100f9c00446864684460194402460832944212d092
:100fac0003eb83030f4a02eb83035b68da680b4b9a
:100fbc001a6010bd9a68b2f1a53fd7d1db68b3f1c6
:100fcc00a53fd3d1d8e760680a46064901eb8202f7
:100fdc005060e5e7e4a1402008a24020d0a14020c9
:080fec00eca1402000a0402010
:020000040000fa
:020000040040ba
:100ff400002849d038b50446c26a24490968c96a38
:101004008a4238d28169002905db20490968c96a06
:10101400c1f10501816102eb82021d4901eb8202eb
:101024006169914205d0194a1268d26ae2620120cc
:1010340029e0251d284600f053ff38b915490b68ef
:10104400e06a0122824023ea02030b600f4b1b6813
:10105400d86ae0620f4a1168012404fa00f30b43d2
:10106400136000eb80002946094b03eb800001f07c
:101074001af8204607e0054a1268406cd36a984281
:101084002cbf0020012038bd00207047d0a1402093
:0810940000a04020eca1402067
:020000040000fa
:020000040040ba
:10109c00224b01229a611a46936913f0010ffbd07f
:1010ac001e4b9a6942f002029a6141f26602da60c2
:1010bc001b4ada6140f27772c3f8bc204ff0ff3262
:1010cc00c3f89820c3f89c200722c3f8c820282214
:1010dc00c3f880206ff06042c3f8902001221a629e
:1010ec009a6942f440729a619a6922f001029a61fb
:1010fc001a46936913f0010ffbd1084a002393653c
:10110c000121d16507495165074a1360536093600b
:10111c00d360136153619361704700bf004003407b
:0c112c00040d0408ddddcb3f00a14020d5
:020000040000fa
:020000040040ba
:10113800f8b504460f464ff0ff31204b1868fff70b
:10114800effa1f4b1b784bb9002400231a461946a7
:101158001a480068fff726fc2046f8bd184b002205
:101168001a702146174800f015fd174b1b788bb9ec
:1011780013240a26144d304600f09efd2b784bb9f7
:10118800631e13f0ff04f6d10e49384601f012f839
:101198000224dae700f0dafe0a4c2146384601f06c
:1011a80009f800f0b3ff234604f10a02202103f8ee
:1011b800011b9342fbd10124c7e700bf0ca24020ca
:0c11c80021a2402090a140209ba14020cb
:020000040000fa
:020000040040ba
:1011d40070b504460e461c4b1d681c4b1868043041
:1011e40000f07efe48b9194b1a6819490b68d06a99
:1011f4000122824023ea02030b60b4f1ff3f00d1d5
:101204006eb92c44114b1b685c60a5420ed9114b7e
:1012140018680e4b1968043100f036fd70bd0b4b95
:10122400196804310c4800f03efff7e70b4b1868cf
:10123400064b1968043100f027fd094b1b68a342d3
:10124400ecd9074b1c60e9e704a24020d0a1402060
:10125400eca14020d8a1402058a14020d4a1402096
:04126400f4a1402091
:020000040000fa
:020000040040ba
:10126800204b214a9a629a6e12f0020ffbd01d4a57
:10127800136b23f07003136313469a6e12f0080f72
:10128800fbd0184a136b23f4407343f48073136341
:1012980013469a6e12f0080ffbd0124a136b23f014
:1012a800030343f00203136313469a6e12f0080f08
:1012b800fbd00c4b4ff440525a6000211965242191
:1012c80059651a601a46936e03f44053b3f5405fac
:1012d800f9d1044b4ff457321a612022c3f8002188
:0c12e800704700bf00060e40013f1820b8
:020000040000fa
:020000040040ba
:1012f40000b585b01b4c04f164061b4d13e01b4b79
:1013040001930423009300234ff4007204f14c0171
:101314001748fff757f813e0304600f049fd40f254
:10132400dc5000f0cbfc00238df80c3003a9012025
:10133400fff700ff9df80c30202bedd0312bded0d1
:101344009df80c30322bead10a4b0193042300930d
:1013540000234ff4007204f158012846fff732f8d5
:10136400dde700bf80154000c11f400010a24020ef
:081374009d1f400014a240205f
:020000040000fa
:020000040040ba
:10137c001e4b1f4a9342f0b438bf002103d203f82e
:10138c00011b9342fbd11b4ad2e9000150ea010335
:10139c004ff0000610d09468034602f10c076cb9ac
:1013ac0021b1014403f8016b9942fbd13a46d2e9d1
:1013bc00000150ea0103eed1f0bc704759b101f1c4
:1013cc000c030c38801a1a443b461c1813f8015baa
:1013dc0025709342f9d111f0030318bf012303ebdd
:1013ec00910107eb81073a46e1e700bf000040207e
:0813fc000000402088014000c0
:020000040000fa
:020000040040ba
:10140400002838d038b50446426c914238bf1146a2
:10141400c26a8a4202d0806c012800d038bde162e1
:10142400a069002802dbc1f10501a16102eb82027f
:10143400114901eb820261699142efd1251d2846d1
:1014440000f04efd38b90d490b68e06a0122824074
:1014540023ea02030b60e06a084a1168012383400f
:101464000b43136000eb80002946034b03eb800021
:1014740000f019fed2e7704700a04020eca1402004
:020000040000fa
:020000040040ba
:1014840070b5054600f064fd95f8454064b2002c43
:1014940011dd6b6a7bb105f1240606e000f080fee5
:1014a400013c64b23cb16b6a2bb1304600f0a4f845
:1014b4000028f5d0f2e7ff2385f8453000f028fe38
:1014c40000f046fd95f8444064b2002c11dd2b6910
:1014d4007bb105f1100606e000f062fe013c64b247
:1014e4003cb12b692bb1304600f086f80028f5d0ca
:0e14f400f2e7ff2385f8443000f00afe70bdd9
:020000040000fa
:020000040040ba
:02150200fee702
:020000040000fa
:020000040040ba
:10150400002835d038b50446826c013a8264c06a3a
:10151400616c884200d00ab1002038bd251d2846e0
:1015240000f0defc70b9e26a02eb82039b00114911
:10153400cb583bb910480368012101fa02f223eaaf
:1015440002020260606ce062c0f10503a3610a4a12
:101554001168012404fa00f30b43136000eb8000cc
:101564002946044b03eb800000f09dfd2046d4e7a0
:0c1574000020704700a04020eca14020a7
:020000040000fa
:020000040040ba
:101580000d0a46696e2074617265612063616e2088
:10159000310000000d0a46696e2074617265612099
:1015a00063616e20320000004e6f207365207075fd
:1015b000646f20637265617220656c20626c6f716c
:1015c00075656f206d757465780000005441524553
:1015d000415f43616e31000054415245415f4361b8
:1015e0006e3200000d0a4573706572616e646f2083
:0c15f0007465636c612e2e2e000000bf9d
:020000040000fa
:020000040040ba
:1015fc0038b5c368dc6804f11805284600f06cfcab
:10160c00134b1b68e3b9251d284600f065fce06a06
:10161c00104a1168012383400b43136000eb8000d8
:10162c0029460d4b03eb800000f039fd0b4b1b687a
:10163c00e26adb6a9a4208d90120094b186005e07e
:10164c002946084800f02bfdf0e7002038bd00bf0c
:10165c00e4a14020eca1402000a04020d0a14020db
:08166c0008a2402044a1402027
:020000040000fa
:020000040040ba
:1016740070b504461646856b026c5ab903681bb1f3
:1016840000200135a56370bd8068fff739ff002392
:10169400a360f6e76eb9406800f01bfd6368226c36
:1016a40013446360a268934219d32368636030468d
:1016b400e7e7c06800f00dfd226c5242e368134472
:1016c400e36021688b4202d2a3681a44e2600db140
:1016d400022e01d00020d4e7013d0020d1e730469e
:0216e400cfe74e
:020000040000fa
:020000040040ba
:0216e600fee71d
:020000040000fa
:020000040040ba
:1016e80000282dd030b40446174b1b7d53bb164b36
:1016f8001860596000229a6001221a75134b124a29
:1017080004e09068451c9560205cd861586910f029
:10171800020f0fd0906888420cd2586810f4003f2e
:10172800efd09068451c956034f81000c0f30800ad
:10173800d861ebe7054b02229a60012030bc704764
:10174800002070470020f9e7b4a040200080024044
:020000040000fa
:020000040040ba
:1017580038b504460d4600f0f9fb2268216ce36bae
:1017680003fb01f3d018a0600020a06362605b1a3d
:101778001344e360ff2384f8443084f84530a5b966
:1017880023691bb900f0c2fc012038bd04f1100028
:10179800fff730ff0028f5d0084b4ff080521a6051
:1017a800bff34f8fbff36f8fece704f1100000f029
:1017b8006dfc04f1240000f069fce3e704ed00e0af
:020000040000fa
:020000040040ba
:1017c80080b5164c164f174edff860802368bbb102
:1017d80000f0bcfbfb68dd68281d00f07ffb336868
:1017e800013b33602368013b236000f08ffc286bca
:1017f80000f0f2fc284600f0effc2368002be7d14c
:10180800094b1b68012be1d94ff08053c8f8003011
:10181800bff34f8fbff36f8fd8e700bfe0a1402021
:101828006ca14020dca1402000a0402004ed00e095
:020000040000fa
:020000040040ba
:1018380038b5044610f0070f02d020f0070408342a
:1018480000f080fc124b1b687bb1124b1b681c44d8
:1018580049f6f77294420ed8a3420fd3fff732fa33
:1018680000f009fc0025284638bd094a0a4b23f038
:1018780007031360e9e7fff725faf1e7044a15685b
:101888001d44044b1c60fff71dfa002debd1e7e760
:0c189800c8a14020cca140200800402046
:020000040000fa
:020000040040ba
:1018a40000b583b0124b01930023009380221149a9
:1018b4001148fef787fd012802d003b05df804fb50
:1018c4004ff0200372b683f31188bff36f8fbff319
:1018d4004f8f62b6094b4ff0ff321a60084b01225a
:1018e4001a60084b00221a6000f0f2f8e5e700bf26
:1018f400f0a14020d0214000c9174000f4a14020ad
:0819040000a2402004a24020d3
:020000040000fa
:020000040040ba
:02190c00fee7f4
:020000040000fa
:020000040040ba
:02190e00fee7f2
:020000040000fa
:020000040040ba
:10191000eff30980bff36f8f154b1a681ef0100f9d
:1019200008bf20ed108a20e9f04f10602de9090072
:101930004ff0200072b680f31188bff34f8fbff3d2
:101940006f8f62b6fff702fb4ff0000080f3118843
:1019500009bc19680868b0e8f04f1ef0100f08bf06
:10196000b0ec108a80f30988bff36f8f704700bf17
:04197000d0a14020a2
:020000040000fa
:020000040040ba
:1019740070b504460d4600f0ebfa124b1a682b685a
:10198400b3f1ff3f16d061680f48006826688642ad
:1019940001d0914213d9501a834203d800232b60fb
:1019a400012408e09b1a0b442b60204600f04efbf8
:1019b400002400e0002400f0abfb204670bd0124ad
:0c19c400f9e700bf04a24020f8a1402079
:020000040000fa
:020000040040ba
:1019d0000e4a38b5002313600d4a0e4c13600e4ab0
:1019e0000e4d13600e4a13600e4a13600e4a536286
:1019f00013610123936000f0f4fb00f0f2fbac42b2
:101a000000d338bd54f8043b9847f8e71ca24020a7
:101a100070a04020740140006ca04020780140007c
:0c1a200064a0402068a0402074a040207a
:020000040000fa
:020000040040ba
:101a2c00124bd96821f4e0610904090c104a0a43ed
:101a3c00da60bff35f8f62b6e02183f823100d4aa2
:101a4c0082f80e134ff48040106082f82513202189
:101a5c0051605a6a42f480225a625a6942f010026a
:101a6c005a615a6a42f400325a62704700ed00e043
:081a7c000000fa0500e100e0a2
:020000040000fa
:020000040040ba
:101a840008b5012000f076fa0c4b186080b10021f3
:101a94000b4800f079fb00210a4800f07bfb0a4b5d
:101aa40003f10a01202203f8012b8b42fbd108bd6c
:101ab40021210648fff716fee9e700bf0ca24020eb
:101ac400b1214000691e400090a140202c1c400020
:020000040000fa
:020000040040ba
:101ad40010b50e4b1a6842f460021a601a6842f09c
:101ae40060421a6000f0e8f90024094b1c6000f021
:101af40005fb084a136843f04043136000f0c8f93b
:101b0400fff722fa00f0fff9204610bd20ed00e0b7
:081b1400c4a1402034ef00e001
:020000040000fa
:020000040040ba
:101b1c0010b5054c227832b9044b13b10448aff31d
:101b2c0000800123237010bde4a0402000000000c1
:101b3c000000000008b5034b1bb103490348aff389
:101b4c00008008bd00000000e8a04020000000005c
:020000040000fa
:020000040040ba
:101b5c000d4b4ff486721a6050221a604ff40c62cf
:101b6c005a6051221a62094b00229a61da611a6298
:101b7c0083f82c205a621a605a609a601a75da60df
:101b8c0083f82d20704700bf00800240b4a0402095
:020000040000fa
:020000040040ba
:101b9c00c0b138b505460c4a92f82c200ab1002089
:101bac0038bd0c4600f018f9074b002283f82d20a5
:101bbc009d61dc611a62012083f82c00034be12249
:101bcc009a60ede700207047b4a0402000800240ee
:020000040000fa
:020000040040ba
:101bdc0038b505460b4c4ff0ff312068fef79efde3
:101bec00284600f0bdfa01462846fff777fd022192
:101bfc000548fff773fd00231a4619462068fef7c7
:0c1c0c00cffe38bd0ca24020501c400050
:020000040000fa
:020000040040ba
:101c18004572726f7220616c206c65657220555335
:101c2800415254004e6f207365207075646f2063b5
:101c38007265617220656c20626c6f7175656f20ca
:0c1c48006d757465780000000d0a000046
:020000040000fa
:020000040040ba
:101c5400094b00225a60094ada60094a1a610949a3
:101c64004a6a42f480324a6205225a60bff34f8fb7
:101c7400bff36f8f704700bf90ed00e010f0452078
:081c84001700081300ed00e059
:020000040000fa
:020000040040ba
:101c8c0030b40d68b5f1ff3f02d000f1080202e05c
:101c9c00026904e01a4653681c68ac42fad95368ce
:101cac004b6099608a60516008610368013303607e
:041cbc0030bc704781
:020000040000fa
:020000040040ba
:101cc00010b540b90a4b4ff080521a60bff34f8fe6
:101cd000bff36f8f10bd044600f038fa0021204694
:101ce000fff778fafef7f2ff0028f3d1eae700bf2a
:041cf00004ed00e01f
:020000040000fa
:020000040040ba
:101cf40008b500f021fafff7b5fafff757f84ff4eb
:101d04000043064a5360b03a5360fff7c5f9fff742
:101d140023ff00f081f9fff787fe08bd00190e408c
:020000040000fa
:020000040040ba
:101d240000b583b0074b01930123009300234ff4c4
:101d3400806205490548fef745fbfff7b1fd03b096
:101d44005df804fbc0a1402038204000c9214000b8
:020000040000fa
:020000040040ba
:101d540008b54ff0200372b683f31188bff36f8f79
:101d6400bff34f8f62b6fef7b3fe18b1034b4ff0cb
:101d740080521a60002383f3118808bd04ed00e04b
:020000040000fa
:020000040040ba
:101d840070b506460d4601fb00f04830fff752fde2
:101d9400044648b155b100f148032360e663256465
:101da40001212046fff7d6fc204670bd0346f4e728
:020000040000fa
:020000040040ba
:101db40038b50546094c4ff0ff312068fef7b2fcf8
:101dc400284600f0d1f901462846fff78bfc002392
:101dd4001a4619462068fef7e7fd38bd0ca24020dc
:020000040000fa
:020000040040ba
:101de400094b5b6913f0e00f0dd0074b4ff4807281
:101df4001a605b6913f0010f05d0034b9a695a69a5
:0c1e040012f0010ffad17047008002407c
:020000040000fa
:020000040040ba
:101e10004ff0807340f8043c21f0010140f8081ca9
:101e2000054b40f80c3c40f8202c6ff0020340f8c2
:0c1e3000243c4438704700bf0b1f4000ea
:020000040000fa
:020000040040ba
:101e3c00084b1b681b6823b9074b4ff0ff321a6025
:101e4c007047044b1b68db68db685a68024b1a60ee
:0c1e5c00704700bfd4a14020f4a140203a
:020000040000fa
:020000040040ba
:101e680008b500f03ff918b9054b01221a7008bdf2
:101e7800044b01221a7014210348fff731fcf6e7de
:0c1e88009ba140209aa14020181c4000a3
:020000040000fa
:020000040040ba
:101e940008480068006880f308884ff0000080f369
:101ea400148862b661b6bff34f8fbff36f8f00df44
:081eb40000bf000008ed00e092
:020000040000fa
:020000040040ba
:101ebc00054b00221a6005490a60054a0549116064
:101ecc0007221a60704700bf10e000e018e000e045
:081edc0014e000e0df930400b4
:020000040000fa
:020000040040ba
:101ee4000369416882688a60416851605a68824225
:101ef40006d0002202611a68013a1a601868704715
:061f040082685a60f5e757
:020000040000fa
:020000040040ba
:101f0a0082b0002301934ff0200372b683f3118845
:101f1a00bff36f8fbff34f8f62b6019b002bfcd0cc
:041f2a0002b070474a
:020000040000fa
:020000040040ba
:021f2e00fee7cc
:020000040000fa
:020000040040ba
:101f3000074b19680868b0e8f04f80f30988bff3d1
:101f40006f8f4ff0000080f311887047aff300806f
:041f5000d0a14020bc
:020000040000fa
:020000040040ba
:101f54004ff0200372b683f31188bff36f8fbff382
:101f64004f8f62b6024a136801331360704700bf93
:041f7400c4a14020a4
:020000040000fa
:020000040040ba
:101f780010b5024600210120fff700ff044638b1e2
:101f8800002181600160c1600b460a46fef70afd28
:041f9800204610bd12
:020000040000fa
:020000040040ba
:101f9c0008b50648fff708ff054b186820b1fef797
:101fac0069ff034b00221a6008bd00bf801540007a
:041fbc0010a240200f
:020000040000fa
:020000040040ba
:101fc00008b50648fff7f6fe054b186820b1fef786
:101fd00057ff034b00221a6008bd00bf9415400054
:041fe00014a24020e7
:020000040000fa
:020000040040ba
:101fe40010b50c46044b19681831fff74dfe01215a
:0c1ff4002046fff7edf810bdd0a1402002
:020000040000fa
:020000040040ba
:10200000054b1b6823b1044b1a68936c013393642e
:0c201000014b1868704700bfd0a14020b1
:020000040000fa
:020000040040ba
:10201c0008b5044b00221a70fff72efd0248fff79b
:0c202c00d7fd08bd20a24020a8154000f0
:020000040000fa
:020000040040ba
:1020380054415245415f5052494e434950414c5fcb
:082048005461736b730000bfcb
:020000040000fa
:020000040040ba
:10205000034b1b680360034b1b684360704700bf62
:08206000f8a1402004a2402079
:020000040000fa
:020000040040ba
:102068004ff0200372b683f31188bff36f8fbff36d
:062078004f8f62b6fee787
:020000040000fa
:020000040040ba
:10207e004ff0200372b683f31188bff36f8fbff357
:06208e004f8f62b6fee771
:020000040000fa
:020000040040ba
:1020940000f1080343604ff0ff328260c3600361c4
:0620a400002303607047f9
:020000040000fa
:020000040040ba
:1020aa0043684b609a688a60516099600861036866
:0620ba00013303607047d2
:020000040000fa
:020000040040ba
:1020c00010b50446fff746ffa46b00f023f8b4fafe
:0620d00084f0400910bd80
:020000040000fa
:020000040040ba
:1020d60010b5431e0a44914200d110bd11f8014bc0
:0620e60003f8014ff7e7cb
:020000040000fa
:020000040040ba
:1020ec00034b93f82d00002283f82d20704700bf7e
:0420fc00b4a040202c
:020000040000fa
:020000040040ba
:10210000dff80c00016841f47001016070470000c5
:0421100088ed00e076
:020000040000fa
:020000040040ba
:10211400034a1368013b13600bb983f311887047ba
:04212400c4a14020f2
:020000040000fa
:020000040040ba
:10212800034611f8012b184603f8012b002af8d1b1
:022138007047ee
:020000040000fa
:020000040040ba
:02213a00fee7be
:020000040000fa
:020000040040ba
:10213c00014b024a1a607047000c0e400006000466
:020000040000fa
:020000040040ba
:10214c00024a136801331360704700bfe4a14020ba
:020000040000fa
:020000040040ba
:10215c0002440346934200d1704703f8011bf9e790
:020000040000fa
:020000040040ba
:10216c0003461a46013311780029fad1101a704728
:020000040000fa
:020000040040ba
:0e217c0008b50020fff7b8fdfff7cefdfce729
:020000040000fa
:020000040040ba
:02218a00fee76e
:020000040000fa
:020000040040ba
:0c218c00014bd86019617047b4a04020de
:020000040000fa
:020000040040ba
:0c219800014b586299627047b4a04020cf
:020000040000fa
:020000040040ba
:0c21a400014b01221a60704708a2402085
:020000040000fa
:020000040040ba
:0c21b000014b01221a70704721a2402050
:020000040000fa
:020000040040ba
:0c21bc0010b50446fff7b2ff204610bd2e
:020000040000fa
:020000040040ba
:0821c80008b5fff793f8fce7ee
:020000040000fa
:020000040040ba
:0821d00049444c45000000bf2a
:020000040000fa
:020000040040ba
:0621d800002303617047c3
:020000040000fa
:020000040040ba
:0221de00704748
:020000040000fa
:020000040040ba
:0221e000704746
:020000040000fa
:020000040040ba
:0221e200704744
:020000040000fa
:02000004d0002a
:0400000002000000fa
:00000001FF
