:020000040000fa
:020000040040ba
:10000000f8ef4520551840000f3b40003f3c4000b2
:10001000cb424000fb434000574540000000000039
:10002000000000000000000000000000d14040007f
:10003000eb4140000000000001364000153e40004a
:100040009b3940009b3940009b3940009b39400060
:100050009b3940009b3940009b3940009b39400050
:100060009b394000000000009b3940009b39400054
:100070009b3940009b394000d91640009b39400015
:100080009b3940009b3940009b3940009b39400020
:100090009b3940009b3940009b3940009b39400010
:1000a0009b3940009b3940009b3940009b39400000
:1000b0009b3940009b3940009b3940009b394000f0
:1000c0009b3940009b3940009b3940009b394000e0
:1000d0009b394000a52040009b3940009b394000df
:1000e0009b3940009b3940009b3940009b394000c0
:1000f0009b3940009b3940009b3940009b394000b0
:100100009b3940009b3940009b3940009b3940009f
:100110009b3940009b3940000000000000000000b7
:100120009b3940009b3940009b3940009b3940007f
:100130009b3940009b394000000000009b39400083
:100140009b3940009b3940009b3940009b3940005f
:100150009b3940009b3940009b3940009b3940004f
:080160009b3940009b3940006f
:020000040000fa
:020000040040ba
:10016800f8b500bff8bc08bc9e467047353b400058
:10017800f8b500bff8bc08bc9e467047113b40006c
:020000040000fa
:020000040040ba
:08018800080f00000100000057
:020000040000fa
:020000040040ba
:10019000b4f445201c0000000000000060f545207c
:1001a0000800000000000000d0f445201c00000002
:1001b0000000000068f54520080000000000000075
:1001c00050f54520100000000000000070f54520ab
:1001d000080000000000000078f54520080000003d
:1001e0000000000040f145208000000000000000f9
:1001f000c0f14520800000000000000014f44520fc
:10020000400000000000000090f5452004000000c0
:100210000000000094f545200400000000000000ec
:1002200098f545200400000001000000aaaaaaaa2f
:100230009cf5452004000000000000000000402064
:1002400000a0000000000000a0f545200400000010
:1002500000000000a4f5452004000000000000009c
:10026000a8f545200400000000000000acf5452082
:10027000040000000000000040f24520640000007f
:1002800000000000b0f54520040000000000000060
:10029000b4f545200400000000000000b8f545203a
:1002a0000400000000000000bcf545200400000030
:1002b00000000000c0f54520040000000000000020
:1002c000ecf44520140000000000000000f545207b
:1002d0001400000000000000c4f5452004000000e8
:1002e00000000000c8f545200400000000000000e8
:1002f000ccf545200400000000000000d0f54520aa
:10030000040000000000000014f545201400000067
:1003100000000000d4f545200400000000000000ab
:1003200028f5452014000000000000003cf54520a1
:100330001400000000000000d8f545200400000073
:1003400000000000dcf54520040000000000000073
:10035000e0f54520040000000000000005f64520ff
:10036000010000000000000004f64520010000002c
:1003700000000000e4f5452004000000000000003b
:10038000e8f545200400000000000000f4f24520dc
:1003900048000000000000003cf345204800000039
:1003a0000000000084f34520480000000000000029
:1003b000ccf345204800000000000000ecf545208b
:1003c000040000000000000006f6452001000000c7
:1003d0000100000005000000f0f5452004000000c9
:1003e0000000000007f645200100000000000000aa
:1003f00008f64520010000000000000080f54520bf
:10040000080000000000000054f4452040000000f7
:1004100000000000f4f5452004000000000000008a
:1004200009f6452001000000000000000af6452002
:10043000010000000000000000f045204001000025
:1004400001000000000000000000000000000000ab
:10045000000000000000000000000000000000009c
:10046000000000000000000000000000000000008c
:10047000000000000000000000000000000000007c
:10048000000000000000000000000000000000006c
:10049000000000000000000000000000000000005c
:1004a000000000000000000000000000000000004c
:1004b000000000000000000000000000000000003c
:1004c000000000000000000000000000000000002c
:1004d000000000000000000000000000000000001c
:1004e000000000000000000000000000000000000c
:1004f00000000000000000000000000000000000fc
:1005000000000000000000000000000000000000eb
:1005100000000000000000000000000000000000db
:1005200000000000000000000000000000000000cb
:1005300000000000000000000000000000000000bb
:1005400000000000000000000000000000000000ab
:10055000000000000000000000000000000000009b
:10056000000000000000000000000000000000008b
:10057000000000000000000000000000000000007b
:1005800000000000f8f54520040000000000000015
:10059000a4f245205000000000000000fcf54520ba
:1005a000040000000000000094f44520200000003a
:1005b0000100000001000000030000000000000036
:1005c000000000000000000000000000000000002b
:1005d00088f5452088f5452008000000000000004f
:1005e00000f64520040000000000000000000000ac
:1005f0000000000022222222222222222222222263
:020000040000fa
:020000040040ba
:100600002de9f04f2ded0c8b1d4692ed008bd1e9bd
:100610000083b5eec08b8db0f1ee10fa03930b6939
:100620000790d1f808900493cc6807d418f0040f11
:1006300035d118f0080734d0202302e02d23b1ee85
:10064000488b237009f1ff36012718ee901adff866
:1006500078b321f0004318ee102a4ff0000a5b45f2
:1006600008bf524504eb0700a5f141011bd1192930
:1006700004eb070094bfd049d04903f049ffcf48ad
:1006800003f0f4fecdf8008002464b462146079861
:1006900002f093fc0db0bdec0c8bbde8f08f2b236a
:1006a000cfe74e46d1e79b4508bf924507d21929af
:1006b00094bfc349c34903f02bffc248e0e730228f
:1006c0001a2907f101030270b5ee408b34bf58229e
:1006d0007822f1ee10fae254b7ee009b07f1020720
:1006e000a6f102064ff0000a40f0e880b0ee49bbe8
:1006f000b0ee48cb039b9fedaadb002bacbf9b4623
:100700004ff0180b0025b0ee4dab8cee0b0b0691a5
:1007100001f0c2ff6b1c0593039b00ee4bcb002b3b
:100720002bee0dbb069904dab5ee40cbf1ee10fad4
:1007300005d0ab4500f3e5800bf101030593b2ee64
:10074000007b2bee077bb4eec7cbf1ee10fa00f185
:10075000da80b4ee47cbf1ee10fa09d1bdeec00b52
:100760009fed916b10ee103a13f0010f06fe077b20
:1007700038ee078b18ee900adff84cc218ee102afc
:1007800020f000434ff0000b634508bf5a453ff48b
:100790006eaf049a4ff0000b053a3d46cdf818b005
:1007a0005b460992099aaa421ddd88ee090b0a935d
:1007b000089101f071fffdeec07bb0ee40bb17ee7b
:1007c000900a08990a9b002840f0a080002b00f0b6
:1007d0009d800bf1010b059a0bee498b01339a4278
:1007e00029ee0a9bded1069bdbb96319bbf1000f32
:1007f00000f0ec80039a002a40f3e88018f0010f23
:1008000040f0e4802e221a700beb050222443020c7
:1008100003f8010f9342fbd15d446fea0b0b0135e6
:100820005e4463190393049b04980022013b9245a4
:100830006255b8bfcaf1000ae254c0f1020bb8bf5a
:1008400001224ff00a0cbaf1000f40f096800beb3a
:10085000030ebef1010f00f09080002a03f1ff3c6f
:1008600014bf2d222b22023b1a2904f80c2034bf7e
:10087000502270229d4204eb0301e25402da0398f5
:1008800003f046fe08f00303022b11d1b51e002d24
:100890000edd204603f0eafd013e2044031b9f428b
:1008a00077dd2a463021e01903f0d8fd4ff000092a
:1008b0002046e5e60af1010ab0ee479b39ee097bd6
:1008c000b4eec78bf1ee10faf4d5b6ee007bb0eec5
:1008d000475b9fed376bb4eec98bf1ee10fa7ff5f5
:1008e00005af29ee074bb5ee404bf1ee10fa04bf11
:1008f00029ee069b28ee068b29ee059b0af1ff3aae
:10090000e9e7059d01e79fed287b31e7069a32b9bb
:100910002bb12e2262550122013e01350692089527
:1009200004eb050c5a4604e04ff0300e0cf801ebd6
:10093000013a002af8d10928089a05f1010506f1c3
:10094000ff36d4bf3030573019295d445a44a6ebe6
:100950000b060ed840f0200cacf1610cbcf1190f65
:1009600007d8cde90a32089103f0a7fddde90a3284
:100970000899a0544ff0000b2de7bafbfcfe013b99
:100980000cfb1eaa0af1300a04f803a0013ef2464d
:1009900059e710f80139835580e700bfaff30080b5
:1009a000000000000000b03f000000000000000058
:1009b00000000000000050437c44400080444000a0
:1009c00084444000884440000000f07f18f0100f7d
:0c09d0003ff427af2e2201351a7022e7f9
:020000040000fa
:020000040040ba
:0409dc000020704740
:020000040000fa
:020000040040ba
:1009e0002de9f04f2ded0a8b92ed00ab8fb0b5eef7
:1009f000c0ab05938b680293f1ee10fa0b69079078
:100a00008846d1e900760893cd6807d4790737d4b2
:100a100017f00803039335d0202302e02d23b1ee15
:100a20004aab2b70029b03f1ff39012303931aeeab
:100a3000903adff858b323f000411aee100a039bf6
:100a40004ff0000a59452b4408bf504504931cd170
:100a5000059b0498413b192b94bfc749c74903f034
:100a600057fdc64803f002fd00970246029b079817
:100a7000294602f0a2fa0fb0bdec0a8bbde8f08f58
:100a80002b23cee7ddf80890d1e78b4508bf8245e0
:100a90000ad2059b0498413b192b94bfb849b94928
:100aa00003f036fdb748dde7b5ee40abf1ee10fae6
:100ab000b2ee04cbb7ee009b4ff0000416d10598c0
:100ac00003f0f4fc002ec0b2c0f2628167282ad184
:100ad000002e08bf0126231d02dbb442c0f239817b
:100ae0004ff0650a2fe00134b0ee479b29ee0c7bf6
:100af000b4eeca7bf1ee10faf5dd0023a24a9fedb9
:100b00009a7b0ae0944205da23b92aee07ab29ee74
:100b1000079b0123013c89ee0c9bb4eec9abf1eebf
:100b200010faefd4cbe78246baf1660f06f1010660
:100b300009d1002c02dab7ee009b0024672818bf09
:100b400036194ff0660a4ff0000bb0ee498bb0ee4d
:100b50004abb8bee080b069001f09efd0bf1010bda
:100b6000fdeec07b5e4590ee08bb17ee903ab1ee0d
:100b70004bbb88ee0c8b0698ebd1b1ee047b28eed4
:100b8000078bb4eec8bbf1ee10fa7fd4b4ee48bbcd
:100b9000f1ee10fa05d19fed766b13f0010f06fe12
:100ba000088b3aee088b29ee0cabb4eec8abf1ee35
:100bb00010fa6ed8baf1660f04f101046bd1013658
:100bc000a346abeb06030a93002107f01003039e34
:100bd00006910b930a9b09965b4504d0d8f8103018
:100be000053bb3425ed8069b2bb9fa0641bf099a72
:100bf0002e23ab5401360022baf1650f05eb060037
:100c0000aa552bd1089b0899013b9442ea54c1f1a3
:100c1000030ebcbf644201220a21002c40f08a80ee
:100c20000eeb030cbcf1000f00f38480002a03f1eb
:100c3000ff3114bf2d222b226a54059a413a023b00
:100c4000192a98bf4ff0450a9e4205eb030105f8ab
:100c500003a0a9f1020901da03f05afc07f003032b
:100c6000022b11d1b9f1000f0edd284603f0fefb77
:100c700005eb0903039a824267dd4a463021049856
:100c800003f0ecfb002302932846ebe69fed388b44
:100c900087e7b0ee49abbaf1650f14bfa3464ff03a
:100ca000000b8ee788ee0a0bcde90c1001f0f4fc86
:100cb000fdeec07b0b9b17ee902a1343dde90c1071
:100cc0000fd167280dd1bbf1000f19da4b1c9aee3a
:100cd000008b0bf1ff3bb1ee488b8aee0cab194653
:100ce00078e7069b63b9bbf1000f09da099b4ff067
:100cf0002e0c05f803c00123013609f1ff390693d4
:100d0000324605eb060e0b4604e04ff0300c0ef8b1
:100d100001cb013b002bf8d12a44944617ee902ad0
:100d200009f1ff3901363032a9eb01090e440cf804
:100d30000120cce7b4fbf1fc013b01fb1c44303447
:100d4000ec5409f1ff39644667e72a5c1a5401380c
:100d500090e7002cbff6f5ae4ff0660ae4e60626f3
:100d6000b9e600bfaff30080000000000000504370
:100d700000000000000000008c444000904440004f
:100d80009444400098444000d4feffff0000f07ff0
:0c0d90006728e4d082460626c6e600bfb5
:020000040000fa
:020000040040ba
:100d9c002de9f04fadb00027dff8e4a20391064631
:100dac001546b8464ff0ff3903990b78002b00f02d
:100dbc00f9800cabcde907890a938023cdf8248008
:100dcc000b9300240b5d0bb1252b26d134b122469d
:100ddc00304602f011ff039b23440393039b1a78c4
:100dec00252a40f0d78003f1010bcdf80cb0039805
:100dfc0003782b2b1ad025d8202b1bd0232b1dd0be
:100e0c002a2b27d002f05afe0990039b1a78303a0d
:100e1c00092a2ed801330393f7e70134d2e7079b55
:100e2c0043f00103013007930390e0e7079b43f085
:100e3c000403f7e7079b43f00803f3e7079b43f032
:100e4c001003efe72d2bead0302bd9d1079b43f0c1
:100e5c000203e7e72b681a1d1b682a600130002b80
:100e6c000390099305da079a5b4282f0010207921c
:100e7c000993079bda0744bf23f002030793039bf4
:100e8c001a782e2a0dd1581ccdf8208003905a7850
:100e9c002a2a25d1023303932b681a1d1b682a605a
:100eac00089303a802f0fefe039b0190187803f050
:100ebc00f7fa6928019979d032dc632800f0c680f2
:100ecc0019dc252800f0d080612853d025238df81b
:100edc001030cdf80cb0cdf81c80cde90898c0e0ee
:100eec0002f0ecfd0890039b1a78303a092ad8d806
:100efc0001330393f7e7642858d06728e6dc2a46c9
:100f0c0004a803f03af8002800f09c80039b5a1cbc
:100f1c0003921b7804aa07a93046fff75bfd38e063
:100f2c00702873d015dc6e2800f087806f28cdd127
:100f3c002b46002204a801f0fdfd002800f0828061
:100f4c00039b04aa013307a93046039302f09bf9d3
:100f5c001fe075283ad0782848d07328b6d180295c
:100f6c0070d1039b2a6801330393131d2b60126805
:100f7c0000235be02a4604a802f0ffff002861d0a2
:100f8c00039b5a1c03921b7804aa07a93046fff74f
:100f9c0031fb04443c44a7426edd384b4f221a60af
:100fac004ff0ff3738462db0bde8f08f2b460122ad
:100fbc0004a801f0bffd002844d0039b04aa013310
:100fcc0007a93046039301f0bffce2e72b46002251
:100fdc0004a801f0affd002834d0039b04aa013310
:100fec0007a93046039302f0a7fcd2e72b46002258
:100ffc0004a801f09ffd28b3039b5a1c03921b7895
:10100c0004aa07a9304600f01dfec2e72b460022b9
:10101c00f02104a801f08efda0b1039b01330393d2
:10102c00dde90423134306d10023524607a93046b9
:10103c0002f056fcade77823e2e72b463a1904a8f8
:10104c0002f032f8039b01330393a3e78029f9d113
:10105c00039b013303932b681a1d1b682a608df8c0
:10106c001030012304aae1e78029ebd1039b8df812
:10107c00100001330393f4e7274695e600f645206c
:04108c00aa42400034
:020000040000fa
:020000040040ba
:101090002de9f04f099f154604468e461e46002b4b
:1010a00040f0cc808a42b2fa82fc4cd9bcf1000fed
:1010b0000bd0ccf1200801fa0cfe20fa08f802fa55
:1010c0000cf548ea0e0e00fa0cf44fea15491ffa27
:1010d00085f8befbf9fa210c09fb1ae30afb08fbb1
:1010e00041ea03439b452ad9eb180af1ff3004d2a9
:1010f0009b4502d9aaf102002b44a3eb0b03a4b237
:10110000b3fbf9f209fb123302fb08f844ea03448b
:10111000a04516d92c1902f1ff3303d2a04501d9fd
:10112000931e2c44a4eb080443ea004027b124faa0
:101130000cf400233c607b603146bde8f08f5046e4
:10114000dbe71346eee702b9ffdebcf1000f2ed15c
:101150008b1a01264fea154eaab2b3fbfef8210cfa
:101160000efb183308fb02f941ea0343994561d9a4
:10117000eb1808f1ff3004d2994502d9a8f102001a
:101180002b44a3eb0903a4b2b3fbfef10efb113316
:101190004a4344ea0344a2424ed92c1901f1ff33d9
:1011a00003d2a24201d98b1e2c44a41abce7ccf175
:1011b000200e02fa0cf521fa0ef901fa0cf320face
:1011c0000efe4eea03034fea154800fa0cf4b9fb91
:1011d000f8f11ffa85fe08fb1192180c01fb0ef6c0
:1011e00040ea0242964221d9aa1801f1ff3003d207
:1011f000964201d9881e2a44921b9bb2b2fbf8f991
:1012000008fb192209fb0efe43ea02439e450fd953
:10121000eb1809f1ff3604d29e4502d9a9f1020666
:101220002b44a3eb0e0346ea004693e70846e3e7a8
:101230004e46f6e74046a4e70b46b6e78b4206d992
:10124000002f7ed00026c7e90001304674e7b3facc
:1012500083fcbcf1000f0fd18b4201d3824209d82d
:10126000841a61eb030e0120002f6dd0c7e9004ef8
:10127000002661e76046f7e7ccf1200e03fa0cf395
:1012800022fa0ef521fa0ef41d4301fa0cf320faae
:101290000ef10b434fea154a00fa0cf6b4fbfaf9cb
:1012a0001ffa85f80afb19401c0c09fb08f144eaf7
:1012b0000044a14202fa0cf23fd92c1909f1ff3087
:1012c00004d2a14202d9a9f102002c44641a9bb2b3
:1012d000b4fbfaf90afb194409fb08f843ea044194
:1012e00088452cd9691809f1ff3304d2884502d901
:1012f000a9f10203294443ea0040a1eb0801a0fb45
:1013000002894945c2464c4602d306d1464504d21d
:10131000b8eb020a69eb05040138afb1b6eb0a037a
:1013200061eb040606fa0efe23fa0cf34eea030301
:1013300026fa0cf6c7e900369ae74846c6e74b4658
:0c134000d9e73e463846f7e63e46f5e6a3
:020000040000fa
:020000040040ba
:10134c002de9f84f80460e4699469500284602f046
:10135c0043f8002800f0c1800746542002f03cf806
:10136c000446002857d007632a46a521384603f0c7
:10137c006ff8276b002e54d0337884f8343053b187
:10138c00334604f134010f3613f8012f01f8012f05
:10139c000ab1b342f8d1002384f843300a9e042edc
:1013ac0028bf0426e66266644ff0000bc4f848b010
:1013bc0004f1040a504603f0c2f804f1180003f0db
:1013cc00bef82461c6f10506a6616462c4f84cb08f
:1013dc0084f850b0043d3d444a46414625f0070090
:1013ec0002f08afd20600b9b03b11c6002f07cfeb6
:1013fc003e4a1368013313603d4b1b68abb13d4b48
:10140c001b68bbb93a4b1b68da6ae36a9a4211d87b
:10141c00374b1c600ee0384603f09bf84ff0ff3062
:10142c005de0002384f83430b8e7314b1c6013685e
:10143c00012b28d0304a136801331360e06a2f4a1d
:10144c001168012383400b43136000eb800051466d
:10145c002b4b03eb800002f078ff02f0abff254b27
:10146c001b68002b3dd0224b1b68da6ae36a9a4258
:10147c0039d2244b4ff080521a60bff34f8fbff319
:10148c006f8f01202be01e4d284602f053ff05f113
:10149c00140002f04fff05f1280002f04bff05f19c
:1014ac003c0002f047ff05f1500002f043ff164ede
:1014bc00304602f03fff154d284602f03bff144822
:1014cc0002f038ff134802f035ff134802f032ffe8
:1014dc00124b1e60124b1d60ace74ff0ff30bde8a5
:1014ec00f88f0120fbe70120f9e700bfb0f545209c
:1014fc00a4f54520d4f54520bcf54520c0f5452084
:10150c0040f2452004ed00e0ecf4452000f54520c8
:10151c0014f545203cf5452028f54520a8f5452037
:04152c00acf54520b5
:020000040000fa
:020000040040ba
:101530002de9f84f0a9f9df82ca05f4c2478e4b267
:10154000012c05d05c4c2478e4b2022c40f0ab8036
:101550001c461646884605464ff0ff31574b186823
:1015600000f036fa564a82f8008056704fea162b81
:1015700082f802b0d4703b7813717b785371bb78da
:101580009371fb78d371baf1000f0bd105f5c060f0
:10159000002308224a4900f0d9fe30b90124204630
:1015a000bde8f88f05f5b060f2e702f01ffa0446d7
:1015b0000128f4d0baf1000f6cd1424a42494348a5
:1015c000fff70cfa20b1d0460924dff808914de06e
:1015d00000231a4619463948006800f0a5fa02248b
:1015e000dde705f5b065394b1b689d420ad0032441
:1015f00002f07cff00231a4619463048006800f0cc
:1016000093facce7304b1978a1f14303dbb21d2be1
:101610004bd82f4a22fa03f313f0010f47d0602969
:1016200047d0294b5b78f6b2b34201d00324dfe701
:10163000254b9b785b4501d00324d9e7224b1a79cf
:101640003a705a797a709a79ba70db79fb7054469d
:10165000cee70224a31edbb2012bc9d9002cc7d0d0
:10166000b8f1090f12d8012002f058fb02f0acfad1
:1016700089f8000099f80030dbb2012bb1d0032bc0
:10168000e7d008f101085ffa88f8e3e702f02effdf
:101690000224afe700231a4619460848006800f004
:1016a00043fa00247be7042479e70324a0e703241a
:1016b0009ee754469ce700bf0af64520f0f545201a
:1016c00080f5452009f6452054f44520f4f54520e1
:0816d0000111002008f645207d
:020000040000fa
:020000040040ba
:1016d800f8b55a4b5b6913f0e0030ad1574b5b69c5
:1016e80013f0010f20d1554b5b6913f0020f67d13e
:1016f800f8bddbb2524a82f83d30504b4ff480724d
:101708001a605b6913f0010f05d04c4b9a695a694e
:1017180012f0010ffad14a4b1b6a002bded0484a5f
:10172800516a02209847d9e7444e454c46e0226a60
:10173800002a31d0616a38469047a36a0133226b88
:10174800934228bf002327e0a16a3e48425430e074
:1017580002f064fd236a002b30d094f83c2032b1ab
:10176800a26b90422ad3616a0020984726e0a26bb8
:10177800904223d1616a002098471fe0736913f0f3
:10178800010fb0d0b569a36a0133226b934228bf19
:101798000023e26a9a42cad0e26a9a42eed0c5f3be
:1017a8000802716811f4003fced0a06a254921f8db
:1017b8001020a36294f83430002bc9d10127dde74b
:1017c8001e4d1f4c204e6b6913f0020f90d0e3683a
:1017d800a26893422dd06a6812f4003f03f1010217
:1017e80014bf36f81330f35c2169914298bf002288
:1017f800e2606a6812f4003f14bfc3f30803dbb267
:10180800eb61237d002bded002f0c2fd2368002ba4
:10181800d9d0227f32b1a2699042d4d36168032023
:101828009847d0e7a2699042cdd1616803209847d4
:10183800c9e7024b0222da605ae700bf0080024083
:0c18480014f4452040f14520c0f145207b
:020000040000fa
:020000040040ba
:1018540008b5504b9847504b9847eff3108172b638
:101864004e4ad2f8883043f47003c2f88830bff38c
:101874004f8fbff36f8f01b962b6494b494a5a6023
:101884009a6812f0010ffbd0454bdb6813f4c07f5c
:1018940013d0454b0c221a60414b444a5a609a6853
:1018a40012f0010ffbd03e4b414a5a609a6812f085
:1018b400010ffbd03f4b404a1a60bff34f8fbff379
:1018c4006f8f364cd4f8903223f00103c4f8903271
:1018d400d4f8943223f00103c4f89432bff34f8f49
:1018e400bff36f8f01f0a4fa344b23f07f03a3609e
:1018f400334b984702f0a2f9636913f4003f12d105
:10190400bff34f8fbff36f8f0022c4f85022bff391
:101914004f8fbff36f8f626942f400326261bff38d
:101924004f8fbff36f8f1d4b5b6913f4803f29d139
:101934001a4b0022c3f88420bff34f8fd3f88030b2
:10194400c3f3c906c3f34e335a0143f6e075134893
:1019540002ea0504334644ea8371c0f86012013b8d
:10196400b3f1ff3ff7d1203a12f1200ff0d1bff3ca
:101974004f8f0a4a536943f480335361bff34f8f47
:10198400bff36f8f0f4b98470f4b984702f097fbad
:10199400fee700bf5d4540005d45400000ed00e00e
:1019a400000c0e400d00005a90f545200c08005a1a
:1019b4000c07005a00180e40010000a5000040006a
:0c19c400e13740005d4540005d454000fb
:020000040000fa
:020000040040ba
:1019d0002de9f04184b0044601914ff000084646dd
:1019e0004546504f49e0013ba36323684bb123694f
:1019f0005bb902f0e5fc4ff00108404604b0bde8d9
:101a0000f08102f02bfca060f1e704f1100001f07e
:101a10008ffb0028edd0434b4ff080521a60bff38c
:101a20004f8fbff36f8fe4e702f0cafc4ff000085e
:101a3000e3e702a802f062fc29e084f8445032e0b7
:101a400084f8455035e002f055fba06800f0dafe5e
:101a5000804602f0b5fc3ce0204601f06ffa00f051
:101a600093fb09e0204601f069fa00f08dfb204667
:101a700002f07cfc002840d1012602f03bfba36b66
:101a8000002bb0d1019b002bced0002ed1d002f084
:101a900097fc02f0d3fc02f02dfb94f844305bb2cb
:101aa000b3f1ff3fc9d094f845305bb2b3f1ff3fcb
:101ab000c6d002f085fc01a902a801f063fe00284f
:101ac000d0d1204602f052fc0028c5d02368002b5c
:101ad000b9d0019904f1240002f0b2fb204601f0d4
:101ae0002dfa00f051fb0028c6d14ff080533b6027
:101af000bff34f8fbff36f8fbee7b8f1000f3ff416
:101b00007caf02f0f7fa616a19b1236b1968c1f171
:101b10000501a06801f0d2f902f052fc4ff0000874
:081b20006be700bf04ed00e0db
:020000040000fa
:020000040040ba
:101b28002de9f04784b00446884601921d464ff0df
:101b380000094e46434f39e02a464146204601f007
:101b48006bfb636a73b938b13e4b4ff080521a6031
:101b5800bff34f8fbff36f8f02f02efc012004b04c
:101b6800bde8f08704f1240001f0defa0028f3d084
:101b7800344b4ff080521a60bff34f8fbff36f8f13
:101b8800eae702f019fc0020e9e702a802f0b2fb3c
:101b98001ae084f8446023e084f8456026e0204693
:101ba80001f0c8f900f0ecfa4ff0010902f09efad2
:101bb800a26be36b9a42bfd3022dbdd0019b002bd1
:101bc800dfd0b9f1000fe0d002f0f6fb02f032fcf2
:101bd80002f08cfa94f844305bb2b3f1ff3fd8d0ee
:101be80094f845305bb2b3f1ff3fd5d002f0e4fb87
:101bf80001a902a801f0c2fde8b902f077fad4f809
:101c080038a0d4f83c9002f0d7fbca45c7d1019957
:101c180004f1100002f010fb204601f08bf900f0ef
:101c2800affa0028c0d14ff080533b60bff34f8f0d
:101c3800bff36f8fb8e7204601f07cf900f0a0faf7
:081c480000208ce704ed00e030
:020000040000fa
:020000040040ba
:101c50002de9f04f89461946d9e90153d9f800809a
:101c6000d9f80ca0002d8bb0a8bf28f0020883463d
:101c7000b8bf012518f010009646d2e9006702901f
:101c800051d056ea07024ed0981e18f0080403946b
:101c9000d9f8104018bf00f1ff30401b013c4ff055
:101ca000000c049008f0020005900af804c0a1f1ad
:101cb00041000690012c0add56ea070235d1002dbd
:101cc00033dc049a5019002801dd059a6abb029a98
:101cd00062b1dee9006756ea070207d00aeb0402a8
:101ce000023c02f8011c30220af80420039a1ab1bf
:101cf000013c20220af80420d9f81020cdf80080f9
:101d0000013a121b0aeb0401584601f056f9dbf8c0
:101d10000430db0504d5d9f804309842b8bf184622
:101d20000bb0bde8f08f1846afe706f00f00069a3b
:101d30000928d4bf30305730192a04f1ff340ed8a7
:101d400040f0200cacf1610cbcf1190f07d8cde9c3
:101d500008e1079302f0b1fbdde908e1079b0af80f
:101d60000400300940ea07704fea171c013d06469f
:041d700067469fe73c
:020000040000fa
:020000040040ba
:101d74002de9f047384b1b68002b67d1374b1f68a0
:101d840001371f60bfb1364b1b68bb4220d9002509
:101d9400344b1b68db6a03eb83039b00324ad35842
:101da400022b28bf0125314b1b68002b18bf0125ce
:101db4002846bde8f0872e4a11682e4b186810603b
:101dc40019602d4a13680133136002f0aff8dae7a3
:101dd4000025dff89c80dff8a890dff88ca021e0d4
:101de4001f4b4ff0ff321a60d2e71d4a1360cfe752
:101df40004f1180002f03ef9e06ad9f8002001234a
:101e040083401343c9f8003000eb800031460aebed
:101e1400800002f09efa134b1b68e26adb6a9a4266
:101e240028bf0125d8f800301b68002bd8d0d8f87b
:101e34000030db68dc6863689f42d6d3261d3046d9
:101e440002f018f9a36a002bd2d1d5e70b4a136824
:101e5400013313600025abe7b8f54520d8f54520dc
:101e6400c8f54520a4f5452040f24520dcf5452081
:101e7400a8f54520acf54520ccf54520d0f5452006
:041e8400c0f5452040
:020000040000fa
:020000040040ba
:101e8800f8b505464ff4a072002102f0e3fa394a8a
:101e9800936943f001039361936913f0010ffbd039
:101ea800344ca36943f00203a361334a156025f05b
:101eb800030189b231480143c4f8a01005f1480371
:101ec800536023f003039bb20343c4f8b03005f119
:101ed8009003936023f003039bb2c4f8ac3005f180
:101ee800d803d36023f003039bb243f08073c4f894
:101ef800c03005f59073136123f003039bb243f4dc
:101f08008033c4f8f03005f5947353611c4e03ce4a
:101f1800c5f82801c5f82c1123f003039bb243f43c
:101f28000033c4f8843005f598769661154f0fcfc5
:101f3800c5f83001c5f83411c5f83821c5f83c3169
:101f480026f00306b6b246f40036c4f888600e4997
:101f5800d1f814210d4b2b4092b21343c1f8143120
:101f6800a36923f00103a3612246936913f0010fcb
:101f7800fbd1f8bd00400340d0f4452000000180ab
:101f8800f83540002c444000008008400000ffff66
:020000040000fa
:020000040040ba
:101f98004573637269747572612045504f533420dc
:101fa8004f4b000046616c6c6f20657363726974f7
:101fb8007572612045504f533400000046696e2009
:101fc80074617265612063616e20310046696e201c
:101fd80074617265612063616e20320043414e6f07
:101fe80070656e2077617320696e697469616c69c8
:101ff8007a656420616e6420697320696e2070724e
:10200800652d6f7065726174696f6e616c206d6f9c
:10201800646500004e6f207365207075646f2063df
:102028007265617220656c20626c6f7175656f20d6
:102038006d757465780000004572726f7220616c6e
:10204800206d616e646172206d656e73616a6520d2
:10205800426f6f745f5570002020202020202020c0
:10206800000000005465636c61733a20256300002a
:1020780054415245415f43616e310000544152451d
:10208800415f43616e3200004573706572616e6432
:0c2098006f207465636c612e2e2e00001a
:020000040000fa
:020000040040ba
:1020a40010b5314b1c6d314b234043b12e4a13659f
:1020b4002f4b1b681bb12e4a51682046984714f0d9
:1020c400010f0cd0284b01221a65d3f8a400294b28
:1020d4001b6823b1274a516800f07f00984714f029
:1020e400100f0cd0204b10221a65d3f8b400214bea
:1020f4009b6823b11f4ad16800f07f00984714f40d
:10210400002f09d0184b4ff400221a65d3f89830e9
:1021140013b113f0010f1ed114f4006f09d0124b48
:102124004ff400621a65144b1b6813b1124a5068cd
:10213400984714f4805f0dd00b4b4ff480521a650e
:10214400d3f8f4000d4b1b6823b10c4a516800f01e
:102154003f00984710bd0a4b1b68002bdcd0084a8f
:10216400516800209847d7e700400340eee7f7ffa7
:1021740060f5452050f5452078f5452070f545205b
:0421840068f5452095
:020000040000fa
:020000040040ba
:102188002de9f04101f0b2ff2d4b1a68013a1a60af
:102198001b68002b4dd12b4b1b680bb9002449e061
:1021a8000024294e294fdff8b880336803b3f36859
:1021b800dc6804f1180001f05bff251d284601f0da
:1021c80057ffe06a3a680123834013433b6000eb02
:1021d8008000294608eb800002f0b9f81c4b1b6808
:1021e800e26adb6a9a42e0d31a4b01221a60dce702
:1021f8000cb101f099fe184b1c686cb1154e012505
:1022080001e0013c05d0fff7b1fd0028f9d03560a9
:10221800f7e7114b00221a600e4b1c6854b10f4ba4
:102228004ff080521a60bff34f8fbff36f8f0124b6
:1022380000e0002402f0c0f82046bde8f08100bfad
:10224800b8f54520b0f5452014f54520c0f54520e2
:10225800a4f54520dcf54520d0f5452004ed00e047
:0422680040f24520db
:020000040000fa
:020000040040ba
:10226c002de9f04f87b001900f4692467bb1012bc0
:10227c0011d0022b13d0019b002b55d04fea0a1a18
:10228c004ff00008dff8a89009f1400b17e0284840
:10229c0001f072ffefe7274801f06effebe72648ed
:1022ac0001f06affe7e709f19c0001f0cbfe57440f
:1022bc0008f101085ffa88f8019b434534d01f48a8
:1022cc0001f0c0fefb7813f0400f3e6814bfc6f35c
:1022dc001c06c6f38a46bc7904f00f049be80f0079
:1022ec0002ad85e80f0006ab1c4414f8105c2b46bd
:1022fc003246b98809f1500001f03eff09f188001f
:10230c0001f03aff002dced0fc1d013d07f1080372
:10231c0053fa85f509f1940614f8011f304601f0c3
:10232c002bffac42f8d1bee707b0bde8f08f00bf81
:10233c00a02a4000ac2a4000b82a4000c82a40001d
:020000040000fa
:020000040040ba
:10234c002de9f041314d2c78e4b2052c02d000205f
:10235c00bde8f0811f4614460e460546dff8b080f6
:10236c0048220021404602f073f8a804002360f3d1
:10237c001c03c8f80030082c0ed90c2c30d9102caa
:10238c0030d9142c30d9182c30d9202c30d9312cf0
:10239c0034bf0e210f2100e021461d4b9a7961f3c9
:1023ac0003029a71022f25d07b1edbb2012b26d99a
:1023bc0054b1731e1748013c56fa84f113f8012fdf
:1023cc0000f8012f8b42f9d10121134802f018f8c3
:1023dc000e4b02221a700e49012001f0b3fbb7e735
:1023ec000921dae70a21d8e70b21d6e70c21d4e73b
:1023fc000d21d2e71a46db7843f04003d370044a30
:10240c00937943f030039371d2e700bf06f6452071
:0c241c00ccf34520d3f34520513d400097
:020000040000fa
:020000040040ba
:10242800002a61d02de9f84f8046154620b10128d1
:102438002ed00020bde8f88f2c4bd3f8a440c4f36d
:102448000524f1b14f1e5ffa87fb0026dff8a0a034
:102458004ff0480900e01e4604ebc401daf80030ea
:102468004a4603ebc101284601f087ffb74208d06e
:1024780048350134e4b2012c08bf4446731cb34507
:10248800e9d104f03f04194bc3f8a8400120d1e773
:10249800164bd3f8b440c4f30524f1b14f1e5ffacc
:1024a80087fa0026dff848904ff0480800e01e46fb
:1024b80004ebc401d9f80430424603ebc1012846b5
:1024c80001f05bffbe4208d048350134e4b2012c6c
:1024d80008bf0024731c5645e9d104f03f04034ba0
:1024e800c3f8b8400120a5e700207047004003402a
:0424f800d0f44520b7
:020000040000fa
:020000040040ba
:1024fc00314b0022c3f81421d3f8141141f441617b
:10250c00c3f814112d494ff400134b606ff40013f2
:10251c000b604ff0ff334b650b66c1f89030c1f880
:10252c00a0300a614b618a63c1f8182101f5007172
:10253c0010200867486748606ff0100008604b6512
:10254c000b66c1f89030c1f8a0300a614b618a6308
:10255c00c1f8182101f500710a674ff4a0404867d3
:10256c0048606ff4a04008604b650b66c1f8903072
:10257c00c1f8a0300a614b618a63c1f8182101f5da
:10258c0000710b604b650b66c1f89030c1f8a03040
:10259c000a614b618a63c1f8182101f500710b6067
:1025ac004b650b66c1f89030c1f8a0300a614b61e5
:1025bc008a63c1f81821704700800840000e0e4055
:020000040000fa
:020000040040ba
:1025cc0038b5044601f090fd002c37d0251d284667
:1025dc0001f04cfd70b9e26a02eb82039b002249c8
:1025ec00cb583bb921480368012101fa02f223ead6
:1025fc0002020260a36a1bb104f1180001f036fd5f
:10260c001b4a1368013313601a4b1b68a34218d082
:10261c00194a1368013b1360206b01f09aff2046a6
:10262c0001f097ff01f07efc01f0c4fe134b1b6818
:10263c001bb1104b1b68a3420cd038bd0d4b1c6852
:10264c00c4e729460e4801f080fe0e4a1368013398
:10265c001360e9e70c4b4ff080521a60bff34f8fb9
:10266c00bff36f8fe9e700bf40f24520c0f545206e
:10267c00bcf54520a4f54520b0f54520d4f5452002
:0c268c003cf54520b4f5452004ed00e0cd
:020000040000fa
:020000040040ba
:1026980053ec102bc3f30a512de9f04140f2fd70c1
:1026a8004e1e86421d4644d8a1f2ff30002835db75
:1026b800332831dc264bc0f120084ff0ff3c03fae9
:1026c80008f2a1f21f412cfa00fc10ee104a4cea65
:1026d800020c23fa01f24cea020c23fa00fe04ea87
:1026e8000c0605ea0e0724ea0c0256ea070425ea56
:1026f8000e030fd0002a73f100040bda4ff4801593
:1027080005fa08f425fa01f10c43121925fa00f02c
:1027180040eb030343ec102bbde8f0819fed0a7bef
:10272800bfee000b002a73f1000327fe000bbde883
:10273800f0810029f0d10a4603f0004343ec102b46
:10274800eae700bfaff300800000000000000000cf
:04275800ffff0f0070
:020000040000fa
:020000040040ba
:10275c00244b1b681bb1244b01221a60704710b527
:10276c00214b00221a60214b1b681b6b1a68b2f1bb
:10277c00a53f03d15a68b2f1a53f23d01b4b186873
:10278c001968343101f0c0fd194b1b68b3fa83f39f
:10279c00dbb2c3f11f03174a9900c81802eb800083
:1027ac00446864684460194402460832944212d06a
:1027bc0003eb83030f4a02eb83035b68da680b4b72
:1027cc001a6010bd9a68b2f1a53fd7d1db68b3f19e
:1027dc00a53fd3d1d8e760680a46064901eb8202cf
:1027ec005060e5e7b8f54520dcf54520a4f545201b
:0827fc00c0f5452040f2452024
:020000040000fa
:020000040040ba
:10280400002849d038b50446c26a24490968c96a0f
:102814008a4238d28169002905db20490968c96ade
:10282400c1f10501816102eb82021d4901eb8202c3
:102834006169914205d0194a1268d26ae2620120a4
:1028440029e0251d284601f015fc38b915490b6807
:10285400e06a0122824023ea02030b600f4b1b68eb
:10286400d86ae0620f4a1168012404fa00f30b43aa
:10287400136000eb80002946094b03eb800001f054
:1028840068fd204607e0054a1268406cd36a984206
:102894002cbf0020012038bd00207047a4f545203e
:0828a40040f24520c0f545207b
:020000040000fa
:020000040040ba
:1028ac00f0b587b0234d05f1f806234f13e0234b09
:1028bc0001930423009300234ff4007205f1e0010f
:1028cc001f48fef73dfd24e0304601f059f940f277
:1028dc00dc5001f01dfa00238df80c3003a9012007
:1028ec0000f0c6f99df80c20202aedd004ac05f1bf
:1028fc00c80393e8030084e8030005f1d4012046e3
:10290c0001f0d0fc204601f03bf99df80c30312b46
:10291c00cdd09df80c30322bd9d10a4b0193042326
:10292c00009300234ff4007205f1ec013846fef7da
:10293c0007fdcce7981f400061414000e4f54520bd
:08294c0091354000e8f545203b
:020000040000fa
:020000040040ba
:102954002de9f041d2e900230c4686b007465fea30
:10296400d37820684968a5680590e66841d052424a
:1029740063eb4303002908db20f002000590b8f163
:10298400000f02d1059948072ad5691e05a80290af
:102994000a20cde90010204600f004fcb8f1000f35
:1029a40002d1059b59071fd5b8f1000f00f1ff3084
:1029b40014bf2d232b2333542269059b0093013a22
:1029c4002b46121a3118384600f0f5fa7b68db05fd
:1029d40003d563689842b8bf184606b0bde8f081d5
:1029e4000807d2d42946d1e71a07e5d501382023b0
:0829f400e1e70029c0dac5e7a4
:020000040000fa
:020000040040ba
:1029fc002de9f041002945d08c46234b1e6900245b
:102a0c00224d1a46dff888e00fe030f81470d5f844
:102a1c00048018f4003f14bf2ef811700ef80170ea
:102a2c009360631c013463452ad26b6813f4003342
:102a3c0010d0d76891684b1cb34228bf00239f422b
:102a4c00e3d101f0dbfb10b1104b02229a6020465f
:102a5c00bde8f081d2f80c809768791cb14228bf90
:102a6c0019468845edd0035dd5f8048018f4003f75
:102a7c0014bf2ef817300ef807309160631cd1e7a5
:102a8c001c46dee70c46dce714f4452000800240cf
:042a9c00c0f1452020
:020000040000fa
:020000040040ba
:102aa000205278204649464f30203a002052782064
:102ab0004649464f31203a002052782042756666da
:102ac0006572203a00000000204e6577204d657346
:102ad000736167652052656365697665640d000002
:102ae0000001020304050607080c101418203040ea
:102af000204d657373616765202d2054696d657382
:102b000074616d70203a2030782578204944203a4d
:102b10002030782578204c656e677468203a203024
:102b200078257820000000004d657373616765208b
:102b30003a20000030782578200000000d0000bf0a
:020000040000fa
:020000040040ba
:102b4000882930b534d012dc81293fd003dc8029bc
:102b50003cd0002030bd82290ed08429f9d11c68d8
:102b600054f8041b1c60f2b10ab2d3171de0a0296f
:102b700027d00cdc9029ecd11968073121f007012e
:102b8000f1e802451960c0e900450120e2e7c029eb
:102b900001d0f029ddd11a68111d19601368036096
:102ba00000234360f1e78ab20023c0e90023ece789
:102bb0001c6854f8041b1c600ab14ab2d5e7cab2bb
:102bc000f2e71a68111d19601268cee719680c1d2a
:102bd0001c600ab10a68c8e70b68c0e90032d4e794
:020000040000fa
:020000040040ba
:102be000224b01229a611a46936913f0010ffbd020
:102bf0001e4b9a6942f002029a6141f26602da6063
:102c00001b4ada6140f27772c3f8bc204ff0ff3202
:102c1000c3f89820c3f89c200722c3f8c8202822b4
:102c2000c3f880206ff06042c3f8902001221a623e
:102c30009a6942f440729a619a6922f001029a619b
:102c40001a46936913f0010ffbd1084a00239365dc
:102c50000121d16507495165074a136053609360ac
:102c6000d360136153619361704700bf004003401c
:0c2c7000040d0408ddddcb3fd0f445204e
:020000040000fa
:020000040040ba
:102c7c002de9f041074688464ff0ff311f4b18688d
:102c8c00fef7a0fe00211e4801f01efc384601f0a4
:102c9c0015fc0021012001f013fb1a4b1b780bbb18
:102cac0015240a26174d304601f032f82b78cbb993
:102cbc00631e13f0ff04f6d1efb108f1ff33791e58
:102ccc0058fa81f1202203f8012f8b42fbd1022408
:102cdc0000231a46194609480068fef71fff2046d4
:102cec00bde8f081074b00221a703946404600f0cf
:102cfc00cbfd0124ece70224eae700bfe0f5452018
:082d0c004d44400005f645208e
:020000040000fa
:020000040040ba
:102d140070b504460e461c4b1d681c4b18680430e5
:102d240001f0a8f948b9194b1a6819490b68d06a17
:102d34000122824023ea02030b60b4f1ff3f00d179
:102d44006eb92c44114b1b685c60a5420ed9114b23
:102d540018680e4b1968043100f0c4ff70bd0b4baa
:102d6400196804310c4801f0f4faf7e70b4b1868c2
:102d7400064b1968043100f0b5ff094b1b68a342e8
:102d8400ecd9074b1c60e9e7d8f54520a4f54520ac
:102d9400c0f54520acf5452028f54520a8f545208b
:042da400c8f5452009
:020000040000fa
:020000040040ba
:102da800204b214a9a629a6e12f0020ffbd01d4afc
:102db800136b23f07003136313469a6e12f0080f17
:102dc800fbd0184a136b23f4407343f480731363e6
:102dd80013469a6e12f0080ffbd0124a136b23f0b9
:102de800030343f00203136313469a6e12f0080fad
:102df800fbd00c4b4ff440525a6000211965242136
:102e080059651a601a46936e03f44053b3f5405f50
:102e1800f9d1044b4ff457321a612022c3f800212c
:0c2e2800704700bf00060e40013f18205c
:020000040000fa
:020000040040ba
:102e34001e4b1f4a9342f0b438bf002103d203f85b
:102e4400011b9342fbd11b4ad2e9000150ea010362
:102e54004ff0000610d09468034602f10c076cb9d9
:102e640021b1014403f8016b9942fbd13a46d2e9fe
:102e7400000150ea0103eed1f0bc704759b101f1f1
:102e84000c030c38801a1a443b461c1813f8015bd7
:102e940025709342f9d111f0030318bf012303eb0a
:102ea400910107eb81073a46e1e700bf00004020ab
:082eb4000000402090014000e5
:020000040000fa
:020000040040ba
:102ebc00002838d038b50446426c914238bf1146d0
:102ecc00c26a8a4202d0806c012800d038bde1620f
:102edc00a069002802dbc1f10501a16102eb8202ad
:102eec00114901eb820261699142efd1251d2846ff
:102efc0001f0bcf838b90d490b68e06a0122824038
:102f0c0023ea02030b60e06a084a1168012383403c
:102f1c000b43136000eb80002946034b03eb80004e
:102f2c0001f013fad2e7704740f24520c0f5452076
:020000040000fa
:020000040040ba
:102f3c0070b5054601f0d8f895f8454064b2002c00
:102f4c0011dd6b6a7bb105f1240606e001f0c2fad3
:102f5c00013c64b23cb16b6a2bb1304600f0e2f834
:102f6c000028f5d0f2e7ff2385f8453001f022fa6e
:102f7c0001f0baf895f8444064b2002c11dd2b69cd
:102f8c007bb105f1100606e001f0a4fa013c64b235
:102f9c003cb12b692bb1304600f0c4f80028f5d0b9
:0e2fac00f2e7ff2385f8443001f004fa70bd0f
:020000040000fa
:020000040040ba
:102fba002de9ff471d460c9b13f001080746894679
:102fca00144624d1aa4222da2e1b102e32464ff082
:102fda00200128bf10226846b24601f03afa0f2ea5
:102fea001edc4fea1a136ff00f0202fb03a26946b6
:102ffa00384600f002feb8f1000f04d122464946d5
:10300a00384600f0fafd284604b0bde8f0872246ab
:10301a004946384600f0f1fdac42d5db2546f2e7d9
:0e302a0010226946384600f0e8fd103ed7e758
:020000040000fa
:020000040040ba
:10303800002835d038b50446826c013a8264c06aeb
:10304800616c884200d00ab1002038bd251d284691
:1030580001f00ef870b9e26a02eb82039b00114995
:10306800cb583bb910480368012101fa02f223ea60
:1030780002020260606ce062c0f10503a3610a4ac3
:103088001168012404fa00f30b43136000eb80007d
:103098002946044b03eb800001f059f92046d4e798
:0c30a8000020704740f24520c0f5452094
:020000040000fa
:020000040040ba
:1030b400842910b523d00cdc812903d0822913d0b4
:1030c40080290bd119680c1d1c600b6803601a6001
:1030d40013e0902921d003dc882917d0002010bdeb
:1030e400a029efd0c029ece719680c1d1c600b68ff
:1030f4000360d1171046c3e900010120efe7196806
:103104000c1d1c600b6803601a80f6e719680c1d1f
:103114001c600b6803601a70efe719680c1d1c60d3
:0c31240009680160d317c1e90023e6e749
:020000040000fa
:020000040040ba
:1031300038b5c368dc6804f11805284600f09cff28
:10314000134b1b68e3b9251d284600f095ffe06a84
:10315000104a1168012383400b43136000eb800089
:1031600029460d4b03eb800001f0f5f80b4b1b6873
:10317000e26adb6a9a4208d90120094b186005e02f
:103180002946084801f0e7f8f0e7002038bd00bf05
:10319000b8f54520c0f5452040f24520a4f545206e
:0831a000dcf5452014f5452083
:020000040000fa
:020000040040ba
:1031a8002de9f84f04460c9f6668d4f80cb02469e2
:1031b80010463a68013c002502f0020a0b9a0bf807
:1031c8000450002e1946b8bf0126012390464fea45
:1031d800e279002c03dcd3b12046bde8f88f50ea31
:1031e800010209d1721b002a06dc0a9a521b002a26
:1031f800f1ddbaf1000feed042464b4600f066fe14
:10320800013c134630320bf804200135e1e73b68f6
:0832180023f010033b60dfe727
:020000040000fa
:020000040040ba
:1032200070b504461646856b026c5ab903681bb12b
:1032300000200135a56370bd8068fff7fdfe002307
:10324000a360f6e76eb9406801f09bf86368226cf2
:1032500013446360a268934219d3236863603046c5
:10326000e7e7c06801f08df8226c5242e36813442e
:10327000e36021688b4202d2a3681a44e2600db178
:10328000022e01d00020d4e7013d0020d1e73046d6
:02329000cfe786
:020000040000fa
:020000040040ba
:10329200f0b50c4649682368a768e56887b000293d
:1032a2000593a4bf23f00203059305ab0293082301
:1032b200cde900730646d2e900232046fff773ffeb
:1032c200059bd90642bf00f1ff3030232b54059bea
:1032d2001a0742bf00f1ff3020232b542269059bbd
:1032e2000093013a3b46121a29183046fff764fe52
:1032f2007368db0503d563689842b8bf184607b008
:02330200f0bd1c
:020000040000fa
:020000040040ba
:1033040038b504460d4600f0f3fe2268216ce36be9
:1033140003fb01f3d018a0600020a06362605b1a75
:103324001344e360ff2384f8443084f84530a5b99e
:1033340023691bb901f042f8012038bd04f11000e3
:10334400fff7f4fe0028f5d0084b4ff080521a60c6
:10335400bff34f8fbff36f8fece704f1100000f061
:10336400edff04f1240000f0e9ffe3e704ed00e0e1
:020000040000fa
:020000040040ba
:1033740080b5164c164f174edff860802368bbb13a
:1033840000f0b6fefb68dd68281d00f073fe3368ac
:10339400013b33602368013b236001f00ff8286b85
:1033a40001f0dbf8284601f0d8f82368002be7d1b8
:1033b400094b1b68012be1d94ff08053c8f800304a
:1033c400bff34f8fbff36f8fd8e700bfb4f545202d
:1033d4003cf54520b0f5452040f2452004ed00e0e1
:020000040000fa
:020000040040ba
:1033e40038b5044610f0070f02d020f00704083463
:1033f40001f022f8124b1b687bb1124b1b681c4472
:1034040049f6f77294420ed8a3420fd3fef7bafee0
:1034140000f089ff0025284638bd094a0a4b23f0ed
:1034240007031360e9e7fef7adfef1e7044a156808
:103434001d44044b1c60fef7a5fe002debd1e7e70d
:0c3444009cf54520a0f545200800402024
:020000040000fa
:020000040040ba
:1034500038b505460c46164b196000f093fc10f089
:10346000070005d0072803d0124b04221a7038bd7c
:1034700014f0ff0ffbd105ebc5020f4cd200002169
:10348000204600f0ebff224629460020fef7ccff45
:1034900018b9084b04221a70e9e700234822214694
:1034a0002846fef7e3fe034b03221a70dfe700bf56
:0c34b000ecf5452006f645203cf34520d5
:020000040000fa
:020000040040ba
:1034bc0038b505460c46164b196000f05dfc10f053
:1034cc00070005d0072803d0124b04221a7038bd10
:1034dc0014f0ff0ffbd105ebc5020f4cd2000021fd
:1034ec00204600f0b5ff224629460120fef796ff44
:1034fc0018b9084b04221a70e9e701234822214627
:10350c002846fef7adfe034b03221a70dfe700bf1f
:0c351c00ecf5452006f6452084f3452020
:020000040000fa
:020000040040ba
:1035280000b583b0124b0193002300938022114908
:103538001148fdf707ff012802d003b05df804fb2e
:103548004ff0200372b683f31188bff36f8fbff378
:103558004f8f62b6094b4ff0ff321a60084b0122b9
:103568001a60084b00221a6000f062fae5e700bf13
:10357800c4f545202445400075334000c8f5452072
:08358800d4f54520d8f54520db
:020000040000fa
:020000040040ba
:1035900000b583b0002000f001fa42238df804301a
:1035a00013238df8053023238df8063087238df8fb
:1035b000073001a9012000f008fe80b10a4800f0a0
:1035c000e5fa0a4800f0e2fa094b186820b1fef764
:1035d000fdff074b00221a6003b05df804fb0548ad
:1035e00000f0d4faede700bf981f4000c41f400070
:0835f000e4f54520ac1f40008a
:020000040000fa
:020000040040ba
:0835f8006904690c00005a3c53
:020000040000fa
:020000040040ba
:10360000eff30980bff36f8f154b1a681ef0100f90
:1036100008bf20ed108a20e9f04f10602de9090065
:103620004ff0200072b680f31188bff34f8fbff3c5
:103630006f8f62b6fff792f84ff0000080f31188a9
:1036400009bc19680868b0e8f04f1ef0100f08bff9
:10365000b0ec108a80f30988bff36f8f704700bf0a
:04366000a4f5452068
:020000040000fa
:020000040040ba
:1036640038b505460c46144b196000f089fb10f080
:10367400070005d0072803d0104b04221a7038bd68
:1036840014f0ff0ffbd10e4c48220021204600f01d
:10369400e3fe2146284600f089fc18b9074b0422b2
:1036a4001a70ece70223482221460120fef7dcfdd4
:1036b400024b03221a70e2e7ecf5452006f645209a
:0436c400f4f24520b7
:020000040000fa
:020000040040ba
:1036c800f0b59db004460d4616460021542207a8c1
:1036d8001f4600f0bffe4ff0ff33029303f20313bf
:1036e800039304b901accde9044555b16a1e002d18
:1036f800069208da094b4f221a604ff0ff301db0ce
:10370800f0bd2a46f3e7002323703a46314602a863
:10371800cde9074400f0acfdf1e700bf00f6452015
:020000040000fa
:020000040040ba
:1037280014494ff486730b6050230b604ff40c63fd
:103738004b6051230b62104b00221a629a62da62c4
:1037480083f8342083f83c209a6383f83d201a607c
:103758009a60da601a751a779a614b6813f4003f19
:10376800054b14bf402280221a631a61014be122e3
:0c3778009a6070470080024014f4452065
:020000040000fa
:020000040040ba
:1037840070b504460d4600f0b3fc124b1a682b6862
:10379400b3f1ff3f16d061680f480068266886427f
:1037a40001d0914213d9501a834203d800232b60cd
:1037b400012408e09b1a0b442b60204600f09cfd7a
:1037c400002400e0002400f0f9fd204670bd01242f
:0c37d400f9e700bfd8f54520ccf54520f2
:020000040000fa
:020000040040ba
:1037e0000e4a38b5002313600d4a0e4c13600e4a82
:1037f0000e4d13600e4a13600e4a13600e4a536258
:1038000013610123936000f049fe00f0a9feac4271
:1038100000d338bd54f8043b9847f8e7fcf5452041
:10382000b0f2452074014000acf245207801400020
:0c383000a4f24520a8f24520b4f2452087
:020000040000fa
:020000040040ba
:10383c00124bd96821f4e0610904090c104a0a43bf
:10384c00da60bff35f8f62b6e02183f823100d4a74
:10385c0082f80e134ff48040106082f8251320215b
:10386c0051605a6a42f480225a625a6942f010023c
:10387c005a615a6a42f400325a62704700ed00e015
:08388c000000fa0500e100e074
:020000040000fa
:020000040040ba
:10389400f0b4124ad36a956a0022114fdff844c08b
:1038a4000e4e08e01cf8034084540133346b9c42f0
:1038b40098bf00230132ab420bd0914209d97c68f6
:1038c40014f4003feed03cf8134020f812400133ca
:1038d400ece70249cb621046f0bc704714f4452073
:0838e4000080024040f1452084
:020000040000fa
:020000040040ba
:1038ec002de9ff41134dd1f80080af88adf80c7075
:1038fc0006462868029002aca8798df80e00002ac2
:10390c0018bf1446d1e901571a461bb9204600f0de
:10391c00a7fd0246002d02dbaa4228bf2a46cdf89d
:10392c0000803b4621463046fff741fb04b0bde822
:08393c00f08100bf3c45400092
:020000040000fa
:020000040040ba
:10394400f0b50c4649682368a668e76887b0002983
:103954000593a4bf23f00203059305ab02930a2346
:10396400cde900630546d2e900232046fff71afc9f
:103974002269059b0093013a3346121a39182846e6
:10398400fff719fb6b68db0503d563689842b8bf82
:06399400184607b0f0bd6b
:020000040000fa
:020000040040ba
:02399a00fee746
:020000040000fa
:020000040040ba
:10399c00124b01229a611a46936913f0010ffbd066
:1039ac000e4b9a6942f002029a6140f281329a619e
:1039bc001a6942f010021a61012809d0074b4ff422
:1039cc0060729a611a46936913f0010ffbd170472c
:1039dc001a469b6943f020039361efe700400340d4
:020000040000fa
:020000040040ba
:1039ec0070b50a24104d01260ae000f079fd002084
:1039fc0018e000f075fd012014e0304600f088f965
:103a0c0000f0dcf828702b78dbb2022bedd02b7891
:103a1c00dbb2042bedd0631e13f0ff04edd100f0ec
:0c3a2c005ffd012070bd00bf07f64520c3
:020000040000fa
:020000040040ba
:103a380010b50e4b1a6842f460021a601a6842f018
:103a480060421a6000f0d8fa0024094b1c6000f0ac
:103a5800a9fc084a136843f04043136000f0b8fa21
:103a6800fef778fe00f017fb204610bd20ed00e0c1
:083a780098f5452034ef00e051
:020000040000fa
:020000040040ba
:103a800008b50d4b00221a70022000f057fb00f021
:103a900009fa48b101280bd0022808d1074800f0e4
:103aa00075f800f029fd02e0054800f06ff808bd48
:103ab000044800f06bf8fae704f645204020400087
:083ac000e41f40001c2040003f
:020000040000fa
:020000040040ba
:103ac80010b50278202a034600f10100f9d0a2f1ce
:103ad80009010429f5d92b2a07d02d2a11d1012152
:103ae8000133013b00200a2403e00021f8e760438a
:103af800801a13f8012f303a092af8d901b940423f
:063b080010bd0021ede7f5
:020000040000fa
:020000040040ba
:023b0e00fee7d0
:020000040000fa
:020000040040ba
:103b100010b5054c227832b9044b13b10448aff309
:103b200000800123237010bdb4f445200000000084
:103b30000000000008b5034b1bb103490348aff375
:103b4000008008bd00000000b8f44520000000001f
:020000040000fa
:020000040040ba
:103b5000012815d1a1b138b50a4dd5f8c440c4f338
:103b6000044404ebc400084bdb68482203ebc000ac
:103b700000f007fc012000fa04f4c5f8d04038bd7d
:0c3b80000020704700400340d0f44520b6
:020000040000fa
:020000040040ba
:103b8c0038b505460b4c4ff0ff312068fdf71aff96
:103b9c00284600f065fc01462846fef729ff022165
:103bac000548fef725ff00231a4619462068fdf745
:0c3bbc00b5ff38bde0f545204c4040004e
:020000040000fa
:020000040040ba
:103bc8000c4b1878c0b2032803d0042809d0002071
:103bd8007047094b1b7853b1012b14bf00200220fa
:103be8007047054b1b78002b08bf03207047012046
:0c3bf800704700bf06f64520ecf54520a4
:020000040000fa
:020000040040ba
:103c040038b5436813f4807f0446154610d0036921
:103c140040699a4228bf1d462a4600f0b0fb6269fb
:103c24005319636123695b1b23610023535538bd1a
:0a3c3400db06fcd400f08afcf9e77f
:020000040000fa
:020000040040ba
:023c3e00fee79f
:020000040000fa
:020000040040ba
:103c4000094b00225a60094ada60094a1a61094997
:103c50004a6a42f480324a6205225a60bff34f8fab
:103c6000bff36f8f704700bf90ed00e010f045206c
:083c70001700081300ed00e04d
:020000040000fa
:020000040040ba
:103c780007b54a68c0b2d2050b468df8070006d5cd
:103c88004a69511c5961107003b05df804fb0122a8
:103c98000df10701184600f057fc10b19df8070018
:083ca800f2e74ff0ff30efe7f7
:020000040000fa
:020000040040ba
:103cb00030b50c4a002312f8134024b902eb430339
:103cc0005b78184630bd01680d78a54209bf02eb4c
:103cd000430301335b78013114bfdbb201600a2b6f
:083ce000e9d9eee7944240002f
:020000040000fa
:020000040040ba
:103ce80030b40d68b5f1ff3f02d000f1080202e0e0
:103cf800026904e01a4653681c68ac42fad9536852
:103d08004b6099608a605160086103680133036001
:043d180030bc704704
:020000040000fa
:020000040040ba
:103d1c0010b540b90a4b4ff080521a60bff34f8f69
:103d2c00bff36f8f10bd044600f082fb00212046cc
:103d3c00fef7eafffef722fa0028f3d1eae700bf0c
:043d4c0004ed00e0a2
:020000040000fa
:020000040040ba
:103d500010b50446094b186000f014f810f0070085
:103d600005d0072803d0064b04221a7010bde4b218
:103d7000012cfbd1024b03221a70f7e7ecf545202a
:043d800006f64520de
:020000040000fa
:020000040040ba
:103d84000a4b586c20f4605020f018004004400c9a
:103d94009b6913f0010f08d0044a936923f00103cf
:103da4009361936913f0010ffbd170470040034006
:020000040000fa
:020000040040ba
:103db40008b500f021fbfef7f5fffef79dfb4ff47d
:103dc4000043064a5360b03a5360fef707fffff71b
:103dd400a9fcfff753fefff72ffd08bd00190e40a5
:020000040000fa
:020000040040ba
:103de40000b583b0074b01930123009300234ff4e4
:103df400806205490548fdf7a7fafff793fb03b076
:103e04005df804fb94f54520e44240001d45400064
:020000040000fa
:020000040040ba
:103e140008b54ff0200372b683f31188bff36f8f98
:103e2400bff34f8f62b6fdf7a3ff18b1034b4ff0fa
:103e340080521a60002383f3118808bd04ed00e06a
:020000040000fa
:020000040040ba
:103e440070b506460d4601fb00f04830fff7c8fa8e
:103e5400044648b155b100f148032360e663256484
:103e640001212046fff74cfa204670bd0346f4e7d3
:020000040000fa
:020000040040ba
:103e740008b5fef707f800220649104600f0b4f929
:103e840000220549012000f0aff90021034800f0a9
:103e9400c3fa08bd51344000bd34400065364000cb
:020000040000fa
:020000040040ba
:103ea40008b5012000f036f9064b186038b1064811
:103eb400fff7deff054b01221a70002008bd012028
:103ec400fce700bff0f5452000f045200af6452048
:020000040000fa
:020000040040ba
:103ed40053b94ab9002908bf00281cbf4ff0ff316d
:103ee4004ff0ff3000f036bbadf1080c6de904cea5
:103ef400fdf7ccf8ddf804e0dde9022304b07047f7
:020000040000fa
:020000040040ba
:103f04004ff0807340f8043c21f0010140f8081c94
:103f1400054b40f80c3c40f8202c6ff0020340f8ad
:0c3f2400243c4438704700bf9f40400020
:020000040000fa
:020000040040ba
:103f3000084b1b681b6823b9074b4ff0ff321a6010
:103f40007047044b1b68db68db685a68024b1a60d9
:0c3f5000704700bfa8f54520c8f54520cb
:020000040000fa
:020000040040ba
:103f5c0070b5002902fb01f614460d4618bf144635
:103f6c0001463246184608bf002400f0ebfa8642a0
:0a3f7c0018bfb0fbf5f4204670bd3d
:020000040000fa
:020000040040ba
:103f8600802910db812901dd83290cd113680733d1
:103f960023f0070303f108011160d3e90023c0e908
:0a3fa600002301207047002070473f
:020000040000fa
:020000040040ba
:103fb00060b959b108b508464822054b996800f028
:103fc000e0f90120034bc3f8980008bd00207047ba
:083fd000d0f44520004003403d
:020000040000fa
:020000040040ba
:103fd80008480068006880f308884ff0000080f304
:103fe800148862b661b6bff34f8fbff36f8f00dfdf
:083ff80000bf000008ed00e02d
:020000040000fa
:020000040040ba
:10400000054b00221a6005490a60054a05491160fe
:1040100007221a60704700bf10e000e018e000e0df
:0840200014e000e0df9304004e
:020000040000fa
:020000040040ba
:104028004e6f207365207075646f206372656172ce
:1040380020656c20626c6f7175656f206d75746595
:08404800780000000d0a0000e1
:020000040000fa
:020000040040ba
:1040500010b5084c2368196800f0a6f8002807dba3
:1040600023680a20196800f061fac00f404210bdb1
:084070000120fbe7b0f445203c
:020000040000fa
:020000040040ba
:104078000369416882688a60416851605a6882426f
:1040880006d0002202611a68013a1a60186870475f
:0640980082685a60f5e7a2
:020000040000fa
:020000040040ba
:10409e0082b0002301934ff0200372b683f3118890
:1040ae00bff36f8fbff34f8f62b6019b002bfcd017
:0440be0002b0704795
:020000040000fa
:020000040040ba
:0e40c20008b50020fff775fefff78bfefce748
:020000040000fa
:020000040040ba
:1040d000074b19680868b0e8f04f80f30988bff310
:1040e0006f8f4ff0000080f311887047aff30080ae
:0440f000a4f54520ce
:020000040000fa
:020000040040ba
:1040f4004ff0200372b683f31188bff36f8fbff3c1
:104104004f8f62b6024a136801331360704700bfd1
:0441140098f54520b5
:020000040000fa
:020000040040ba
:1041180010b5024600210120fff790fe044638b191
:10412800002181600160c1600b460a46fdf7f8fc7a
:04413800204610bd50
:020000040000fa
:020000040040ba
:10413c0008b50120fff7eaff044b186000b108bd79
:10414c0021210348fef754fcf9e700bfe0f54520b8
:04415c0028404000b7
:020000040000fa
:020000040040ba
:1041600008b50648fff712fd054b186820b1fef7a9
:104170002dfa034b00221a6008bd00bfd41f400077
:04418000e8f54520f9
:020000040000fa
:020000040040ba
:104184000fb407b5064b04aa1b6852f8041b186841
:10419400019200f06ff803b05df804eb04b07047cf
:0441a400b0f445200e
:020000040000fa
:020000040040ba
:1041a80070b50e46054600f05df9334604460246f2
:1041b80001212846fff7cefe001b18bf4ff0ff3045
:0241c80070bdc8
:020000040000fa
:020000040040ba
:1041ca0000b583b000230193009146f27a022321bd
:1041da00fdf7a9f9b0fa80f0400903b05df804fbd5
:020000040000fa
:020000040040ba
:0241ea00fee7ee
:020000040000fa
:020000040040ba
:1041ec0010b429b1044b43f8301003ebc0035a60f0
:0c41fc005df8044b704700bf50f54520f3
:020000040000fa
:020000040040ba
:10420800054bd8689b68984201d8181a7047024a2b
:0c42180012691344181a704714f4452072
:020000040000fa
:020000040040ba
:10422400054bd86a9b6a984201d8181a7047024a0b
:0c423400126b1344181a704714f4452054
:020000040000fa
:020000040040ba
:1042400010b50c46044b19681831fff74dfd0121dc
:0c4250002046fef75ffd10bda4f54520e0
:020000040000fa
:020000040040ba
:10425c00054b1b6823b1044b1a68936c01339364b0
:0c426c00014b1868704700bfa4f5452006
:020000040000fa
:020000040040ba
:1042780013b50446019201aafcf78cfd636813f09c
:0c428800100f18bf4ff0ff3002b010bd47
:020000040000fa
:020000040040ba
:1042940068076c094c836a9074a07ac000806888af
:0c42a40000846c820081286e696c290087
:020000040000fa
:020000040040ba
:1042b0000eb403b503aa52f8041b019200f022f9d0
:0a42c00002b05df804eb03b0704794
:020000040000fa
:020000040040ba
:0242ca00fee70d
:020000040000fa
:020000040040ba
:1042cc00044b93f8342083f8340083f83c101046e8
:0842dc00704700bf14f44520f7
:020000040000fa
:020000040040ba
:1042e40054415245415f5052494e434950414c5ffd
:0842f4005461736b730000bffd
:020000040000fa
:020000040040ba
:1042fc00034b1b680360034b1b684360704700bf94
:08430c00ccf54520d8f5452051
:020000040000fa
:020000040040ba
:104314004ff0200372b683f31188bff36f8fbff39e
:064324004f8f62b6fee7b8
:020000040000fa
:020000040040ba
:10432a004ff0200372b683f31188bff36f8fbff388
:06433a004f8f62b6fee7a2
:020000040000fa
:020000040040ba
:1043400000f1080343604ff0ff328260c3600361f5
:064350000023036070472a
:020000040000fa
:020000040040ba
:1043560043684b609a688a60516099600861036897
:0643660001330360704703
:020000040000fa
:020000040040ba
:10436c0010b50446fff7c0fea46b00f023f8b4fab6
:06437c0084f0400910bdb1
:020000040000fa
:020000040040ba
:1043820010b5431e0a44914200d110bd11f8014bf1
:0643920003f8014ff7e7fc
:020000040000fa
:020000040040ba
:1043980010b5034b1c69fff733ff013c201a10bd11
:0443a80014f44520a4
:020000040000fa
:020000040040ba
:1043ac00dff80c00016841f47001016070470000f7
:0443bc0088ed00e0a8
:020000040000fa
:020000040040ba
:1043c000034a1368013b13600bb983f311887047ec
:0443d00098f54520f7
:020000040000fa
:020000040040ba
:1043d40008b500f0adf8024b1860586008bd00bf86
:0443e40088f54520f3
:020000040000fa
:020000040040ba
:1043e800034611f8012b184603f8012b002af8d1cf
:0243f80070470c
:020000040000fa
:020000040040ba
:0243fa00fee7dc
:020000040000fa
:020000040040ba
:1043fc00014b024a1a607047000c0e400006000484
:020000040000fa
:020000040040ba
:10440c0010b1024b18605960704700bf78f5452019
:020000040000fa
:020000040040ba
:10441c0010b1024b18605960704700bf68f5452019
:020000040000fa
:020000040040ba
:10442c00a50000f00000000096000050960000105f
:020000040000fa
:020000040040ba
:10443c00024a136801331360704700bfb8f545207a
:020000040000fa
:020000040040ba
:10444c0010b9024b01221a70704700bf05f64520c7
:020000040000fa
:020000040040ba
:10445c0002440346934200d1704703f8011bf9e76d
:020000040000fa
:020000040040ba
:10446c0003461a46013311780029fad1101a704705
:020000040000fa
:020000040040ba
:10447c00494e4600696e66004e414e006e616e00fc
:10448c00494e4600696e66004e414e006e616e00ec
:020000040000fa
:020000040040ba
:10449c0008b5fff799ff00f05ef800f05cf808bd76
:020000040000fa
:020000040040ba
:0e44ac00a0f14103192b98bf40f0200070478b
:020000040000fa
:020000040040ba
:0e44ba00a0f16103192b98bf00f05f0070475e
:020000040000fa
:020000040040ba
:0c44c80008b1014a9063704714f44520cd
:020000040000fa
:020000040040ba
:0c44d400014b18625962704714f4452037
:020000040000fa
:020000040040ba
:0c44e000014b01221a607047dcf54520fa
:020000040000fa
:020000040040ba
:0c44ec00014b05221a70704706f64520af
:020000040000fa
:020000040040ba
:0c44f800014b03221a7070470af64520a1
:020000040000fa
:020000040040ba
:0c45040013460a466ff00041fff7dcb8d8
:020000040000fa
:020000040040ba
:0c45100010b50446fff768ff204610bd00
:020000040000fa
:020000040040ba
:08451c0008b5fef7c5f9fce744
:020000040000fa
:020000040040ba
:0845240049444c45000000bfb2
:020000040000fa
:020000040040ba
:08452c0008b5fff7a3fb08bd71
:020000040000fa
:020000040040ba
:084534000048704794f4452093
:020000040000fa
:020000040040ba
:07453c00286e756c6c29006c
:020000040000fa
:020000040040ba
:064544004ff0ff3070474c
:020000040000fa
:020000040040ba
:06454a000023036170472d
:020000040000fa
:020000040040ba
:064550000068fff7f7bf51
:020000040000fa
:020000040040ba
:02455600fee77e
:020000040000fa
:020000040040ba
:04455800704700bfe9
:020000040000fa
:020000040040ba
:02455c007047a6
:020000040000fa
:020000040040ba
:02455e007047a4
:020000040000fa
:020000040040ba
:0445600070477047e9
:020000040000fa
:02000004d0002a
:0400000002000000fa
:00000001FF
