:020000040000fa
:020000040040ba
:10000000f0ff452009074000431440003f1e400018
:10001000eb204000ed204000ef20400000000000f9
:10002000000000000000000000000000411e400031
:100030007b2040000000000011184000651c4000bb
:10004000db124000db124000db124000db124000fc
:10005000db124000db124000db124000db124000ec
:10006000db124000000000003d204000db12400099
:10007000db124000db1240008d054000db12400027
:10008000db124000db124000db124000db124000bc
:10009000db124000db124000db124000db124000ac
:1000a000db124000db124000db124000db1240009c
:1000b000db124000db124000db124000db1240008c
:1000c000db124000db124000db124000db1240007c
:1000d000db124000db124000db124000db1240006c
:1000e000db124000db124000db124000db1240005c
:1000f000db124000db124000db124000db1240004c
:10010000db124000db124000db124000db1240003b
:10011000db124000db124000000000000000000085
:10012000db124000db124000db124000db1240001b
:10013000db124000db124000db124000db1240000b
:10014000db124000db124000db124000db124000fb
:10015000db124000db124000db124000db124000eb
:08016000db124000db1240003d
:020000040000fa
:020000040040ba
:10016800f8b500bff8bc08bc9e467047f51a4000b9
:10017800f8b500bff8bc08bc9e467047d11a4000cd
:020000040000fa
:020000040040ba
:10018800f4a240201c0000000000000084a34020ce
:100198000c0000000000000090a3402006000000b2
:1001a80001000000000101010101000074a34020ca
:1001b800100000000000000000a040200002000025
:1001c80000000000b4a24020400000000000000031
:1001d80098a3402004000000000000009ca34020d9
:1001e8000400000000000000a0a34020040000005c
:1001f80000000000a4a3402004000000000000004c
:10020800a8a340200400000001000000aaaaaaaa8e
:10021800aca34020040000000000000000004020c3
:1002280000a0000000000000b0a34020040000006f
:1002380000000000b4a340200400000000000000fb
:10024800b8a340200400000000000000bca3402028
:10025800040000000000000000a24020640000002c
:1002680000000000c0a340200400000000000000bf
:10027800c4a340200400000000000000c8a34020e0
:100288000400000000000000cca34020040000008f
:1002980000000000d0a3402004000000000000007f
:1002a80010a34020140000000000000024a34020f8
:1002b8001400000000000000d4a340200400000047
:1002c80000000000d8a34020040000000000000047
:1002d800dca340200400000000000000e0a3402050
:1002e800040000000000000038a3402014000000b3
:1002f80000000000e4a3402004000000000000000b
:100308004ca34020140000000000000060a340201f
:100318001400000000000000e8a3402004000000d2
:1003280000000000eca340200400000000000000d2
:1003380008a440200100000000000000f0a34020b5
:10034800040000000000000004a440200100000098
:1003580000000000f4a3402004000000000000009a
:1003680000a440200100000000000000f8a3402085
:10037800040000000000000064a2402050000000bb
:1003880000000000fca34020040000000000000062
:100398000000000000000000222222222222222245
:020000040000fa
:020000040040ba
:1003a8002de9f84f80460e4699469500284601f0fb
:1003b80023f9002800f0c1800746542001f01cf9f9
:1003c8000446002857d007632a46a521384601f07d
:1003d80041fe276b002e54d0337884f8343053b163
:1003e800334604f134010f3613f8012f01f8012fb9
:1003f8000ab1b342f8d1002384f843300a9e042e90
:1004080028bf0426e66266644ff0000bc4f848b0c3
:1004180004f1040a504601f061fe04f1180001f0ed
:100428005dfe2461c6f10506a6616462c4f84cb09d
:1004380084f850b0043d3d444a46414625f0070043
:1004480001f06afc20600b9b03b11c6001f006fd03
:100458003e4a1368013313603d4b1b68abb13d4bfb
:100468001b68bbb93a4b1b68da6ae36a9a4211d82f
:10047800374b1c600ee0384601f037fe4ff0ff3076
:100488005de0002384f83430b8e7314b1c60136812
:10049800012b28d0304a136801331360e06a2f4ad1
:1004a8001168012383400b43136000eb8000514621
:1004b8002b4b03eb800001f076fd01f0a9fd254be5
:1004c8001b68002b3dd0224b1b68da6ae36a9a420c
:1004d80039d2244b4ff080521a60bff34f8fbff3cd
:1004e8006f8f01202be01e4d284601f051fd05f1cc
:1004f800140001f04dfd05f1280001f049fd05f15a
:100508003c0001f045fd05f1500001f041fd164e9b
:10051800304601f03dfd154d284601f039fd1448df
:1005280001f036fd134801f033fd134801f030fdaa
:10053800124b1e60124b1d60ace74ff0ff30bde858
:10054800f88f0120fbe70120f9e700bfc0a3402096
:10055800b4a34020e4a34020cca34020d0a3402053
:1005680000a2402004ed00e010a3402024a3402076
:1005780038a3402060a340204ca34020b8a34020cb
:04058800bca34020b0
:020000040000fa
:020000040040ba
:10058c00f8b55a4b5b6913f0e0030ad1574b5b6922
:10059c0013f0010f20d1554b5b6913f0020f67d19b
:1005ac00f8bddbb2524a82f83d30504b4ff48072aa
:1005bc001a605b6913f0010f05d04c4b9a695a69ac
:1005cc0012f0010ffad14a4b1b6a002bded0484abd
:1005dc00516a02209847d9e7444e454c46e0226abe
:1005ec00002a31d0616a38469047a36a0133226be6
:1005fc00934228bf002327e0a16a3e48425430e0d2
:10060c0001f06cfc236a002b30d094f83c2032b102
:10061c00a26b90422ad3616a0020984726e0a26b15
:10062c00904223d1616a002098471fe0736913f050
:10063c00010fb0d0b569a36a0133226b934228bf76
:10064c000023e26a9a42cad0e26a9a42eed0c5f31b
:10065c000802716811f4003fced0a06a254921f838
:10066c001020a36294f83430002bc9d10127dde7a8
:10067c001e4d1f4c204e6b6913f0020f90d0e36897
:10068c00a26893422dd06a6812f4003f03f1010274
:10069c0014bf36f81330f35c2169914298bf0022e5
:1006ac00e2606a6812f4003f14bfc3f30803dbb2c4
:1006bc00eb61237d002bded001f094fc2368002b32
:1006cc00d9d0227f32b1a2699042d4d36168032081
:1006dc009847d0e7a2699042cdd161680320984732
:1006ec00c9e7024b0222da605ae700bf00800240e1
:0c06fc00b4a2402074a3402000a04020c5
:020000040000fa
:020000040040ba
:1007080008b54f4b98474f4b9847eff3108172b697
:100718004d4ad2f8883043f47003c2f88830bff3ea
:100728004f8fbff36f8f01b962b6484b484a5a6082
:100738009a6812f0010ffbd0444bdb6813f4c07fba
:1007480013d0444b0c221a60404b434a5a609a68b3
:1007580012f0010ffbd03d4b404a5a609a6812f0e4
:10076800010ffbd03e4b3f4a1a60bff34f8fbff3d8
:100778006f8f354cd4f8903223f00103c4f89032cf
:10078800d4f8943223f00103c4f89432bff34f8fa6
:10079800bff36f8f00f0dafc334b23f07f03a360c5
:1007a800324b9847636913f4003f12d1bff34f8f60
:1007b800bff36f8f0022c4f85022bff34f8fbff3ef
:1007c8006f8f626942f400326261bff34f8fbff3eb
:1007d8006f8f1d4b5b6913f4803f29d11a4b0022a0
:1007e800c3f88420bff34f8fd3f88030c3f3c90612
:1007f800c3f34e335a0143f6e075134802ea050481
:10080800334644ea8371c0f86012013bb3f1ff3ffd
:10081800f7d1203a12f1200ff0d1bff34f8f0a4ad7
:10082800536943f480335361bff34f8fbff36f8f26
:100838000f4b98470f4b984701f014fcfee700bf99
:10084800f1204000f120400000ed00e0000c0e40d7
:100858000d00005a98a340200c08005a0c07005ab3
:1008680000180e40010000a50000400035194000a6
:08087800f1204000f1204000d6
:020000040000fa
:020000040040ba
:100880002de9f04184b0044601914ff0000846463e
:100890004546504f49e0013ba36323684bb12369b0
:1008a0005bb901f0b9fb4ff00108404604b0bde868
:1008b000f08101f035fba060f1e704f1100000f0d9
:1008c0004bfd0028edd0434b4ff080521a60bff330
:1008d0004f8fbff36f8fe4e701f09efb4ff00008ee
:1008e000e3e702a801f036fb29e084f8445032e047
:1008f00084f8455035e001f0b5faa06800f03afb05
:10090000804601f089fb3ce0204600f0a7fc00f0a7
:10091000f9f909e0204600f0a1fc00f0f3f92046c7
:1009200001f050fb002840d1012601f09bfaa36b97
:10093000002bb0d1019b002bced0002ed1d001f0e6
:100940006bfb01f083fb01f08dfa94f844305bb24d
:10095000b3f1ff3fc9d094f845305bb2b3f1ff3f2c
:10096000c6d001f059fb01a902a800f0b5ff00288c
:10097000d0d1204601f026fb0028c5d02368002beb
:10098000b9d0019904f1240001f0bcfa204600f02e
:1009900065fc00f0b7f90028c6d14ff080533b60ea
:1009a000bff34f8fbff36f8fbee7b8f1000f3ff477
:1009b0007caf01f057fa616a19b1236b1968c1f174
:1009c0000501a06800f00afc01f026fb4ff00008ca
:0809d0006be700bf04ed00e03d
:020000040000fa
:020000040040ba
:1009d8002de9f04784b00446884601921d464ff041
:1009e80000094e46434f39e02a464146204600f06a
:1009f800ebfc636a73b938b13e4b4ff080521a6012
:100a0800bff34f8fbff36f8f01f002fb012004b0db
:100a1800bde8f08704f1240000f09afc0028f3d028
:100a2800344b4ff080521a60bff34f8fbff36f8f74
:100a3800eae701f0edfa0020e9e702a801f086fafa
:100a48001ae084f8446023e084f8456026e02046f4
:100a580000f000fc00f052f94ff0010901f0fef936
:100a6800a26be36b9a42bfd3022dbdd0019b002b32
:100a7800dfd0b9f1000fe0d001f0cafa01f0e2fad4
:100a880001f0ecf994f844305bb2b3f1ff3fd8d0f1
:100a980094f845305bb2b3f1ff3fd5d001f0b8fa16
:100aa80001a902a800f014ffe8b901f0d7f9d4f8b9
:100ab80038a0d4f83c9001f0abfaca45c7d10199e7
:100ac80004f1100001f01afa204600f0c3fb00f010
:100ad80015f90028c0d14ff080533b60bff34f8f0a
:100ae800bff36f8fb8e7204600f0b4fb00f006f9bb
:080af80000208ce704ed00e092
:020000040000fa
:020000040040ba
:100b00002de9f047384b1b68002b67d1374b1f6826
:100b100001371f60bfb1364b1b68bb4220d900258f
:100b2000344b1b68db6a03eb83039b00324ad358c8
:100b3000022b28bf0125314b1b68002b18bf012554
:100b40002846bde8f0872e4a11682e4b18681060c1
:100b500019602d4a13680133136001f0f7f8dae7e2
:100b60000025dff89c80dff8a890dff88ca021e05a
:100b70001f4b4ff0ff321a60d2e71d4a1360cfe7d8
:100b800004f1180001f036f9e06ad9f800200123d9
:100b900083401343c9f8003000eb800031460aeb74
:100ba000800001f004fa134b1b68e26adb6a9a4288
:100bb00028bf0125d8f800301b68002bd8d0d8f802
:100bc0000030db68dc6863689f42d6d3261d304660
:100bd00001f010f9a36a002bd2d1d5e70b4a1368b4
:100be000013313600025abe7c8a34020e8a34020f1
:100bf000d8a34020b4a3402000a24020eca3402072
:100c0000b8a34020bca34020dca34020e0a34020a8
:040c1000d0a340200d
:020000040000fa
:020000040040ba
:100c1400384b0022c3f81421d3f8140141f2100117
:100c24000143c3f8141134494ff400134b606ff4bb
:100c340000130b604ff0ff334b650b66c1f8903027
:100c4400c1f8a0304ff4000008616ff4000048615f
:100c54008a634ff40070c1f8b000c1f8d400c86cc6
:100c6400c1f8182101f50071102008674867486031
:100c74006ff0100008604b650b66c1f89030c1f846
:100c8400a0300a614b618a63c1f8182101f5007133
:100c94000b604b650b66c1f89030c1f8a0304ff47f
:100ca400813008616ff4813048618a63c1f818218a
:100cb40001f500710b604b650b66c1f89030c1f80b
:100cc400a0300a614b618a63c1f8182101f50071f3
:100cd4000b604b650b66c1f89030c1f8a0300a6117
:100ce4004b618a63c1f81821044b092119805a60a9
:100cf400704700bf00800840000e0e4084a34020cf
:020000040000fa
:020000040040ba
:100d04002de9f04101f0acf82d4b1a68013a1a6054
:100d14001b68002b4dd12b4b1b680bb9002449e0f9
:100d24000024294e294fdff8b880336803b3f368f1
:100d3400dc6804f1180001f05bf8251d284601f079
:100d440057f8e06a3a680123834013433b6000eba1
:100d54008000294608eb800001f027f91c4b1b6832
:100d6400e26adb6a9a42e0d31a4b01221a60dce79a
:100d74000cb100f0e9ff184b1c686cb1154e01254d
:100d840001e0013c05d0fff7b9fe0028f9d0356039
:100d9400f7e7114b00221a600e4b1c6854b10f4b3d
:100da4004ff080521a60bff34f8fbff36f8f01244f
:100db40000e0002401f02ef92046bde8f08100bfd8
:100dc400c8a34020c0a3402038a34020d0a3402083
:100dd400b4a34020eca34020e0a3402004ed00e0b5
:040de40000a2402009
:020000040000fa
:020000040040ba
:100de8002de9f04782b00021314801f049f901208e
:100df80001f040f90021012001f09cf803220021b4
:100e0800012000f043ff07462a4b18601c462a4e73
:100e1800dff8a880dff8a89008f1240a002f43d053
:100e28004ff0ff3529462068fff726fd0128f9d144
:100e38004ff0ff313068fff71ffd2221404600f0d8
:100e4800e9f800231a4619463068fff7c1fd012565
:100e580029460df1070000f0c3fd01280cd19df8cb
:100e6800073003f0df034c2bf2d1d9f8383083f484
:100e78000073c9f83830ebe701f008f9054601f0ce
:100e880005f9401b3128fad94ff0ff313068fff7d8
:100e9800f3fc2221504600f0bdf800231a461946fb
:100ea8003068fff795fdb9e702b0bde8f08700bfed
:100eb800311c4000f4a34020f0a34020881a4000d1
:040ec80000120e40c6
:020000040000fa
:020000040040ba
:100ecc00244b1b681bb1244b01221a60704710b5d0
:100edc00214b00221a60214b1b681b6b1a68b2f164
:100eec00a53f03d15a68b2f1a53f23d01b4b18681c
:100efc001968343101f034f8194b1b68b3fa83f3d9
:100f0c00dbb2c3f11f03174a9900c81802eb80002b
:100f1c00446864684460194402460832944212d012
:100f2c0003eb83030f4a02eb83035b68da680b4b1a
:100f3c001a6010bd9a68b2f1a53fd7d1db68b3f146
:100f4c00a53fd3d1d8e760680a46064901eb820277
:100f5c005060e5e7c8a34020eca34020b4a3402098
:080f6c00d0a3402000a24020a8
:020000040000fa
:020000040040ba
:100f7400002849d038b50446c26a24490968c96ab8
:100f84008a4238d28169002905db20490968c96a87
:100f9400c1f10501816102eb82021d4901eb82026c
:100fa4006169914205d0194a1268d26ae26201204d
:100fb40029e0251d284600f01bff38b915490b68a8
:100fc400e06a0122824023ea02030b600f4b1b6894
:100fd400d86ae0620f4a1168012404fa00f30b4353
:100fe400136000eb80002946094b03eb800000f0fe
:100ff400dcff204607e0054a1268406cd36a984239
:101004002cbf0020012038bd00207047b4a340202d
:0810140000a24020d0a34020ff
:020000040000fa
:020000040040ba
:10101c002de9f041002945d08c46234b1e69002454
:10102c00224d1a46dff888e00fe030f81470d5f83e
:10103c00048018f4003f14bf2ef811700ef80170e4
:10104c009360631c013463452ad26b6813f400333c
:10105c0010d0d76891684b1cb34228bf00239f4225
:10106c00e3d100f02dff10b1104b02229a60204604
:10107c00bde8f081d2f80c809768791cb14228bf8a
:10108c0019468845edd0035dd5f8048018f4003f6f
:10109c0014bf2ef817300ef807309160631cd1e79f
:1010ac001c46dee70c46dce7b4a240200080024080
:0410bc0000a0402030
:020000040000fa
:020000040040ba
:1010c00070b504460e461c4b1d681c4b1868043056
:1010d00000f090fe48b9194b1a6819490b68d06a9c
:1010e0000122824023ea02030b60b4f1ff3f00d1ea
:1010f0006eb92c44114b1b685c60a5420ed9114b94
:1011000018680e4b1968043100f05efd70bd0b4b82
:10111000196804310c4800f04afff7e70b4b1868d8
:10112000064b1968043100f04ffd094b1b68a342c0
:10113000ecd9074b1c60e9e7e8a34020b4a34020aa
:10114000d0a34020bca340204ca34020b8a3402003
:04115000d8a34020c0
:020000040000fa
:020000040040ba
:101154001e4b1f4a9342f0b438bf002103d203f858
:10116400011b9342fbd11b4ad2e9000150ea01035f
:101174004ff0000610d09468034602f10c076cb9d6
:1011840021b1014403f8016b9942fbd13a46d2e9fb
:10119400000150ea0103eed1f0bc704759b101f1ee
:1011a4000c030c38801a1a443b461c1813f8015bd4
:1011b40025709342f9d111f0030318bf012303eb07
:1011c400910107eb81073a46e1e700bf00004020a8
:0811d4000000402088014000ea
:020000040000fa
:020000040040ba
:1011dc00002838d038b50446426c914238bf1146cd
:1011ec00c26a8a4202d0806c012800d038bde1620c
:1011fc00a069002802dbc1f10501a16102eb8202aa
:10120c00114901eb820261699142efd1251d2846fb
:10121c0000f0eafd38b90d490b68e06a0122824002
:10122c0023ea02030b60e06a084a11680123834039
:10123c000b43136000eb80002946034b03eb80004b
:10124c0000f0affed2e7704700a24020d0a34020b0
:020000040000fa
:020000040040ba
:10125c0070b5054600f000fe95f8454064b2002cd0
:10126c0011dd6b6a7bb105f1240606e000f012ff7c
:10127c00013c64b23cb16b6a2bb1304600f066f8ad
:10128c000028f5d0f2e7ff2385f8453000f0befecc
:10129c0000f0e2fd95f8444064b2002c11dd2b699e
:1012ac007bb105f1100606e000f0f4fe013c64b2df
:1012bc003cb12b692bb1304600f048f80028f5d032
:0e12cc00f2e7ff2385f8443000f0a0fe70bd6d
:020000040000fa
:020000040040ba
:0212da00fee72d
:020000040000fa
:020000040040ba
:1012dc00002835d038b50446826c013a8264c06a65
:1012ec00616c884200d00ab1002038bd251d28460b
:1012fc0000f07afd70b9e26a02eb82039b0011499f
:10130c00cb583bb910480368012101fa02f223ead9
:10131c0002020260606ce062c0f10503a3610a4a3c
:10132c001168012404fa00f30b43136000eb8000f6
:10133c002946044b03eb800000f033fe2046d4e733
:0c134c000020704700a24020d0a34020e9
:020000040000fa
:020000040040ba
:1013580038b5c368dc6804f11805284600f046fd76
:10136800134b1b68e3b9251d284600f03ffde06ad2
:10137800104a1168012383400b43136000eb80007f
:1013880029460d4b03eb800000f00dfe0b4b1b684c
:10139800e26adb6a9a4208d90120094b186005e025
:1013a8002946084800f0fffdf0e7002038bd00bfdf
:1013b800c8a34020d0a3402000a24020b4a34020ce
:0813c800eca3402038a34020f3
:020000040000fa
:020000040040ba
:1013d00070b504461646856b026c5ab903681bb19a
:1013e00000200135a56370bd8068fff777ff0023fb
:1013f000a360f6e76eb9406800f0effd6368226c09
:1014000013446360a268934219d323686360304633
:10141000e7e7c06800f0e1fd226c5242e368134444
:10142000e36021688b4202d2a3681a44e2600db1e6
:10143000022e01d00020d4e7013d0020d1e7304644
:02144000cfe7f4
:020000040000fa
:020000040040ba
:02144200fee7c3
:020000040000fa
:020000040040ba
:1014440010b582b0134c144b019301230093002375
:101454004ff4806221461148fef7a4ff104b01931c
:101464000223009300234ff4806204f10c010d4821
:10147400fef798ff0c4b01930323009300234ff4d2
:10148400806204f118010948fef78cff00f058f956
:1014940002b010bdf41c4000a0a34020c5204000b1
:1014a400a4a34020cd2040009ca34020d520400090
:020000040000fa
:020000040040ba
:1014b40038b504460d4600f0d3fc2268216ce36b7a
:1014c40003fb01f3d018a0600020a06362605b1ae4
:1014d4001344e360ff2384f8443084f84530a5b90d
:1014e40023691bb900f096fd012038bd04f11000fa
:1014f400fff730ff0028f5d0084b4ff080521a60f8
:10150400bff34f8fbff36f8fece704f1100000f0cf
:1015140041fd04f1240000f03dfde3e704ed00e0ab
:020000040000fa
:020000040040ba
:1015240080b5164c164f174edff860802368bbb1a8
:1015340000f096fcfb68dd68281d00f059fc336858
:10154400013b33602368013b236000f063fd286b9b
:1015540000f0cdfd284600f0cafd2368002be7d13a
:10156400094b1b68012be1d94ff08053c8f80030b8
:10157400bff34f8fbff36f8fd8e700bfc4a34020e2
:1015840060a34020c0a3402000a2402004ed00e05e
:020000040000fa
:020000040040ba
:1015940018494ff486730b6050230b604ff40c63af
:1015a4004b6051230b62144b00221a629a62da6276
:1015b40083f8342083f83c209a6383f83d201a6032
:1015c4009a60da601a751a779a614b6813f4003fcf
:1015d40009d0094b08221a634ff480721a61054b33
:1015e400e1229a607047044b10221a634ff4007290
:0c15f4001a61f4e700800240b4a240201d
:020000040000fa
:020000040040ba
:1016000038b5044610f0070f02d020f00704083464
:1016100000f01cfd124b1b687bb1124b1b681c4475
:1016200049f6f77294420ed8a3420fd3fff76afb34
:1016300000f0a7fc0025284638bd094a0a4b23f0d4
:1016400007031360e9e7fff75dfbf1e7044a15685c
:101650001d44044b1c60fff755fb002debd1e7e761
:0c166000aca34020b0a3402008004020b4
:020000040000fa
:020000040040ba
:10166c002de9f041174d4ff0ff36174f07f12008c9
:10167c0011e031462868fff7fdf80c2107f1300026
:10168c00fff7c6fc00231a4619462868fff79ef997
:10169c000a2000f0adfa31462868fff7ebf80c2170
:1016ac004046fff7b5fc00231a4619462868fff799
:1016bc008df900f0e9fc044600f0e6fc001b632801
:0c16cc00fad9d6e7f0a34020501b4000e4
:020000040000fa
:020000040040ba
:1016d8002de9f041174d4ff0ff36174f07f1180865
:1016e80010e031462868fff7c7f817214046fff792
:1016f80091fc00231a4619462868fff769f9fa2071
:1017080000f078fa31462868fff7b6f8172138460e
:10171800fff780fc00231a4619462868fff758f996
:1017280000f0b4fc044600f0b1fc001b0928fad90b
:0c173800d7e700bff0a34020c41c400015
:020000040000fa
:020000040040ba
:1017440000b583b0124b019300230093802211490a
:101754001148fef727fe012802d003b05df804fb10
:101764004ff0200372b683f31188bff36f8fbff37a
:101774004f8f62b6094b4ff0ff321a60084b0122bb
:101784001a60084b00221a6000f058f9e5e700bf20
:10179400d4a34020dc20400025154000d8a34020dd
:0817a400e4a34020e8a340206b
:020000040000fa
:020000040040ba
:1017ac00164b174a9a629a6e12f0020ffbd0134a2c
:1017bc00136b23f07003136313469a6e12f0080f29
:1017cc00fbd00e4a136b23f4407343f48073136302
:1017dc0013469a6e12f0080ffbd0084a136b23f0d5
:1017ec00030343f00203136313469a6e12f0080fbf
:1017fc00fbd0024b4ff457321a61704700060e4073
:04180c00013f182060
:020000040000fa
:020000040040ba
:10181000eff30980bff36f8f154b1a681ef0100f9e
:1018200008bf20ed108a20e9f04f10602de9090073
:101830004ff0200072b680f31188bff34f8fbff3d3
:101840006f8f62b6fff742fb4ff0000080f3118804
:1018500009bc19680868b0e8f04f1ef0100f08bf07
:10186000b0ec108a80f30988bff36f8f704700bf18
:04187000b4a34020bd
:020000040000fa
:020000040040ba
:1018740038b5eff311844ff0200372b683f3118867
:10188400bff36f8fbff34f8f62b6826bc36b93420c
:101894001ad990f845305bb201328263b3f1ff3f4d
:1018a40005d001335bb280f8453001200de0436a76
:1018b4000bb9012009e00d462430fff74bfd3db183
:1018c40030b10120286000e0002084f3118838bd85
:0418d4000120fae70e
:020000040000fa
:020000040040ba
:1018d80070b504460d4600f0c1fa124b1a682b6821
:1018e800b3f1ff3f16d061680f480068266886424a
:1018f80001d0914213d9501a834203d800232b6098
:10190800012408e09b1a0b442b60204600f01efbc4
:10191800002400e0002400f07bfb204670bd012479
:0c192800f9e700bfe8a34020dca340204a
:020000040000fa
:020000040040ba
:101934000e4a38b5002313600d4a0e4c13600e4a4c
:101944000e4d13600e4a13600e4a13600e4a536222
:1019540013610123936000f0cbfb00f0c9fbac42a0
:1019640000d338bd54f8043b9847f8e7fca3402063
:1019740070a24020740140006ca240207801400015
:0c19840064a2402068a2402074a2402011
:020000040000fa
:020000040040ba
:1019900038b5c46c856c114b03445b0a1049ca5cb2
:1019a0000b445b789a4218d202eb42030d4931f99d
:1019b000230000f01f0101238b402c4023420cd058
:1019c00002eb4203074901eb83035c682cb102eb95
:1019d000420201eb82029168a04738bd00f2f1bfdc
:0819e00090a3402084a34020e5
:020000040000fa
:020000040040ba
:1019e800f0b4124ad36a956a0022114fdff844c056
:1019f8000e4e08e01cf8034084540133346b9c42bb
:101a080098bf00230132ab420bd0914209d97c68c0
:101a180014f4003feed03cf8134020f81240013394
:101a2800ece70249cb621046f0bc7047b4a24020f4
:081a38000080024074a340206d
:020000040000fa
:020000040040ba
:101a400010b50e4b1a6842f460021a601a6842f030
:101a500060421a6000f0baf90024094b1c6000f0e3
:101a6000d1fa084a136843f04043136000f09af932
:101a7000fff72cfa00f0d1f9204610bd20ed00e070
:081a8000a8a3402034ef00e0b0
:020000040000fa
:020000040040ba
:101a8800202020202020202020202020202020204e
:101a980020202020202054736b332d5033203c2de0
:101aa8000d0a000020202020202020202020202097
:101ab8002020202020202020202054736b332d50fc
:081ac80033202d3e0d0a000041
:020000040000fa
:020000040040ba
:101ad00010b5054c237833b9044b13b10448aff368
:101ae00000800123237010bdf4a2402000000000fc
:101af0000000000008b5034b1bb103490348aff3d6
:101b0000008008bd00000000f8a240200000000096
:020000040000fa
:020000040040ba
:101b10000d4bd96821f4e0610904090c0b4a0a4312
:101b2000da60bff35f8f62b6e02283f82320a3f56b
:101b3000406383f80a234ff48061196083f80e2311
:101b40004ff480421a60704700ed00e00000fa0593
:020000040000fa
:020000040040ba
:101b5000436f756c64206e6f742063726561746589
:101b6000206d75746578206c6f636b0d0a00000042
:101b700054736b312d5031203c2d0d0a00000000b4
:101b800054736b312d5031202d3e0d0a000000bfe3
:020000040000fa
:020000040040ba
:101b900008b500f04bfafff709fefff73bf84ff4ea
:101ba0000043084a5360b03a5360fff7f3fc00f07b
:101bb0007df900f0e1f800f079fa00f07dfafff726
:081bc000a7ff08bd00190e404b
:020000040000fa
:020000040040ba
:101bc80030b40d68b5f1ff3f02d000f1080202e021
:101bd800026904e01a4653681c68ac42fad9536893
:101be8004b6099608a605160086103680133036043
:041bf80030bc704746
:020000040000fa
:020000040040ba
:101bfc0010b540b90a4b4ff080521a60bff34f8fab
:101c0c00bff36f8f10bd044600f01afa0021204676
:101c1c00fff750fafff770f80028f3d1eae700bf9e
:041c2c0004ed00e0e3
:020000040000fa
:020000040040ba
:101c300000b1704700b583b001a9084b1868fff7e1
:101c400019fe019b3bb1064b4ff080521a60bff367
:101c50004f8fbff36f8f03b05df804fbf4a34020f8
:041c600004ed00e0af
:020000040000fa
:020000040040ba
:101c640008b54ff0200372b683f31188bff36f8f6a
:101c7400bff34f8f62b6fef741ff18b1034b4ff02d
:101c840080521a60002383f3118808bd04ed00e03c
:020000040000fa
:020000040040ba
:101c940070b506460d4601fb00f04830fff7aefc78
:101ca400044648b155b100f148032360e663256456
:101cb40001212046fff7fcfb204670bd0346f4e7f4
:020000040000fa
:020000040040ba
:101cc400202020202020202020202054736b322d1f
:101cd4005032203c2d0d0a002020202020202020de
:101ce40020202054736b322d5032202d3e0d0a00db
:101cf4005441534b315f5461736b73005441534be4
:101d0400325f5461736b730054415245415f5541d6
:0c1d140052545f5461736b73000000bff9
:020000040000fa
:020000040040ba
:101d20004ff0807340f8043c21f0010140f8081c9a
:101d3000054b40f80c3c40f8202c6ff0020340f8b3
:0c1d4000243c4438704700bf1b1e4000cc
:020000040000fa
:020000040040ba
:101d4c00084b1b681b6823b9074b4ff0ff321a6016
:101d5c007047044b1b68db68db685a68024b1a60df
:0c1d6c00704700bfb8a34020d8a340205f
:020000040000fa
:020000040040ba
:101d780008b5074b00221a70012000f081f8054bc6
:101d8800186000b108bd1d210348fff743f9f9e7c2
:0c1d980008a44020f0a34020501b400095
:020000040000fa
:020000040040ba
:101da40008480068006880f308884ff0000080f35a
:101db400148862b661b6bff34f8fbff36f8f00df35
:081dc40000bf000008ed00e083
:020000040000fa
:020000040040ba
:101dcc00054b00221a6005490a60054a0549116055
:101ddc0007221a60704700bf10e000e018e000e036
:081dec0014e000e0df930400a5
:020000040000fa
:020000040040ba
:101df4000369416882688a60416851605a68824216
:101e040006d0002202611a68013a1a601868704705
:061e140082685a60f5e748
:020000040000fa
:020000040040ba
:101e1a0082b0002301934ff0200372b683f3118836
:101e2a00bff36f8fbff34f8f62b6019b002bfcd0bd
:041e3a0002b070473b
:020000040000fa
:020000040040ba
:021e3e00fee7bd
:020000040000fa
:020000040040ba
:101e4000074b19680868b0e8f04f80f30988bff3c2
:101e50006f8f4ff0000080f311887047aff3008060
:041e6000b4a34020c7
:020000040000fa
:020000040040ba
:101e64004ff0200372b683f31188bff36f8fbff373
:101e74004f8f62b6024a136801331360704700bf84
:041e8400a8a34020af
:020000040000fa
:020000040040ba
:101e880010b5024600210120fff700ff044638b1d3
:101e9800002181600160c1600b460a46fef798fd8b
:041ea800204610bd03
:020000040000fa
:020000040040ba
:101eac00054b4ff480321a63044a4ff4000111635e
:101ebc004ff400721a63704700120e40000e0e4071
:020000040000fa
:020000040040ba
:101ecc00054bd8689b68984201d8181a7047024a8b
:0c1edc0012691344181a7047b4a2402089
:020000040000fa
:020000040040ba
:101ee800054bd86a9b6a984201d8181a7047024a6b
:0c1ef800126b1344181a7047b4a240206b
:020000040000fa
:020000040040ba
:101f040010b50c46044b19681831fff75bfe01212c
:0c1f14002046fff7d3f810bdb4a3402016
:020000040000fa
:020000040040ba
:101f2000054b1b6823b1044b1a68936c013393640f
:0c1f3000014b1868704700bfb4a34020ac
:020000040000fa
:020000040040ba
:101f3c00044b93f8342083f8340083f83c1010469b
:081f4c00704700bfb4a2402061
:020000040000fa
:020000040040ba
:101f5400034b1b680360034b1b684360704700bf5f
:081f6400dca34020e8a34020ab
:020000040000fa
:020000040040ba
:101f6c004ff0200372b683f31188bff36f8fbff36a
:061f7c004f8f62b6fee784
:020000040000fa
:020000040040ba
:101f82004ff0200372b683f31188bff36f8fbff354
:061f92004f8f62b6fee76e
:020000040000fa
:020000040040ba
:101f980000f1080343604ff0ff328260c3600361c1
:061fa800002303607047f6
:020000040000fa
:020000040040ba
:101fae0043684b609a688a60516099600861036863
:061fbe00013303607047cf
:020000040000fa
:020000040040ba
:101fc40010b50446fff74cffa46b00f023f8b4faf5
:061fd40084f0400910bd7d
:020000040000fa
:020000040040ba
:101fda0010b5431e0a44914200d110bd11f8014bbd
:061fea0003f8014ff7e7c8
:020000040000fa
:020000040040ba
:101ff00010b5034b1c69fff769ff013c201a10bda7
:04200000b4a2402026
:020000040000fa
:020000040040ba
:10200400dff80c00016841f47001016070470000c2
:0420140088ed00e073
:020000040000fa
:020000040040ba
:10201800034a1368013b13600bb983f311887047b7
:04202800a8a3402009
:020000040000fa
:020000040040ba
:10202c00014b024a1a607047000c0e400006000477
:020000040000fa
:020000040040ba
:10203c0008b50248fff7a6fc08bd00bf000e0e4015
:020000040000fa
:020000040040ba
:10204c00024a136801331360704700bfc8a34020d5
:020000040000fa
:020000040040ba
:10205c0002440346934200d1704703f8011bf9e791
:020000040000fa
:020000040040ba
:0e206c0008b50020fff78efdfff7e6f9fce750
:020000040000fa
:020000040040ba
:02207a00fee77f
:020000040000fa
:020000040040ba
:0c207c0008b1014a90637047b4a24020f4
:020000040000fa
:020000040040ba
:0c208800014b186259627047b4a240205e
:020000040000fa
:020000040040ba
:0c209400014b1868704700bfe8a3402013
:020000040000fa
:020000040040ba
:0c20a000014b01221a607047eca34020a5
:020000040000fa
:020000040040ba
:0c20ac00014b00221a70704704a4402071
:020000040000fa
:020000040040ba
:0c20b800014b00221a70704700a4402069
:020000040000fa
:020000040040ba
:0820c40008b5fff7d1fafce7b3
:020000040000fa
:020000040040ba
:0820cc0008b5fff703fbfce778
:020000040000fa
:020000040040ba
:0820d40008b5fef787fefce7ea
:020000040000fa
:020000040040ba
:0820dc0049444c45000000bf1f
:020000040000fa
:020000040040ba
:0620e400002303617047b8
:020000040000fa
:020000040040ba
:0220ea00fee70f
:020000040000fa
:020000040040ba
:0220ec00fee70d
:020000040000fa
:020000040040ba
:0220ee00fee70b
:020000040000fa
:020000040040ba
:0220f000704737
:020000040000fa
:020000040040ba
:0220f200704735
:020000040000fa
:020000040040ba
:0220f400704733
:020000040000fa
:02000004d0002a
:0400000002000000fa
:00000001FF
