:020000040000fa
:020000040040ba
:10000000f0ff4520a50c400063204000e32940009c
:100010002d2a40002f2a40001b2d40000000000028
:10002000000000000000000000000000312a400035
:100030009b2c40000000000061234000b5284000d8
:10004000871e4000871e4000871e4000871e40001c
:10005000871e4000871e4000871e4000871e40000c
:10006000871e4000000000005d2c4000871e4000fd
:10007000871e4000871e4000290b4000871e40005d
:10008000871e4000871e4000871e4000871e4000dc
:10009000871e4000871e4000871e4000871e4000cc
:1000a000871e4000871e4000871e4000871e4000bc
:1000b000871e4000871e4000871e4000871e4000ac
:1000c000871e4000871e4000871e4000871e40009c
:1000d000871e400089054000871e4000871e4000a3
:1000e000871e4000871e4000871e4000871e40007c
:1000f000871e4000871e4000871e4000871e40006c
:10010000871e4000871e4000871e4000871e40005b
:10011000871e4000871e4000000000000000000015
:10012000871e4000871e4000871e4000871e40003b
:10013000871e4000871e4000871e4000871e40002b
:10014000871e4000871e4000871e4000871e40001b
:10015000871e4000871e4000871e4000871e40000b
:08016000871e4000871e4000cd
:020000040000fa
:020000040040ba
:10016800f8b500bff8bc08bc9e467047dd264000c5
:10017800f8b500bff8bc08bc9e467047b9264000d9
:020000040000fa
:020000040040ba
:10018800b8a440201c0000000000000098a44020f3
:10019800200000000000000070a44020280000009b
:1001a8000000000034a440203c00000000000000d3
:1001b8005aa54020010000000000000048a540208a
:1001c8000c0000000000000054a5402006000000bc
:1001d80001000000000101010101000038a54020d4
:1001e800100000000000000000a0402000020000f5
:1001f80000000000f4a340204000000000000000c0
:1002080064a54020040000000000000068a540200c
:1002180004000000000000006ca54020040000005d
:100228000000000070a5402004000000000000004d
:1002380074a540200400000001000000aaaaaaaa90
:1002480078a54020040000000000000000004020c5
:1002580000a00000000000007ca540200400000071
:100268000000000080a540200400000000000000fd
:1002780084a54020040000000000000088a540205c
:10028800040000000000000040a3402064000000bb
:10029800000000008ca540200400000000000000c1
:1002a80090a54020040000000000000094a5402014
:1002b800040000000000000098a540200400000091
:1002c800000000009ca54020040000000000000081
:1002d800d4a440201400000000000000e8a440203e
:1002e8001400000000000000a0a540200400000049
:1002f80000000000a4a54020040000000000000049
:10030800a8a540200400000000000000aca5402083
:100318000400000000000000fca4402014000000bd
:1003280000000000b0a5402004000000000000000c
:1003380010a54020140000000000000024a5402063
:100348001400000000000000b4a5402004000000d4
:1003580000000000b8a540200400000000000000d4
:10036800bca540200400000000000000e8a54020d3
:1003780001000000000000005ba540200100000013
:100388000100000020000000e4a54020010000005a
:1003980000000000c0a5402004000000000000008c
:1003a800c4a5402004000000000000005ca5402017
:1003b8000500000000000000e0a54020010000004a
:1003c80000000000c8a54020040000000000000054
:1003d800cca540200400000000000000d0a540206b
:1003e800040000000000000000a2402040010000be
:1003f80001000000000000000000000000000000f4
:1004080000000000000000000000000000000000e4
:1004180000000000000000000000000000000000d4
:1004280000000000000000000000000000000000c4
:1004380000000000000000000000000000000000b4
:1004480000000000000000000000000000000000a4
:100458000000000000000000000000000000000094
:100468000000000000000000000000000000000084
:100478000000000000000000000000000000000074
:100488000000000000000000000000000000000064
:100498000000000000000000000000000000000054
:1004a8000000000000000000000000000000000044
:1004b8000000000000000000000000000000000034
:1004c8000000000000000000000000000000000024
:1004d8000000000000000000000000000000000014
:1004e8000000000000000000000000000000000004
:1004f80000000000000000000000000000000000f4
:1005080000000000000000000000000000000000e3
:1005180000000000000000000000000000000000d3
:1005280000000000000000000000000000000000c3
:1005380000000000d4a540200400000000000000d6
:1005480061a5402001000000010000000500000036
:10055800d8a540200400000000000000a4a340200b
:100568005000000000000000dca54020040000004e
:1005780000000000000000000000000022222222eb
:020000040000fa
:020000040040ba
:100588002de9f04f83b0a94b1d6d15f0007f02d007
:100598004ff000721a6515f0010f62d0a34b0122cb
:1005a8001a655a6d22f001025a65d3f8a43013f087
:1005b8007f0f56d09d4bd3f8a440c4f3052404eb19
:1005c800c403db009a4ad268d718d15811f0804f7b
:1005d800d15804eb8400974e56f8200014bf21f040
:1005e8006041c1f38a410160d35813f0005f0cd019
:1005f8007b6813f4001f08d104eb84038d4a02ebd7
:1006080083031b6901221a7007e004eb8403894afb
:1006180002eb83031b6900221a707868c0f3034059
:1006280002f0dcf98246dff80c824fea840909eb14
:10063800040608eb8606024607f10801706802f016
:10064800c0fab36883f800a0f3680bb17a681a801f
:10065800764bc3f8a840784b1b6813b1764a5068ac
:10066800984715f0100f69d0704b10221a655a6d13
:1006780022f010025a65d3f8b43013f07f0f5dd022
:100688006a4bd3f8b440c4f3052404ebc403db007d
:10069800674a1269d718d15811f0804fd05804f121
:1006a800010101eb8101634e56f8216014bf20f06f
:1006b8006040c0f38a403060d35813f0005f0cd01c
:1006c8007b6813f4001f08d104eb8403594a02eb3a
:1006d80083035b6a01221a7007e004eb8403554a1e
:1006e80002eb83035b6a00221a707868c0f3034048
:1006f80002f074f980464f4e631c03eb830306eb4c
:100708008303024607f10801586802f05afaa30069
:100718001a1906eb8202d26982f80080234406eb9c
:100728008306336a0bb17a681a80404bc3f8b84025
:10073800414b9b6813b1404ad068984715f4002f85
:1007480000f0b180394b4ff400221a655a6d22f43b
:1007580000225a65d3f89830abb9344bd3f89c30a3
:1007680013f0010f25d10123304e1846dcb2d6f81c
:100778009c1000fa03f28a431cd00134e4b201331e
:10078800202bf3d118e0294bd3f8983013f0010f40
:1007980043d10123254e1846dcb2d6f8981000fa4a
:1007a80003f28a4308d00134e4b20133202bf3d199
:1007b80002e000242034e4b201941d4904ebc40390
:1007c800db004a6902eb030a496811f0010f26d1e0
:1007d8000126d15811f0804fd1584fea860000eb1e
:1007e8000607144800eb8700806a14bf21f06041b7
:1007f800c1f38a410160d35813f0005f1ed0daf8c4
:10080800043013f4001f19d1b3009a19094b03ebf4
:1008180082039b6b01221a7018e00024cce721f0b8
:100828000101034841600026d3e700bf00400340b0
:1008380070a4402034a4402098a44020b3009a1902
:100848003b4b03eb82039b6b00221a70daf804001f
:10085800c0f3034002f0c2f88346354f4fea8608da
:1008680008eb060907eb890902460af10801d9f8dd
:100878002c0002f0a6f9d9f8303083f800b0d9f886
:10088800343013b1daf804201a801f2c46d801231b
:10089800019a9340274ac2f89830274b1b6913b135
:1008a800254a5069984715f4007f1fd0214b4ff413
:1008b80000721a655a6d22f400725a65d3f8d8305e
:1008c80013f0010f0cd01b4bd3f8e03013f0010fdd
:1008d80006d0184ad2f8e03023f00103c2f8e0301d
:1008e800154b9b6913b1144ad069984715f4006fea
:1008f80011d0104a4ff400631365d2f8c430c3f323
:100908000423d2f8c420c2f30442934203d2013331
:10091800dbb29a42fbd103b0bde8f08f019b203bcc
:10092800012202fa03f3034ac2f89c30b5e700bf7c
:0c09380034a440200040034098a440205c
:020000040000fa
:020000040040ba
:100944002de9f84f80460e4699469500284601f059
:100954009bfc002800f0c1800746542001f094fc61
:100964000446002857d007632a46a521384602f0da
:1009740083f9276b002e54d0337884f8343053b184
:10098400334604f134010f3613f8012f01f8012f17
:100994000ab1b342f8d1002384f843300a9e042eee
:1009a40028bf0426e66266644ff0000bc4f848b022
:1009b40004f1040a504602f0abf904f1180002f005
:1009c400a7f92461c6f10506a6616462c4f84cb0b7
:1009d40084f850b0043d3d444a46414625f00700a2
:1009e40001f096ff20600b9b03b11c6002f030f80d
:1009f4003e4a1368013313603d4b1b68abb13d4b5a
:100a04001b68bbb93a4b1b68da6ae36a9a4211d88d
:100a1400374b1c600ee0384602f07ff94ff0ff3090
:100a24005de0002384f83430b8e7314b1c60136870
:100a3400012b28d0304a136801331360e06a2f4a2f
:100a44001168012383400b43136000eb800051467f
:100a54002b4b03eb800002f0a0f802f0d3f8254bf7
:100a64001b68002b3dd0224b1b68da6ae36a9a426a
:100a740039d2244b4ff080521a60bff34f8fbff32b
:100a84006f8f01202be01e4d284602f07bf805f104
:100a9400140002f077f805f1280002f073f805f16c
:100aa4003c0002f06ff805f1500002f06bf8164eae
:100ab400304602f067f8154d284602f063f81448f2
:100ac40002f060f8134802f05df8134802f05af897
:100ad400124b1e60124b1d60ace74ff0ff30bde8b7
:100ae400f88f0120fbe70120f9e700bf8ca5402027
:100af40080a54020b0a5402098a540209ca540207a
:100b040040a3402004ed00e0d4a44020e8a4402009
:100b1400fca4402024a5402010a5402084a540200a
:040b240088a5402040
:020000040000fa
:020000040040ba
:100b2800f8b55a4b5b6913f0e0030ad1574b5b6980
:100b380013f0010f20d1554b5b6913f0020f67d1f9
:100b4800f8bddbb2524a82f83d30504b4ff4807208
:100b58001a605b6913f0010f05d04c4b9a695a690a
:100b680012f0010ffad14a4b1b6a002bded0484a1b
:100b7800516a02209847d9e7444e454c46e0226a1c
:100b8800002a31d0616a38469047a36a0133226b44
:100b9800934228bf002327e0a16a3e48425430e030
:100ba80001f096ff236a002b30d094f83c2032b134
:100bb800a26b90422ad3616a0020984726e0a26b74
:100bc800904223d1616a002098471fe0736913f0af
:100bd800010fb0d0b569a36a0133226b934228bfd5
:100be8000023e26a9a42cad0e26a9a42eed0c5f37a
:100bf8000802716811f4003fced0a06a254921f897
:100c08001020a36294f83430002bc9d10127dde706
:100c18001e4d1f4c204e6b6913f0020f90d0e368f5
:100c2800a26893422dd06a6812f4003f03f10102d2
:100c380014bf36f81330f35c2169914298bf002243
:100c4800e2606a6812f4003f14bfc3f30803dbb222
:100c5800eb61237d002bded001f0beff2368002b63
:100c6800d9d0227f32b1a2699042d4d361680320df
:100c78009847d0e7a2699042cdd161680320984790
:100c8800c9e7024b0222da605ae700bf008002403f
:0c0c9800f4a3402038a5402000a040201c
:020000040000fa
:020000040040ba
:100ca40008b54f4b98474f4b9847eff3108172b6f6
:100cb4004d4ad2f8883043f47003c2f88830bff349
:100cc4004f8fbff36f8f01b962b6484b484a5a60e1
:100cd4009a6812f0010ffbd0444bdb6813f4c07f19
:100ce40013d0444b0c221a60404b434a5a609a6812
:100cf40012f0010ffbd03d4b404a5a609a6812f043
:100d0400010ffbd03e4b3f4a1a60bff34f8fbff336
:100d14006f8f354cd4f8903223f00103c4f890322d
:100d2400d4f8943223f00103c4f89432bff34f8f04
:100d3400bff36f8f00f0e2ff334b23f07f03a36018
:100d4400324b9847636913f4003f12d1bff34f8fbe
:100d5400bff36f8f0022c4f85022bff34f8fbff34d
:100d64006f8f626942f400326261bff34f8fbff349
:100d74006f8f1d4b5b6913f4803f29d11a4b0022fe
:100d8400c3f88420bff34f8fd3f88030c3f3c90670
:100d9400c3f34e335a0143f6e075134802ea0504df
:100da400334644ea8371c0f86012013bb3f1ff3f5c
:100db400f7d1203a12f1200ff0d1bff34f8f0a4a36
:100dc400536943f480335361bff34f8fbff36f8f85
:100dd4000f4b98470f4b984701f056fffee700bfb3
:100de4001d2d40001d2d400000ed00e0000c0e40c4
:100df4000d00005a64a540200c08005a0c07005a44
:100e040000180e40010000a50000400085244000a9
:080e14001d2d40001d2d4000c2
:020000040000fa
:020000040040ba
:100e1c002de9f04184b0044601914ff0000846469c
:100e2c004546504f49e0013ba36323684bb123690e
:100e3c005bb901f0e3fe4ff00108404604b0bde899
:100e4c00f08101f05ffea060f1e704f1100001f009
:100e5c0053f80028edd0434b4ff080521a60bff38b
:100e6c004f8fbff36f8fe4e701f0c8fe4ff000081f
:100e7c00e3e702a801f060fe29e084f8445032e078
:100e8c0084f8455035e001f0dffda06800f0f0fd7e
:100e9c00804601f0b3fe3ce0204600f0afff00f0ce
:100eac00fdfb09e0204600f0a9ff00f0f7fb20460f
:100ebc0001f07afe002840d1012601f0c5fda36b9c
:100ecc00002bb0d1019b002bced0002ed1d001f045
:100edc0095fe01f0c5fe01f0b7fd94f844305bb20d
:100eec00b3f1ff3fc9d094f845305bb2b3f1ff3f8b
:100efc00c6d001f083fe01a902a801f08ffa0028e8
:100f0c00d0d1204601f050fe0028c5d02368002b1c
:100f1c00b9d0019904f1240001f0e6fd204600f05f
:100f2c006dff00f0bbfb0028c6d14ff080533b6037
:100f3c00bff34f8fbff36f8fbee7b8f1000f3ff4d5
:100f4c007caf01f081fd616a19b1236b1968c1f1a5
:100f5c000501a06800f012ff01f050fe4ff00008f0
:080f6c006be700bf04ed00e09b
:020000040000fa
:020000040040ba
:100f74002de9f04784b00446884601921d464ff09f
:100f840000094e46434f39e02a464146204601f0c7
:100f94002df8636a73b938b13e4b4ff080521a6032
:100fa400bff34f8fbff36f8f01f02cfe012004b00d
:100fb400bde8f08704f1240000f0a2ff0028f3d07c
:100fc400344b4ff080521a60bff34f8fbff36f8fd3
:100fd400eae701f017fe0020e9e702a801f0b0fdfe
:100fe4001ae084f8446023e084f8456026e0204653
:100ff40000f008ff00f056fb4ff0010901f028fd56
:10100400a26be36b9a42bfd3022dbdd0019b002b90
:10101400dfd0b9f1000fe0d001f0f4fd01f024febf
:1010240001f016fd94f844305bb2b3f1ff3fd8d021
:1010340094f845305bb2b3f1ff3fd5d001f0e2fd47
:1010440001a902a801f0eef9e8b901f001fdd4f814
:1010540038a0d4f83c9001f0d5fdca45c7d1019918
:1010640004f1100001f044fd204600f0cbfe00f036
:1010740019fb0028c0d14ff080533b60bff34f8f62
:10108400bff36f8fb8e7204600f0bcfe00f00afb08
:0810940000208ce704ed00e0f0
:020000040000fa
:020000040040ba
:10109c00f8b59df81850012d01d90020f8bd3e4c33
:1010ac00d4f8c44014f4001f74d13b4cd4f8c440a1
:1010bc00c4f3044404ebc407ff00384ed6f818c040
:1010cc000ceb0706b0f5006f1bd320f0604040f02e
:1010dc0080404cf807008e46402928bf4ff0400e48
:1010ec00082912d90c293ad910293ad914293ad9f4
:1010fc0018293ad920293ad9312934bf0e200f208a
:10110c0004e080044cf80700e5e77046000400f4a6
:10111c0070207060022b2cd0012b2fd015f0fd0ffe
:10112c0031d05cf8073043f000534cf807301c4ac0
:10113c0013780133dbb21370726842ea036343f431
:10114c0000037360012000fa04f4134bc3f8e04071
:10115c00c3f8d0405a6d42f400725a659ee70920dc
:10116c00d4e70a20d2e70b20d0e70c20cee70d20e5
:10117c00cce7736843f440137360cfe7736843f4b0
:10118c0000137360cae71146724606f1080001f0bd
:10119c0016fdcce7002081e70040034070a44020fe
:0411ac005aa54020e0
:020000040000fa
:020000040040ba
:1011b0002de9f047384b1b68002b67d1374b1f6870
:1011c00001371f60bfb1364b1b68bb4220d90025d9
:1011d000344b1b68db6a03eb83039b00324ad35812
:1011e000022b28bf0125314b1b68002b18bf01259e
:1011f0002846bde8f0872e4a11682e4b186810600b
:1012000019602d4a13680133136001f099fbdae786
:101210000025dff89c80dff8a890dff88ca021e0a3
:101220001f4b4ff0ff321a60d2e71d4a1360cfe721
:1012300004f1180001f0c2fbe06ad9f80020012394
:1012400083401343c9f8003000eb800031460aebbd
:10125000800001f0a4fc134b1b68e26adb6a9a422f
:1012600028bf0125d8f800301b68002bd8d0d8f84b
:101270000030db68dc6863689f42d6d3261d3046a9
:1012800001f09cfba36a002bd2d1d5e70b4a13686f
:10129000013313600025abe794a54020b4a540209e
:1012a000a4a5402080a5402040a34020b8a5402010
:1012b00084a5402088a54020a8a54020aca54020ba
:0412c0009ca5402089
:020000040000fa
:020000040040ba
:1012c400f8b504464ff4a072002101f0d5fc384b68
:1012d40001229a611a46936913f0010ffbd0344e30
:1012e400b36943f00203b361324ad46024f00301ca
:1012f40089b231480143c6f8a01004f148031361d0
:1013040023f003039bb20343c6f8b03004f1900307
:10131400536123f003039bb2c6f8ac3004f1d80345
:10132400936123f003039bb243f08073c6f8c0308b
:1013340004f59073d36123f003039bb243f4803329
:10134400c6f8f03004f5947313621c4d03cdc4f851
:101354002801c4f82c1123f003039bb243f4003397
:10136400c6f8843004f598755562154f0fcfc4f84c
:101374003001c4f83411c4f83821c4f83c3125f0e4
:101384000305adb245f40035c6f888500d49d1f8cf
:1013940014210d4b234092b21343c1f814314ff47e
:1013a4004073b3613246936913f0010ffbd1f8bd6a
:1013b4000040034070a4402000000180e42c400061
:0c13c4004c2c4000008008400000ffff9f
:020000040000fa
:020000040040ba
:1013d00010b54ff0ff31354b1868fff71ffd34494a
:1013e00052230b706f234b7076238b706523cb7069
:1013f00072230b710023022240f25a4001f03af9a5
:101400000a2401f0b5f9022805d0042803d02046ab
:1014100001f002faf5e702282fd0264c4ff0ff31f9
:101420002068fff7fbfc0d21234800f0cdfb0023d3
:101430001a4619462068fff79dfd00231a461946f3
:101440001a480068fff796fd1a4c4ff0ff312068ec
:10145000fff7e4fc0921194800f0b6fb00231a4607
:1014600019462068fff786fd154b186820b100f07b
:101470008df9134b00221a6010bd0e4c4ff0ff3156
:101480002068fff7cbfc0a210e4800f09dfb0023eb
:101490001a4619462068fff76dfd00231a461946c3
:1014a00002480068fff766fdcee700bfc0a54020f8
:1014b0005ca54020c8a540203019400040194000dc
:0814c000d0a5402024194000d2
:020000040000fa
:020000040040ba
:1014c800384b0022c3f81421d3f8140141f210015b
:1014d8000143c3f8141134494ff400134b606ff4ff
:1014e80000130b604ff0ff334b650b66c1f890306b
:1014f800c1f8a0304ff4000008616ff400004861a3
:101508008a634ff40070c1f8b000c1f8d400c86c09
:10151800c1f8182101f50071102008674867486074
:101528006ff0100008604b650b66c1f89030c1f889
:10153800a0300a614b618a63c1f8182101f5007176
:101548000b604b650b66c1f89030c1f8a0304ff4c2
:10155800813008616ff4813048618a63c1f81821cd
:1015680001f500710b604b650b66c1f89030c1f84e
:10157800a0300a614b618a63c1f8182101f5007136
:101588000b604b650b66c1f89030c1f8a0300a615a
:101598004b618a63c1f81821044b092119805a60ec
:1015a800704700bf00800840000e0e4048a540204c
:020000040000fa
:020000040040ba
:1015b80080b584b0334e344d05f1980722e0334ba3
:1015c80001930223009300234ff4007205f1800178
:1015d8002f48fff7b3f93fe02e4b01930223009306
:1015e80000234ff4007205f18c012b48fff7a6f990
:1015f80001f02cfa2023337001f002fb40f2dc509a
:1016080001f006f901f022fa33788df80f3001f075
:10161800f7fa9df80f30202b23d0204c4ff0ff31e4
:101628002068fff7f7fb072105f1740000f0c8fafe
:1016380001210df10f0000f0c3fa022105f17c0031
:1016480000f0befa00231a4619462068fff78efc00
:101658009df80f30312bb2d09df80f30322bc7d107
:10166800bae70e4c4ff0ff312068fff7d3fb142187
:10167800384600f0a5fa00231a4619462068fff7f5
:1016880075fcbbe75ba5402024194000cca5402091
:1016980059184000d0a54020d1134000c8a54020cb
:020000040000fa
:020000040040ba
:1016a8002de9f04101f0d2f92d4b1a68013a1a6080
:1016b8001b68002b4dd12b4b1b680bb9002449e04c
:1016c8000024294e294fdff8b880336803b3f36844
:1016d800dc6804f1180001f06df9251d284601f0b9
:1016e80069f9e06a3a680123834013433b6000ebe1
:1016f8008000294608eb800001f04dfa1c4b1b685e
:10170800e26adb6a9a42e0d31a4b01221a60dce7ec
:101718000cb101f011f9184b1c686cb1154e01257c
:1017280001e0013c05d0fff73ffd0028f9d0356006
:10173800f7e7114b00221a600e4b1c6854b10f4b8f
:101748004ff080521a60bff34f8fbff36f8f0124a1
:1017580000e0002401f054fa2046bde8f08100bf03
:1017680094a540208ca54020fca440209ca54020a6
:1017780080a54020b8a54020aca5402004ed00e09d
:0417880040a340201a
:020000040000fa
:020000040040ba
:10178c0038b5044601f060f9002c37d0251d2846e9
:10179c0001f00ef970b9e26a02eb82039b00224958
:1017ac00cb583bb921480368012101fa02f223ea24
:1017bc0002020260a36a1bb104f1180001f0f8f8f0
:1017cc001b4a1368013313601a4b1b68a34218d0d1
:1017dc00194a1368013b1360206b01f09afa2046fa
:1017ec0001f097fa01f0a6f801f008fa134b1b6808
:1017fc001bb1104b1b68a3420cd038bd0d4b1c68a1
:10180c00c4e729460e4801f0c4f90e4a13680133a7
:10181c001360e9e70c4b4ff080521a60bff34f8f07
:10182c00bff36f8fe9e700bf40a340209ca5402089
:10183c0098a5402080a540208ca54020b0a5402034
:0c184c0024a5402090a5402004ed00e001
:020000040000fa
:020000040040ba
:1018580010b54ff0ff312b4b1868fff7dbfa2a4918
:1018680054230b7049224a708b704f23cb7000238e
:10187800022240f25a4000f0f9fe0a2400f074fff8
:10188800022805d0042803d0204600f0c1fff5e760
:1018980002281fd01d4c4ff0ff312068fff7bafa1d
:1018a8000d211b4800f08cf900231a4619462068c0
:1018b800fff75cfb00231a46194612480068fff739
:1018c80055fb144b186820b1fff75cff114b002241
:1018d8001a6010bd0d4c4ff0ff312068fff79afadf
:1018e8000a210d4800f06cf900231a4619462068b1
:1018f800fff73cfb00231a46194602480068fff729
:1019080035fbdee7c0a54020c4a54020c8a540207f
:0c19180030194000cca5402024194000ec
:020000040000fa
:020000040040ba
:10192400456e76696f206f6b0d0a000046616c6c22
:101934006f20656e76696f0d0a000000456c696d55
:10194400696e6f0d0a0000004e6f2073652070757c
:10195400646f20637265617220656c20626c6f71c4
:1019640075656f206d757465780d0a004e6f207370
:1019740065207075646f20637265617220656c20e8
:10198400626c6f7175656f206d75746578320d0ac0
:10199400000000005465636c613a20000d0a0000e9
:1019a40054415245415f43616e31000054415245f8
:1019b400415f43616e3200004573706572616e640d
:1019c4006f207465636c612e2e2e0d0a000000bf1b
:020000040000fa
:020000040040ba
:1019d400244b1b681bb1244b01221a60704710b5bd
:1019e400214b00221a60214b1b681b6b1a68b2f151
:1019f400a53f03d15a68b2f1a53f23d01b4b186809
:101a04001968343101f0a8f8194b1b68b3fa83f351
:101a1400dbb2c3f11f03174a9900c81802eb800018
:101a2400446864684460194402460832944212d0ff
:101a340003eb83030f4a02eb83035b68da680b4b07
:101a44001a6010bd9a68b2f1a53fd7d1db68b3f133
:101a5400a53fd3d1d8e760680a46064901eb820264
:101a64005060e5e794a54020b8a5402080a540201b
:081a74009ca5402040a3402086
:020000040000fa
:020000040040ba
:101a7c00002849d038b50446c26a24490968c96aa5
:101a8c008a4238d28169002905db20490968c96a74
:101a9c00c1f10501816102eb82021d4901eb820259
:101aac006169914205d0194a1268d26ae26201203a
:101abc0029e0251d284600f07bff38b915490b6835
:101acc00e06a0122824023ea02030b600f4b1b6881
:101adc00d86ae0620f4a1168012404fa00f30b4340
:101aec00136000eb80002946094b03eb800001f0ea
:101afc0050f8204607e0054a1268406cd36a9842b9
:101b0c002cbf0020012038bd0020704780a540204c
:081b1c0040a340209ca54020dd
:020000040000fa
:020000040040ba
:101b240038b5254b01229a611a46936913f0010fc7
:101b3400fbd0214b9a6942f002029a614ff4807201
:101b4400da6002f58022da6140f27772c3f8bc20d1
:101b54004ff0ff32c3f89820c3f89c200722c3f843
:101b6400c8202822c3f880206ff06042c3f8902078
:101b740001221a624ff440729a611a46936913f073
:101b8400010ffbd10c4b00249c650122da654ff058
:101b940000725a65094d2c606c60ac603c22214691
:101ba400074801f069f8ec602c616c61ac61ec6190
:101bb4002c626c6238bd00bf0040034070a440201a
:041bc40034a44020e5
:020000040000fa
:020000040040ba
:101bc8002de9f041002945d08c46234b1e6900249d
:101bd800224d1a46dff888e00fe030f81470d5f887
:101be800048018f4003f14bf2ef811700ef801702d
:101bf8009360631c013463452ad26b6813f4003385
:101c080010d0d76891684b1cb34228bf00239f426d
:101c1800e3d100f04fff10b1104b02229a6020462a
:101c2800bde8f081d2f80c809768791cb14228bfd2
:101c380019468845edd0035dd5f8048018f4003fb7
:101c480014bf2ef817300ef807309160631cd1e7e7
:101c58001c46dee70c46dce7f4a340200080024087
:041c680000a0402078
:020000040000fa
:020000040040ba
:101c6c0070b504460e461c4b1d681c4b186804309e
:101c7c0000f09efe48b9194b1a6819490b68d06ad6
:101c8c000122824023ea02030b60b4f1ff3f00d132
:101c9c006eb92c44114b1b685c60a5420ed9114bdc
:101cac0018680e4b1968043100f096fd70bd0b4b93
:101cbc00196804310c4800f06cfff7e70b4b1868ff
:101ccc00064b1968043100f087fd094b1b68a342d1
:101cdc00ecd9074b1c60e9e7b4a5402080a5402057
:101cec009ca5402088a5402010a5402084a540201c
:041cfc00a4a540203b
:020000040000fa
:020000040040ba
:101d00001e4b1f4a9342f0b438bf002103d203f8a0
:101d1000011b9342fbd11b4ad2e9000150ea0103a7
:101d20004ff0000610d09468034602f10c076cb91e
:101d300021b1014403f8016b9942fbd13a46d2e943
:101d4000000150ea0103eed1f0bc704759b101f136
:101d50000c030c38801a1a443b461c1813f8015b1c
:101d600025709342f9d111f0030318bf012303eb4f
:101d7000910107eb81073a46e1e700bf00004020f0
:081d8000000040208801400032
:020000040000fa
:020000040040ba
:101d8800002838d038b50446426c914238bf114615
:101d9800c26a8a4202d0806c012800d038bde16254
:101da800a069002802dbc1f10501a16102eb8202f2
:101db800114901eb820261699142efd1251d284644
:101dc80000f0f8fd38b90d490b68e06a012282403d
:101dd80023ea02030b60e06a084a11680123834082
:101de8000b43136000eb80002946034b03eb800094
:101df80000f0d1fed2e7704740a340209ca54020c8
:020000040000fa
:020000040040ba
:101e080070b5054600f022fe95f8454064b2002cf6
:101e180011dd6b6a7bb105f1240606e000f046ff90
:101e2800013c64b23cb16b6a2bb1304600f066f8f5
:101e38000028f5d0f2e7ff2385f8453000f0e0fef2
:101e480000f004fe95f8444064b2002c11dd2b69c3
:101e58007bb105f1100606e000f028ff013c64b2f2
:101e68003cb12b692bb1304600f048f80028f5d07a
:0e1e7800f2e7ff2385f8443000f0c2fe70bd93
:020000040000fa
:020000040040ba
:021e8600fee775
:020000040000fa
:020000040040ba
:101e8800002835d038b50446826c013a8264c06aad
:101e9800616c884200d00ab1002038bd251d284653
:101ea80000f088fd70b9e26a02eb82039b001149d9
:101eb800cb583bb910480368012101fa02f223ea22
:101ec80002020260606ce062c0f10503a3610a4a85
:101ed8001168012404fa00f30b43136000eb80003f
:101ee8002946044b03eb800000f055fe2046d4e75a
:0c1ef8000020704740a340209ca5402023
:020000040000fa
:020000040040ba
:101f040038b5c368dc6804f11805284600f054fdb0
:101f1400134b1b68e3b9251d284600f04dfde06a0c
:101f2400104a1168012383400b43136000eb8000c7
:101f340029460d4b03eb800000f02ffe0b4b1b6872
:101f4400e26adb6a9a4208d90120094b186005e06d
:101f54002946084800f021fef0e7002038bd00bf04
:101f640094a540209ca5402040a3402080a540206b
:081f7400b8a54020fca44020a8
:020000040000fa
:020000040040ba
:101f7c00f0b583b00021184800f090fe012000f06d
:101f8c0087fe0021012000f0cbfd0322002101205f
:101f9c0000f0a2fc0746114b18601d46104ec7b14d
:101fac004ff0ff3421462868fef732ff0128f9d1a3
:101fbc00012406e000f048fd9df80730337000f076
:101fcc001dfe21460df1070000f0b0fa0128f1d0fa
:101fdc00e5e703b0f0bd00bf4d284000bca5402094
:041fec005ba5402091
:020000040000fa
:020000040040ba
:101ff00070b504461646856b026c5ab903681bb16e
:1020000000200135a56370bd8068fff73dff002308
:10201000a360f6e76eb9406800f0d7fd6368226cf4
:1020200013446360a268934219d323686360304607
:10203000e7e7c06800f0c9fd226c5242e368134430
:10204000e36021688b4202d2a3681a44e2600db1ba
:10205000022e01d00020d4e7013d0020d1e7304618
:02206000cfe7c8
:020000040000fa
:020000040040ba
:02206200fee797
:020000040000fa
:020000040040ba
:1020640010b582b0134c144b019301230093002349
:102074004ff4806221461148fef762fc104b019335
:102084000223009300234ff4806204f118010d48e9
:10209400fef756fc0c4b01930323009300234ff4eb
:1020a400806204f128010948fef74afc00f022f995
:1020b40002b010bd342740006ca54020ed2c400038
:1020c40068a54020f52c400070a54020fd2c400060
:020000040000fa
:020000040040ba
:1020d40038b504460d4600f0bbfc2268216ce36b66
:1020e40003fb01f3d018a0600020a06362605b1ab8
:1020f4001344e360ff2384f8443084f84530a5b9e1
:1021040023691bb900f07efd012038bd04f11000e5
:10211400fff7f6fe0028f5d0084b4ff080521a6006
:10212400bff34f8fbff36f8fece704f1100000f0a3
:1021340029fd04f1240000f025fde3e704ed00e0af
:020000040000fa
:020000040040ba
:1021440080b5164c164f174edff860802368bbb17c
:1021540000f07efcfb68dd68281d00f02dfc336870
:10216400013b33602368013b236000f04bfd286b87
:1021740000f0d3fd284600f0d0fd2368002be7d102
:10218400094b1b68012be1d94ff08053c8f800308c
:10219400bff34f8fbff36f8fd8e700bf90a54020e8
:1021a40024a540208ca5402040a3402004ed00e05d
:020000040000fa
:020000040040ba
:1021b400184b194a9a629a6e12f0020ffbd0154a14
:1021c400136b23f07003136313469a6e12f0080f17
:1021d400fbd0104a136b23f4407343f480731363ee
:1021e40013469a6e12f0080ffbd00a4a136b23f0c1
:1021f400030343f00203136313469a6e12f0080fad
:10220400fbd0044b4ff457321a612022c3f800214b
:0c221400704700bf00060e40013f18207c
:020000040000fa
:020000040040ba
:1022200018494ff486730b6050230b604ff40c6316
:102230004b6051230b62144b00221a629a62da62dd
:1022400083f8342083f83c209a6383f83d201a6099
:102250009a60da601a751a779a614b6813f4003f36
:1022600009d0094b08221a634ff480721a61054b9a
:10227000e1229a607047044b10221a634ff40072f7
:0c2280001a61f4e700800240f4a3402043
:020000040000fa
:020000040040ba
:10228c0038b5044610f0070f02d020f007040834cc
:10229c0000f0e6fc124b1b687bb1124b1b681c4414
:1022ac0049f6f77294420ed8a3420fd3fff7f6f912
:1022bc0000f059fc0025284638bd094a0a4b23f08a
:1022cc0007031360e9e7fff7e9f9f1e7044a15683a
:1022dc001d44044b1c60fff7e1f9002debd1e7e73f
:0c22ec0078a540207ca540200800402080
:020000040000fa
:020000040040ba
:1022f80000b583b0124b019300230093802211494b
:102308001148fef71bfb012802d003b05df804fb5f
:102318004ff0200372b683f31188bff36f8fbff3ba
:102328004f8f62b6094b4ff0ff321a60084b0122fb
:102338001a60084b00221a6000f074f9e5e700bf44
:10234800a0a54020042d400045214000a4a5402020
:08235800b0a54020b4a540200f
:020000040000fa
:020000040040ba
:10236000eff30980bff36f8f154b1a681ef0100f43
:1023700008bf20ed108a20e9f04f10602de9090018
:102380004ff0200072b680f31188bff34f8fbff378
:102390006f8f62b6fff71efb4ff0000080f31188cd
:1023a00009bc19680868b0e8f04f1ef0100f08bfac
:1023b000b0ec108a80f30988bff36f8f704700bfbd
:0423c00080a5402094
:020000040000fa
:020000040040ba
:1023c40038b5eff311844ff0200372b683f311880c
:1023d400bff36f8fbff34f8f62b6826bc36b9342b1
:1023e4001ad990f845305bb201328263b3f1ff3ff2
:1023f40005d001335bb280f8453001200de0436a1b
:102404000bb9012009e00d462430fff779fd3db1f9
:1024140030b10120286000e0002084f3118838bd29
:042424000120fae7b2
:020000040000fa
:020000040040ba
:1024280070b504460d4600f011fb124b1a682b6874
:10243800b3f1ff3f16d061680f48006826688642ee
:1024480001d0914213d9501a834203d800232b603c
:10245800012408e09b1a0b442b60204600f06efb19
:10246800002400e0002400f0cbfb204670bd0124ce
:0c247800f9e700bfb4a54020a8a5402053
:020000040000fa
:020000040040ba
:102484000e4a38b5002313600d4a0e4c13600e4af1
:102494000e4d13600e4a13600e4a13600e4a5362c7
:1024a40013610123936000f039fc00f037fcac4267
:1024b40000d338bd54f8043b9847f8e7dca5402026
:1024c400b0a3402074014000aca340207801400038
:0c24d400a4a34020a8a34020b4a34020f3
:020000040000fa
:020000040040ba
:1024e00038b5c46c856c114b03445b0a1049ca5c57
:1024f0000b445b789a4218d202eb42030d4931f942
:10250000230000f01f0101238b402c4023420cd0fc
:1025100002eb4203074901eb83035c682cb102eb39
:10252000420201eb82029168a04738bd00f2f1bf80
:0825300054a5402048a54020fd
:020000040000fa
:020000040040ba
:10253800f0b4124ad36a956a0022114fdff844c0fa
:102548000e4e08e01cf8034084540133346b9c425f
:1025580098bf00230132ab420bd0914209d97c6865
:1025680014f4003feed03cf8134020f81240013339
:10257800ece70249cb621046f0bc7047f4a3402058
:082588000080024038a540204c
:020000040000fa
:020000040040ba
:1025900008b50e4b00221a700d4800f0b7fb012061
:1025a00000f06afa0b4b186030b1012000f064fab9
:1025b000094b186028b108bd23210848fff704fb28
:1025c000f3e724210648fff7fffaf4e7e0a54020ef
:1025d00000a24020c8a54020c0a540204c194000c2
:0425e000701940002e
:020000040000fa
:020000040040ba
:1025e4000f4bd96821f4e0610904090c0d4a0a4330
:1025f400da60bff35f8f62b6e02283f82320a3f58d
:10260400406383f80a234ff48061196083f80e2332
:102614004ff48041196083f8252320225a607047c3
:0826240000ed00e00000fa05e2
:020000040000fa
:020000040040ba
:10262c0010b50e4b1a6842f460021a601a6842f038
:10263c0060421a6000f0a8f90024094b1c6000f0fd
:10264c00d3fa084a136843f04043136000f088f94a
:10265c00fff7baf900f0d2f9204610bd20ed00e0ea
:08266c0074a5402034ef00e0ea
:020000040000fa
:020000040040ba
:10267400f0b583b00d4c2478e4b2052c02d00020d0
:1026840003b0f0bd1f4616460d4604460121084816
:1026940000f0cafa054b02221a70009733462a4604
:1026a40004212046fef7f8fceae700bf61a54020bc
:0426b4008128400039
:020000040000fa
:020000040040ba
:1026b80010b5054c237833b9044b13b10448aff374
:1026c80000800123237010bdb8a440200000000042
:1026d8000000000008b5034b1bb103490348aff3e2
:1026e800008008bd00000000bca4402000000000dd
:020000040000fa
:020000040040ba
:1026f80008b500f08ffafff759fdfef7e1fe4ff439
:102708000043094a5360b03a5360fff707fafff7ee
:1027180083fd00f0bff9fff737ff00f0d3fa00f0b0
:0c272800cbfafff75bff08bd00190e4064
:020000040000fa
:020000040040ba
:1027340054415245415f5052494e434950414c5fc8
:102744005461736b7300000054415245415f325f22
:102754005461736b7300000054415245415f55410d
:0c27640052545f5461736b73000000bf9f
:020000040000fa
:020000040040ba
:102770000c4b1878c0b2032803d0042809d00020dd
:102780007047094b1b7853b1012b14bf0020022066
:102790007047054b1b78002b08bf032070470120b2
:0c27a000704700bf61a54020d4a5402078
:020000040000fa
:020000040040ba
:1027ac000c4b586c20f4605020f018004004400c86
:1027bc009b6913f0010f0cd0064b9a6942f0020290
:1027cc009a614ff440729a611a46936913f0010fa3
:0827dc00fbd1704700400340ef
:020000040000fa
:020000040040ba
:1027e40030b40d68b5f1ff3f02d000f1080202e0f9
:1027f400026904e01a4653681c68ac42fad953686b
:102804004b6099608a60516008610368013303601a
:0428140030bc70471d
:020000040000fa
:020000040040ba
:1028180010b540b90a4b4ff080521a60bff34f8f82
:10282800bff36f8f10bd044600f01cfa002120464c
:10283800fff718fafef734ff0028f3d1eae700bfe4
:0428480004ed00e0bb
:020000040000fa
:020000040040ba
:10284c0000b1704700b583b001a9084b1868fff7b9
:10285c00b3fd019b3bb1064b4ff080521a60bff3a6
:10286c004f8fbff36f8f03b05df804fbbca5402006
:04287c0004ed00e087
:020000040000fa
:020000040040ba
:1028800010b50446094b1860fff790ff10f00700e1
:1028900005d0072803d0064b04221a7010bd14f08f
:1028a000fe0ffbd1024b03221a70f7e7d4a540209c
:0428b00061a54020be
:020000040000fa
:020000040040ba
:1028b40008b54ff0200372b683f31188bff36f8f0e
:1028c400bff34f8f62b6fef771fc18b1034b4ff0a4
:1028d40080521a60002383f3118808bd04ed00e0e0
:020000040000fa
:020000040040ba
:1028e40070b506460d4601fb00f04830fff7ccfcfe
:1028f400044648b155b100f148032360e6632564fa
:1029040001212046fff7e4fb204670bd0346f4e7af
:020000040000fa
:020000040040ba
:102914004ff0807340f8043c21f0010140f8081c9a
:10292400054b40f80c3c40f8202c6ff0020340f8b3
:0c293400243c4438704700bf092a4000d2
:020000040000fa
:020000040040ba
:10294000084b1b681b6823b9074b4ff0ff321a6016
:102950007047044b1b68db68db685a68024b1a60df
:0c296000704700bf84a54020a4a54020c3
:020000040000fa
:020000040040ba
:10296c0008480068006880f308884ff0000080f386
:10297c00148862b661b6bff34f8fbff36f8f00df61
:08298c0000bf000008ed00e0af
:020000040000fa
:020000040040ba
:10299400054b00221a6005490a60054a0549116081
:1029a40007221a60704700bf10e000e018e000e062
:0829b40014e000e0df930400d1
:020000040000fa
:020000040040ba
:1029bc000369416882688a60416851605a68824242
:1029cc0006d0002202611a68013a1a601868704732
:0629dc0082685a60f5e775
:020000040000fa
:020000040040ba
:0229e200fee70e
:020000040000fa
:020000040040ba
:1029e40010b485b00446064b0fcb0df1100c0ce966
:1029f4000f00644414f8100c05b05df8044b7047e4
:042a04003c2c400026
:020000040000fa
:020000040040ba
:102a080082b0002301934ff0200372b683f311883c
:102a1800bff36f8fbff34f8f62b6019b002bfcd0c3
:042a280002b0704741
:020000040000fa
:020000040040ba
:022a2c00fee7c3
:020000040000fa
:020000040040ba
:022a2e00fee7c1
:020000040000fa
:020000040040ba
:102a3000074b19680868b0e8f04f80f30988bff3c6
:102a40006f8f4ff0000080f311887047aff3008064
:042a500080a54020fd
:020000040000fa
:020000040040ba
:102a54004ff0200372b683f31188bff36f8fbff377
:102a64004f8f62b6024a136801331360704700bf88
:042a740074a54020e5
:020000040000fa
:020000040040ba
:102a780010b5024600210120fff730ff044638b1a7
:102a8800002181600160c1600b460a46fef76efabc
:042a9800204610bd07
:020000040000fa
:020000040040ba
:102a9c00054b4ff480321a63044a4ff40001116362
:102aac004ff400721a63704700120e40000e0e4075
:020000040000fa
:020000040040ba
:102abc00054bd8689b68984201d8181a7047024a8f
:0c2acc0012691344181a7047f4a340204c
:020000040000fa
:020000040040ba
:102ad800054bd86a9b6a984201d8181a7047024a6f
:0c2ae800126b1344181a7047f4a340202e
:020000040000fa
:020000040040ba
:102af40010b50c46044b19681831fff771fe01211b
:0c2b04002046fff7b1f810bd80a540206e
:020000040000fa
:020000040040ba
:102b1000054b1b6823b1044b1a68936c0133936413
:0c2b2000014b1868704700bf80a54020e2
:020000040000fa
:020000040040ba
:102b2c00044b93f8342083f8340083f83c1010469f
:082b3c00704700bff4a3402024
:020000040000fa
:020000040040ba
:102b4400034b1b680360034b1b684360704700bf63
:082b5400a8a54020b4a5402013
:020000040000fa
:020000040040ba
:102b5c004ff0200372b683f31188bff36f8fbff36e
:062b6c004f8f62b6fee788
:020000040000fa
:020000040040ba
:102b72004ff0200372b683f31188bff36f8fbff358
:062b82004f8f62b6fee772
:020000040000fa
:020000040040ba
:102b880000f1080343604ff0ff328260c3600361c5
:062b9800002303607047fa
:020000040000fa
:020000040040ba
:102b9e0043684b609a688a60516099600861036867
:062bae00013303607047d3
:020000040000fa
:020000040040ba
:102bb40010b50446fff74cffa46b00f023f8b4faf9
:062bc40084f0400910bd81
:020000040000fa
:020000040040ba
:102bca0010b5431e0a44914200d110bd11f8014bc1
:062bda0003f8014ff7e7cc
:020000040000fa
:020000040040ba
:102be00010b5034b1c69fff769ff013c201a10bdab
:042bf000f4a34020ea
:020000040000fa
:020000040040ba
:102bf400dff80c00016841f47001016070470000c7
:042c040088ed00e077
:020000040000fa
:020000040040ba
:102c0800034a1368013b13600bb983f311887047bb
:042c180074a540203f
:020000040000fa
:020000040040ba
:102c1c00014b024a1a607047000c0e40000600047b
:020000040000fa
:020000040040ba
:102c2c0010b1024b9861d961704700bf98a4402045
:020000040000fa
:020000040040ba
:102c3c000001020304050607080c1014182030408c
:020000040000fa
:020000040040ba
:102c4c00a50000f000000000960000509600001057
:020000040000fa
:020000040040ba
:102c5c0008b50248fff73efc08bd00bf000e0e4051
:020000040000fa
:020000040040ba
:102c6c00024a136801331360704700bf94a54020db
:020000040000fa
:020000040040ba
:102c7c0002440346934200d1704703f8011bf9e765
:020000040000fa
:020000040040ba
:0e2c8c0008b50020fff732fdfff7e6f9fce780
:020000040000fa
:020000040040ba
:022c9a00fee753
:020000040000fa
:020000040040ba
:0c2c9c0008b1014a90637047f4a3402087
:020000040000fa
:020000040040ba
:0c2ca800014b186259627047f4a34020f1
:020000040000fa
:020000040040ba
:0c2cb400014b01221a607047b8a54020b7
:020000040000fa
:020000040040ba
:0c2cc000014b00221a707047e8a540206c
:020000040000fa
:020000040040ba
:0c2ccc00014b00221a707047e4a5402064
:020000040000fa
:020000040040ba
:0c2cd80008b54ff4fa70fff79bfd08bd33
:020000040000fa
:020000040040ba
:082ce4006904690c00005a3c70
:020000040000fa
:020000040040ba
:082cec0008b5fef763fcfce7ec
:020000040000fa
:020000040040ba
:082cf40008b5fff7effffce754
:020000040000fa
:020000040040ba
:082cfc0008b5fff73df9fce704
:020000040000fa
:020000040040ba
:082d040049444c45000000bfea
:020000040000fa
:020000040040ba
:082d0c0008b5fef7d9fa08bd75
:020000040000fa
:020000040040ba
:062d14000023036170477b
:020000040000fa
:020000040040ba
:022d1a00fee7d2
:020000040000fa
:020000040040ba
:022d1c007047fe
:020000040000fa
:020000040040ba
:022d1e007047fc
:020000040000fa
:020000040040ba
:022d20007047fa
:020000040000fa
:02000004d0002a
:0400000002000000fa
:00000001FF
