:020000040000fa
:020000040040ba
:10000000f8ef452021244000e7344000c738400085
:10001000d33d40009b4040004f41400000000000a5
:100020000000000000000000000000002f2a400037
:10003000333d4000000000002f2a40002f2a4000de
:100040002f2a40002f2a40002f2a40002f2a40004c
:100050002f2a40002f2a40002f2a40002f2a40003c
:100060002f2a4000000000002f2a40002f2a4000c5
:100070002f2a40002f2a40002f2a40002f2a40001c
:100080002f2a40002f2a40002f2a40002f2a40000c
:100090002f2a40002f2a40002f2a40002f2a4000fc
:1000a0002f2a40002f2a40002f2a40002f2a4000ec
:1000b0002f2a40002f2a40002f2a40002f2a4000dc
:1000c0002f2a40002f2a40002f2a40002f2a4000cc
:1000d0002f2a4000292b40002f2a40002f2a4000c1
:1000e0002f2a40002f2a40002f2a40002f2a4000ac
:1000f0002f2a40002f2a40002f2a40002f2a40009c
:100100002f2a40002f2a40002f2a40002f2a40008b
:100110002f2a40002f2a40000000000000000000ad
:100120002f2a40002f2a40002f2a40002f2a40006b
:100130002f2a40002f2a4000000000002f2a4000f4
:100140002f2a40002f2a40002f2a40002f2a40004b
:100150002f2a40002f2a40002f2a40002f2a40003b
:080160002f2a40002f2a400065
:020000040000fa
:020000040040ba
:10016800f8b500bff8bc08bc9e4670470140400087
:10017800f8b500bff8bc08bc9e467047dd3f40009c
:020000040000fa
:020000040040ba
:080188002c1e00000100000024
:020000040000fa
:020000040040ba
:10019000205278204649464f30203a00205278209d
:1001a0004649464f31203a00205278204275666613
:1001b0006572203a00000000204e6577204d65737f
:1001c000736167652052656365697665640d00003b
:1001d0000001020304050607080c10141820304023
:1001e000204d657373616765202d2054696d6573bb
:1001f00074616d70203a2030782578204944203a87
:100200002030782578204c656e677468203a20305d
:1002100078257820000000004d65737361676520c4
:100220003a20000030782578200000000d00000002
:10023000202d2d2d2d2d2d2d2d2d2d2d2d2d2d2dfb
:100240002d2d2d2d2d2d2d2d2d2d2d2d2d2d2d20eb
:100250000d00000020202020202020204d43414e72
:100260002046442044656d6f20202020202020203f
:10027000202020200d0000004d656e75203a0d0aeb
:1002800020202d2d2053656c6563742074686520d3
:10029000616374696f6e3a0d0a2020303a2053650d
:1002a0006e64204644207374616e64617264206dd4
:1002b00065737361676520776974682049443a20e3
:1002c000307834354120616e642036342062797490
:1002d000652064617461203020746f2036332e20d5
:1002e0000d0a2020313a2053656e64204644207365
:1002f00074616e64617264206d65737361676520fb
:10030000776974682049443a20307834363920615e
:100310006e642036342062797465206461746120d3
:1003200031323820746f203139312e200d0a2020cf
:10033000323a2053656e6420464420657874656eb9
:10034000646564206d65737361676520776974689f
:100350002049443a20307831303030303041352037
:10036000616e642036342062797465206461746142
:10037000203020746f2036332e200d0a2020333a8f
:100380002053656e6420464420657874656e64650c
:1003900064206d65737361676520776974682049af
:1003a000443a203078313030303030393620616e88
:1003b0006420363420627974652064617461203170
:1003c000323820746f203139312e200d0a2020342c
:1003d0003a2053656e64206e6f726d616c20737489
:1003e000616e64617264206d657373616765207707
:1003f0006974682049443a20307834363920616e77
:100400006420382062797465206461746120302032
:10041000746f20372e200d0a20206d3a2044697316
:10042000706c6179206d656e75200d0a0d000000fd
:10043000256300002020303a2053656e6420464436
:10044000207374616e64617264206d65737361679b
:100450006520776974682049443a20307834354102
:1004600020616e6420363420627974652064617482
:1004700061203020746f2036332e0d0020466169d4
:100480006c6564200d0000002020313a2053656e19
:1004900064204644207374616e64617264206d65eb
:1004a000737361676520776974682049443a203026
:1004b0007834363920616e64203634206279746570
:1004c00020646174612031323820746f20313931f9
:1004d0002e0d00002020323a2053656e64204644e1
:1004e00020657874656e646564206d6573736167fb
:1004f0006520776974682049443a2030783130307b
:10050000303030413520616e642036342062797499
:10051000652064617461203020746f2036332e0da5
:10052000000000002020333a2053656e64204644ca
:1005300020657874656e646564206d6573736167aa
:100540006520776974682049443a2030783130302a
:10055000303030393620616e642036342062797450
:100560006520646174612031323820746f20313924
:10057000312e0d002020343a2053656e64206e6fba
:10058000726d616c207374616e64617264206d655c
:10059000737361676520776974682049443a203035
:1005a0007834363920616e64203820627974652091
:1005b00064617461203020746f20372e0d000000bc
:1005c00020496e76616c696420496e707574200de7
:1005d0000000000020537563636573730d00000015
:1005e000204572726f7220696e207265636569764c
:1005f0006564206d6573736167650d0020466169f0
:080600006c65640d000000bff1
:020000040000fa
:020000040040ba
:100608002de9f04f242987b006460f46144601d835
:10061800012903d1b84b16221a6050e0f36bf26c33
:10062800934220d25a1cf26318782028f6d0a0f101
:100638000903042bf2d92b2801d02d281bd12d28f2
:100648004ff0ff3318bf00230193f26cf36b934212
:100658000dd25a1cf2631878f26c7fb1102f50d16a
:1006680030280dd04de0304602f01ffedde7304661
:1006780002f01bfef0e700230193ede730283fd19d
:10068800f36b934222d25a1cf263187840f020038d
:10069800782b2bd1f36bf26c93421bd25a1cf2636a
:1006a8001878964b03445b780f2b40f2c680f36ca6
:1006b800002b00f09e81f36b84b1023bf3630024ae
:1006c80000252046294607b0bde8f08f304602f0e5
:1006d800ecfddbe7304602f0e8fde2e7013bf363bf
:1006e80000220023304603f047ffe8e7002f00f020
:1006f800f3800a2f40f0a2800024814dba4619e009
:100708000a277e4b03445b78bb42f2d312b1f36bea
:10071800013bf36300220023304603f02dff79e705
:10072800f36b0afb04049342a4f1300470d25a1c00
:10073800f2631878f26ca0f13003092b01d8ac42af
:10074800eed90025a0f13002092ad6f84ce03fd8ae
:10075800dff8b0b14ff0993aab4508bfa24517d3bf
:100768004fea850ca3001b194cea947145eb010173
:1007780013eb03086fea020302934ff0ff3303936e
:10078800dde902ab41eb0109cb4508bfc24543d2c5
:100798005a4b184498464278ba4219d2f36bf26c15
:1007a800934280f00e815a1cf263187840444378d3
:1007b800bb42f3d3504b109922221a60002301f058
:1007c80001021343dde91045019b18bf0023019383
:1007d800f36c13b1f36b013bf363dde910239d4226
:1007e80008bf9442c0f0fd801099002301f0010277
:1007f800134340f0ea80019b002b40f0e6803e4b1b
:1008080022221a60119b11f1ff3443f1ff3558e79a
:10081800304602f04afd8de718eb02044ff0000362
:1008280049eb0305f36b734503d25a1cf26318783e
:1008380088e7304602f039fd84e710277c1e3c40eb
:100848002e4d40f0b68017237b43c3f342132b444d
:1008580093f801a1f26c2b185b789f4202d9b4f18e
:10086800006f3bd34ff0ff33caf12001aaf12002f9
:1008780023fa0af803fa01f148ea010823fa02f216
:10088800dff878b0002548ea020823fa0af90bebea
:100898000003d6f84cc059788f427ff679afa94546
:1008a80008bfa045fff474afaaf1200004fa00f0d5
:1008b80005fa0af2caf1200324fa03f3024342ead2
:1008c8000305f36b04fa0af0634541ea00041bd2fe
:1008d8005a1cf2631878dae70827afe704fa0af433
:1008e8001c43f36b934203d25a1cf2631878b1e7a6
:1008f800304602f0dafcade744fa452024294000ee
:100908009899991999999919304602f0cefcbee741
:1009180004fb0734f36b934247d25a1cf2631878ee
:10092800f26c2b185b789f4201d94445f0d9002519
:10093800324bd6f84ce0034493f801c067457ff684
:1009480027af4ff000084ff0000955b1a4fb07abe3
:100958005a460023e5fb07231bb14ff001084ff06f
:10096800000958ea09037ff413af5ffa8cf86feabd
:10097800080104914ff0ff310591dde904aba7fbb5
:10098800042307fb05339b4508bf92454ff0000938
:10099800fff4feae12eb080443eb0905f36b734555
:1009a8000bd25a1cf2631878c2e7304602f07dfc7d
:1009b800b6e70024dff84c80b2e7304602f075fc59
:1009c800b6e7304602f071fcf0e6dde91023ab42f1
:1009d80008bfa24205d20a4b22221a60dde910455f
:1009e8006fe6019b01337ff46cae644265eb45050d
:1009f80067e6002c7ff463ae72e600bf242940004e
:080a080044fa4520c6711c07e9
:020000040000fa
:020000040040ba
:100a10002de9f04fefb000230446164605910693ea
:100a200099469a46059b1b78002b64d00cab0a9321
:100a300005a980232046cde907aacdf824a00b9371
:100a400003f088fc0546059b1a780ab1252a42d195
:100a50000698284406901a78252a33d15a1c059204
:100a6000cdf824a05a782a2a04bf023305930598aa
:100a70000cbf0125002503f08efa09900246c3172a
:100a8000204603f07dfd059b1a78303a092a48d9a3
:100a900005a803f079fb059b8046187803f0e8fe73
:100aa000672861dc652880f2c680612800f0c38079
:100ab0003adc252800f0ef805b2800f00c81059bd4
:100ac000013305937b1c40f0f980b9f1000f08bf9a
:100ad0004ff0ff390fe0e36be26c93420fd25a1ce8
:100ae000e2631f78059b1b78bb420ed0e36c13b109
:100af000e36b013be36348466fb0bde8f08f2046ef
:100b000002f0d7fb07460130ecd1069b0133069378
:100b1000059b05a901332046059303f01bfc054402
:100b200091e701330593aee7632800f098806428cd
:100b3000c5d106ab07aa2ca9204603f0abfb0028c1
:100b4000c0f26581059b01330593002d40f0b6800e
:100b50003346012241462ca802f089fd00280546b3
:100b600067da0135b1d0c6e7702841d00bdc6e28ba
:100b700050d02fdc6928a2d106ab07aa2ca92046a9
:100b800001f00cfddbe7752813d0782829d07328f5
:100b900095d1b8f1800f92d1059b01330593002dbb
:100ba00077d133681a1d32601b680093012206abaf
:100bb00068e006ab07aa2ca9204603f083fb0028b7
:100bc000c0f22581059b01330593002d76d1334674
:100bd0002a46bfe706ab07aa2ca9204602f01cfb59
:100be000ede706ab07aa2ca9204602f07ff8e6e75e
:100bf00006ab07aa2ca9204602f078f80028c0f21c
:100c00000681059b01330593002d57d133462a46b3
:100c1000f021a0e7059b069a01330593d317cde990
:100c20002c23002d4ad133462a4641462ca802f0f7
:100c30001efda944f6e606ab07aa2ca9204600f043
:100c4000d9fa0028c0f2e380059b01330593002dfb
:100c500034d1324641462ca803f079f97ee7b8f149
:100c6000800f7ff42caf099b0bb901230993059bdf
:100c7000013305935db933681a1d32601b68009318
:100c8000002206ab07a9204602f0a3fb66e700237b
:100c9000f5e7002389e7b8f1800f7ff410af059bdb
:100ca000e26c01330593e36b934209d25a1ce26371
:100cb0001878252808d1069b013306930025b8e74c
:100cc000204602f0f6faf4e7e36c002bf6d0e36b73
:100cd000013be363f2e7b8f1800f7ff4f0ae002d43
:100ce0003ad133681a1d3260d3f80080059b5a1c34
:100cf00005925a785e2a0cbf012700272cad08bf49
:100d0000023340f201123946284608bf059303f02a
:100d100087fd059b85f800a01a782d2a1fd1013385
:100d20000593c7f1010385f82e30c7f10107f9b229
:100d3000059a13785d2b1bd1b8f1000f55d1e36be9
:100d4000e26c93425ed25a1ce2631f78eb195b7827
:100d5000002b53d19b4638e04ff00008c6e75d2ad0
:100d6000e3d101330593c7f1010385f85e30dce779
:100d7000002be1d02d2b06d0059b13f8012b0593fa
:100d80002a445770d4e7069b1b78002bf4d05d2bc8
:100d9000f2d0531c0593049b1b7850788342ebda06
:100da0000133e954f9e708f80370069a0132069214
:100db0000133e16be26c91429b4618d24a1ce2631c
:100dc0000f78ea195278002aedd1e36c13b1e36b86
:100dd000013be363bbf1000f3ff471aeb8f1000fcc
:100de0003ff46dae08f80ba069e60023e1e720466a
:100df000039302f05efa039b0746e2e7069b01338a
:100e000006939ce7204602f054fa07469ee7054603
:020e1000a7e653
:020000040000fa
:020000040040ba
:060e1200002000217047e2
:020000040000fa
:020000040040ba
:100e18002de9f04f2ded0c8b1d4692ed008bd1e99d
:100e28000083b5eec08b8db0f1ee10fa03930b6919
:100e38000790d1f808900493cc6807d418f0040ff1
:100e480035d118f0080734d0202302e02d23b1ee65
:100e5800488b237009f1ff36012718ee901adff846
:100e680078b321f0004318ee102a4ff0000a5b45d2
:100e780008bf524504eb0700a5f141011bd1192910
:100e880004eb070094bfd049d04903f0fbfccf48de
:100e980003f0cafccdf8008002464b46214607986d
:100ea80002f0a2fb0db0bdec0c8bbde8f08f2b233c
:100eb800cfe74e46d1e79b4508bf924507d219298f
:100ec80094bfc349c34903f0ddfcc248e0e73022c0
:100ed8001a2907f101030270b5ee408b34bf58227e
:100ee8007822f1ee10fae254b7ee009b07f1020700
:100ef800a6f102064ff0000a40f0e880b0ee49bbc8
:100f0800b0ee48cb039b9fedaadb002bacbf9b4602
:100f18004ff0180b0025b0ee4dab8cee0b0b069185
:100f280002f022f86b1c0593039b00ee4bcb002bc1
:100f38002bee0dbb069904dab5ee40cbf1ee10fab4
:100f480005d0ab4500f3e5800bf101030593b2ee44
:100f5800007b2bee077bb4eec7cbf1ee10fa00f165
:100f6800da80b4ee47cbf1ee10fa09d1bdeec00b32
:100f78009fed916b10ee103a13f0010f06fe077b00
:100f880038ee078b18ee900adff84cc218ee102adc
:100f980020f000434ff0000b634508bf5a453ff46b
:100fa8006eaf049a4ff0000b053a3d46cdf818b0e5
:100fb8005b460992099aaa421ddd88ee090b0a933d
:100fc800089101f0d1fffdeec07bb0ee40bb17eefb
:100fd800900a08990a9b002840f0a080002b00f096
:100fe8009d800bf1010b059a0bee498b01339a4258
:100ff80029ee0a9bded1069bdbb96319bbf1000f12
:1010080000f0ec80039a002a40f3e88018f0010f02
:1010180040f0e4802e221a700beb050222443020a7
:1010280003f8010f9342fbd15d446fea0b0b0135c6
:101038005e4463190393049b04980022013b924584
:101048006255b8bfcaf1000ae254c0f1020bb8bf3a
:1010580001224ff00a0cbaf1000f40f096800beb1a
:10106800030ebef1010f00f09080002a03f1ff3c4f
:1010780014bf2d222b22023b1a2904f80c2034bf5e
:10108800502270229d4204eb0301e25402da0398d5
:1010980003f0f8fb08f00303022b11d1b51e002d55
:1010a8000edd204603f0c0fb013e2044031b9f4297
:1010b80077dd2a463021e01903f0aefb4ff0000936
:1010c8002046e5e60af1010ab0ee479b39ee097bb6
:1010d800b4eec78bf1ee10faf4d5b6ee007bb0eea5
:1010e800475b9fed376bb4eec98bf1ee10fa7ff5d5
:1010f80005af29ee074bb5ee404bf1ee10fa04bff1
:1011080029ee069b28ee068b29ee059b0af1ff3a8d
:10111800e9e7059d01e79fed287b31e7069a32b99b
:101128002bb12e2262550122013e01350692089507
:1011380004eb050c5a4604e04ff0300e0cf801ebb6
:10114800013a002af8d10928089a05f1010506f1a3
:10115800ff36d4bf3030573019295d445a44a6ebc6
:101168000b060ed840f0200cacf1610cbcf1190f45
:1011780007d8cde90a32089103f07dfbdde90a3290
:101188000899a0544ff0000b2de7bafbfcfe013b79
:101198000cfb1eaa0af1300a04f803a0013ef2462d
:1011a80059e710f80139835580e700bfaff3008095
:1011b800000000000000b03f000000000000000038
:1011c80000000000000050435048400054484000d0
:1011d800584840005c4840000000f07f18f0100fad
:0c11e8003ff427af2e2201351a7022e7d9
:020000040000fa
:020000040040ba
:0411f4000020704720
:020000040000fa
:020000040040ba
:1011f8002de9f04f2ded0a8b92ed00ab8fb0b5eed7
:10120800c0ab05938b680293f1ee10fa0b69079057
:101218008846d1e900760893cd6807d4790737d492
:1012280017f00803039335d0202302e02d23b1eef5
:101238004aab2b70029b03f1ff39012303931aee8b
:10124800903adff858b323f000411aee100a039bd6
:101258004ff0000a59452b4408bf504504931cd150
:10126800059b0498413b192b94bfc749c74903f014
:1012780009fbc64803f0d8fa00970246029b079874
:10128800294602f0b1f90fb0bdec0a8bbde8f08f2a
:101298002b23cee7ddf80890d1e78b4508bf8245c0
:1012a8000ad2059b0498413b192b94bfb849b94908
:1012b80003f0e8fab748dde7b5ee40abf1ee10fa17
:1012c800b2ee04cbb7ee009b4ff0000416d10598a0
:1012d80003f0cafa002ec0b2c0f2628167282ad190
:1012e800002e08bf0126231d02dbb442c0f239815b
:1012f8004ff0650a2fe00134b0ee479b29ee0c7bd6
:10130800b4eeca7bf1ee10faf5dd0023a24a9fed98
:101318009a7b0ae0944205da23b92aee07ab29ee54
:10132800079b0123013c89ee0c9bb4eec9abf1ee9f
:1013380010faefd4cbe78246baf1660f06f1010640
:1013480009d1002c02dab7ee009b0024672818bfe9
:1013580036194ff0660a4ff0000bb0ee498bb0ee2d
:101368004abb8bee080b069001f0fefd0bf1010b5a
:10137800fdeec07b5e4590ee08bb17ee903ab1eeed
:101388004bbb88ee0c8b0698ebd1b1ee047b28eeb4
:10139800078bb4eec8bbf1ee10fa7fd4b4ee48bbad
:1013a800f1ee10fa05d19fed766b13f0010f06fef2
:1013b800088b3aee088b29ee0cabb4eec8abf1ee15
:1013c80010fa6ed8baf1660f04f101046bd1013638
:1013d800a346abeb06030a93002107f01003039e14
:1013e80006910b930a9b09965b4504d0d8f81030f8
:1013f800053bb3425ed8069b2bb9fa0641bf099a52
:101408002e23ab5401360022baf1650f05eb060016
:10141800aa552bd1089b0899013b9442ea54c1f183
:10142800030ebcbf644201220a21002c40f08a80ce
:101438000eeb030cbcf1000f00f38480002a03f1cb
:10144800ff3114bf2d222b226a54059a413a023be0
:10145800192a98bf4ff0450a9e4205eb030105f88b
:1014680003a0a9f1020901da03f00cfa07f003035b
:10147800022b11d1b9f1000f0edd284603f0d4f983
:1014880005eb0903039a824267dd4a463021049836
:1014980003f0c2f9002302932846ebe69fed388b50
:1014a80087e7b0ee49abbaf1650f14bfa3464ff01a
:1014b800000b8ee788ee0a0bcde90c1001f054fd05
:1014c800fdeec07b0b9b17ee902a1343dde90c1051
:1014d8000fd167280dd1bbf1000f19da4b1c9aee1a
:1014e800008b0bf1ff3bb1ee488b8aee0cab194633
:1014f80078e7069b63b9bbf1000f09da099b4ff047
:101508002e0c05f803c00123013609f1ff390693b3
:10151800324605eb060e0b4604e04ff0300c0ef891
:1015280001cb013b002bf8d12a44944617ee902ab0
:1015380009f1ff3901363032a9eb01090e440cf8e4
:101548000120cce7b4fbf1fc013b01fb1c44303427
:10155800ec5409f1ff39644667e72a5c1a540138ec
:1015680090e7002cbff6f5ae4ff0660ae4e60626d3
:10157800b9e600bfaff30080000000000000504350
:10158800000000000000000060484000644840007f
:10159800684840006c484000d4feffff0000f07f20
:0c15a8006728e4d082460626c6e600bf95
:020000040000fa
:020000040040ba
:1015b400c8f945201c0000000000000010fa452076
:1015c4000800000000000000e4f945201c000000b1
:1015d4000000000018fa4520080000000000000088
:1015e40000fa4520100000000000000020fa452009
:1015f400080000000000000028fa45200800000050
:101604000000000054f74520040000000000000022
:101614004cfa4520010000000000000088f8452035
:101624004800000000000000d0f8452048000000f9
:101634000000000018f945204800000000000000e8
:1016440060f9452048000000000000004dfa4520e4
:10165400010000000000000038fa452004000000ea
:10166400000000004efa45200100000001000000c7
:101674000500000000f045204001000001000000ca
:101684000000000000000000000000000000000056
:101694000000000000000000000000000000000046
:1016a4000000000000000000000000000000000036
:1016b4000000000000000000000000000000000026
:1016c4000000000000000000000000000000000016
:1016d4000000000000000000000000000000000006
:1016e40000000000000000000000000000000000f6
:1016f40000000000000000000000000000000000e6
:1017040000000000000000000000000000000000d5
:1017140000000000000000000000000000000000c5
:1017240000000000000000000000000000000000b5
:1017340000000000000000000000000000000000a5
:101744000000000000000000000000000000000095
:101754000000000000000000000000000000000085
:101764000000000000000000000000000000000075
:101774000000000000000000000000000000000065
:101784000000000000000000000000000000000055
:101794000000000000000000000000000000000045
:1017a4000000000000000000000000000000000035
:1017b4000000000000000000000000000000000025
:1017c4003cfa4520040000000000000038f84520e1
:1017d400500000000000000058f745207800000089
:1017e4000100000068f7452060f7452068f74520b0
:1017f40000000000000000002500000048f1452022
:1018040000040000000000000000000000000000d0
:1018140000000000000000000000000000000000c4
:1018240000000000130e4000000000000000000053
:101834000000000000000000693a400000000000c1
:101844000000000000000000000000000000000094
:1018540000000000000000000000000040f14520ee
:101864000804000000000000a8f945202000000042
:10187400010000000100000003000000000000005f
:101884000000000000000000000000000000000054
:1018940030fa452030fa452008000000000000001e
:1018a40040fa4520040000000000000044fa4520ee
:1018b400040000000000000048f545200c02000070
:1018c40000000000d0f7452068000000010000007f
:1018d4000100000003000000000000000000000000
:1018e400000000000000000000000000053a400075
:1018f400000000000000000000000000c14840009b
:10190400cf4740000000000000000000000000007d
:1019140000000000000000000000000000000000c3
:1019240000000000000000000000000000000000b3
:10193400000000000000000048fa452004000000f8
:10194400000000000000000000000000222222220b
:020000040000fa
:020000040040ba
:101954002de9f84f002002f087fab54c04f1a005f8
:10196400284602f0cffd04f1c40002f0cbfd284666
:1019740002f0c8fdaf4800f04bff0022ae4910460c
:1019840002f054fe0022ad49012002f04ffe002176
:10199400ab4802f02bff04f1e80002f0b3fd264649
:1019a400a84d05f10709c9f1800704f5287860e11d
:1019b400dff8aca25146404602f09afe002002f045
:1019c400b7f99af80030303b3d2b00f22b81dfe869
:1019d40013f03e0067009100c100f10029012901c4
:1019e40029012901290129012901290129012901a3
:1019f4002901290129012901290129012901290193
:101a04002901290129012901290129012401290187
:101a14002901290129012901290129012901290172
:101a24002901290129012901290129012901290162
:101a34002901290129012901290129012901290152
:101a44002901290129012901290129012401482207
:101a54000021284602f0e2fe7b4b2b603f23ab7152
:101a6400ea1d002302f8013f0133402bfad1774be2
:101a740040221a7006f5297002f044fd01217448d1
:101a840002f0acfe022323702946012002f004fb7d
:101a9400002840f0f48006f53b7002f033fdeee0e0
:101aa40048220021284602f0b9fe6a4b2b603f23ee
:101ab400ab7105f147014b46fa1803f8012f8b422d
:101ac400fad1624bc0221a7006f53e7002f01afd7c
:101ad40001215f4802f082fe02232370294601207f
:101ae40002f0dafa002840f0ca8006f53b7002f0f2
:101af40009fdc4e048220021284602f08ffe00239d
:101b0400554a62f31c032b601b0e43f04003eb7039
:101b14003f23ab71ea1d002302f8013f0133402b40
:101b2400fad14a4b40221a7006f5517002f0eafcd1
:101b34000121474802f052fe022323702946012066
:101b440002f0aafa002840f09a8006f53b7002f0f1
:101b5400d9fc94e048220021284602f05ffe0023cd
:101b64003e4a62f31c032b601b0e43f04003eb70f0
:101b74003f23ab7105f147014b46fa1803f8012fd7
:101b84008b42fad1314bc0221a7006f5657002f00f
:101b9400b9fc01212e4802f021fe022323702946bc
:101ba400012002f079fa002869d106f53b7002f0b1
:101bb400a9fc64e048220021284602f02ffe254bb0
:101bc4002b600823ab7100222a724ff0010a85f8ba
:101bd40009a04ff0020b85f80ab00322ea7204222e
:101be4002a7305226a730622aa730722ea73174a24
:101bf400137006f5797002f085fc5146144802f022
:101c0400edfd84f800b02946504602f045fab0bb19
:101c140006f53b7002f076fc31e006f1e80002f0d4
:101c240071fc2ce006f5866002f06cfc27e000bf36
:101c34009001400000f04520c9384000353940008b
:101c4400a139400060f94520000068114cfa452094
:101c5400314240000000a411a500001096000010bd
:101c64004dfa4520134b1b78012b19d0124b05223a
:101c74001a70114c2378dbb2052b3ff499ae23780c
:101c8400dbb2032beed0042bf4d10a4b1b7863b9df
:101c940006f58a6002f036fc074b05221a70e8e765
:101ca40006f2444002f02efce0e706f26c4002f03b
:0c1cb40029fcf1e738fa45204efa4520e3
:020000040000fa
:020000040040ba
:101cc0002de9f04fadb00027dff8e4a203910646fe
:101cd0001546b8464ff0ff3903990b78002b00f0fa
:101ce000f9800cabcde907890a938023cdf82480d5
:101cf0000b9300240b5d0bb1252b26d134b122466a
:101d0000304602f007fa039b23440393039b1a789f
:101d1000252a40f0d78003f1010bcdf80cb00398d1
:101d200003782b2b1ad025d8202b1bd0232b1dd08a
:101d30002a2b27d002f02ff90990039b1a78303a0a
:101d4000092a2ed801330393f7e70134d2e7079b22
:101d500043f00103013007930390e0e7079b43f052
:101d60000403f7e7079b43f00803f3e7079b43f0ff
:101d70001003efe72d2bead0302bd9d1079b43f08e
:101d80000203e7e72b681a1d1b682a600130002b4d
:101d90000390099305da079a5b4282f001020792e9
:101da0000993079bda0744bf23f002030793039bc1
:101db0001a782e2a0dd1581ccdf8208003905a781d
:101dc0002a2a25d1023303932b681a1d1b682a6027
:101dd000089303a802f0d8f9039b0190187802f049
:101de00047fd6928019979d032dc632800f0c6806c
:101df00019dc252800f0d080612853d025238df8e8
:101e00001030cdf80cb0cdf81c80cde90898c0e0ba
:101e100002f0c1f80890039b1a78303a092ad8d802
:101e200001330393f7e7642858d06728e6dc2a4695
:101e300004a802f040fb002800f09c80039b5a1c81
:101e400003921b7804aa07a93046fff7d5f938e0ba
:101e5000702873d015dc6e2800f087806f28cdd1f4
:101e60002b46002204a801f039f9002800f08280f6
:101e7000039b04aa013307a93046039301f0eafc4f
:101e80001fe075283ad0782848d07328b6d1802929
:101e900070d1039b2a6801330393131d2b601268d2
:101ea00000235be02a4604a802f005fb002861d06d
:101eb000039b5a1c03921b7804aa07a93046fef71d
:101ec000abff04443c44a7426edd384b4f221a60fe
:101ed0004ff0ff3738462db0bde8f08f2b4601227a
:101ee00004a801f0fbf8002844d0039b04aa0133a6
:101ef00007a93046039301f09df8e2e72b46002244
:101f000004a801f0ebf8002834d0039b04aa0133a5
:101f100007a93046039301f0b7fed2e72b46002213
:101f200004a801f0dbf828b3039b5a1c03921b782a
:101f300004aa07a9304600f0dbfbc2e72b460022cb
:101f4000f02104a801f0caf8a0b1039b0133039368
:101f5000dde90423134306d10023524607a9304686
:101f600001f066feade77823e2e72b463a1904a8b4
:101f700001f0bbfb039b01330393a3e78029f9d155
:101f8000039b013303932b681a1d1b682a608df88d
:101f90001030012304aae1e78029ebd1039b8df8df
:101fa000100001330393f4e7274695e644fa4520f1
:041fb000b6464000f1
:020000040000fa
:020000040040ba
:101fb4002de9f04f099f154604468e461e46002b18
:101fc40040f0cc808a42b2fa82fc4cd9bcf1000fba
:101fd4000bd0ccf1200801fa0cfe20fa08f802fa22
:101fe4000cf548ea0e0e00fa0cf44fea15491ffaf4
:101ff40085f8befbf9fa210c09fb1ae30afb08fb7e
:1020040041ea03439b452ad9eb180af1ff3004d275
:102014009b4502d9aaf102002b44a3eb0b03a4b203
:10202400b3fbf9f209fb123302fb08f844ea034458
:10203400a04516d92c1902f1ff3303d2a04501d9ca
:10204400931e2c44a4eb080443ea004027b124fa6d
:102054000cf400233c607b603146bde8f08f5046b1
:10206400dbe71346eee702b9ffdebcf1000f2ed129
:102074008b1a01264fea154eaab2b3fbfef8210cc7
:102084000efb183308fb02f941ea0343994561d971
:10209400eb1808f1ff3004d2994502d9a8f10200e7
:1020a4002b44a3eb0903a4b2b3fbfef10efb1133e3
:1020b4004a4344ea0344a2424ed92c1901f1ff33a6
:1020c40003d2a24201d98b1e2c44a41abce7ccf142
:1020d400200e02fa0cf521fa0ef901fa0cf320fa9b
:1020e4000efe4eea03034fea154800fa0cf4b9fb5e
:1020f400f8f11ffa85fe08fb1192180c01fb0ef68d
:1021040040ea0242964221d9aa1801f1ff3003d2d3
:10211400964201d9881e2a44921b9bb2b2fbf8f95d
:1021240008fb192209fb0efe43ea02439e450fd920
:10213400eb1809f1ff3604d29e4502d9a9f1020633
:102144002b44a3eb0e0346ea004693e70846e3e775
:102154004e46f6e74046a4e70b46b6e78b4206d95f
:10216400002f7ed00026c7e90001304674e7b3fa99
:1021740083fcbcf1000f0fd18b4201d3824209d8fa
:10218400841a61eb030e0120002f6dd0c7e9004ec5
:10219400002661e76046f7e7ccf1200e03fa0cf362
:1021a40022fa0ef521fa0ef41d4301fa0cf320fa7b
:1021b4000ef10b434fea154a00fa0cf6b4fbfaf998
:1021c4001ffa85f80afb19401c0c09fb08f144eac4
:1021d4000044a14202fa0cf23fd92c1909f1ff3054
:1021e40004d2a14202d9a9f102002c44641a9bb280
:1021f400b4fbfaf90afb194409fb08f843ea044161
:1022040088452cd9691809f1ff3304d2884502d9cd
:10221400a9f10203294443ea0040a1eb0801a0fb11
:1022240002894945c2464c4602d306d1464504d2ea
:10223400b8eb020a69eb05040138afb1b6eb0a0347
:1022440061eb040606fa0efe23fa0cf34eea0303ce
:1022540026fa0cf6c7e900369ae74846c6e74b4625
:0c226400d9e73e463846f7e63e46f5e670
:020000040000fa
:020000040040ba
:102270002de9f04f87b0039003a801f0cffe0028ae
:1022800003da002007b0bde8f08f039b1b095d1e39
:10229000202d0fd9023b5e4ab3f5007f35bf02eb1c
:1022a000d30302ebd31313f8045c13f8045c34bfbc
:1022b000013511350123a5f12001c5f1200203faf2
:1022c00001f923fa02f203fa05f8d8f1000849ea05
:1022d000020969eb4909cde90089dff84081dff89f
:1022e00030914746d8e90023009902ea010a019992
:1022f00003ea010b5aea0b0342d1039b05a81033f2
:10230000059302f032fa18b9424b0c221a60b9e771
:10231000d8f80852a84206d0059b103b059301232c
:1023200000f110058360059bea18012143f00103c9
:10233000b5f1080442f8083c42f8041cc7f808222a
:1023400045f8043c9dd0204601f0d4ff88b155f8f3
:10235000083c55f8041c23f00103e31a5a6822f0e4
:1023600001020a445a6055f8041c21f00101625030
:102370001c462046039902f004f804f1080081e7a6
:102380005446254bbaf1000f34d1cbf1000000eade
:102390000b00434309ebd36393f83c60203630468f
:1023a00002f026f9731c57f8334007ebc303083bd0
:1023b0009c4297d0272e26dd0235ae4201dc3f2e0f
:1023c00021d16268039922f00102551a284601f0d2
:1023d00013ff864217d1e068a6686318d8609e6034
:1023e00083609868c36041f0010060505d60a55053
:1023f0006060bee7caf100002040434309ebd363ad
:1024000093f83c60cbe73146204601f0e5fbb0e7ae
:10241000243b400044fa452029e66b0748f5452057
:020000040000fa
:020000040040ba
:1024200008b5504b9847504b9847eff3108172b660
:102430004e4ad2f8883043f47003c2f88830bff3b4
:102440004f8fbff36f8f01b962b6494b494a5a604b
:102450009a6812f0010ffbd0454bdb6813f4c07f84
:1024600013d0454b0c221a60414b444a5a609a687b
:1024700012f0010ffbd03e4b414a5a609a6812f0ad
:10248000010ffbd03f4b404a1a60bff34f8fbff3a1
:102490006f8f364cd4f8903223f00103c4f8903299
:1024a000d4f8943223f00103c4f89432bff34f8f71
:1024b000bff36f8f01f018f8344b23f07f03a36054
:1024c000334b984701f044fe636913f4003f12d187
:1024d000bff34f8fbff36f8f0022c4f85022bff3ba
:1024e0004f8fbff36f8f626942f400326261bff3b6
:1024f0004f8fbff36f8f1d4b5b6913f4803f29d162
:102500001a4b0022c3f88420bff34f8fd3f88030da
:10251000c3f3c906c3f34e335a0143f6e0751348bb
:1025200002ea0504334644ea8371c0f86012013bb5
:10253000b3f1ff3ff7d1203a12f1200ff0d1bff3f2
:102540004f8f0a4a536943f480335361bff34f8f6f
:10255000bff36f8f0f4b98470f4b9847fff7faf970
:10256000fee700bfa7454000a745400000ed00e0a2
:10257000000c0e400d00005a54f745200c08005a7c
:102580000c07005a00180e40010000a50000400092
:0c259000c93a4000a7454000a7454000a4
:020000040000fa
:020000040040ba
:10259c002de9f04f85b09b46d2f808a00091d2e906
:1025ac000385044601f092fddbf800201044cbf8c3
:1025bc000000baf1000f01d105f1ff3a4ff000090c
:1025cc006b1e0a274e46019356453fda019bb342d8
:1025dc003cdde06be16c884212d2411ce163057872
:1025ec00ceb92b2d01d02d2d15d188f80050dbf84c
:1025fc0000204ff001090132cbf800204e46e3e7f2
:10260c00204600f050fe05460130e9d1f6b92846c7
:10261c0005b0bde8f08f4e4508d10a2f06f101092f
:10262c0028d1302d0cbf08274ff00009a5f130013f
:10263c00092946d9102f04d1284602f01df800288c
:10264c0044d1e36c13b1e36b013be36300230a2f2a
:10265c0008f806303a4603a9404640d102f094f8f7
:10266c00009bc3e90001039b43450cbf6ff00105c0
:10267c000125cce7082f21d145f0200178291dd167
:10268c00e06be16c884215d2411ce1630078e16c8f
:10269c0011b1e16b0139e16301f0eeff0028d0d0fc
:1026ac0008f80650dbf8001001314e46cbf800104c
:1026bc00102789e7204600f0f6fde8e74ff0000907
:1026cc00b4e7082f02d1382da8bf0a2708f8065006
:1026dc00dbf8001001310136cbf8001074e702f082
:0426ec0028f8bde726
:020000040000fa
:020000040040ba
:1026f0002de9f04f89461946d9e90153d9f80080f0
:10270000d9f80ca0002d8bb0a8bf28f00208834692
:10271000b8bf012518f010009646d2e90067029074
:1027200051d056ea07024ed0981e18f008040394c0
:10273000d9f8104018bf00f1ff30401b013c4ff0aa
:10274000000c049008f0020005900af804c0a1f102
:1027500041000690012c0add56ea070235d1002d12
:1027600033dc049a5019002801dd059a6abb029aed
:1027700062b1dee9006756ea070207d00aeb0402fd
:10278000023c02f8011c30220af80420039a1ab114
:10279000013c20220af80420d9f81020cdf800804e
:1027a000013a121b0aeb0401584600f021ffdbf846
:1027b0000430db0504d5d9f804309842b8bf184678
:1027c0000bb0bde8f08f1846afe706f00f00069a91
:1027d0000928d4bf30305730192a04f1ff340ed8fd
:1027e00040f0200cacf1610cbcf1190f07d8cde919
:1027f00008e1079302f043f8dde908e1079b0af8d6
:102800000400300940ea07704fea171c013d0646f4
:0428100067469fe791
:020000040000fa
:020000040040ba
:10281400f8b505464ff4a072002101f0ffff394ad4
:10282400936943f001039361936913f0010ffbd0a3
:10283400344ca36943f00203a361334a156025f0c5
:10284400030189b231480143c4f8a01005f14803db
:10285400536023f003039bb20343c4f8b03005f183
:102864009003936023f003039bb2c4f8ac3005f1ea
:10287400d803d36023f003039bb243f08073c4f8fe
:10288400c03005f59073136123f003039bb243f446
:102894008033c4f8f03005f5947353611c4e03ceb5
:1028a400c5f82801c5f82c1123f003039bb243f4a7
:1028b4000033c4f8843005f598769661154f0fcf30
:1028c400c5f83001c5f83411c5f83821c5f83c31d4
:1028d40026f00306b6b246f40036c4f888600e4902
:1028e400d1f814210d4b2b4092b21343c1f814318b
:1028f400a36923f00103a3612246936913f0010f36
:10290400fbd1f8bd00400340e4f9452000000180fc
:102914009848400000484000008008400000ffff45
:020000040000fa
:020000040040ba
:10292400ffffffffffffffffffffffffffffffffb3
:10293400ffffffffffffffffffffffffffffffffa3
:10294400ffffffffffffffffffffffffffffffff93
:10295400ff00010203040506070809ffffffffff4c
:10296400ffff0a0b0c0d0e0f10111213141516177e
:1029740018191a1b1c1d1e1f20212223fffffffff5
:10298400ffff0a0b0c0d0e0f10111213141516175e
:1029940018191a1b1c1d1e1f20212223ffffffffd5
:1029a400ffffffffffffffffffffffffffffffff33
:1029b400ffffffffffffffffffffffffffffffff23
:1029c400ffffffffffffffffffffffffffffffff13
:1029d400ffffffffffffffffffffffffffffffff03
:1029e400fffffffffffffffffffffffffffffffff3
:1029f400ffffffffffffffffffffffffffffffffe3
:102a0400ffffffffffffffffffffffffffffffffd2
:102a1400ffffffffffffffffffffffffffffffffc2
:0a2a2400ff0001020407030605008d
:020000040000fa
:020000040040ba
:022a2e00fee7c1
:020000040000fa
:020000040040ba
:102a30002de9f84300286ad050f8043ca0f10804be
:102a400023f00106a719a259934200d0ffde7a684d
:102a500023681340da070fd4204601f04bfc00280e
:102a600057d1384601f0d0fc0028f0d07b6823f025
:102a700001031e441f44eae746f001036360304649
:102a80003b6001f0b9fb054601f0b2fd23687a68ae
:102a90001340db07e0d5dff88ce0dee90089c5f103
:102aa000200ca5f1200228fa05f009fa0cfc29fafd
:102ab00002f240ea0c001043012100ea0102002367
:102ac0001343c5f120007346a5f1200212d121fa6b
:102ad00000f001fa02f2a94042ea00021ebfdef84d
:102ae00000000143cef8001022b1def804100a43c2
:102af000cef80420681c03ebc003a3f10802666053
:102b00003e60a2605a68e2605c60e3689c60bde879
:102b1000f883236823f00103e41a636823f00103b8
:082b20001e449ee748f5452024
:020000040000fa
:020000040040ba
:102b280010b5314b1c6d314b234043b12e4a136510
:102b38002f4b1b681bb12e4a51682046984714f04a
:102b4800010f0cd0284b01221a65d3f8a400294b99
:102b58001b6823b1274a516800f07f00984714f09a
:102b6800100f0cd0204b10221a65d3f8b400214b5b
:102b78009b6823b11f4ad16800f07f00984714f47e
:102b8800002f09d0184b4ff400221a65d3f898305b
:102b980013b113f0010f1ed114f4006f09d0124bba
:102ba8004ff400621a65144b1b6813b1124a50683f
:102bb800984714f4805f0dd00b4b4ff480521a6580
:102bc800d3f8f4000d4b1b6823b10c4a516800f090
:102bd8003f00984710bd0a4b1b68002bdcd0084a01
:102be800516800209847d7e700400340eee7f7ff19
:102bf80010fa452000fa452028fa452020fa4520f9
:042c080018fa452051
:020000040000fa
:020000040040ba
:102c0c002de9f04f87b001900f4692467bb1012b16
:102c1c0011d0022b13d0019b002b55d04fea0a1a6e
:102c2c004ff00008dff8a89009f1400b17e0284896
:102c3c0001f0b4fcefe7274801f0b0fcebe72648c5
:102c4c0001f0acfce7e709f19c0001f057fc57449c
:102c5c0008f101085ffa88f8019b434534d01f48fe
:102c6c0001f04cfcfb7813f0400f3e6814bfc6f328
:102c7c001c06c6f38a46bc7904f00f049be80f00cf
:102c8c0002ad85e80f0006ab1c4414f8105c2b4613
:102c9c003246b98809f1500001f080fc09f1880036
:102cac0001f07cfc002dced0fc1d013d07f108038a
:102cbc0053fa85f509f1940614f8011f304601f01a
:102ccc006dfcac42f8d1bee707b0bde8f08f00bf99
:102cdc00900140009c014000a8014000b801400058
:020000040000fa
:020000040040ba
:102cec002de9f74f994604468b46d2f808a0d2e955
:102cfc00037601f0ebf9d9f800301844c9f800005c
:102d0c00baf1000f01d106f1ff3a002506f1ff38a8
:102d1c0055452bdaa84529dde36be26c934235d29d
:102d2c005a1ce2631e78304601f0a6fc00283dd107
:102d3c00012d16d1304601f095fd782811d13b7844
:102d4c00302b0ed1e36be26c93422bd25a1ce26314
:102d5c001878e36c13b1e36b013be36301f08cfc7b
:102d6c0020bbe36c13b1e36b013be36300237b55a6
:102d7c00102201a9384601f0dcfc019bbb42cbe9d7
:102d8c0000010cbf6ff00106012607e0204600f0a1
:102d9c008afa06460130c6d1002de7d1304603b081
:102dac00bde8f08f204600f07efad2e77e55d9f8c8
:0c2dbc00003001330135c9f80030a9e7f0
:020000040000fa
:020000040040ba
:102dc800002a61d02de9f84f8046154620b1012828
:102dd8002ed00020bde8f88f2c4bd3f8a440c4f3c4
:102de8000524f1b14f1e5ffa87fb0026dff8a0a08b
:102df8004ff0480900e01e4604ebc401daf8003041
:102e08004a4603ebc101284601f0a0fcb74208d0ae
:102e180048350134e4b2012c08bf4446731cb3455d
:102e2800e9d104f03f04194bc3f8a8400120d1e7c9
:102e3800164bd3f8b440c4f30524f1b14f1e5ffa22
:102e480087fa0026dff848904ff0480800e01e4651
:102e580004ebc401d9f80430424603ebc10128460b
:102e680001f074fcbe4208d048350134e4b2012cac
:102e780008bf0024731c5645e9d104f03f04034bf6
:102e8800c3f8b8400120a5e7002070470040034080
:042e9800e4f94520f4
:020000040000fa
:020000040040ba
:102e9c00314b0022c3f81421d3f8141141f44161d1
:102eac00c3f814112d494ff400134b606ff4001349
:102ebc000b604ff0ff334b650b66c1f89030c1f8d7
:102ecc00a0300a614b618a63c1f8182101f50071c9
:102edc0010200867486748606ff0100008604b6569
:102eec000b66c1f89030c1f8a0300a614b618a635f
:102efc00c1f8182101f500710a674ff4a04048672a
:102f0c0048606ff4a04008604b650b66c1f89030c8
:102f1c00c1f8a0300a614b618a63c1f8182101f530
:102f2c0000710b604b650b66c1f89030c1f8a03096
:102f3c000a614b618a63c1f8182101f500710b60bd
:102f4c004b650b66c1f89030c1f8a0300a614b613b
:102f5c008a63c1f81821704700800840000e0e40ab
:020000040000fa
:020000040040ba
:042f6c00704700bfeb
:020000040000fa
:020000040040ba
:102f700053ec102bc3f30a512de9f04140f2fd70e0
:102f80004e1e86421d4644d8a1f2ff30002835db94
:102f9000332831dc264bc0f120084ff0ff3c03fa08
:102fa00008f2a1f21f412cfa00fc10ee104a4cea84
:102fb000020c23fa01f24cea020c23fa00fe04eaa6
:102fc0000c0605ea0e0724ea0c0256ea070425ea75
:102fd0000e030fd0002a73f100040bda4ff48015b2
:102fe00005fa08f425fa01f10c43121925fa00f04c
:102ff00040eb030343ec102bbde8f0819fed0a7b0f
:10300000bfee000b002a73f1000327fe000bbde8a2
:10301000f0810029f0d10a4603f0004343ec102b65
:10302000eae700bfaff300800000000000000000ee
:04303000ffff0f008f
:020000040000fa
:020000040040ba
:103034002de9f041d2e900230c4686b007465fea49
:10304400d37820684968a5680590e66841d0524263
:1030540063eb4303002908db20f002000590b8f17c
:10306400000f02d1059948072ad5691e05a80290c8
:103074000a20cde90010204600f073fbb8f1000fe0
:1030840002d1059b59071fd5b8f1000f00f1ff309d
:1030940014bf2d232b2333542269059b0093013a3b
:1030a4002b46121a3118384600f0a0fa7b68db056b
:1030b40003d563689842b8bf184606b0bde8f081ee
:1030c4000807d2d42946d1e71a07e5d501382023c9
:0830d400e1e70029c0dac5e7bd
:020000040000fa
:020000040040ba
:1030dc00882930b534d012dc81293fd003dc80291b
:1030ec003cd0002030bd82290ed08429f9d11c6837
:1030fc0054f8041b1c60f2b10ab2d3171de0a029ce
:10310c0027d00cdc9029ecd11968073121f007018c
:10311c00f1e802451960c0e900450120e2e7c02949
:10312c0001d0f029ddd11a68111d196013680360f4
:10313c0000234360f1e78ab20023c0e90023ece7e7
:10314c001c6854f8041b1c600ab14ab2d5e7cab219
:10315c00f2e71a68111d19601268cee719680c1d88
:10316c001c600ab10a68c8e70b68c0e90032d4e7f2
:020000040000fa
:020000040040ba
:10317c00224b01229a611a46936913f0010ffbd07e
:10318c001e4b9a6942f002029a6141f26602da60c1
:10319c001b4ada6140f27772c3f8bc204ff0ff3261
:1031ac00c3f89820c3f89c200722c3f8c820282213
:1031bc00c3f880206ff06042c3f8902001221a629d
:1031cc009a6942f440729a619a6922f001029a61fa
:1031dc001a46936913f0010ffbd1084a002393653b
:1031ec000121d16507495165074a1360536093600b
:1031fc00d360136153619361704700bf004003407b
:0c320c00040d0408ddddcb3fe4f9452093
:020000040000fa
:020000040040ba
:103218002de9f347984605468a46d2f80890d2e940
:10322800036700f055ffd8f800301844c8f80000cc
:10323800b9f1000f01d107f1ff390024013f4c45d6
:1032480011daa7420fddea6beb6c9a421bd2531cd2
:10325800eb631078a0f13003072b1ed9eb6c13b188
:10326800eb6b013beb6300233355082201a9304681
:1032780001f061fa019bb342cae900010cbf6ff08b
:103288000100012006e0284600f00ff8431ce1d1b8
:10329800002ce8d102b0bde8f0873055d8f80030ee
:0a32a80001330134c8f80030c9e713
:020000040000fa
:020000040040ba
:1032b2002de9f84f0446d0e9140150ea01030ad07f
:1032c200d4e9162382428b4105db0023e3644ff0ed
:1032d200ff30bde8f88f204601f029f90028f4db21
:1032e200d4e9142352ea0306d4e90f1527d0d4f8ff
:1032f20058e0e66db2eb0e0aa5eb010863eb060b94
:103302004feae879d04579eb0b0618db013aa2ebdc
:103312000e020a44e2645db1d4e91623a5eb010c66
:103322000cf1010c12eb0c0543ebec76c4e91656da
:1033320011f8013c834218bf01f8010cc9e72a4683
:02334200e8e7ba
:020000040000fa
:020000040040ba
:103344002de9f84316460546d1f80890d1e90387dc
:1033540000f0c0fe336818443060b9f1000f01d1a9
:1033640007f1ff390024013f4c4525daa74223dd4c
:10337400eb6bea6c93420ed25a1cea63187894b948
:103384002b2801d02d280ed188f800003368013392
:1033940033600124e8e72846fff789ff431ceed198
:1033a40054b9bde8f883a0f13003092b08d9eb6cbc
:1033b40013b1eb6b013beb63002008f80400f0e76a
:0e33c40008f804003368013301343360cce7ad
:020000040000fa
:020000040040ba
:1033d2002de9f843089e05460c461f46904622b149
:1033e20000f079fe3b6818443860d4f80890002455
:1033f200b9f1000f01d04c451cdaeb6bea6c934239
:1034020012d25a1cea631878b8f1000f18d020289b
:1034120003d0a0f10903042b12d8eb6c13b1eb6bb0
:10342200013beb63b6b906e02846fff741ff431cb8
:10343200ead11cb15eb9201c18bf0120bde8f88397
:1034420006b130553b68013301343b60d0e7b8f137
:0a345200000ff0d000233355ede722
:020000040000fa
:020000040040ba
:10345c002de9ff41836946690093f61acde90161b4
:10346c0004461746039216444ff002086d46424636
:10347c002946206800f0d8ffb04209d1d4e90232c5
:10348c00c4e905331a44a262384604b0bde8f081a1
:10349c0000280dda6268002342f01002b8f1020f26
:1034ac00a362c4e90533626015d06b68ff1aebe7c1
:1034bc006b68984288bf0835a6eb000688bfc01a17
:1034cc002b6803442b606b68a3eb000088bf08f1ea
:0a34dc00ff386860cbe71f46d6e713
:020000040000fa
:020000040040ba
:0234e600fee7ff
:020000040000fa
:020000040040ba
:1034e8001e4b1f4a9342f0b438bf002103d203f8a1
:1034f800011b9342fbd11b4ad2e9000150ea0103a8
:103508004ff0000610d09468034602f10c076cb91e
:1035180021b1014403f8016b9942fbd13a46d2e943
:10352800000150ea0103eed1f0bc704759b101f136
:103538000c030c38801a1a443b461c1813f8015b1c
:1035480025709342f9d111f0030318bf012303eb4f
:10355800910107eb81073a46e1e700bf00004020f0
:0835680000004020b4154000f2
:020000040000fa
:020000040040ba
:103570001d4b1e4a9a629a6e12f0020ffbd01a4a35
:10358000136b23f07003136313469a6e12f0080f47
:10359000fbd0154a136b23f4407343f48073136319
:1035a00013469a6e12f0080ffbd00f4a136b23f0ec
:1035b000030343f00203136313469a6e12f0080fdd
:1035c000fbd0094b4ff400525a60242159651a6010
:1035d0009a6e12f4005ffbd0034b4ff457321a611e
:1035e0002022c3f80021704700060e40013f18203a
:020000040000fa
:020000040040ba
:1035f0002de9ff471d460c9b13f00108074689463d
:10360000144624d1aa4222da2e1b102e32464ff045
:10361000200128bf10226846b24601f001f90f2ea2
:103620001edc4fea1a136ff00f0202fb03a2694679
:10363000384600f06ffdb8f1000f04d1224649462c
:10364000384600f067fd284604b0bde8f087224602
:103650004946384600f05efdac42d5db2546f2e730
:0e36600010226946384600f055fd103ed7e7af
:020000040000fa
:020000040040ba
:10366e00882930b52cd012dc812930d003dc80299a
:10367e002dd0002030bd82290ed08429f9d11968b1
:10368e0000680c1d1c600b6818800120f2e7a02951
:10369e000fd00adc9029ecd11968d0e90045081d3d
:1036ae0018600b68c3e90045efe7c02901d0f02987
:1036be00dfd11a680168101d186013681960e4e7fd
:1036ce00196800680c1d1c600b681870dde719681e
:0c36de0000680c1d1c600b681860d6e72b
:020000040000fa
:020000040040ba
:1036ea00842910b523d00cdc812903d0822913d078
:1036fa0080290bd119680c1d1c600b6803601a60c5
:10370a0013e0902921d003dc882917d0002010bdae
:10371a00a029efd0c029ece719680c1d1c600b68c2
:10372a000360d1171046c3e900010120efe71968c9
:10373a000c1d1c600b6803601a80f6e719680c1de3
:10374a001c600b6803601a70efe719680c1d1c6097
:0c375a0009680160d317c1e90023e6e70d
:020000040000fa
:020000040040ba
:103766002de9f84f04460c9f6668d4f80cb024691e
:1037760010463a68013c002502f0020a0b9a0bf843
:103786000450002e1946b8bf0126012390464fea81
:10379600e279002c03dcd3b12046bde8f88f50ea6d
:1037a600010209d1721b002a06dc0a9a521b002a62
:1037b600f1ddbaf1000feed042464b4600f0affd08
:1037c600013c134630320bf804200135e1e73b6833
:0837d60023f010033b60dfe764
:020000040000fa
:020000040040ba
:1037de00f8b5846a05460f46164654b1ab6a6a6957
:1037ee009b1ab3420bd2324639462846fff72ffebc
:1037fe00f8bd00f085ff0028f0d02046f8e7002e37
:10380e00f1d095f93430002b1bdbdbb23446621e4f
:10381e00b95c994212d1224639462846fff717fe67
:10382e00a042e5d32744341b22463946686900f08e
:10383e008aff6b691c446c613046d9e71446002a36
:06384e00e5d13446f0e76d
:020000040000fa
:020000040040ba
:10385400f0b50c4649682368a768e56887b0002975
:103864000593a4bf23f00203059305ab0293082339
:10387400cde900730646d2e900232046fff771ff25
:10388400059bd90642bf00f1ff3030232b54059b22
:103894001a0742bf00f1ff3020232b542269059bf5
:1038a4000093013a3b46121a29183046fff79efe50
:1038b4007368db0503d563689842b8bf184607b040
:0238c400f0bd55
:020000040000fa
:020000040040ba
:0238c600fee71b
:020000040000fa
:020000040040ba
:1038c80038b505460c46164b196000f0c7fc10f0d9
:1038d800070005d0072803d0124b04221a7038bd00
:1038e80014f0ff0ffbd105ebc5020f4cd2000021ed
:1038f800204600f091ff224629460020fff760fa93
:1039080018b9084b04221a70e9e700234822214617
:103918002846fff777f9034b03221a70dfe700bf49
:0c39280038fa45204efa4520d0f8452022
:020000040000fa
:020000040040ba
:1039340038b505460c46164b196000f091fc10f0a2
:10394400070005d0072803d0124b04221a7038bd93
:1039540014f0ff0ffbd105ebc5020f4cd200002180
:10396400204600f05bff224629460120fff72afa91
:1039740018b9084b04221a70e9e7012348222146aa
:103984002846fff741f9034b03221a70dfe700bf13
:0c39940038fa45204efa452018f945206d
:020000040000fa
:020000040040ba
:1039a00038b505460c46144b196000f05bfc10f06e
:1039b000070005d0072803d0104b04221a7038bd29
:1039c00014f0ff0ffbd10e4c48220021204600f0de
:1039d00027ff2146284600f083fd18b9074b042233
:1039e0001a70ece70223482221460120fff70ef966
:1039f000024b03221a70e2e738fa45204efa4520be
:043a000088f84520dd
:020000040000fa
:020000040040ba
:103a040037b50d46044610b9002003b030bd4368f5
:103a14009b0607d5d0e905239a4219d80023c4e9a7
:103a24000533a362d4e90f239a4206d2d21a0123a2
:103a340000932068d31700f045ff0023c4e90f3337
:103a4400002de1d0206803b0bde8304000f02ebf67
:103a54000022c36a114698476369002bded14ff0f8
:043a6400ff30d2e776
:020000040000fa
:020000040040ba
:103a68007fb5c36800911546002b18bf013a019233
:103a780082680446cde902230e46022269460068a0
:103a880000f0a8fc002808dc00f0180383f0080206
:103a980063681343636005460fe0019a8242fad2d5
:103aa800a368e363801ae268184420642ab15a1ca8
:103ab800e2632e441b7806f8013c284604b070bd2a
:020000040000fa
:020000040040ba
:103ac8000e4a38b5002313600d4a0e4c13600e4a97
:103ad8000e4d13600e4a13600e4a13600e4a53626d
:103ae80013610123936000f0a7fe00f07cfdac4257
:103af80000d338bd54f8043b9847f8e740fa45200e
:103b080044f845207401400040f845207801400001
:0c3b180038f845203cf8452048f84520ce
:020000040000fa
:020000040040ba
:103b2400202122232424252526262727282828283f
:103b3400292929292a2a2a2a2b2b2b2b2c2c2c2cd9
:103b44002c2c2c2c2d2d2d2d2d2d2d2d2e2e2e2ea1
:103b54002e2e2e2e2f2f2f2f2f2f2f2f0001170217
:103b64001d1813031e1b190b1408040d1f161c1219
:0c3b74001a0a070c1511090610050f0ea7
:020000040000fa
:020000040040ba
:103b800030b338b50d46044600f012fcd5b1002123
:103b9000104a05e0936904f8013b01318d4212d0cf
:103ba000536913f0010ffbd0536913f0e00f0ad1f2
:103bb000536813f4003fedd09369c3f3080324f86e
:103bc000023beae729468d4214bf0020012038bda0
:083bd000002070470080024054
:020000040000fa
:020000040040ba
:103bd80070b5d0e90245a54217d10122a1f1200311
:103be800c1f1200622fa06f602fa03f333438a40ab
:103bf800db43d6431ab10b490a6832400a605a1ca3
:103c08001fbf084a51680b4053604368ac6043f0db
:103c1800010223f00103e5604260c25842f001024c
:083c2800c25070bd48f54520b3
:020000040000fa
:020000040040ba
:103c30002de9ff41134dd1f80080af88adf80c702d
:103c400006462868029002aca8798df80e00002a7a
:103c500018bf1446d1e901571a461bb9204600f097
:103c6000e7fd0246002d02dbaa4228bf2a46cdf816
:103c700000803b4621463046fff7bafc04b0bde861
:083c8000f08100bfb8484000cc
:020000040000fa
:020000040040ba
:103c8800f0b50c4649682368a668e76887b000293c
:103c98000593a4bf23f00203059305ab02930a23ff
:103ca800cde900630546d2e900232046fff757fd1a
:103cb8002269059b0093013a3346121a391828469f
:103cc800fff792fc6b68db0503d563689842b8bfc1
:063cd800184607b0f0bd24
:020000040000fa
:020000040040ba
:103cde0070b500239cb098420393a6bf00f1004339
:103cee0003f1ff334ff0ff331646119004901293f9
:103cfe0000220023044602a80d4600f03afcdde93e
:103d0e0020233146cde9002302a80122fcf775fce1
:103d1e0035b1dde911329b1a189a13441c442c60fc
:043d2e001cb070bd98
:020000040000fa
:020000040040ba
:023d3200fee7aa
:020000040000fa
:020000040040ba
:103d3400124b01229a611a46936913f0010ffbd0ca
:103d44000e4b9a6942f002029a6140f281329a6102
:103d54001a6942f010021a61012809d0074b4ff486
:103d640060729a611a46936913f0010ffbd1704790
:103d74001a469b6943f020039361efe70040034038
:020000040000fa
:020000040040ba
:103d840013b5836a8df80710044673b16369a26a98
:103d9400934212d3e36a01220df1070120469847aa
:103da400012806d19df8070005e000f0aefc0028cc
:103db400ecd04ff0ff3002b010bd9df8070094f92d
:0e3dc40034209042e6d05a1c62611870f3e77a
:020000040000fa
:020000040040ba
:023dd200fee70a
:020000040000fa
:020000040040ba
:103dd4000f4bd96821f4e0610904090c0d4a0a4328
:103de400da60bff35f8f62b60b4ae02182f82513d5
:103df400202151605a6a42f480225a625a6942f080
:103e040010025a615a6a42f400325a62704700bf83
:0c3e140000ed00e00000fa0500e100e015
:020000040000fa
:020000040040ba
:103e2000f0b130b40446e9b101200f4a651e023cee
:103e300005e02b5cd361431c81420ed918465369bf
:103e400013f0020ffbd0536813f4003ff1d034f8a5
:103e50001030c3f30803d361ede7012030bc704795
:0c3e6000002070470120f9e700800240bc
:020000040000fa
:020000040040ba
:103e6c0008b50f4b1b680021186800f0cbfc0d4bfc
:103e7c001b680021186800f0c5fc00f0a3fcfff7dc
:103e8c0071fbfff705f84ff40043074a5360b03a53
:103e9c005360fff76df900f0d3fbfff795ff08bdfa
:0c3eac005cf74520c4f9452000190e40c9
:020000040000fa
:020000040040ba
:103eb800022a70b5044616461d461ad043689b066a
:103ec80017d441b9002d08bf4ff4806505f10800eb
:103ed800fef7caf901466368012e43f020036360c8
:103ee800c4e9021514bfff230a2384f83430024bb7
:0c3ef800e362002070bd00bfdf37400017
:020000040000fa
:020000040040ba
:103f040010b590f948305a1e134380f84830d0e970
:103f140005239a42044603d90022c36a11469847ee
:103f240060680023a362c4e90533830755bfd4e95d
:103f3400023240f010009b18606056bfc4e90f3392
:0a3f44004ff0ff3040f3c00010bd45
:020000040000fa
:020000040040ba
:103f4e0081290fd0832903d0802912d000207047f9
:103f5e001368191d1160d0e900011b68c3e9000147
:103f6e00012070471368191d11601b68d0e900010c
:103f7e00f4e7136890ed007b191d11601b68b7ee16
:083f8e00c77b83ed007aebe72d
:020000040000fa
:020000040040ba
:103f960010b50278202a034600f10100f9d0a2f1fb
:103fa60009010429f5d92b2a07d02d2a11d101217f
:103fb6000133013b00200a2403e00021f8e76043b7
:103fc600801a13f8012f303a092af8d901b940426c
:063fd60010bd0021ede723
:020000040000fa
:020000040040ba
:103fdc0010b5054c227832b9044b13b10448aff339
:103fec0000800123237010bdc8f94520000000009b
:103ffc000000000008b5034b1bb103490348aff3a5
:10400c00008008bd00000000ccf945200000000035
:020000040000fa
:020000040040ba
:10401c000c4a036810b5546a0b4a591e121b8a428b
:10402c000ad22bb1094b0c221a604ff0ff3010bd95
:10403c00102202600020fae7173323f00f0303600d
:10404c00f8e700bf48f84520efffff7f44fa452012
:020000040000fa
:020000040040ba
:10405c0010b44c68a40602460b4603d45df8044b1e
:10406c0000f0a8b891f93410c0b2814203d059695c
:10407c009c6aa14205d3114618465df8044bfff724
:0e408c007bbe4c1c5c610a705df8044b7047f3
:020000040000fa
:020000040040ba
:02409a00fee73f
:020000040000fa
:020000040040ba
:10409c00012815d1a1b138b50a4dd5f8c440c4f3e7
:1040ac00044404ebc400084bdb68482203ebc0005b
:1040bc0000f04afb012000fa04f4c5f8d04038bdea
:0c40cc000020704700400340e4f945204c
:020000040000fa
:020000040040ba
:1040d80038b504460025e36be26c934210d25a1cb3
:1040e800e2631878202809d00938042806d9e36c37
:1040f80013b1e36b013be363284638bd0135eae7ba
:0c4108002046fff7d2f8431cecd1f5e78d
:020000040000fa
:020000040040ba
:1041140038b5436813f4807f0446154610d003690c
:1041240040699a4228bf1d462a4600f011fb626985
:104134005319636123695b1b23610023535538bd05
:0a414400db06fcd400f0edfaf9e709
:020000040000fa
:020000040040ba
:02414e00fee78a
:020000040000fa
:020000040040ba
:10415000094b00225a60094ada60094a1a61094982
:104160004a6a42f480324a6205225a60bff34f8f96
:10417000bff36f8f704700bf90ed00e010f0452057
:084180001700081300ed00e038
:020000040000fa
:020000040040ba
:1041880030b50c4a002312f8134024b902eb43035c
:104198005b78184630bd01680d78a54209bf02eb6f
:1041a800430301335b78013114bfdbb201600a2b92
:0841b800e9d9eee7a046400042
:020000040000fa
:020000040040ba
:1041c00007b54a68c0b2d2050b468df8070006d580
:1041d0004a69511c5961107003b05df804fb01225b
:1041e0000df10701184600f09efa10b19df8070086
:0841f000f2e74ff0ff30efe7aa
:020000040000fa
:020000040040ba
:1041f80000090138202813d9b0f5007f05d2094bf2
:1042080003ebd00010f8040c7047b0f5e05f06d857
:10421800044b03ebd01010f8040c103070473f200b
:08422800704700bf243b400079
:020000040000fa
:020000040040ba
:1042300010b50446094b186000f014f810f00700a0
:1042400005d0072803d0064b04221a7010bde4b233
:10425000012cfbd1024b03221a70f7e738fa4520f4
:044260004efa4520ad
:020000040000fa
:020000040040ba
:104264000a4b586c20f4605020f018004004400cb5
:104274009b6913f0010f08d0044a936923f00103ea
:104284009361936913f0010ffbd170470040034021
:020000040000fa
:020000040040ba
:1042940037b5d4680d4611461a46fff751f8431c4a
:1042a4000cd00a2201a9204600f072fa019ba34215
:1042b400c5e900010cbf6ff00100012003b030bd5f
:020000040000fa
:020000040040ba
:1042c40037b5d4680d4611461a46fff739f8431c32
:1042d4000cd00a2201a9204600f02ffa019ba34228
:1042e400c5e900010cbf6ff00100012003b030bd2f
:020000040000fa
:020000040040ba
:1042f40070b505462c68e30701d500200fe0204681
:10430400fff778ff064600f071f92868a042f1d162
:1043140020f00100281a3146fff75cfc012070bd33
:020000040000fa
:020000040040ba
:1043240053b94ab9002908bf00281cbf4ff0ff3118
:104334004ff0ff30fef718beadf1080c6de904ce66
:10434400fdf736feddf804e0dde9022304b0704732
:020000040000fa
:020000040040ba
:1043540010b50b681b78202b0c4602d0093b042bac
:104364000bd8fff7b7fe23685a1c22605b78202b1a
:0e437400f9d0093b042bf6d910bd0020fce760
:020000040000fa
:020000040040ba
:10438200426822f00102531a102b30b40dd944189e
:1043920041f0010543f001034550636083504560dd
:0e43a20004f1080030bcfef742bb30bc70478f
:020000040000fa
:020000040040ba
:1043b000094b5b6913f0e00f0dd0074b4ff480728f
:1043c0001a605b6913f0010f05d0034b9a695a69b3
:0c43d00012f0010ffad17047008002408b
:020000040000fa
:020000040040ba
:1043dc002de9f0410024804617460d462646be4284
:1043ec0005f1080502db2046bde8f08155e9021213
:0c43fc00404600f007f901360444f0e7e9
:020000040000fa
:020000040040ba
:1044080070b505466c68e30701d500200de020462d
:10441800fff7eefe064600f0e7f86b68a342f1d11d
:0c44280028463146fff7d4fb012070bd90
:020000040000fa
:020000040040ba
:104434002de9f0410024804617460d462646be422b
:1044440005f1080502db2046bde8f08155e90212ba
:0c445400404600f007f901360444f0e790
:020000040000fa
:020000040040ba
:10446000074a136843b10749184488428cbf4ff08c
:10447000ff33106018467047034b1360f3e700bf2b
:0c44800048fa45200802402008004020b7
:020000040000fa
:020000040040ba
:10448c0070b5002902fb01f614460d4618bf144600
:10449c0001463246184608bf002400f03ef9864219
:0a44ac0018bfb0fbf5f4204670bd08
:020000040000fa
:020000040040ba
:1044b600802910db812901dd83290cd1136807339c
:1044c60023f0070303f108011160d3e90023c0e9d3
:0a44d600002301207047002070470a
:020000040000fa
:020000040040ba
:1044e00060b959b108b508464822054b996800f0f3
:1044f00031f90120034bc3f8980008bd0020704734
:08450000e4f9452000400340ee
:020000040000fa
:020000040040ba
:1045080010b5084c2368196800f05cf8002807db30
:1045180023680a20196800f0bff9c00f404210bd97
:084528000120fbe7c4f9452066
:020000040000fa
:020000040040ba
:1045300013b50446fff7e6fc18b14ff0ff3002b0a8
:1045400010bd636c01220df1070120469847012838
:08455000f3d19df80700f2e72a
:020000040000fa
:020000040040ba
:1045580090f948305a1e1343426880f8483012f0e8
:1045680004031bbf42f010024260c0e90f334ff052
:08457800ff3008bf1846704730
:020000040000fa
:020000040040ba
:1045800070b5d0e90f618c1be51752ea030cc0e946
:104590001423c0e9164504d0a24273eb0504b8bf4a
:0645a000b118c16470bdfa
:020000040000fa
:020000040040ba
:0245a60070475c
:020000040000fa
:020000040040ba
:1045a8000fb407b5064b04aa1b6852f8041b186819
:1045b800019200f07ff803b05df804eb04b0704797
:0445c800c4f94520cd
:020000040000fa
:020000040040ba
:1045cc0070b50e46054600f02df9334604460246fa
:1045dc0001212846fff754ff001b18bf4ff0ff3096
:0245ec0070bda0
:020000040000fa
:020000040040ba
:0245ee00704714
:020000040000fa
:020000040040ba
:1045f000064b013053f830203ab9c100a1f108024e
:104600001a44194443f830204a60704748f5452061
:020000040000fa
:020000040040ba
:1046100058b952b138b50c46012529462046fff756
:0e462000affa0028f9d0012038bd0020704705
:020000040000fa
:020000040040ba
:02462e007047d3
:020000040000fa
:020000040040ba
:1046300010b429b1044b43f8301003ebc0035a60a7
:0c4640005df8044b704700bf00fa4520f5
:020000040000fa
:020000040040ba
:10464c00054b4ff486721a6050221a604ff40c62bc
:0c465c005a6051221a6270470080024030
:020000040000fa
:020000040040ba
:1046680038b50d461446012801d0204638bd2146ec
:0c4678002846fff7d1fb0028f9d0f6e738
:020000040000fa
:020000040040ba
:10468400a0f13003092b07d940f020006138052838
:0c4694008cbf00200120704701207047ff
:020000040000fa
:020000040040ba
:1046a00068076c094c836a9074a07ac0008068889f
:0c46b00000846c820081286e696c290077
:020000040000fa
:020000040040ba
:1046bc0013b50446019201aafdf7fcfa636813f0e6
:0c46cc00100f18bf4ff0ff3002b010bdff
:020000040000fa
:020000040040ba
:1046d80013b50446019201aafcf796f9636813f032
:0c46e800100f18bf4ff0ff3002b010bde3
:020000040000fa
:020000040040ba
:1046f4000fb407b504a951f8040b019100f052f866
:0a47040003b05df804eb04b0704749
:020000040000fa
:020000040040ba
:10470e0010b50446fff721ff28b9a368e268c4e993
:08471e0005331344a36210bd32
:020000040000fa
:020000040040ba
:1047260010b4c46a1cb123465df8044b18470068f0
:084736005df8044bfff795bf8d
:020000040000fa
:020000040040ba
:10473e0037b54ff0ff344ff0ff35cde90045fff7a9
:06474e00c7fa03b030bd04
:020000040000fa
:020000040040ba
:1047540010b5431e0a44914200d110bd11f8014b1b
:0647640003f8014ff7e726
:020000040000fa
:020000040040ba
:10476a000068002808b501da002008bdfff773fecb
:06477a00431cfad1f8e730
:020000040000fa
:020000040040ba
:1047800008b500f091f8024b1860586008bd00bff2
:0447900030fa452096
:020000040000fa
:020000040040ba
:1047940037b500244ff00045cde90045fff79dfaf9
:0447a40003b030bd71
:020000040000fa
:020000040040ba
:1047a800034b1b680a4601461868fff791bf00bf14
:0447b8005cf7452045
:020000040000fa
:020000040040ba
:1047bc00034611f8012b184603f8012b002af8d1f7
:0247cc00704734
:020000040000fa
:020000040040ba
:0247ce00704732
:020000040000fa
:020000040040ba
:1047d000014b024a1a607047000c0e4000060004ac
:020000040000fa
:020000040040ba
:1047e00010b1024b18605960704700bf28fa45208d
:020000040000fa
:020000040040ba
:1047f00010b1024b18605960704700bf18fa45208d
:020000040000fa
:020000040040ba
:10480000a50000f000000000960000509600001087
:020000040000fa
:020000040040ba
:1048100000294ff480630cbf02220022fff74cbb3b
:020000040000fa
:020000040040ba
:1048200002440346934200d1704703f8011bf9e7a5
:020000040000fa
:020000040040ba
:1048300003461a46013311780029fad1101a70473d
:020000040000fa
:020000040040ba
:1048400008b5fff79dfffff7f2fefff7f0fe08bd8a
:020000040000fa
:020000040040ba
:10485000494e4600696e66004e414e006e616e0024
:10486000494e4600696e66004e414e006e616e0014
:020000040000fa
:020000040040ba
:0e487000a0f14103192b98bf40f020007047c3
:020000040000fa
:020000040040ba
:0e487e00a0f16103192b98bf00f05f00704796
:020000040000fa
:020000040040ba
:0c488c0010b50446fff794ff204610bd55
:020000040000fa
:020000040040ba
:084898006904690c00005a3ca0
:020000040000fa
:020000040040ba
:0848a00008b5fff7dbfb08bdc2
:020000040000fa
:020000040040ba
:0848a80000487047d0f74520dd
:020000040000fa
:020000040040ba
:0848b0004ff0ff30704700bf1c
:020000040000fa
:020000040040ba
:0748b800286e756c6c2900ed
:020000040000fa
:020000040040ba
:0648c0000068fff7d1be05
:020000040000fa
:020000040040ba
:0448c8000020704715
:020000040000fa
:02000004d0002a
:0400000002000000fa
:00000001FF
