:020000040000fa
:020000040040ba
:10000000f8ef4520d1104000533240005b364000ed
:10001000e73a4000433b4000493b400000000000fd
:1000200000000000000000000000000071374000e8
:100030002339400000000000412d4000e934400019
:10004000df304000df304000df304000df30400074
:10005000df304000df304000df304000df30400064
:10006000df30400000000000df304000df304000a3
:10007000df304000df304000550f4000df304000ef
:10008000df304000df304000df304000df30400034
:10009000df304000df304000df304000df30400024
:1000a000df304000df304000df304000df30400014
:1000b000df304000df304000df304000df30400004
:1000c000df304000df304000df304000df304000f4
:1000d000df30400035194000df304000df304000a5
:1000e000df304000df304000df304000df304000d4
:1000f000df304000df304000df304000df304000c4
:10010000df304000df304000df304000df304000b3
:10011000df304000df304000000000000000000041
:10012000df304000df304000df304000df30400093
:10013000df304000df30400000000000df304000d2
:10014000df304000df304000df304000df30400073
:10015000df304000df304000df304000df30400063
:08016000df304000df304000f9
:020000040000fa
:020000040040ba
:10016800f8b500bff8bc08bc9e467047793240001d
:10017800f8b500bff8bc08bc9e4670475532400031
:020000040000fa
:020000040040ba
:080188004c070000010000001b
:020000040000fa
:020000040040ba
:10019000ccf445201c0000000000000078f545204c
:1001a0000800000000000000e8f445201c000000ea
:1001b0000000000080f5452008000000000000005d
:1001c00068f54520100000000000000088f545207b
:1001d000080000000000000090f545200800000025
:1001e0000000000038f14520800000000000000001
:1001f000b8f1452080000000000000000cf445200c
:100200004000000000000000a0f5452004000000b0
:1002100000000000a4f545200400000000000000dc
:10022000a8f545200400000001000000aaaaaaaa1f
:10023000acf5452004000000000000000000402054
:1002400000a0000000000000b0f545200400000000
:1002500000000000b4f5452004000000000000008c
:10026000b8f545200400000000000000bcf5452062
:10027000040000000000000038f245206400000087
:1002800000000000c0f54520040000000000000050
:10029000c4f545200400000000000000c8f545201a
:1002a0000400000000000000ccf545200400000020
:1002b00000000000d0f54520040000000000000010
:1002c00004f54520140000000000000018f545204a
:1002d0001400000000000000d4f5452004000000d8
:1002e00000000000d8f545200400000000000000d8
:1002f000dcf545200400000000000000e0f545208a
:1003000004000000000000002cf54520140000004f
:1003100000000000e4f5452004000000000000009b
:1003200040f54520140000000000000054f5452071
:100330001400000000000000e8f545200400000063
:1003400000000000ecf54520040000000000000063
:10035000f0f54520040000000000000019f64520db
:1003600001000000000000001af645200100000016
:100370000000000098f54520080000000000000083
:100380004cf445204000000000000000f4f545203a
:1003900004000000000000001bf6452001000000e2
:1003a000000000001cf645200100000000000000d5
:1003b00000f04520380100000100000000000000ae
:1003c000000000000000000000000000000000002d
:1003d000000000000000000000000000000000001d
:1003e000000000000000000000000000000000000d
:1003f00000000000000000000000000000000000fd
:1004000000000000000000000000000000000000ec
:1004100000000000000000000000000000000000dc
:1004200000000000000000000000000000000000cc
:1004300000000000000000000000000000000000bc
:1004400000000000000000000000000000000000ac
:10045000000000000000000000000000000000009c
:10046000000000000000000000000000000000008c
:10047000000000000000000000000000000000007c
:10048000000000000000000000000000000000006c
:10049000000000000000000000000000000000005c
:1004a000000000000000000000000000000000004c
:1004b000000000000000000000000000000000003c
:1004c000000000000000000000000000000000002c
:1004d000000000000000000000000000000000001c
:1004e000000000000000000000000000000000000c
:1004f00000000000ecf24520480000000000000071
:1005000034f3452048000000000000007cf3452043
:1005100048000000000000008cf44520400000006e
:1005200000000000f8f54520040000000000000075
:100530001df645200100000000000000c4f3452026
:100540004800000000000000fcf545200400000009
:10055000000000001ef64520010000000100000020
:100560000500000000f64520040000000000000027
:100570001ff64520010000000000000018f645208d
:10058000010000000000000004f645200400000007
:100590000000000008f645200400000000000000f4
:1005a0000cf6452004000000000000009cf24520ed
:1005b000500000000000000010f64520040000007c
:1005c0000000000014f645200400000000000000b8
:1005d000000000000000000022222222222222220b
:020000040000fa
:020000040040ba
:1005e0002de9f04fadb00027dff8e4a203910646f5
:1005f0001546b8464ff0ff3903990b78002b00f0f1
:10060000f9800cabcde907890a938023cdf82480cb
:100610000b9300240b5d0bb1252b26d134b1224660
:10062000304603f07ef8039b23440393039b1a7820
:10063000252a40f0d78003f1010bcdf80cb00398c8
:1006400003782b2b1ad025d8202b1bd0232b1dd081
:100650002a2b27d002f0dafd0990039b1a78303a52
:10066000092a2ed801330393f7e70134d2e7079b19
:1006700043f00103013007930390e0e7079b43f049
:100680000403f7e7079b43f00803f3e7079b43f0f6
:100690001003efe72d2bead0302bd9d1079b43f085
:1006a0000203e7e72b681a1d1b682a600130002b44
:1006b0000390099305da079a5b4282f001020792e0
:1006c0000993079bda0744bf23f002030793039bb8
:1006d0001a782e2a0dd1581ccdf8208003905a7814
:1006e0002a2a25d1023303932b681a1d1b682a601e
:1006f000089303a802f060fe039b0190187803f0b2
:10070000e4f96928019979d032dc632800f0c680c9
:1007100019dc252800f0d080612853d025238df8de
:100720001030cdf80cb0cdf81c80cde90898c0e0b1
:1007300002f06cfd0890039b1a78303a092ad8d849
:1007400001330393f7e7642858d06728e6dc2a468c
:1007500004a802f06dff002800f09c80039b5a1c47
:1007600003921b7804aa07a9304602f0ffff38e085
:10077000702873d015dc6e2800f087806f28cdd1eb
:100780002b46002204a801f0adfd002800f0828075
:10079000039b04aa013307a93046039302f04bf9e7
:1007a0001fe075283ad0782848d07328b6d1802920
:1007b00070d1039b2a6801330393131d2b601268c9
:1007c00000235be02a4604a802f032ff002861d033
:1007d000039b5a1c03921b7804aa07a9304602f017
:1007e000c5ff04443c44a7426edd384b4f221a60db
:1007f0004ff0ff3738462db0bde8f08f2b46012271
:1008000004a801f06ffd002844d0039b04aa013323
:1008100007a93046039301f0bffce2e72b46002214
:1008200004a801f05ffd002834d0039b04aa013323
:1008300007a93046039302f027fcd2e72b4600229b
:1008400004a801f04ffd28b3039b5a1c03921b78a8
:1008500004aa07a9304600f0dbfec2e72b460022bf
:10086000f02104a801f03efda0b1039b01330393e6
:10087000dde90423134306d10023524607a930467d
:1008800002f0d6fbade77823e2e72b463a1904a83d
:1008900001f0e2ff039b01330393a3e78029f9d121
:1008a000039b013303932b681a1d1b682a608df884
:1008b0001030012304aae1e78029ebd1039b8df8d6
:1008c000100001330393f4e7274695e614f645201c
:0408d000e6384000c6
:020000040000fa
:020000040040ba
:1008d4002de9f04f099f154604468e461e46002b0f
:1008e40040f0cc808a42b2fa82fc4cd9bcf1000fb1
:1008f4000bd0ccf1200801fa0cfe20fa08f802fa19
:100904000cf548ea0e0e00fa0cf44fea15491ffaea
:1009140085f8befbf9fa210c09fb1ae30afb08fb74
:1009240041ea03439b452ad9eb180af1ff3004d26c
:100934009b4502d9aaf102002b44a3eb0b03a4b2fa
:10094400b3fbf9f209fb123302fb08f844ea03444f
:10095400a04516d92c1902f1ff3303d2a04501d9c1
:10096400931e2c44a4eb080443ea004027b124fa64
:100974000cf400233c607b603146bde8f08f5046a8
:10098400dbe71346eee702b9ffdebcf1000f2ed120
:100994008b1a01264fea154eaab2b3fbfef8210cbe
:1009a4000efb183308fb02f941ea0343994561d968
:1009b400eb1808f1ff3004d2994502d9a8f10200de
:1009c4002b44a3eb0903a4b2b3fbfef10efb1133da
:1009d4004a4344ea0344a2424ed92c1901f1ff339d
:1009e40003d2a24201d98b1e2c44a41abce7ccf139
:1009f400200e02fa0cf521fa0ef901fa0cf320fa92
:100a04000efe4eea03034fea154800fa0cf4b9fb54
:100a1400f8f11ffa85fe08fb1192180c01fb0ef683
:100a240040ea0242964221d9aa1801f1ff3003d2ca
:100a3400964201d9881e2a44921b9bb2b2fbf8f954
:100a440008fb192209fb0efe43ea02439e450fd917
:100a5400eb1809f1ff3604d29e4502d9a9f102062a
:100a64002b44a3eb0e0346ea004693e70846e3e76c
:100a74004e46f6e74046a4e70b46b6e78b4206d956
:100a8400002f7ed00026c7e90001304674e7b3fa90
:100a940083fcbcf1000f0fd18b4201d3824209d8f1
:100aa400841a61eb030e0120002f6dd0c7e9004ebc
:100ab400002661e76046f7e7ccf1200e03fa0cf359
:100ac40022fa0ef521fa0ef41d4301fa0cf320fa72
:100ad4000ef10b434fea154a00fa0cf6b4fbfaf98f
:100ae4001ffa85f80afb19401c0c09fb08f144eabb
:100af4000044a14202fa0cf23fd92c1909f1ff304b
:100b040004d2a14202d9a9f102002c44641a9bb276
:100b1400b4fbfaf90afb194409fb08f843ea044157
:100b240088452cd9691809f1ff3304d2884502d9c4
:100b3400a9f10203294443ea0040a1eb0801a0fb08
:100b440002894945c2464c4602d306d1464504d2e1
:100b5400b8eb020a69eb05040138afb1b6eb0a033e
:100b640061eb040606fa0efe23fa0cf34eea0303c5
:100b740026fa0cf6c7e900369ae74846c6e74b461c
:0c0b8400d9e73e463846f7e63e46f5e667
:020000040000fa
:020000040040ba
:100b90002de9f84f80460e4699469500284601f00b
:100ba000f3ff002800f0c1800746542001f0ecff5d
:100bb0000446002857d007632a46a521384602f08c
:100bc0006dff276b002e54d0337884f8343053b146
:100bd000334604f134010f3613f8012f01f8012fc9
:100be0000ab1b342f8d1002384f843300a9e042ea0
:100bf00028bf0426e66266644ff0000bc4f848b0d4
:100c000004f1040a504602f099ff04f1180002f0c2
:100c100095ff2461c6f10506a6616462c4f84cb074
:100c200084f850b0043d3d444a46414625f0070053
:100c300002f0d2fc20600b9b03b11c6002f0aafd05
:100c40003e4a1368013313603d4b1b68abb13d4b0b
:100c50001b68bbb93a4b1b68da6ae36a9a4211d83f
:100c6000374b1c600ee0384602f070ff4ff0ff304b
:100c70005de0002384f83430b8e7314b1c60136822
:100c8000012b28d0304a136801331360e06a2f4ae1
:100c90001168012383400b43136000eb8000514631
:100ca0002b4b03eb800002f082fe02f0b5fe254bd9
:100cb0001b68002b3dd0224b1b68da6ae36a9a421c
:100cc00039d2244b4ff080521a60bff34f8fbff3dd
:100cd0006f8f01202be01e4d284602f05dfe05f1ce
:100ce000140002f059fe05f1280002f055fe05f14e
:100cf0003c0002f051fe05f1500002f04dfe164e90
:100d0000304602f049fe154d284602f045fe1448d3
:100d100002f042fe134802f03ffe134802f03cfe90
:100d2000124b1e60124b1d60ace74ff0ff30bde868
:100d3000f88f0120fbe70120f9e700bfc0f545204f
:100d4000b4f54520e4f54520ccf54520d0f5452007
:100d500038f2452004ed00e004f5452018f5452063
:100d60002cf5452054f5452040f54520b8f54520a3
:040d7000bcf5452069
:020000040000fa
:020000040040ba
:100d74002de9f84fddf828909df82ca06c4d2c78c7
:100d8400e4b2012c04d02c78e4b2022c40f0bd80f3
:100d94001c4690460d4607464ff0ff31654b1868d8
:100da40000f052fa644a157082f801804fea182b59
:100db40082f802b0d47099f80030137199f80130b8
:100dc400537199f80230937199f80330d371baf1e1
:100dd400000f14d107f5c06000230822564900f023
:100de4008bfe78b102f0a2f90446012815d0baf1bd
:100df400000f40f0818055460924504e6ce007f501
:100e0400b060e9e702f080fe00231a46194649481b
:100e1400006800f067fb012483e002f075fe002304
:100e24001a4619464348006800f05cfb79e0444ade
:100e34004449454801f0e6ff002868d007f5b0674b
:100e4400414b1b689f4201d0032461e03d4b19785c
:100e5400a1f14303dbb21d2b66d83c4a22fa03f30b
:100e640013f0010f62d0602907d0364b5b785ffa2c
:100e740088f8434510d003244ae0324b1a7989f8a4
:100e840000205a7989f801209a7989f80220db79bf
:100e940089f8033054463be02a4b9b785b4501d0ec
:100ea400032435e0274b1a7989f800205a7989f808
:100eb40001209a7989f80220db7989f803305446b5
:100ec40026e00224a31edbb2012b21d904b3952d05
:100ed4000ed8642002f0a4fa02f0f8f930703378e6
:100ee400dbb2012ba3d0032bebd00135edb2e9e744
:100ef40002f00afe02240de000231a4619460d48aa
:100f0400006800f0effa00240be0042409e0022456
:100f140002f0fafd00231a4619460648006800f05c
:100f2400e1fa2046bde8f88f0324f1e70324efe754
:100f34001cf64520f0f5452098f545201af6452085
:100f44001bf645204cf44520f4f545200111002002
:020000040000fa
:020000040040ba
:100f5400f8b55a4b5b6913f0e0030ad1574b5b6950
:100f640013f0010f20d1554b5b6913f0020f67d1c9
:100f7400f8bddbb2524a82f83d30504b4ff48072d8
:100f84001a605b6913f0010f05d04c4b9a695a69da
:100f940012f0010ffad14a4b1b6a002bded0484aeb
:100fa400516a02209847d9e7444e454c46e0226aec
:100fb400002a31d0616a38469047a36a0133226b14
:100fc400934228bf002327e0a16a3e48425430e000
:100fd40002f052fc236a002b30d094f83c2032b14a
:100fe400a26b90422ad3616a0020984726e0a26b44
:100ff400904223d1616a002098471fe0736913f07f
:10100400010fb0d0b569a36a0133226b934228bfa4
:101014000023e26a9a42cad0e26a9a42eed0c5f349
:101024000802716811f4003fced0a06a254921f866
:101034001020a36294f83430002bc9d10127dde7d6
:101044001e4d1f4c204e6b6913f0020f90d0e368c5
:10105400a26893422dd06a6812f4003f03f10102a2
:1010640014bf36f81330f35c2169914298bf002213
:10107400e2606a6812f4003f14bfc3f30803dbb2f2
:10108400eb61237d002bded002f0b0fc2368002b43
:10109400d9d0227f32b1a2699042d4d361680320af
:1010a4009847d0e7a2699042cdd161680320984760
:1010b400c9e7024b0222da605ae700bf008002400f
:0c10c4000cf4452038f14520b8f145201f
:020000040000fa
:020000040040ba
:1010d00008b5504b9847504b9847eff3108172b6c4
:1010e0004e4ad2f8883043f47003c2f88830bff318
:1010f0004f8fbff36f8f01b962b6494b494a5a60af
:101100009a6812f0010ffbd0454bdb6813f4c07fe7
:1011100013d0454b0c221a60414b444a5a609a68de
:1011200012f0010ffbd03e4b414a5a609a6812f010
:10113000010ffbd03f4b404a1a60bff34f8fbff304
:101140006f8f364cd4f8903223f00103c4f89032fc
:10115000d4f8943223f00103c4f89432bff34f8fd4
:10116000bff36f8f01f038fa344b23f07f03a36095
:10117000334b984702f0e8f8636913f4003f12d14b
:10118000bff34f8fbff36f8f0022c4f85022bff31d
:101190004f8fbff36f8f626942f400326261bff319
:1011a0004f8fbff36f8f1d4b5b6913f4803f29d1c5
:1011b0001a4b0022c3f88420bff34f8fd3f880303e
:1011c000c3f3c906c3f34e335a0143f6e07513481f
:1011d00002ea0504334644ea8371c0f86012013b19
:1011e000b3f1ff3ff7d1203a12f1200ff0d1bff356
:1011f0004f8f0a4a536943f480335361bff34f8fd3
:10120000bff36f8f0f4b98470f4b984702f056fc78
:10121000fee700bf4b3b40004b3b400000ed00e0d1
:10122000000c0e400d00005aa0f545200c08005a95
:101230000c07005a00180e40010000a500004000f5
:0c124000252f40004b3b40004b3b400082
:020000040000fa
:020000040040ba
:10124c002de9f04184b0044601914ff00008464668
:10125c004546504f49e0013ba36323684bb12369da
:10126c005bb902f0d3fb4ff00108404604b0bde877
:10127c00f08102f019fba060f1e704f1100001f01d
:10128c0023fb0028edd0434b4ff080521a60bff384
:10129c004f8fbff36f8fe4e702f0b8fb4ff00008fd
:1012ac00e3e702a802f050fb29e084f8445032e056
:1012bc0084f8455035e002f067faa06800f06afe49
:1012cc00804602f0a3fb3ce0204601f003fa00f05c
:1012dc009dfb09e0204601f0fdf900f097fb20464c
:1012ec0002f06afb002840d1012602f04dfaa36bf4
:1012fc00002bb0d1019b002bced0002ed1d002f010
:10130c0085fb02f0adfb02f03ffa94f844305bb27f
:10131c00b3f1ff3fc9d094f845305bb2b3f1ff3f56
:10132c00c6d002f073fb01a902a801f0c7fd00288a
:10133c00d0d1204602f040fb0028c5d02368002bfa
:10134c00b9d0019904f1240002f0a0fa204601f072
:10135c00c1f900f05bfb0028c6d14ff080533b6015
:10136c00bff34f8fbff36f8fbee7b8f1000f3ff4a1
:10137c007caf02f009fa616a19b1236b1968c1f1eb
:10138c000501a06801f066f902f040fb4ff000087f
:08139c006be700bf04ed00e067
:020000040000fa
:020000040040ba
:1013a400496e6963696f2074617265612031000060
:1013b4004573637269747572612045504f533420cc
:1013c4004f4b000046616c6c6f20657363726974e7
:1013d4007572612045504f53340000004461746fae
:1013e4002072656369626964696f3a2000000000d5
:1013f40020202020200000003078257820000000e4
:101404000d0a000046696e20746172656120636193
:101414006e20310046696e207461726561206361db
:101424006e20320043414e6f70656e2077617320e9
:10143400696e697469616c697a656420616e64209f
:10144400697320696e207072652d6f7065726174a6
:10145400696f6e616c206d6f646500004e6f207360
:1014640065207075646f20637265617220656c20fd
:10147400626c6f7175656f206d757465780000001e
:101484004572726f7220616c206d616e64617220ae
:101494006d656e73616a6520426f6f745f5570008d
:1014a4002020202020202020000000005465636cb0
:1014b40061733a202563000054415245415f436102
:1014c4006e31000054415245415f43616e32000069
:1014d4004573706572616e646f207465636c612e10
:0414e4002e2e0000a8
:020000040000fa
:020000040040ba
:1014e8002de9f04784b00446884601921d464ff026
:1014f80000094e46434f39e02a464146204601f04e
:101508005dfa636a73b938b13e4b4ff080521a6086
:10151800bff34f8fbff36f8f02f07afa012004b048
:10152800bde8f08704f1240001f0d0f90028f3d0d9
:10153800344b4ff080521a60bff34f8fbff36f8f59
:10154800eae702f065fa0020e9e702a802f0fef9ee
:101558001ae084f8446023e084f8456026e02046d9
:1015680001f0baf800f054fa4ff0010902f00ef950
:10157800a26be36b9a42bfd3022dbdd0019b002b17
:10158800dfd0b9f1000fe0d002f042fa02f06afab7
:1015980002f0fcf894f844305bb2b3f1ff3fd8d0c6
:1015a80094f845305bb2b3f1ff3fd5d002f030fa82
:1015b80001a902a801f084fce8b902f0e7f8d4f820
:1015c80038a0d4f83c9002f023faca45c7d1019953
:1015d80004f1100002f05cf9204601f07df800f0fb
:1015e80017fa0028c0d14ff080533b60bff34f8fec
:1015f800bff36f8fb8e7204601f06ef800f008fae5
:0816080000208ce704ed00e076
:020000040000fa
:020000040040ba
:101610002de9f04f89461946d9e90153d9f80080e0
:10162000d9f80ca0002d8bb0a8bf28f00208834683
:10163000b8bf012518f010009646d2e90067029065
:1016400051d056ea07024ed0981e18f008040394b1
:10165000d9f8104018bf00f1ff30401b013c4ff09b
:10166000000c049008f0020005900af804c0a1f1f3
:1016700041000690012c0add56ea070235d1002d03
:1016800033dc049a5019002801dd059a6abb029ade
:1016900062b1dee9006756ea070207d00aeb0402ee
:1016a000023c02f8011c30220af80420039a1ab105
:1016b000013c20220af80420d9f81020cdf800803f
:1016c000013a121b0aeb0401584601f048f8dbf816
:1016d0000430db0504d5d9f804309842b8bf184669
:1016e0000bb0bde8f08f1846afe706f00f00069a82
:1016f0000928d4bf30305730192a04f1ff340ed8ee
:1017000040f0200cacf1610cbcf1190f07d8cde909
:1017100008e1079302f0e0f9dde908e1079b0af828
:101720000400300940ea07704fea171c013d0646e5
:0417300067469fe782
:020000040000fa
:020000040040ba
:101734002de9f047384b1b68002b67d1374b1f68e6
:1017440001371f60bfb1364b1b68bb4220d900254f
:10175400344b1b68db6a03eb83039b00324ad35888
:10176400022b28bf0125314b1b68002b18bf012514
:101774002846bde8f0872e4a11682e4b1868106081
:1017840019602d4a13680133136001f039ffdae759
:101794000025dff89c80dff8a890dff88ca021e01a
:1017a4001f4b4ff0ff321a60d2e71d4a1360cfe798
:1017b40004f1180001f0a0ffe06ad9f80020012329
:1017c40083401343c9f8003000eb800031460aeb34
:1017d400800002f0eaf8134b1b68e26adb6a9a4263
:1017e40028bf0125d8f800301b68002bd8d0d8f8c2
:1017f4000030db68dc6863689f42d6d3261d304620
:1018040001f07affa36a002bd2d1d5e70b4a136803
:10181400013313600025abe7c8f54520e8f5452002
:10182400d8f54520b4f5452038f24520ecf545209f
:10183400b8f54520bcf54520dcf54520e0f545200c
:04184400d0f5452076
:020000040000fa
:020000040040ba
:10184800f8b506464ff49c72002102f023f9314a9c
:10185800936943f001039361936913f0010ffbd07f
:101868002c4dab6943f00203ab612b4a166026f09e
:10187800030189b229480143c5f8a01006f14803bd
:10188800536023f003039bb20343c5f8b03006f15d
:101898009003936023f003039bb2c5f8ac3006f1c4
:1018a800d803d36023f003039bb243f08073c5f8d9
:1018b800c03006f59073136123f003039bb243f421
:1018c8008033c5f8f03006f594749461144f0fcf47
:1018d800c6f82801c6f82c11c6f83021c6f83431ec
:1018e80024f00304a4b244f40034c5f888400d4938
:1018f800d1f814210c4b334092b21343c1f8143180
:10190800ab6923f00103ab612a46936913f0010f19
:10191800fbd1f8bd00400340e8f4452000000180f9
:0c1928005c3a4000008008400000ffff17
:020000040000fa
:020000040040ba
:1019340010b5314b1c6d314b234043b12e4a136516
:101944002f4b1b681bb12e4a51682046984714f050
:10195400010f0cd0284b01221a65d3f8a400294b9f
:101964001b6823b1274a516800f07f00984714f0a0
:10197400100f0cd0204b10221a65d3f8b400214b61
:101984009b6823b11f4ad16800f07f00984714f484
:10199400002f09d0184b4ff400221a65d3f8983061
:1019a40013b113f0010f1ed114f4006f09d0124bc0
:1019b4004ff400621a65144b1b6813b1124a506845
:1019c400984714f4805f0dd00b4b4ff480521a6586
:1019d400d3f8f4000d4b1b6823b10c4a516800f096
:1019e4003f00984710bd0a4b1b68002bdcd0084a07
:1019f400516800209847d7e700400340eee7f7ff1f
:101a040078f5452068f5452090f5452088f5452072
:041a140080f54520f4
:020000040000fa
:020000040040ba
:101a18002de9f04101f0bafe2d4b1a68013a1a601f
:101a28001b68002b4dd12b4b1b680bb9002449e0d8
:101a38000024294e294fdff8b880336803b3f368d0
:101a4800dc6804f1180001f055fe251d284601f058
:101a580051fee06a3a680123834013433b6000eb80
:101a68008000294608eb800001f09dff1c4b1b6895
:101a7800e26adb6a9a42e0d31a4b01221a60dce779
:101a88000cb101f0bbfd184b1c686cb1154e01255b
:101a980001e0013c05d0fff749fe0028f9d0356088
:101aa800f7e7114b00221a600e4b1c6854b10f4b1c
:101ab8004ff080521a60bff34f8fbff36f8f01242e
:101ac80000e0002401f0a4ff2046bde8f08100bf3b
:101ad800c8f54520c0f545202cf54520d0f5452012
:101ae800b4f54520ecf54520e0f5452004ed00e08f
:041af80038f245205b
:020000040000fa
:020000040040ba
:101afc002de9f041314d2c78e4b2052c02d00020b8
:101b0c00bde8f0811f4614460e460546dff8b0804e
:101b1c0048220021404601f0bbffa804002360f3db
:101b2c001c03c8f80030082c0ed90c2c30d9102c02
:101b3c0030d9142c30d9182c30d9202c30d9312c48
:101b4c0034bf0e210f2100e021461d4b9a7961f321
:101b5c0003029a71022f25d07b1edbb2012b26d9f2
:101b6c0054b1731e1748013c56fa84f113f8012f37
:101b7c0000f8012f8b42f9d10121134801f058ffd5
:101b8c000e4b02221a700e49012001f07dfbb7e7c3
:101b9c000921dae70a21d8e70b21d6e70c21d4e793
:101bac000d21d2e71a46db7843f04003d370044a88
:101bbc00937943f030039371d2e700bf1ef64520b2
:0c1bcc00c4f34520cbf3452081334000da
:020000040000fa
:020000040040ba
:101bd800002a61d02de9f84f8046154620b101282a
:101be8002ed00020bde8f88f2c4bd3f8a440c4f3c6
:101bf8000524f1b14f1e5ffa87fb0026dff8a0a08d
:101c08004ff0480900e01e4604ebc401daf8003042
:101c18004a4603ebc101284601f0dbfeb74208d073
:101c280048350134e4b2012c08bf4446731cb3455f
:101c3800e9d104f03f04194bc3f8a8400120d1e7cb
:101c4800164bd3f8b440c4f30524f1b14f1e5ffa24
:101c580087fa0026dff848904ff0480800e01e4653
:101c680004ebc401d9f80430424603ebc10128460d
:101c780001f0affebe4208d048350134e4b2012c71
:101c880008bf0024731c5645e9d104f03f04034bf8
:101c9800c3f8b8400120a5e7002070470040034082
:041ca800e8f44520f7
:020000040000fa
:020000040040ba
:101cac00314b0022c3f81421d3f8141141f44161d3
:101cbc00c3f814112d494ff400134b606ff400134b
:101ccc000b604ff0ff334b650b66c1f89030c1f8d9
:101cdc00a0300a614b618a63c1f8182101f50071cb
:101cec0010200867486748606ff0100008604b656b
:101cfc000b66c1f89030c1f8a0300a614b618a6361
:101d0c00c1f8182101f500710a674ff4a04048672b
:101d1c0048606ff4a04008604b650b66c1f89030ca
:101d2c00c1f8a0300a614b618a63c1f8182101f532
:101d3c0000710b604b650b66c1f89030c1f8a03098
:101d4c000a614b618a63c1f8182101f500710b60bf
:101d5c004b650b66c1f89030c1f8a0300a614b613d
:101d6c008a63c1f81821704700800840000e0e40ad
:020000040000fa
:020000040040ba
:101d7c0038b5044601f008fd002c37d0251d284647
:101d8c0001f0b6fc70b9e26a02eb82039b002249b7
:101d9c00cb583bb921480368012101fa02f223ea2e
:101dac0002020260a36a1bb104f1180001f0a0fc4e
:101dbc001b4a1368013313601a4b1b68a34218d0db
:101dcc00194a1368013b1360206b01f0b9fe2046e1
:101ddc0001f0b6fe01f010fc01f018fe134b1b686d
:101dec001bb1104b1b68a3420cd038bd0d4b1c68ab
:101dfc00c4e729460e4801f0d4fd0e4a136801339e
:101e0c001360e9e70c4b4ff080521a60bff34f8f11
:101e1c00bff36f8fe9e700bf38f24520d0f54520be
:101e2c00ccf54520b4f54520c0f54520e4f545201a
:0c1e3c0054f54520c4f5452004ed00e0fd
:020000040000fa
:020000040040ba
:101e4800f0b585b0254801f05dfa42238df80c30d5
:101e580013238df80d3023238df80e3087238df84a
:101e68000f3003a9012001f0d9fc002832d01c480a
:101e780001f048fa194c102104f13c0000f0dcf99b
:101e8800503494e8030001908df8081003ac04afb7
:101e9800144e052514f8012b314601a801f030fd38
:101ea800294601a800f0c8f9bc42f3d10b4c022125
:101eb80004f1600000f0c0f904f1640001f022fab6
:101ec800094b186820b1fff755ff074b00221a602d
:101ed80005b0f0bd054801f015facbe7a4134000a2
:101ee800b4134000fc13400004f64520c81340001a
:020000040000fa
:020000040040ba
:101ef800244b1b681bb1244b01221a60704710b594
:101f0800214b00221a60214b1b681b6b1a68b2f127
:101f1800a53f03d15a68b2f1a53f23d01b4b1868df
:101f28001968343101f01efd194b1b68b3fa83f3ad
:101f3800dbb2c3f11f03174a9900c81802eb8000ef
:101f4800446864684460194402460832944212d0d6
:101f580003eb83030f4a02eb83035b68da680b4bde
:101f68001a6010bd9a68b2f1a53fd7d1db68b3f10a
:101f7800a53fd3d1d8e760680a46064901eb82023b
:101f88005060e5e7c8f54520ecf54520b4f5452057
:081f9800d0f5452038f2452088
:020000040000fa
:020000040040ba
:101fa000002849d038b50446c26a24490968c96a7c
:101fb0008a4238d28169002905db20490968c96a4b
:101fc000c1f10501816102eb82021d4901eb820230
:101fd0006169914205d0194a1268d26ae262012011
:101fe00029e0251d284601f089fb38b915490b6801
:101ff000e06a0122824023ea02030b600f4b1b6858
:10200000d86ae0620f4a1168012404fa00f30b4316
:10201000136000eb80002946094b03eb800001f0c0
:10202000c6fc204607e0054a1268406cd36a984215
:102030002cbf0020012038bd00207047b4f545209a
:0820400038f24520d0f54520df
:020000040000fa
:020000040040ba
:102048002de9f04f87b00190002841d00f464feaa4
:10205800021a4ff00008dff88890dff888b007e030
:10206800574408f101085ffa88f8019b43452fd0cf
:10207800bc7904f00f0499e80f0006ad05e90f00dc
:102088002c4414f8106c01f081fbfb7813f0400f1e
:102098003b6814bfc3f31c03c3f38a43cbf8003077
:1020a8000d4b1e7001f0b4fc002ed9d0fc1d0b4d59
:1020b80007f10802731e52fa83f601f067fb14f861
:1020c800013f05f8013f01f0a3fcb442f5d1c7e791
:1020d80007b0bde8f08f00bf1df645208bf4452002
:0820e8007c3a4000f8f54520a8
:020000040000fa
:020000040040ba
:1020f000f0b587b0234d05f59876234f13e0234bb9
:1021000001930423009300234ff4007205f58c71b2
:102110001f48fef73dfd24e0304601f0f7f840f29d
:10212000dc5001f07ff900238df80c3003a9012069
:1021300000f076f99df80c20202aedd004ac05f5ce
:10214000807393e8030084e8030005f58671204658
:1021500001f0dafb204601f0d9f89df80c30312b64
:10216000cdd09df80c30322bd9d10a4b01930423ea
:10217000009300234ff4007205f592713846fef784
:1021800007fdcce7a41340000138400004f64520c9
:08219000491e400008f645203d
:020000040000fa
:020000040040ba
:102198002de9f041d2e900230c4686b007465feaf4
:1021a800d37820684968a5680590e66841d052420e
:1021b80063eb4303002908db20f002000590b8f127
:1021c800000f02d1059948072ad5691e05a8029073
:1021d8000a20cde90010204600f0b4fbb8f1000f4a
:1021e80002d1059b59071fd5b8f1000f00f1ff3048
:1021f80014bf2d232b2333542269059b0093013ae6
:102208002b46121a3118384600f0a5fa7b68db0510
:1022180003d563689842b8bf184606b0bde8f08198
:102228000807d2d42946d1e71a07e5d50138202373
:08223800e1e70029c0dac5e767
:020000040000fa
:020000040040ba
:102240002de9f041002945d08c46234b1e6900241e
:10225000224d1a46dff888e00fe030f81470d5f808
:10226000048018f4003f14bf2ef811700ef80170ae
:102270009360631c013463452ad26b6813f4003306
:1022800010d0d76891684b1cb34228bf00239f42ef
:10229000e3d101f0e5fa10b1104b02229a6020461a
:1022a000bde8f081d2f80c809768791cb14228bf54
:1022b00019468845edd0035dd5f8048018f4003f39
:1022c00014bf2ef817300ef807309160631cd1e769
:1022d0001c46dee70c46dce70cf44520008002409b
:0422e000b8f14520ec
:020000040000fa
:020000040040ba
:1022e400882930b534d012dc81293fd003dc802921
:1022f4003cd0002030bd82290ed08429f9d11c683d
:1023040054f8041b1c60f2b10ab2d3171de0a029d3
:1023140027d00cdc9029ecd11968073121f0070192
:10232400f1e802451960c0e900450120e2e7c0294f
:1023340001d0f029ddd11a68111d196013680360fa
:1023440000234360f1e78ab20023c0e90023ece7ed
:102354001c6854f8041b1c600ab14ab2d5e7cab21f
:10236400f2e71a68111d19601268cee719680c1d8e
:102374001c600ab10a68c8e70b68c0e90032d4e7f8
:020000040000fa
:020000040040ba
:10238400224b01229a611a46936913f0010ffbd084
:102394001e4b9a6942f002029a6141f26602da60c7
:1023a4001b4ada6140f27772c3f8bc204ff0ff3267
:1023b400c3f89820c3f89c200722c3f8c820282219
:1023c400c3f880206ff06042c3f8902001221a62a3
:1023d4009a6942f440729a619a6922f001029a6100
:1023e4001a46936913f0010ffbd1084a0023936541
:1023f4000121d16507495165074a13605360936011
:10240400d360136153619361704700bf0040034080
:0c241400040d0408ddddcb3fe8f445209a
:020000040000fa
:020000040040ba
:102420002de9f041074688464ff0ff311f4b1868f1
:10243000fef70cff00211e4801f056fb384600f065
:1024400079fc0021012001f06dfa1a4b1b780bbbbf
:1024500015240a26174d304600f0e4ff2b78cbb93f
:10246000631e13f0ff04f6d1efb108f1ff33791ebc
:1024700058fa81f1202203f8012f8b42fbd102246c
:1024800000231a46194609480068fff72df8204630
:10249000bde8f081074b00221a703946404600f033
:1024a0009bfd0124ece70224eae700bf00f645208b
:0824b0008d3a40001ff64520a3
:020000040000fa
:020000040040ba
:1024b80070b504460e461c4b1d681c4b186804304a
:1024c80001f018f948b9194b1a6819490b68d06a0c
:1024d8000122824023ea02030b60b4f1ff3f00d1de
:1024e8006eb92c44114b1b685c60a5420ed9114b88
:1024f80018680e4b1968043100f076ff70bd0b4b5d
:10250800196804310c4801f04efaf7e70b4b1868cc
:10251800064b1968043100f067ff094b1b68a3429a
:10252800ecd9074b1c60e9e7e8f54520b4f54520f0
:10253800d0f54520bcf5452040f54520b8f54520a7
:04254800d8f545205d
:020000040000fa
:020000040040ba
:10254c00204b214a9a629a6e12f0020ffbd01d4a60
:10255c00136b23f07003136313469a6e12f0080f7b
:10256c00fbd0184a136b23f4407343f4807313634a
:10257c0013469a6e12f0080ffbd0124a136b23f01d
:10258c00030343f00203136313469a6e12f0080f11
:10259c00fbd00c4b4ff440525a600021196524219a
:1025ac0059651a601a46936e03f44053b3f5405fb5
:1025bc00f9d1044b4ff457321a612022c3f8002191
:0c25cc00704700bf00060e40013f1820c1
:020000040000fa
:020000040040ba
:1025d8001e4b1f4a9342f0b438bf002103d203f8c0
:1025e800011b9342fbd11b4ad2e9000150ea0103c7
:1025f8004ff0000610d09468034602f10c076cb93e
:1026080021b1014403f8016b9942fbd13a46d2e962
:10261800000150ea0103eed1f0bc704759b101f155
:102628000c030c38801a1a443b461c1813f8015b3b
:1026380025709342f9d111f0030318bf012303eb6e
:10264800910107eb81073a46e1e700bf000040200f
:08265800000040209001400049
:020000040000fa
:020000040040ba
:10266000002838d038b50446426c914238bf114634
:10267000c26a8a4202d0806c012800d038bde16273
:10268000a069002802dbc1f10501a16102eb820211
:10269000114901eb820261699142efd1251d284663
:1026a00001f02cf838b90d490b68e06a012282402c
:1026b00023ea02030b60e06a084a116801238340a1
:1026c0000b43136000eb80002946034b03eb8000b3
:1026d00001f06df9d2e7704738f24520d0f545207a
:020000040000fa
:020000040040ba
:1026e00070b5054601f056f895f8454064b2002ce7
:1026f00011dd6b6a7bb105f1240606e001f0faf901
:10270000013c64b23cb16b6a2bb1304600f0e2f898
:102710000028f5d0f2e7ff2385f8453001f07cf979
:1027200001f038f895f8444064b2002c11dd2b69b3
:102730007bb105f1100606e001f0dcf9013c64b262
:102740003cb12b692bb1304600f0c4f80028f5d01d
:0e275000f2e7ff2385f8443001f05ef970bd1a
:020000040000fa
:020000040040ba
:10275e002de9ff471d460c9b13f0010807468946dd
:10276e00144624d1aa4222da2e1b102e32464ff0e6
:10277e00200128bf10226846b24601f088f90f2ebc
:10278e001edc4fea1a136ff00f0202fb03a269461a
:10279e00384600f0bfffb8f1000f04d1224649467b
:1027ae00384600f0b7ff284604b0bde8f087224651
:1027be004946384600f0aeffac42d5db2546f2e77f
:0e27ce0010226946384600f0a5ff103ed7e7fe
:020000040000fa
:020000040040ba
:1027dc00002835d038b50446826c013a8264c06a50
:1027ec00616c884200d00ab1002038bd251d2846f6
:1027fc0000f07eff70b9e26a02eb82039b00114984
:10280c00cb583bb910480368012101fa02f223eac4
:10281c0002020260606ce062c0f10503a3610a4a27
:10282c001168012404fa00f30b43136000eb8000e1
:10283c002946044b03eb800001f0b3f82046d4e7a3
:0c284c000020704738f24520d0f54520f0
:020000040000fa
:020000040040ba
:10285800842910b523d00cdc812903d0822913d018
:1028680080290bd119680c1d1c600b6803601a6065
:1028780013e0902921d003dc882917d0002010bd4f
:10288800a029efd0c029ece719680c1d1c600b6863
:102898000360d1171046c3e900010120efe719686a
:1028a8000c1d1c600b6803601a80f6e719680c1d84
:1028b8001c600b6803601a70efe719680c1d1c6038
:0c28c80009680160d317c1e90023e6e7ae
:020000040000fa
:020000040040ba
:1028d40038b5c368dc6804f11805284600f00cff1d
:1028e400134b1b68e3b9251d284600f005ffe06a79
:1028f400104a1168012383400b43136000eb8000ee
:1029040029460d4b03eb800001f04ff80b4b1b687d
:10291400e26adb6a9a4208d90120094b186005e093
:102924002946084801f041f8f0e7002038bd00bf0f
:10293400c8f54520d0f5452038f24520b4f54520aa
:08294400ecf545202cf54520bf
:020000040000fa
:020000040040ba
:10294c002de9f84f04460c9f6668d4f80cb0246946
:10295c0010463a68013c002502f0020a0b9a0bf86b
:10296c000450002e1946b8bf0126012390464feaa9
:10297c00e279002c03dcd3b12046bde8f88f50ea95
:10298c00010209d1721b002a06dc0a9a521b002a8a
:10299c00f1ddbaf1000feed042464b4600f0fefde1
:1029ac00013c134630320bf804200135e1e73b685b
:0829bc0023f010033b60dfe78c
:020000040000fa
:020000040040ba
:1029c40070b504461646856b026c5ab903681bb190
:1029d40000200135a56370bd8068fff7fdfe00236c
:1029e400a360f6e76eb9406800f0f5ff6368226cf7
:1029f40013446360a268934219d32368636030462a
:102a0400e7e7c06800f0e7ff226c5242e368134432
:102a1400e36021688b4202d2a3681a44e2600db1dc
:102a2400022e01d00020d4e7013d0020d1e730463a
:022a3400cfe7ea
:020000040000fa
:020000040040ba
:102a3600f0b50c4649682368a768e56887b00029a1
:102a46000593a4bf23f00203059305ab0293082365
:102a5600cde900730646d2e900232046fff773ff4f
:102a6600059bd90642bf00f1ff3030232b54059b4e
:102a76001a0742bf00f1ff3020232b542269059b21
:102a86000093013a3b46121a29183046fff764feb6
:102a96007368db0503d563689842b8bf184607b06c
:022aa600f0bd81
:020000040000fa
:020000040040ba
:102aa80038b504460d4600f071fe2268216ce36bd0
:102ab80003fb01f3d018a0600020a06362605b1ada
:102ac8001344e360ff2384f8443084f84530a5b903
:102ad80023691bb900f09cff012038bd04f11000e8
:102ae800fff7f4fe0028f5d0084b4ff080521a602b
:102af800bff34f8fbff36f8fece704f1100000f0c6
:102b080047ff04f1240000f043ffe3e704ed00e091
:020000040000fa
:020000040040ba
:102b180080b5164c164f174edff860802368bbb19e
:102b280000f034fefb68dd68281d00f0e3fd336823
:102b3800013b33602368013b236000f069ff286b89
:102b480001f000f8284600f0fdff2368002be7d1cc
:102b5800094b1b68012be1d94ff08053c8f80030ae
:102b6800bff34f8fbff36f8fd8e700bfc4f5452081
:102b780054f54520c0f5452038f2452004ed00e025
:020000040000fa
:020000040040ba
:102b880038b5044610f0070f02d020f007040834c7
:102b980000f068ff124b1b687bb1124b1b681c448a
:102ba80049f6f77294420ed8a3420fd3fef730ffce
:102bb80000f0e3fe0025284638bd094a0a4b23f0f9
:102bc80007031360e9e7fef723fff1e7044a1568f6
:102bd8001d44044b1c60fef71bff002debd1e7e7fb
:0c2be800acf54520b0f545200800402069
:020000040000fa
:020000040040ba
:102bf40038b505460c46164b196000f02bfc10f056
:102c0400070005d0072803d0124b04221a7038bde0
:102c140014f0ff0ffbd105ebc5020f4cd2000021cd
:102c2400204600f039ff224629460020fef7d2ff55
:102c340018b9084b04221a70e9e7002348222146f8
:102c44002846fff7fff9034b03221a70dfe700bfa2
:0c2c5400fcf545201ef6452034f3452019
:020000040000fa
:020000040040ba
:102c600038b505460c46164b196000f0f5fb10f020
:102c7000070005d0072803d0124b04221a7038bd74
:102c800014f0ff0ffbd105ebc5020f4cd200002161
:102c9000204600f003ff224629460120fef79cff54
:102ca00018b9084b04221a70e9e70123482221468b
:102cb0002846fff7c9f9034b03221a70dfe700bf6c
:0c2cc000fcf545201ef645207cf3452065
:020000040000fa
:020000040040ba
:102ccc0000b583b0124b019300230093802211496d
:102cdc001148fdf757ff012802d003b05df804fb43
:102cec004ff0200372b683f31188bff36f8fbff3dd
:102cfc004f8f62b6094b4ff0ff321a60084b01221e
:102d0c001a60084b00221a6000f032fae5e700bfa7
:102d1c00d4f545202c3b4000192b4000d8f545201c
:082d2c00e4f54520e8f545201f
:020000040000fa
:020000040040ba
:0c2d340008b1014a906370470cf4452080
:020000040000fa
:020000040040ba
:102d4000eff30980bff36f8f154b1a681ef0100f59
:102d500008bf20ed108a20e9f04f10602de909002e
:102d60004ff0200072b680f31188bff34f8fbff38e
:102d70006f8f62b6fff7c0f84ff0000080f3118844
:102d800009bc19680868b0e8f04f1ef0100f08bfc2
:102d9000b0ec108a80f30988bff36f8f704700bfd3
:042da000b4f5452021
:020000040000fa
:020000040040ba
:102da40038b505460c46144b196000f053fb10f07f
:102db400070005d0072803d0104b04221a7038bd31
:102dc40014f0ff0ffbd10e4c48220021204600f0e6
:102dd40063fe2146284600f03ffc18b9074b042245
:102de4001a70ece70223482221460120fff72af952
:102df400024b03221a70e2e7fcf545201ef645203b
:042e0400ecf2452087
:020000040000fa
:020000040040ba
:102e0800f8b5134b1b78dbb2032b1fd1114b1b7882
:102e18000bb100201be015460f46064600f0b6fc35
:102e28000d4b1b6833600d4b1a7852b10c487b1e52
:102e3800541e57fa84f410f8011b03f8011fa3422b
:102e4800f9d12a7000f0e4fd012000e00020f8bd6f
:102e58001ef64520fcf54520f8f545201df64520d1
:042e68008cf4452081
:020000040000fa
:020000040040ba
:102e6c0014494ff486730b6050230b604ff40c63c2
:102e7c004b6051230b62104b00221a629a62da6289
:102e8c0083f8342083f83c209a6383f83d201a6041
:102e9c009a60da601a751a779a614b6813f4003fde
:102eac00054b14bf402280221a631a61014be122a8
:0c2ebc009a607047008002400cf4452032
:020000040000fa
:020000040040ba
:102ec80070b504460d4600f061fc124b1a682b6879
:102ed800b3f1ff3f16d061680f4800682668864244
:102ee80001d0914213d9501a834203d800232b6092
:102ef800012408e09b1a0b442b60204600f026fdb5
:102f0800002400e0002400f083fd204670bd012469
:0c2f1800f9e700bfe8f54520dcf5452096
:020000040000fa
:020000040040ba
:102f24000e4a38b5002313600d4a0e4c13600e4a46
:102f34000e4d13600e4a13600e4a13600e4a53621c
:102f440013610123936000f000fe00f0fefdac422b
:102f540000d338bd54f8043b9847f8e710f64520f1
:102f6400a8f2452074014000a4f2452078014000f5
:0c2f74009cf24520a0f24520acf2452064
:020000040000fa
:020000040040ba
:102f8000124bd96821f4e0610904090c104a0a4384
:102f9000da60bff35f8f62b6e02183f823100d4a39
:102fa00082f80e134ff48040106082f82513202120
:102fb00051605a6a42f480225a625a6942f0100201
:102fc0005a615a6a42f400325a62704700ed00e0da
:082fd0000000fa0500e100e039
:020000040000fa
:020000040040ba
:102fd800f0b4124ad36a956a0022114fdff844c050
:102fe8000e4e08e01cf8034084540133346b9c42b5
:102ff80098bf00230132ab420bd0914209d97c68bb
:1030080014f4003feed03cf8134020f8124001338e
:10301800ece70249cb621046f0bc70470cf445203f
:083028000080024038f1452050
:020000040000fa
:020000040040ba
:103030002de9ff41134dd1f80080af88adf80c7039
:1030400006462868029002aca8798df80e00002a86
:1030500018bf1446d1e901571a461bb9204600f0a3
:1030600025fd0246002d02dbaa4228bf2a46cdf8e4
:1030700000803b4621463046fff771fb04b0bde8b7
:08308000f08100bf343b400069
:020000040000fa
:020000040040ba
:10308800f0b50c4649682368a668e76887b0002948
:103098000593a4bf23f00203059305ab02930a230b
:1030a800cde900630546d2e900232046fff74afc34
:1030b8002269059b0093013a3346121a39182846ab
:1030c800fff749fb6b68db0503d563689842b8bf17
:0630d800184607b0f0bd30
:020000040000fa
:020000040040ba
:0230de00fee70b
:020000040000fa
:020000040040ba
:1030e00030b589b015464ff0ff32019202f203125b
:1030f000029200b96846cde9030151b14c1e002986
:10310000059408da094b4f221a604ff0ff3009b0de
:1031100030bd0c46f3e700220270cde906001a46e6
:10312000294601a800f0e2fbf1e700bf14f64520b4
:020000040000fa
:020000040040ba
:1031300070b50a24104d01260ae000f0e7fc0020db
:1031400018e000f0e3fc012014e0304600f06af9da
:1031500000f0bef828702b78dbb2022bedd02b7874
:10316000dbb2042bedd0631e13f0ff04edd100f0b1
:0c317000cdfc012070bd00bf19f6452009
:020000040000fa
:020000040040ba
:10317c0010b50e4b1a6842f460021a601a6842f0dd
:10318c0060421a6000f08cfa0024094b1c6000f0bd
:10319c0033fc084a136843f04043136000f06cfaa8
:1031ac00fef7a4fe00f0cafa204610bd20ed00e0a8
:0831bc00a8f5452034ef00e006
:020000040000fa
:020000040040ba
:1031c40008b50d4b00221a70022000f005fb00f038
:1031d400b9f948b101280bd0022808d1074800f0fa
:1031e40093f800f08bfc02e0054800f08df808bd70
:1031f400044800f089f8fae718f6452084144000e2
:08320400281440006014400092
:020000040000fa
:020000040040ba
:10320c0010b50278202a034600f10100f9d0a2f192
:10321c0009010429f5d92b2a07d02d2a11d1012116
:10322c000133013b00200a2403e00021f8e760434e
:10323c00801a13f8012f303a092af8d901b9404203
:06324c0010bd0021ede7ba
:020000040000fa
:020000040040ba
:02325200fee795
:020000040000fa
:020000040040ba
:1032540010b5054c227832b9044b13b10448aff3ce
:1032640000800123237010bdccf445200000000031
:103274000000000008b5034b1bb103490348aff33a
:10328400008008bd00000000d0f4452000000000cc
:020000040000fa
:020000040040ba
:10329400012815d1a1b138b50a4dd5f8c440c4f3fd
:1032a400044404ebc400084bdb68482203ebc00071
:1032b40000f091fb012000fa04f4c5f8d04038bdb9
:0c32c4000020704700400340e8f4452063
:020000040000fa
:020000040040ba
:1032d0000c4b1878c0b2032803d0042809d0002072
:1032e0007047094b1b7853b1012b14bf00200220fb
:1032f0007047054b1b78002b08bf03207047012047
:0c330000704700bf1ef64520fcf545207c
:020000040000fa
:020000040040ba
:10330c0038b505460b4c4ff0ff312068fdf798ffa0
:10331c00284600f0c5fb01462846fef78bff02212c
:10332c000548fef787ff00231a4619462068fef76a
:0c333c00d5f838bd00f64520f8364000fa
:020000040000fa
:020000040040ba
:10334800094b00225a60094ada60094a1a61094998
:103358004a6a42f480324a6205225a60bff34f8fac
:10336800bff36f8f704700bf90ed00e010f045206d
:083378001700081300ed00e04e
:020000040000fa
:020000040040ba
:1033800010b504460a4b186000f066f810f007000c
:1033900005d0072803d0074b04221a7006e0e4b2d8
:1033a000012c044b0cbf032204221a7010bd00bf75
:0833b000fcf545201ef6452046
:020000040000fa
:020000040040ba
:1033b80030b50c4a002312f8134024b902eb43033a
:1033c8005b78184630bd01680d78a54209bf02eb4d
:1033d800430301335b78013114bfdbb201600a2b70
:0833e800e9d9eee7d0384000fe
:020000040000fa
:020000040040ba
:1033f00030b40d68b5f1ff3f02d000f1080202e0e1
:10340000026904e01a4653681c68ac42fad9536852
:103410004b6099608a605160086103680133036002
:0434200030bc704705
:020000040000fa
:020000040040ba
:1034240010b540b90a4b4ff080521a60bff34f8f6a
:10343400bff36f8f10bd044600f016fb0021204639
:10344400fff738f8fef7e6fa0028f3d1eae700bf01
:0434540004ed00e0a3
:020000040000fa
:020000040040ba
:103458000a4b586c20f4605020f018004004400ccf
:103468009b6913f0010f08d0044a936923f0010304
:103478009361936913f0010ffbd17047004003403b
:020000040000fa
:020000040040ba
:1034880008b500f0cffafff75df8fef70bfc4ff434
:103498000043064a5360b03a5360fef76ffffff7e8
:1034a800e1fcfff78bfefff767fd08bd00190e4032
:020000040000fa
:020000040040ba
:1034b80000b583b0074b01930123009300234ff419
:1034c800806205490548fdf75ffbfff7fbfb03b08a
:1034d8005df804fba4f545203c394000253b40003d
:020000040000fa
:020000040040ba
:1034e80008b54ff0200372b683f31188bff36f8fce
:1034f800bff34f8f62b6fef719f918b1034b4ff0bf
:1035080080521a60002383f3118808bd04ed00e09f
:020000040000fa
:020000040040ba
:1035180070b506460d4601fb00f04830fff730fb5a
:10352800044648b155b100f148032360e6632564b9
:1035380001212046fff7b4fa204670bd0346f4e7a0
:020000040000fa
:020000040040ba
:1035480008b5012000f034f9064b186038b1064878
:1035580000f00ef8054b01221a70002008bd01206a
:10356800fce700bff0f5452000f045201cf645209b
:020000040000fa
:020000040040ba
:1035780008b5fef765f900220649104600f05ef925
:1035880000220549012000f059f90021034800f004
:1035980059fa08bdf52b4000612c4000a52d4000cc
:020000040000fa
:020000040040ba
:1035a80053b94ab9002908bf00281cbf4ff0ff31a2
:1035b8004ff0ff3000f0c2baadf1080c6de904ce4f
:1035c800fdf784f9ddf804e0dde9022304b0704773
:020000040000fa
:020000040040ba
:1035d8004ff0807340f8043c21f0010140f8081cca
:1035e800054b40f80c3c40f8202c6ff0020340f8e3
:0c35f800243c4438704700bf49374000b5
:020000040000fa
:020000040040ba
:10360400084b1b681b6823b9074b4ff0ff321a6045
:103614007047044b1b68db68db685a68024b1a600e
:0c362400704700bfb8f54520d8f54520e0
:020000040000fa
:020000040040ba
:10363000802910db812901dd83290cd11368073330
:1036400023f0070303f108011160d3e90023c0e967
:0a365000002301207047002070479e
:020000040000fa
:020000040040ba
:02365a00fee789
:020000040000fa
:020000040040ba
:10365c0060b959b108b508464822054b996800f085
:10366c00b6f90120034bc3f8980008bd0020704741
:08367c00e8f445200040034082
:020000040000fa
:020000040040ba
:1036840008480068006880f308884ff0000080f361
:10369400148862b661b6bff34f8fbff36f8f00df3c
:0836a40000bf000008ed00e08a
:020000040000fa
:020000040040ba
:1036ac00054b00221a6005490a60054a054911605c
:1036bc0007221a60704700bf10e000e018e000e03d
:0836cc0014e000e0df930400ac
:020000040000fa
:020000040040ba
:1036d4004e6f207365207075646f2063726561722c
:1036e40020656c20626c6f7175656f206d757465f3
:0836f400780000000d0a00003f
:020000040000fa
:020000040040ba
:1036fc000369416882688a60416851605a688242f5
:10370c0006d0002202611a68013a1a6018687047e4
:06371c0082685a60f5e727
:020000040000fa
:020000040040ba
:1037220038b504699442054628bf144622464069ca
:1037320000f052f96a6913196b612b691b1b2b612b
:063742000023135538bd01
:020000040000fa
:020000040040ba
:1037480082b0002301934ff0200372b683f31188ef
:10375800bff36f8fbff34f8f62b6019b002bfcd076
:0437680002b07047f4
:020000040000fa
:020000040040ba
:04376c000020704782
:020000040000fa
:020000040040ba
:10377000074b19680868b0e8f04f80f30988bff379
:103780006f8f4ff0000080f311887047aff3008017
:04379000b4f5452027
:020000040000fa
:020000040040ba
:103794004ff0200372b683f31188bff36f8fbff32a
:1037a4004f8f62b6024a136801331360704700bf3b
:0437b400a8f545200f
:020000040000fa
:020000040040ba
:1037b80010b5024600210120fff7aafe044638b1e1
:1037c800002181600160c1600b460a46fdf788fe52
:0437d800204610bdba
:020000040000fa
:020000040040ba
:1037dc0008b50120fff7eaff044b186000b108bde3
:1037ec0021210348fef726fdf9e700bf00f645202e
:0437fc00d43640007f
:020000040000fa
:020000040040ba
:1038000008b50648fff782fd054b186820b1fef7a2
:10381000b5fa034b00221a6008bd00bf181440001f
:0438200008f6452041
:020000040000fa
:020000040040ba
:1038240000b583b000230193009146f27a0223216c
:10383400fdf79efab0fa80f0400903b05df804fb8e
:020000040000fa
:020000040040ba
:1038440010b429b1044b43f8301003ebc0035a60a1
:0c3854005df8044b704700bf68f545208c
:020000040000fa
:020000040040ba
:10386000054bd8689b68984201d8181a7047024add
:0c38700012691344181a70470cf445202c
:020000040000fa
:020000040040ba
:10387c00054bd86a9b6a984201d8181a7047024abd
:0c388c00126b1344181a70470cf445200e
:020000040000fa
:020000040040ba
:1038980010b50c46044b19681831fff7a5fd012136
:0c38a8002046fef705fe10bdb4f54520db
:020000040000fa
:020000040040ba
:1038b400054b1b6823b1044b1a68936c0133936462
:0c38c400014b1868704700bfb4f54520a8
:020000040000fa
:020000040040ba
:1038d00068076c094c836a9074a07ac0008068887d
:0c38e00000846c820081286e696c290055
:020000040000fa
:020000040040ba
:1038ec0013b50446019201aafcf774fe636813f049
:0c38fc00100f18bf4ff0ff3002b010bddd
:020000040000fa
:020000040040ba
:103908000eb403b503aa52f8041b019200f000f9a3
:0a39180002b05df804eb03b0704745
:020000040000fa
:020000040040ba
:02392200fee7be
:020000040000fa
:020000040040ba
:10392400044b93f8342083f8340083f83c10104699
:08393400704700bf0cf44520b0
:020000040000fa
:020000040040ba
:10393c0054415245415f5052494e434950414c5fae
:08394c005461736b730000bfae
:020000040000fa
:020000040040ba
:10395400034b1b680360034b1b684360704700bf45
:08396400dcf54520e8f54520e3
:020000040000fa
:020000040040ba
:10396c004ff0200372b683f31188bff36f8fbff350
:06397c004f8f62b6fee76a
:020000040000fa
:020000040040ba
:103982004ff0200372b683f31188bff36f8fbff33a
:063992004f8f62b6fee754
:020000040000fa
:020000040040ba
:1039980000f1080343604ff0ff328260c3600361a7
:0639a800002303607047dc
:020000040000fa
:020000040040ba
:1039ae0043684b609a688a60516099600861036849
:0639be00013303607047b5
:020000040000fa
:020000040040ba
:1039c40010b50446fff7e4fea46b00f023f8b4fa44
:0639d40084f0400910bd63
:020000040000fa
:020000040040ba
:1039da0010b5431e0a44914200d110bd11f8014ba3
:0639ea0003f8014ff7e7ae
:020000040000fa
:020000040040ba
:1039f00010b5034b1c69fff733ff013c201a10bdc3
:043a00000cf445205d
:020000040000fa
:020000040040ba
:103a0400dff80c00016841f47001016070470000a8
:043a140088ed00e059
:020000040000fa
:020000040040ba
:103a1800034a1368013b13600bb983f3118870479d
:043a2800a8f5452098
:020000040000fa
:020000040040ba
:103a2c00014b024a1a607047000c0e40000600045d
:020000040000fa
:020000040040ba
:103a3c0010b1024b18605960704700bf90f54520db
:020000040000fa
:020000040040ba
:103a4c0010b1024b18605960704700bf80f54520db
:020000040000fa
:020000040040ba
:103a5c00a50000f000000000960000509600001039
:020000040000fa
:020000040040ba
:103a6c00024a136801331360704700bfc8f5452044
:020000040000fa
:020000040040ba
:103a7c000001020304050607080c1014182030403e
:020000040000fa
:020000040040ba
:103a8c0010b9024b01221a70704700bf1ff6452077
:020000040000fa
:020000040040ba
:103a9c0002440346934200d1704703f8011bf9e737
:020000040000fa
:020000040040ba
:103aac0003461a46013311780029fad1101a7047cf
:020000040000fa
:020000040040ba
:0e3abc0008b50020fff7e2fcfff7f8fcfce77e
:020000040000fa
:020000040040ba
:0e3aca00a0f14103192b98bf40f02000704777
:020000040000fa
:020000040040ba
:0e3ad800a0f16103192b98bf00f05f0070474a
:020000040000fa
:020000040040ba
:023ae600fee7f9
:020000040000fa
:020000040040ba
:0c3ae800014b1862596270470cf4452035
:020000040000fa
:020000040040ba
:0c3af400014b01221a607047ecf54520e0
:020000040000fa
:020000040040ba
:0c3b0000014b03221a7070471cf6452090
:020000040000fa
:020000040040ba
:0c3b0c00014b05221a7070471ef6452080
:020000040000fa
:020000040040ba
:0c3b180013460a466ff00041fff7debaca
:020000040000fa
:020000040040ba
:083b240008b5fef7e3fafce727
:020000040000fa
:020000040040ba
:0f3b2c0049444c45000000bf286e756c6c2900a1
:020000040000fa
:020000040040ba
:063b3c0000230361704745
:020000040000fa
:020000040040ba
:023b4200fee79c
:020000040000fa
:020000040040ba
:043b4400704700bf07
:020000040000fa
:020000040040ba
:023b4800fee796
:020000040000fa
:020000040040ba
:023b4a007047c2
:020000040000fa
:020000040040ba
:023b4c007047c0
:020000040000fa
:020000040040ba
:023b4e007047be
:020000040000fa
:02000004d0002a
:0400000002000000fa
:00000001FF
