:020000040000fa
:020000040040ba
:10000000f0ff4520e90640003f134000fb1d400083
:100010009d1640009f164000371e40000000000063
:10002000000000000000000000000000c11b4000b4
:10003000bf1b400000000000a1164000091a40004c
:10004000d7114000d7114000d7114000d711400010
:10005000d7114000d7114000d7114000d711400000
:10006000d711400000000000bd1d4000d711400026
:10007000d7114000d71140006d054000d711400056
:10008000d7114000d7114000d7114000d7114000d0
:10009000d7114000d7114000d7114000d7114000c0
:1000a000d7114000d7114000d7114000d7114000b0
:1000b000d7114000d7114000d7114000d7114000a0
:1000c000d7114000d7114000d7114000d711400090
:1000d000d7114000d7114000d7114000d711400080
:1000e000d7114000d7114000d7114000d711400070
:1000f000d7114000d7114000d7114000d711400060
:10010000d7114000d7114000d7114000d71140004f
:10011000d7114000d711400000000000000000008f
:10012000d7114000d7114000d7114000d71140002f
:10013000d7114000d7114000d7114000d71140001f
:10014000d7114000d7114000d7114000d71140000f
:10015000d7114000d7114000d7114000d7114000ff
:08016000d7114000d711400047
:020000040000fa
:020000040040ba
:10016800f8b500bff8bc08bc9e467047d1184000df
:10017800f8b500bff8bc08bc9e467047ad184000f3
:020000040000fa
:020000040040ba
:10018800f4a240201c0000000000000084a34020ce
:100198000c0000000000000090a3402006000000b2
:1001a80001000000000101010101000074a34020ca
:1001b800100000000000000000a040200002000025
:1001c80000000000b4a24020400000000000000031
:1001d80098a3402004000000000000009ca34020d9
:1001e8000400000000000000a0a34020040000005c
:1001f80000000000a4a3402004000000010000004b
:10020800aaaaaaaaa8a3402004000000000000008f
:100218000000402000a0000000000000aca3402027
:100228000400000000000000b0a34020040000000b
:1002380000000000b4a340200400000000000000fb
:10024800b8a34020040000000000000000a24020e5
:100258006400000000000000bca34020040000006f
:1002680000000000c0a340200400000000000000bf
:10027800c4a340200400000000000000c8a34020e0
:100288000400000000000000cca34020040000008f
:100298000000000010a3402014000000000000002f
:1002a80024a340201400000000000000d0a3402038
:1002b8000400000000000000d4a340200400000057
:1002c80000000000d8a34020040000000000000047
:1002d800dca34020040000000000000038a34020f8
:1002e8001400000000000000e0a34020040000000b
:1002f800000000004ca34020140000000000000093
:1003080060a340201400000000000000e4a3402087
:100318000400000000000000e8a3402004000000e2
:1003280000000000fca340200100000000000000c5
:10033800eca340200400000000000000f8a34020c7
:100348000100000000000000f0a3402004000000ad
:100358000000000064a240205000000000000000df
:10036800f4a340200400000000000000000000008a
:1003780000000000222222222222222222222222dd
:020000040000fa
:020000040040ba
:100388002de9f84f80460e4699469500284601f01b
:1003980079f8002800f0c1800746542001f072f86f
:1003a8000446002857d007632a46a521384601f09d
:1003b80011fd276b002e54d0337884f8343053b1b4
:1003c800334604f134010f3613f8012f01f8012fd9
:1003d8000ab1b342f8d1002384f843300a9e042eb0
:1003e80028bf0426e66266644ff0000bc4f848b0e4
:1003f80004f1040a504601f017fd04f1180001f059
:1004080013fd2461c6f10506a6616462c4f84cb008
:1004180084f850b0043d3d444a46414625f0070063
:1004280001f036fb20600b9b03b11c6001f0d6fb8a
:100438003e4a1368013313603d4b1b68abb13d4b1b
:100448001b68bbb93a4b1b68da6ae36a9a4211d84f
:10045800374b1c600ee0384601f0ebfc4ff0ff30e4
:100468005de0002384f83430b8e7314b1c60136832
:10047800012b28d0304a136801331360e06a2f4af1
:100488001168012383400b43136000eb8000514641
:100498002b4b03eb800001f046fc01f079fc254b67
:1004a8001b68002b3dd0224b1b68da6ae36a9a422c
:1004b80039d2244b4ff080521a60bff34f8fbff3ed
:1004c8006f8f01202be01e4d284601f021fc05f11d
:1004d800140001f01dfc05f1280001f019fc05f1dc
:1004e8003c0001f015fc05f1500001f011fc164e1e
:1004f800304601f00dfc154d284601f009fc144862
:1005080001f006fc134801f003fc134801f000fc5d
:10051800124b1e60124b1d60ace74ff0ff30bde878
:10052800f88f0120fbe70120f9e700bfbca34020ba
:10053800b0a34020e0a34020c8a34020cca3402083
:1005480000a2402004ed00e010a3402024a3402096
:1005580038a3402060a340204ca34020b4a34020ef
:04056800b8a34020d4
:020000040000fa
:020000040040ba
:10056c00f8b55a4b5b6913f0e0030ad1574b5b6942
:10057c0013f0010f20d1554b5b6913f0020f67d1bb
:10058c00f8bddbb2524a82f83d30504b4ff48072ca
:10059c001a605b6913f0010f05d04c4b9a695a69cc
:1005ac0012f0010ffad14a4b1b6a002bded0484add
:1005bc00516a02209847d9e7444e454c46e0226ade
:1005cc00002a31d0616a38469047a36a0133226b06
:1005dc00934228bf002327e0a16a3e48425430e0f2
:1005ec0001f03cfb236a002b30d094f83c2032b154
:1005fc00a26b90422ad3616a0020984726e0a26b36
:10060c00904223d1616a002098471fe0736913f070
:10061c00010fb0d0b569a36a0133226b934228bf96
:10062c000023e26a9a42cad0e26a9a42eed0c5f33b
:10063c000802716811f4003fced0a06a254921f858
:10064c001020a36294f83430002bc9d10127dde7c8
:10065c001e4d1f4c204e6b6913f0020f90d0e368b7
:10066c00a26893422dd06a6812f4003f03f1010294
:10067c0014bf36f81330f35c2169914298bf002205
:10068c00e2606a6812f4003f14bfc3f30803dbb2e4
:10069c00eb61237d002bded001f064fb2368002b83
:1006ac00d9d0227f32b1a2699042d4d361680320a1
:1006bc009847d0e7a2699042cdd161680320984752
:1006cc00c9e7024b0222da605ae700bf0080024001
:0c06dc00b4a2402074a3402000a04020e5
:020000040000fa
:020000040040ba
:1006e80008b54f4b98474f4b9847eff3108172b6b8
:1006f8004d4ad2f8883043f47003c2f88830bff30b
:100708004f8fbff36f8f01b962b6484b484a5a60a2
:100718009a6812f0010ffbd0444bdb6813f4c07fda
:1007280013d0444b0c221a60404b434a5a609a68d3
:1007380012f0010ffbd03d4b404a5a609a6812f004
:10074800010ffbd03e4b3f4a1a60bff34f8fbff3f8
:100758006f8f354cd4f8903223f00103c4f89032ef
:10076800d4f8943223f00103c4f89432bff34f8fc6
:10077800bff36f8f00f068fc334b23f07f03a36057
:10078800324b9847636913f4003f12d1bff34f8f80
:10079800bff36f8f0022c4f85022bff34f8fbff30f
:1007a8006f8f626942f400326261bff34f8fbff30b
:1007b8006f8f1d4b5b6913f4803f29d11a4b0022c0
:1007c800c3f88420bff34f8fd3f88030c3f3c90632
:1007d800c3f34e335a0143f6e075134802ea0504a1
:1007e800334644ea8371c0f86012013bb3f1ff3f1e
:1007f800f7d1203a12f1200ff0d1bff34f8f0a4af8
:10080800536943f480335361bff34f8fbff36f8f46
:100818000f4b98470f4b984701f0e4fafee700bfeb
:10082800391e4000391e400000ed00e0000c0e406b
:100838000d00005a98a340200c08005a0c07005ad3
:1008480000180e40010000a500004000611740009c
:08085800391e4000391e40006a
:020000040000fa
:020000040040ba
:100860002de9f04184b0044601914ff0000846465e
:100870004546504f49e0013ba36323684bb12369d0
:100880005bb901f089fa4ff00108404604b0bde8b9
:10089000f08101f005faa060f1e704f1100000f02a
:1008a000d9fc0028edd0434b4ff080521a60bff3c3
:1008b0004f8fbff36f8fe4e701f06efa4ff000083f
:1008c000e3e702a801f006fa29e084f8445032e098
:1008d00084f8455035e001f085f9a06800f0c8fac9
:1008e000804601f059fa3ce0204600f035fc00f06b
:1008f000f9f909e0204600f02ffc00f0f3f920465a
:1009000001f020fa002840d1012601f06bf9a36b19
:10091000002bb0d1019b002bced0002ed1d001f006
:100920003bfa01f053fa01f05df994f844305bb200
:10093000b3f1ff3fc9d094f845305bb2b3f1ff3f4c
:10094000c6d001f029fa01a902a800f0dbfe0028b8
:10095000d0d1204601f0f6f90028c5d02368002b3d
:10096000b9d0019904f1240001f08cf9204600f07f
:10097000f3fb00f0b7f90028c6d14ff080533b607d
:10098000bff34f8fbff36f8fbee7b8f1000f3ff497
:100990007caf01f027f9616a19b1236b1968c1f1c5
:1009a0000501a06800f098fb01f0f6f94ff000088f
:0809b0006be700bf04ed00e05d
:020000040000fa
:020000040040ba
:1009b8002de9f04784b00446884601921d464ff061
:1009c80000094e46434f39e02a464146204600f08a
:1009d80079fc636a73b938b13e4b4ff080521a60a4
:1009e800bff34f8fbff36f8f01f0d2f9012004b02e
:1009f800bde8f08704f1240000f028fc0028f3d0bb
:100a0800344b4ff080521a60bff34f8fbff36f8f94
:100a1800eae701f0bdf90020e9e702a801f056f97c
:100a28001ae084f8446023e084f8456026e0204614
:100a380000f08efb00f052f94ff0010901f0cef8fa
:100a4800a26be36b9a42bfd3022dbdd0019b002b52
:100a5800dfd0b9f1000fe0d001f09af901f0b2f956
:100a680001f0bcf894f844305bb2b3f1ff3fd8d042
:100a780094f845305bb2b3f1ff3fd5d001f088f967
:100a880001a902a800f03afee8b901f0a7f8d4f8e5
:100a980038a0d4f83c9001f07bf9ca45c7d1019938
:100aa80004f1100001f0eaf8204600f051fb00f0d4
:100ab80015f90028c0d14ff080533b60bff34f8f2a
:100ac800bff36f8fb8e7204600f042fb00f006f94d
:080ad80000208ce704ed00e0b2
:020000040000fa
:020000040040ba
:100ae0002de9f047384b1b68002b67d1374b1f6847
:100af00001371f60bfb1364b1b68bb4220d90025b0
:100b0000344b1b68db6a03eb83039b00324ad358e8
:100b1000022b28bf0125314b1b68002b18bf012574
:100b20002846bde8f0872e4a11682e4b18681060e1
:100b300019602d4a13680133136000f0c3ffdae730
:100b40000025dff89c80dff8a890dff88ca021e07a
:100b50001f4b4ff0ff321a60d2e71d4a1360cfe7f8
:100b600004f1180001f002f8e06ad9f8002001232e
:100b700083401343c9f8003000eb800031460aeb94
:100b8000800001f0d4f8134b1b68e26adb6a9a42da
:100b900028bf0125d8f800301b68002bd8d0d8f822
:100ba0000030db68dc6863689f42d6d3261d304680
:100bb00000f0dcffa36a002bd2d1d5e70b4a136803
:100bc000013313600025abe7c4a34020e4a3402019
:100bd000d4a34020b0a3402000a24020e8a340209e
:100be000b4a34020b8a34020d8a34020dca34020d9
:040bf000cca3402032
:020000040000fa
:020000040040ba
:100bf400384b0022c3f81421d3f8140141f2100138
:100c04000143c3f8141134494ff400134b606ff4db
:100c140000130b604ff0ff334b650b66c1f8903047
:100c2400c1f8a0304ff4000008616ff4000048617f
:100c34008a634ff40070c1f8b000c1f8d400c86ce6
:100c4400c1f8182101f50071102008674867486051
:100c54006ff0100008604b650b66c1f89030c1f866
:100c6400a0300a614b618a63c1f8182101f5007153
:100c74000b604b650b66c1f89030c1f8a0304ff49f
:100c8400813008616ff4813048618a63c1f81821aa
:100c940001f500710b604b650b66c1f89030c1f82b
:100ca400a0300a614b618a63c1f8182101f5007113
:100cb4000b604b650b66c1f89030c1f8a0300a6137
:100cc4004b618a63c1f81821044b092119805a60c9
:100cd400704700bf00800840000e0e4084a34020ef
:020000040000fa
:020000040040ba
:100ce4002de9f04100f07cff2d4b1a68013a1a609f
:100cf4001b68002b4dd12b4b1b680bb9002449e01a
:100d04000024294e294fdff8b880336803b3f36811
:100d1400dc6804f1180000f027ff251d284600f0c8
:100d240023ffe06a3a680123834013433b6000ebee
:100d34008000294608eb800000f0f7ff1c4b1b687d
:100d4400e26adb6a9a42e0d31a4b01221a60dce7ba
:100d54000cb100f0b5fe184b1c686cb1154e0125a2
:100d640001e0013c05d0fff7b9fe0028f9d0356059
:100d7400f7e7114b00221a600e4b1c6854b10f4b5d
:100d84004ff080521a60bff34f8fbff36f8f01246f
:100d940000e0002400f0feff2046bde8f08100bf23
:100da400c4a34020bca3402038a34020cca34020af
:100db400b0a34020e8a34020dca3402004ed00e0e1
:040dc40000a2402029
:020000040000fa
:020000040040ba
:100dc800244b1b681bb1244b01221a60704710b5d5
:100dd800214b00221a60214b1b681b6b1a68b2f169
:100de800a53f03d15a68b2f1a53f23d01b4b186821
:100df8001968343100f076ff194b1b68b3fa83f396
:100e0800dbb2c3f11f03174a9900c81802eb800030
:100e1800446864684460194402460832944212d017
:100e280003eb83030f4a02eb83035b68da680b4b1f
:100e38001a6010bd9a68b2f1a53fd7d1db68b3f14b
:100e4800a53fd3d1d8e760680a46064901eb82027c
:100e58005060e5e7c4a34020e8a34020b0a34020a9
:080e6800cca3402000a24020b1
:020000040000fa
:020000040040ba
:100e7000002849d038b50446c26a24490968c96abd
:100e80008a4238d28169002905db20490968c96a8c
:100e9000c1f10501816102eb82021d4901eb820271
:100ea0006169914205d0194a1268d26ae262012052
:100eb00029e0251d284600f059fe38b915490b6870
:100ec000e06a0122824023ea02030b600f4b1b6899
:100ed000d86ae0620f4a1168012404fa00f30b4358
:100ee000136000eb80002946094b03eb800000f003
:100ef0001eff204607e0054a1268406cd36a9842fc
:100f00002cbf0020012038bd00207047b0a3402036
:080f100000a24020cca3402008
:020000040000fa
:020000040040ba
:100f18002de9f041002945d08c46234b1e69002459
:100f2800224d1a46dff888e00fe030f81470d5f843
:100f3800048018f4003f14bf2ef811700ef80170e9
:100f48009360631c013463452ad26b6813f4003341
:100f580010d0d76891684b1cb34228bf00239f422a
:100f6800e3d100f06ffe10b1104b02229a602046c8
:100f7800bde8f081d2f80c809768791cb14228bf8f
:100f880019468845edd0035dd5f8048018f4003f74
:100f980014bf2ef817300ef807309160631cd1e7a4
:100fa8001c46dee70c46dce7b4a240200080024085
:040fb80000a0402035
:020000040000fa
:020000040040ba
:100fbc0070b504460e461c4b1d681c4b186804305b
:100fcc0000f0cefd48b9194b1a6819490b68d06a64
:100fdc000122824023ea02030b60b4f1ff3f00d1ef
:100fec006eb92c44114b1b685c60a5420ed9114b99
:100ffc0018680e4b1968043100f0ccfc70bd0b4b1b
:10100c00196804310c4800f08cfef7e70b4b18689c
:10101c00064b1968043100f0bdfc094b1b68a34258
:10102c00ecd9074b1c60e9e7e4a34020b0a34020b7
:10103c00cca34020b8a340204ca34020b4a3402014
:04104c00d4a34020c9
:020000040000fa
:020000040040ba
:101050001e4b1f4a9342f0b438bf002103d203f85d
:10106000011b9342fbd11b4ad2e9000150ea010364
:101070004ff0000610d09468034602f10c076cb9db
:1010800021b1014403f8016b9942fbd13a46d2e900
:10109000000150ea0103eed1f0bc704759b101f1f3
:1010a0000c030c38801a1a443b461c1813f8015bd9
:1010b00025709342f9d111f0030318bf012303eb0c
:1010c000910107eb81073a46e1e700bf00004020ad
:0810d0000000402088014000ef
:020000040000fa
:020000040040ba
:1010d800002838d038b50446426c914238bf1146d2
:1010e800c26a8a4202d0806c012800d038bde16211
:1010f800a069002802dbc1f10501a16102eb8202af
:10110800114901eb820261699142efd1251d284600
:1011180000f028fd38b90d490b68e06a01228240c9
:1011280023ea02030b60e06a084a1168012383403e
:101138000b43136000eb80002946034b03eb800050
:1011480000f0f1fdd2e7704700a24020cca3402078
:020000040000fa
:020000040040ba
:1011580070b5054600f042fd95f8454064b2002c94
:1011680011dd6b6a7bb105f1240606e000f048fe4c
:10117800013c64b23cb16b6a2bb1304600f066f8b2
:101188000028f5d0f2e7ff2385f8453000f000fe8f
:1011980000f024fd95f8444064b2002c11dd2b6961
:1011a8007bb105f1100606e000f02afe013c64b2ae
:1011b8003cb12b692bb1304600f048f80028f5d037
:0e11c800f2e7ff2385f8443000f0e2fd70bd31
:020000040000fa
:020000040040ba
:0211d600fee732
:020000040000fa
:020000040040ba
:1011d800002835d038b50446826c013a8264c06a6a
:1011e800616c884200d00ab1002038bd251d284610
:1011f80000f0b8fc70b9e26a02eb82039b00114967
:10120800cb583bb910480368012101fa02f223eade
:1012180002020260606ce062c0f10503a3610a4a41
:101228001168012404fa00f30b43136000eb8000fb
:101238002946044b03eb800000f075fd2046d4e7f7
:0c1248000020704700a24020cca34020f2
:020000040000fa
:020000040040ba
:1012540038b5c368dc6804f11805284600f084fc3e
:10126400134b1b68e3b9251d284600f07dfce06a9a
:10127400104a1168012383400b43136000eb800084
:1012840029460d4b03eb800000f04ffd0b4b1b6810
:10129400e26adb6a9a4208d90120094b186005e02a
:1012a4002946084800f041fdf0e7002038bd00bfa2
:1012b400c4a34020cca3402000a24020b0a34020df
:0812c400e8a3402038a34020fc
:020000040000fa
:020000040040ba
:1012cc0070b504461646856b026c5ab903681bb19f
:1012dc0000200135a56370bd8068fff777ff002300
:1012ec00a360f6e76eb9406800f031fd6368226ccc
:1012fc0013446360a268934219d323686360304639
:10130c00e7e7c06800f023fd226c5242e368134407
:10131c00e36021688b4202d2a3681a44e2600db1eb
:10132c00022e01d00020d4e7013d0020d1e7304649
:02133c00cfe7f9
:020000040000fa
:020000040040ba
:02133e00fee7c8
:020000040000fa
:020000040040ba
:1013400038b504460d4600f04dfc2268216ce36b75
:1013500003fb01f3d018a0600020a06362605b1a59
:101360001344e360ff2384f8443084f84530a5b982
:1013700023691bb900f010fd012038bd04f11000f5
:10138000fff768ff0028f5d0084b4ff080521a6035
:10139000bff34f8fbff36f8fece704f1100000f045
:1013a000bbfc04f1240000f0b7fce3e704ed00e02f
:020000040000fa
:020000040040ba
:1013b00080b5164c164f174edff860802368bbb11e
:1013c00000f010fcfb68dd68281d00f0cffb3368df
:1013d000013b33602368013b236000f0ddfc286b98
:1013e00000f02bfd284600f028fd2368002be7d1f4
:1013f000094b1b68012be1d94ff08053c8f800302e
:10140000bff34f8fbff36f8fd8e700bfc0a340205b
:1014100060a34020bca3402000a2402004ed00e0d7
:020000040000fa
:020000040040ba
:1014200018494ff486730b6050230b604ff40c6324
:101430004b6051230b62144b00221a629a62da62eb
:1014400083f8342083f83c209a6383f83d201a60a7
:101450009a60da601a751a779a614b6813f4003f44
:1014600009d0094b08221a634ff480721a61054ba8
:10147000e1229a607047044b10221a634ff4007205
:0c1480001a61f4e700800240b4a2402092
:020000040000fa
:020000040040ba
:10148c0038b5044610f0070f02d020f007040834da
:10149c0000f096fc124b1b687bb1124b1b681c4472
:1014ac0049f6f77294420ed8a3420fd3fff714fcff
:1014bc0000f021fc0025284638bd094a0a4b23f0d0
:1014cc0007031360e9e7fff707fcf1e7044a156827
:1014dc001d44044b1c60fff7fffb002debd1e7e72d
:0c14ec00a8a34020aca340200800402032
:020000040000fa
:020000040040ba
:1014f8002de9f041174d4ff0ff36174f07f120083f
:1015080011e031462868fff7a7f90c2107f13000f0
:10151800fff7fefc00231a4619462868fff748fa29
:101528000a2000f053fa31462868fff795f90c2194
:101538004046fff7edfc00231a4619462868fff7d6
:1015480037fa00f057fc044600f054fc001b6328ef
:0c155800fad9d6e7eca340202c19400083
:020000040000fa
:020000040040ba
:101564002de9f041174d4ff0ff36174f07f11808da
:1015740010e031462868fff771f917214046fff75c
:10158400c9fc00231a4619462868fff713fafa2003
:1015940000f01efa31462868fff760f91721384633
:1015a400fff7b8fc00231a4619462868fff702fa29
:1015b40000f022fc044600f01ffc001b0928fad9a5
:0c15c400d7e700bfeca34020681a4000ed
:020000040000fa
:020000040040ba
:1015d00000b583b0124b0193002300938022114980
:1015e0001148fef7d1fe012802d003b05df804fbdc
:1015f0004ff0200372b683f31188bff36f8fbff3f0
:101600004f8f62b6094b4ff0ff321a60084b012230
:101610001a60084b00221a6000f024f9e5e700bfc9
:10162000d0a34020281e4000b1134000d4a3402086
:08163000e0a34020e4a34020e8
:020000040000fa
:020000040040ba
:10163800164b174a9a629a6e12f0020ffbd0134aa1
:10164800136b23f07003136313469a6e12f0080f9e
:10165800fbd00e4a136b23f4407343f48073136377
:1016680013469a6e12f0080ffbd0084a136b23f04a
:10167800030343f00203136313469a6e12f0080f34
:10168800fbd0024b4ff457321a61704700060e40e8
:04169800013f1820d6
:020000040000fa
:020000040040ba
:02169c00fee767
:020000040000fa
:020000040040ba
:02169e00fee765
:020000040000fa
:020000040040ba
:1016a000eff30980bff36f8f154b1a681ef0100f10
:1016b00008bf20ed108a20e9f04f10602de90900e5
:1016c0004ff0200072b680f31188bff34f8fbff345
:1016d0006f8f62b6fff778fb4ff0000080f3118840
:1016e00009bc19680868b0e8f04f1ef0100f08bf79
:1016f000b0ec108a80f30988bff36f8f704700bf8a
:04170000b0a3402032
:020000040000fa
:020000040040ba
:1017040070b504460d4600f06bfa124b1a682b684c
:10171400b3f1ff3f16d061680f480068266886421f
:1017240001d0914213d9501a834203d800232b606d
:10173400012408e09b1a0b442b60204600f0c8faf1
:10174400002400e0002400f025fb204670bd0124a5
:0c175400f9e700bfe4a34020d8a3402028
:020000040000fa
:020000040040ba
:101760000e4a38b5002313600d4a0e4c13600e4a22
:101770000e4d13600e4a13600e4a13600e4a5362f8
:1017800013610123936000f059fb00f057fbac425a
:1017900000d338bd54f8043b9847f8e7f4a3402041
:1017a00070a24020740140006ca2402078014000eb
:0c17b00064a2402068a2402074a24020e7
:020000040000fa
:020000040040ba
:1017bc0038b5c46c856c114b03445b0a1049ca5c88
:1017cc000b445b789a4218d202eb42030d4931f973
:1017dc00230000f01f0101238b402c4023420cd02e
:1017ec0002eb4203074901eb83035c682cb102eb6b
:1017fc00420201eb82029168a04738bd00f2f1bfb2
:08180c0090a3402084a34020ba
:020000040000fa
:020000040040ba
:1018140010b582b00d4c0e4b0193012300930023ad
:101824004ff4806221460b48fef7acfd0a4b01934e
:101834000223009300234ff4806204f10c01074853
:10184400fef7a0fdfff7c2fe02b010bdbc1c4000b5
:101854009ca34020b71b4000a0a34020211e4000b1
:020000040000fa
:020000040040ba
:1018640010b50e4b1a6842f460021a601a6842f00e
:1018740060421a6000f064f90024094b1c6000f017
:101884007ffa084a136843f04043136000f044f9b8
:10189400fff798fa00f07bf9204610bd20ed00e038
:0818a400a4a3402034ef00e092
:020000040000fa
:020000040040ba
:1018ac0010b5054c237833b9044b13b10448aff38e
:1018bc0000800123237010bdf4a240200000000022
:1018cc000000000008b5034b1bb103490348aff3fc
:1018dc00008008bd00000000f8a2402000000000bd
:020000040000fa
:020000040040ba
:1018ec000d4bd96821f4e0610904090c0b4a0a4339
:1018fc00da60bff35f8f62b6e02283f82320a3f592
:10190c00406383f80a234ff48061196083f80e2337
:10191c004ff480421a60704700ed00e00000fa05b9
:020000040000fa
:020000040040ba
:10192c00436f756c64206e6f7420637265617465af
:10193c00206d75746578206c6f636b0d0a00000068
:10194c0054736b312d5031203c2d0d0a00000000da
:10195c0054736b312d5031202d3e0d0a000000bf09
:020000040000fa
:020000040040ba
:10196c0008b500f01dfafff761fefff73df94ff4e3
:10197c000043074a5360b03a5360fff74bfd00f049
:10198c004ff900f0aff800f03ffafff7a9ff08bde0
:04199c0000190e40e0
:020000040000fa
:020000040040ba
:1019a00030b40d68b5f1ff3f02d000f1080202e04b
:1019b000026904e01a4653681c68ac42fad95368bd
:1019c0004b6099608a60516008610368013303606d
:0419d00030bc704770
:020000040000fa
:020000040040ba
:1019d40010b540b90a4b4ff080521a60bff34f8fd5
:1019e400bff36f8f10bd044600f0eef900212046ce
:1019f400fff7e2fafff774f90028f3d1eae700bf32
:041a040004ed00e00d
:020000040000fa
:020000040040ba
:101a080008b54ff0200372b683f31188bff36f8fc8
:101a1800bff34f8f62b6fff75ff818b1034b4ff073
:101a280080521a60002383f3118808bd04ed00e09a
:020000040000fa
:020000040040ba
:101a380070b506460d4601fb00f04830fff722fd61
:101a4800044648b155b100f148032360e6632564b4
:101a580001212046fff770fc204670bd0346f4e7dd
:020000040000fa
:020000040040ba
:101a6800202020202020202020202054736b322d7d
:101a78005032203c2d0d0a0020202020202020203c
:101a880020202054736b322d5032202d3e0d0a0039
:020000040000fa
:020000040040ba
:101a98004ff0807340f8043c21f0010140f8081c25
:101aa800054b40f80c3c40f8202c6ff0020340f83e
:0c1ab800243c4438704700bf931b4000e2
:020000040000fa
:020000040040ba
:101ac400084b1b681b6823b9074b4ff0ff321a60a1
:101ad4007047044b1b68db68db685a68024b1a606a
:0c1ae400704700bfb4a34020d4a34020f2
:020000040000fa
:020000040040ba
:101af00008b5074b00221a70012000f085f8054b4d
:101b0000186000b108bd1d210348fff705faf9e789
:0c1b1000fca34020eca340202c19400056
:020000040000fa
:020000040040ba
:101b1c0008480068006880f308884ff0000080f3e4
:101b2c00148862b661b6bff34f8fbff36f8f00dfbf
:081b3c0000bf000008ed00e00d
:020000040000fa
:020000040040ba
:101b4400054b00221a6005490a60054a05491160df
:101b540007221a60704700bf10e000e018e000e0c0
:081b640014e000e0df9304002f
:020000040000fa
:020000040040ba
:101b6c000369416882688a60416851605a688242a0
:101b7c0006d0002202611a68013a1a601868704790
:061b8c0082685a60f5e7d3
:020000040000fa
:020000040040ba
:101b920082b0002301934ff0200372b683f31188c1
:101ba200bff36f8fbff34f8f62b6019b002bfcd048
:041bb20002b07047c6
:020000040000fa
:020000040040ba
:081bb60008b5fff79efcfce7f7
:020000040000fa
:020000040040ba
:021bbe00fee740
:020000040000fa
:020000040040ba
:101bc000074b19680868b0e8f04f80f30988bff345
:101bd0006f8f4ff0000080f311887047aff30080e3
:041be000b0a340204e
:020000040000fa
:020000040040ba
:101be4004ff0200372b683f31188bff36f8fbff3f6
:101bf4004f8f62b6024a136801331360704700bf07
:041c0400a4a3402035
:020000040000fa
:020000040040ba
:101c080010b5024600210120fff712ff044638b143
:101c1800002181600160c1600b460a46fef7c8fedc
:041c2800204610bd85
:020000040000fa
:020000040040ba
:101c2c00054b4ff480321a63044a4ff400011163e0
:101c3c004ff400721a63704700120e40000e0e40f3
:020000040000fa
:020000040040ba
:101c4c00054bd8689b68984201d8181a7047024a0d
:0c1c5c0012691344181a7047b4a240200b
:020000040000fa
:020000040040ba
:101c6800054bd86a9b6a984201d8181a7047024aed
:0c1c7800126b1344181a7047b4a24020ed
:020000040000fa
:020000040040ba
:101c840010b50c46044b19681831fff787fe012183
:0c1c94002046fff791f910bdb0a34020de
:020000040000fa
:020000040040ba
:101ca000054b1b6823b1044b1a68936c0133936492
:0c1cb000014b1868704700bfb0a3402033
:020000040000fa
:020000040040ba
:101cbc005441534b315f5461736b73005441534b1c
:081ccc00325f5461736b730079
:020000040000fa
:020000040040ba
:101cd400034b1b680360034b1b684360704700bfe2
:081ce400d8a34020e4a3402036
:020000040000fa
:020000040040ba
:101cec004ff0200372b683f31188bff36f8fbff3ed
:061cfc004f8f62b6fee707
:020000040000fa
:020000040040ba
:101d02004ff0200372b683f31188bff36f8fbff3d6
:061d12004f8f62b6fee7f0
:020000040000fa
:020000040040ba
:101d180000f1080343604ff0ff328260c360036143
:061d280000230360704778
:020000040000fa
:020000040040ba
:101d2e0043684b609a688a605160996008610368e5
:061d3e0001330360704751
:020000040000fa
:020000040040ba
:101d440010b50446fff74cffa46b00f023f8b4fa77
:061d540084f0400910bdff
:020000040000fa
:020000040040ba
:101d5a0010b5431e0a44914200d110bd11f8014b3f
:061d6a0003f8014ff7e74a
:020000040000fa
:020000040040ba
:101d700010b5034b1c69fff769ff013c201a10bd29
:041d8000b4a24020a9
:020000040000fa
:020000040040ba
:101d8400dff80c00016841f4700101607047000045
:041d940088ed00e0f6
:020000040000fa
:020000040040ba
:101d9800034a1368013b13600bb983f3118870473a
:041da800a4a3402090
:020000040000fa
:020000040040ba
:101dac00014b024a1a607047000c0e4000060004fa
:020000040000fa
:020000040040ba
:101dbc0008b50248fff7fcfc08bd00bf000e0e4042
:020000040000fa
:020000040040ba
:101dcc00024a136801331360704700bfc4a340205c
:020000040000fa
:020000040040ba
:101ddc0002440346934200d1704703f8011bf9e714
:020000040000fa
:020000040040ba
:0e1dec0008b50020fff7bcfdfff70efdfce779
:020000040000fa
:020000040040ba
:021dfa00fee702
:020000040000fa
:020000040040ba
:0c1dfc00014b1868704700bfe4a34020b2
:020000040000fa
:020000040040ba
:0c1e0800014b01221a607047e8a3402043
:020000040000fa
:020000040040ba
:0c1e1400014b00221a707047f8a3402018
:020000040000fa
:020000040040ba
:081e200008b5fff79ffbfce78a
:020000040000fa
:020000040040ba
:081e280049444c45000000bfd5
:020000040000fa
:020000040040ba
:061e30000023036170476e
:020000040000fa
:020000040040ba
:021e3600fee7c5
:020000040000fa
:020000040040ba
:021e38007047f1
:020000040000fa
:020000040040ba
:021e3a007047ef
:020000040000fa
:020000040040ba
:021e3c007047ed
:020000040000fa
:02000004d0002a
:0400000002000000fa
:00000001FF
