:020000040000fa
:020000040040ba
:10000000f8ef4520f1144000d7364000c3384000d7
:10001000fb3f4000c7404000773d4000000000002b
:10002000000000000000000000000000813d4000d2
:10003000573e40000000000021334000993a400044
:10004000a7354000a7354000a7354000a735400040
:10005000a7354000a7354000a7354000a735400030
:10006000a735400000000000a7354000a73540003c
:10007000a7354000a7354000c5174000a735400010
:10008000a7354000a7354000a7354000a735400000
:10009000a7354000a7354000a7354000a7354000f0
:1000a000a7354000a7354000a7354000a7354000e0
:1000b000a7354000a7354000a7354000a7354000d0
:1000c000a7354000a7354000a7354000a7354000c0
:1000d000a7354000611d4000a7354000a73540000e
:1000e000a7354000a7354000a7354000a7354000a0
:1000f000a7354000a7354000a7354000a735400090
:10010000a7354000a7354000a7354000a73540007f
:10011000a7354000a73540000000000000000000a7
:10012000a7354000a7354000a7354000a73540005f
:10013000a7354000a735400000000000a73540006b
:10014000a7354000a7354000a7354000a73540003f
:10015000a7354000a7354000a7354000a73540002f
:08016000a7354000a73540005f
:020000040000fa
:020000040040ba
:10016800f8b500bff8bc08bc9e467047fd36400095
:10017800f8b500bff8bc08bc9e467047d9364000a9
:020000040000fa
:020000040040ba
:08018800c80e00000100000098
:020000040000fa
:020000040040ba
:1001900064f345201c000000000000001cf4452012
:1001a000080000000000000080f345201c00000053
:1001b0000000000024f445200800000000000000ba
:1001c00000f4452010000000000000002cf4452041
:1001d000080000000000000034f445200800000082
:1001e0000000000014f34520300000000000000073
:1001f00044f44520040000000000000048f44520bd
:1002000004000000000000004cf445200400000041
:1002100001000000aaaaaaaa50f445200400000088
:10022000000000000000402000a0000000000000ce
:1002300054f44520040000000000000058f445205c
:1002400004000000000000005cf4452004000000f1
:100250000000000060f445200400000000000000e1
:1002600040f14520640000000000000064f44520d7
:10027000040000000000000068f4452004000000b5
:10028000000000006cf445200400000000000000a5
:1002900070f44520040000000000000074f44520c4
:1002a00004000000000000009cf345201400000042
:1002b00000000000b0f34520140000000000000022
:1002c00078f4452004000000000000007cf4452084
:1002d000040000000000000080f44520040000003d
:1002e0000000000084f4452004000000000000002d
:1002f000c4f34520140000000000000088f44520ed
:100300000400000000000000d8f3452014000000a5
:1003100000000000ecf34520140000000000000085
:100320008cf44520040000000000000090f44520fb
:10033000040000000000000094f4452004000000c8
:10034000000000001af44520010000000000000039
:100350001bf44520010000000000000010f44520bf
:100360000a00000000000000b9f445200100000070
:100370000000000098f44520040000000000000088
:100380009cf445200400000000000000b8f4452063
:100390000100000000000000a0f44520040000005f
:1003a00000000000a4f4452004000000000000004c
:1003b00000f04520400100000100000000000000a6
:1003c000000000000000000000000000000000002d
:1003d000000000000000000000000000000000001d
:1003e000000000000000000000000000000000000d
:1003f00000000000000000000000000000000000fd
:1004000000000000000000000000000000000000ec
:1004100000000000000000000000000000000000dc
:1004200000000000000000000000000000000000cc
:1004300000000000000000000000000000000000bc
:1004400000000000000000000000000000000000ac
:10045000000000000000000000000000000000009c
:10046000000000000000000000000000000000008c
:10047000000000000000000000000000000000007c
:10048000000000000000000000000000000000006c
:10049000000000000000000000000000000000005c
:1004a000000000000000000000000000000000004c
:1004b000000000000000000000000000000000003c
:1004c000000000000000000000000000000000002c
:1004d000000000000000000000000000000000001c
:1004e000000000000000000000000000000000000c
:1004f000000000000000000000000000f4f14520b2
:1005000048000000000000003cf2452048000000c8
:100510000000000084f245204800000000000000b8
:10052000ccf245204800000000000000a8f445205f
:100530000400000000000000baf4452001000000a3
:100540000100000005000000acf44520040000009c
:1005500000000000a4f14520500000000000000051
:10056000b0f44520040000000000000044f34520e2
:100570002000000001000000010000000300000056
:10058000000000000000000000000000000000006b
:10059000000000003cf445203cf445200800000029
:1005a00000000000b4f4452004000000000000003a
:1005b000000000000000000022222222222222222b
:020000040000fa
:020000040040ba
:1005c0002de9f04f2ded0c8b1d4692ed008bd1e9fe
:1005d0000083b5eec08b8db0f1ee10fa03930b697a
:1005e0000790d1f808900493cc6807d418f0040f52
:1005f00035d118f0080734d0202302e02d23b1eec6
:10060000488b237009f1ff36012718ee901adff8a6
:1006100078b321f0004318ee102a4ff0000a5b4532
:1006200008bf524504eb0700a5f141011bd1192970
:1006300004eb070094bfd049d04903f057fdcf48e1
:1006400003f00cfdcdf8008002464b46214607988a
:1006500002f001fb0db0bdec0c8bbde8f08f2b233d
:10066000cfe74e46d1e79b4508bf924507d21929ef
:1006700094bfc349c34903f039fdc248e0e73022c3
:100680001a2907f101030270b5ee408b34bf5822de
:100690007822f1ee10fae254b7ee009b07f1020760
:1006a000a6f102064ff0000a40f0e880b0ee49bb28
:1006b000b0ee48cb039b9fedaadb002bacbf9b4663
:1006c0004ff0180b0025b0ee4dab8cee0b0b0691e6
:1006d00001f036fe6b1c0593039b00ee4bcb002b09
:1006e0002bee0dbb069904dab5ee40cbf1ee10fa15
:1006f00005d0ab4500f3e5800bf101030593b2eea5
:10070000007b2bee077bb4eec7cbf1ee10fa00f1c5
:10071000da80b4ee47cbf1ee10fa09d1bdeec00b92
:100720009fed916b10ee103a13f0010f06fe077b60
:1007300038ee078b18ee900adff84cc218ee102a3c
:1007400020f000434ff0000b634508bf5a453ff4cb
:100750006eaf049a4ff0000b053a3d46cdf818b045
:100760005b460992099aaa421ddd88ee090b0a939d
:10077000089101f0e5fdfdeec07bb0ee40bb17ee49
:10078000900a08990a9b002840f0a080002b00f0f6
:100790009d800bf1010b059a0bee498b01339a42b8
:1007a00029ee0a9bded1069bdbb96319bbf1000f72
:1007b00000f0ec80039a002a40f3e88018f0010f63
:1007c00040f0e4802e221a700beb05022244302008
:1007d00003f8010f9342fbd15d446fea0b0b013527
:1007e0005e4463190393049b04980022013b9245e5
:1007f0006255b8bfcaf1000ae254c0f1020bb8bf9b
:1008000001224ff00a0cbaf1000f40f096800beb7a
:10081000030ebef1010f00f09080002a03f1ff3caf
:1008200014bf2d222b22023b1a2904f80c2034bfbe
:10083000502270229d4204eb0301e25402da039835
:1008400003f054fc08f00303022b11d1b51e002d58
:100850000edd204603f002fc013e2044031b9f42b4
:1008600077dd2a463021e01903f0f0fb4ff0000954
:100870002046e5e60af1010ab0ee479b39ee097b16
:10088000b4eec78bf1ee10faf4d5b6ee007bb0ee05
:10089000475b9fed376bb4eec98bf1ee10fa7ff535
:1008a00005af29ee074bb5ee404bf1ee10fa04bf51
:1008b00029ee069b28ee068b29ee059b0af1ff3aee
:1008c000e9e7059d01e79fed287b31e7069a32b9fc
:1008d0002bb12e2262550122013e01350692089568
:1008e00004eb050c5a4604e04ff0300e0cf801eb17
:1008f000013a002af8d10928089a05f1010506f104
:10090000ff36d4bf3030573019295d445a44a6eb26
:100910000b060ed840f0200cacf1610cbcf1190fa5
:1009200007d8cde90a32089103f0c6fbdde90a32a7
:100930000899a0544ff0000b2de7bafbfcfe013bd9
:100940000cfb1eaa0af1300a04f803a0013ef2468d
:1009500059e710f80139835580e700bfaff30080f5
:10096000000000000000b03f000000000000000098
:1009700000000000000050436c4040007040400008
:1009800074404000784040000000f07f18f0100fe5
:0c0990003ff427af2e2201351a7022e739
:020000040000fa
:020000040040ba
:04099c00704700bfe1
:020000040000fa
:020000040040ba
:1009a0002de9f04f2ded0a8b92ed00ab8fb0b5ee37
:1009b000c0ab05938b680293f1ee10fa0b690790b8
:1009c0008846d1e900760893cd6807d4790737d4f3
:1009d00017f00803039335d0202302e02d23b1ee56
:1009e0004aab2b70029b03f1ff39012303931aeeec
:1009f000903adff858b323f000411aee100a039b37
:100a00004ff0000a59452b4408bf504504931cd1b0
:100a1000059b0498413b192b94bfc749c74903f074
:100a200065fbc64803f01afb00970246029b079835
:100a3000294602f010f90fb0bdec0a8bbde8f08f2b
:100a40002b23cee7ddf80890d1e78b4508bf824520
:100a50000ad2059b0498413b192b94bfb849b94968
:100a600003f044fbb748dde7b5ee40abf1ee10fa1a
:100a7000b2ee04cbb7ee009b4ff0000416d1059800
:100a800003f013fb002ec0b2c0f2628167282ad1a6
:100a9000002e08bf0126231d02dbb442c0f23981bb
:100aa0004ff0650a2fe00134b0ee479b29ee0c7b36
:100ab000b4eeca7bf1ee10faf5dd0023a24a9fedf9
:100ac0009a7b0ae0944205da23b92aee07ab29eeb5
:100ad000079b0123013c89ee0c9bb4eec9abf1ee00
:100ae00010faefd4cbe78246baf1660f06f10106a1
:100af00009d1002c02dab7ee009b0024672818bf4a
:100b000036194ff0660a4ff0000bb0ee498bb0ee8d
:100b10004abb8bee080b069001f012fc0bf1010ba7
:100b2000fdeec07b5e4590ee08bb17ee903ab1ee4d
:100b30004bbb88ee0c8b0698ebd1b1ee047b28ee14
:100b4000078bb4eec8bbf1ee10fa7fd4b4ee48bb0d
:100b5000f1ee10fa05d19fed766b13f0010f06fe52
:100b6000088b3aee088b29ee0cabb4eec8abf1ee75
:100b700010fa6ed8baf1660f04f101046bd1013698
:100b8000a346abeb06030a93002107f01003039e74
:100b900006910b930a9b09965b4504d0d8f8103058
:100ba000053bb3425ed8069b2bb9fa0641bf099ab2
:100bb0002e23ab5401360022baf1650f05eb060077
:100bc000aa552bd1089b0899013b9442ea54c1f1e4
:100bd000030ebcbf644201220a21002c40f08a802f
:100be0000eeb030cbcf1000f00f38480002a03f12c
:100bf000ff3114bf2d222b226a54059a413a023b41
:100c0000192a98bf4ff0450a9e4205eb030105f8eb
:100c100003a0a9f1020901da03f068fa07f003035f
:100c2000022b11d1b9f1000f0edd284603f016faa0
:100c300005eb0903039a824267dd4a463021049896
:100c400003f004fa002302932846ebe69fed388b6d
:100c500087e7b0ee49abbaf1650f14bfa3464ff07a
:100c6000000b8ee788ee0a0bcde90c1001f068fb53
:100c7000fdeec07b0b9b17ee902a1343dde90c10b1
:100c80000fd167280dd1bbf1000f19da4b1c9aee7a
:100c9000008b0bf1ff3bb1ee488b8aee0cab194693
:100ca00078e7069b63b9bbf1000f09da099b4ff0a7
:100cb0002e0c05f803c00123013609f1ff39069314
:100cc000324605eb060e0b4604e04ff0300c0ef8f2
:100cd00001cb013b002bf8d12a44944617ee902a11
:100ce00009f1ff3901363032a9eb01090e440cf845
:100cf0000120cce7b4fbf1fc013b01fb1c44303488
:100d0000ec5409f1ff39644667e72a5c1a5401384c
:100d100090e7002cbff6f5ae4ff0660ae4e6062633
:100d2000b9e600bfaff300800000000000005043b0
:100d300000000000000000007c40400080404000b7
:100d40008440400088404000d4feffff0000f07f58
:0c0d50006728e4d082460626c6e600bff5
:020000040000fa
:020000040040ba
:100d5c002de9f04fadb00027dff8e4a20391064671
:100d6c001546b8464ff0ff3903990b78002b00f06d
:100d7c00f9800cabcde907890a938023cdf8248048
:100d8c000b9300240b5d0bb1252b26d134b12246dd
:100d9c00304602f073fd039b23440393039b1a78a4
:100dac00252a40f0d78003f1010bcdf80cb0039845
:100dbc0003782b2b1ad025d8202b1bd0232b1dd0fe
:100dcc002a2b27d002f05efc0990039b1a78303a4c
:100ddc00092a2ed801330393f7e70134d2e7079b96
:100dec0043f00103013007930390e0e7079b43f0c6
:100dfc000403f7e7079b43f00803f3e7079b43f073
:100e0c001003efe72d2bead0302bd9d1079b43f001
:100e1c000203e7e72b681a1d1b682a600130002bc0
:100e2c000390099305da079a5b4282f0010207925c
:100e3c000993079bda0744bf23f002030793039b34
:100e4c001a782e2a0dd1581ccdf8208003905a7890
:100e5c002a2a25d1023303932b681a1d1b682a609a
:100e6c00089303a802f060fd039b0190187803f02f
:100e7c0016f96928019979d032dc632800f0c68014
:100e8c0019dc252800f0d080612853d025238df85b
:100e9c001030cdf80cb0cdf81c80cde90898c0e02e
:100eac0002f0f0fb0890039b1a78303a092ad8d844
:100ebc0001330393f7e7642858d06728e6dc2a4609
:100ecc0004a802f0c8fe002800f09c80039b5a1c6a
:100edc0003921b7804aa07a93046fff75bfd38e0a4
:100eec00702873d015dc6e2800f087806f28cdd168
:100efc002b46002204a801f021fc002800f082807f
:100f0c00039b04aa013307a93046039302f045f86a
:100f1c001fe075283ad0782848d07328b6d180299c
:100f2c0070d1039b2a6801330393131d2b60126845
:100f3c0000235be02a4604a802f08dfe002861d055
:100f4c00039b5a1c03921b7804aa07a93046fff78f
:100f5c0031fb04443c44a7426edd384b4f221a60ef
:100f6c004ff0ff3738462db0bde8f08f2b460122ed
:100f7c0004a801f0e3fb002844d0039b04aa01332e
:100f8c0007a93046039301f035fbe2e72b4600221c
:100f9c0004a801f0d3fb002834d0039b04aa01332e
:100fac0007a93046039302f0cdfad2e72b46002274
:100fbc0004a801f0c3fb28b3039b5a1c03921b78b3
:100fcc0004aa07a9304600f021fdc2e72b460022f7
:100fdc00f02104a801f0b2fba0b1039b01330393f1
:100fec00dde90423134306d10023524607a93046fa
:100ffc0002f07cfaade77823e2e72b463a1904a815
:10100c0001f0a0fe039b01330393a3e78029f9d1e0
:10101c00039b013303932b681a1d1b682a608df800
:10102c001030012304aae1e78029ebd1039b8df852
:10103c00100001330393f4e7274695e6b4f44520fa
:04104c00de3e400044
:020000040000fa
:020000040040ba
:101050002de9f04f099f154604468e461e46002b8b
:1010600040f0cc808a42b2fa82fc4cd9bcf1000f2d
:101070000bd0ccf1200801fa0cfe20fa08f802fa95
:101080000cf548ea0e0e00fa0cf44fea15491ffa67
:1010900085f8befbf9fa210c09fb1ae30afb08fbf1
:1010a00041ea03439b452ad9eb180af1ff3004d2e9
:1010b0009b4502d9aaf102002b44a3eb0b03a4b277
:1010c000b3fbf9f209fb123302fb08f844ea0344cc
:1010d000a04516d92c1902f1ff3303d2a04501d93e
:1010e000931e2c44a4eb080443ea004027b124fae1
:1010f0000cf400233c607b603146bde8f08f504625
:10110000dbe71346eee702b9ffdebcf1000f2ed19c
:101110008b1a01264fea154eaab2b3fbfef8210c3a
:101120000efb183308fb02f941ea0343994561d9e4
:10113000eb1808f1ff3004d2994502d9a8f102005a
:101140002b44a3eb0903a4b2b3fbfef10efb113356
:101150004a4344ea0344a2424ed92c1901f1ff3319
:1011600003d2a24201d98b1e2c44a41abce7ccf1b5
:10117000200e02fa0cf521fa0ef901fa0cf320fa0e
:101180000efe4eea03034fea154800fa0cf4b9fbd1
:10119000f8f11ffa85fe08fb1192180c01fb0ef600
:1011a00040ea0242964221d9aa1801f1ff3003d247
:1011b000964201d9881e2a44921b9bb2b2fbf8f9d1
:1011c00008fb192209fb0efe43ea02439e450fd994
:1011d000eb1809f1ff3604d29e4502d9a9f10206a7
:1011e0002b44a3eb0e0346ea004693e70846e3e7e9
:1011f0004e46f6e74046a4e70b46b6e78b4206d9d3
:10120000002f7ed00026c7e90001304674e7b3fa0c
:1012100083fcbcf1000f0fd18b4201d3824209d86d
:10122000841a61eb030e0120002f6dd0c7e9004e38
:10123000002661e76046f7e7ccf1200e03fa0cf3d5
:1012400022fa0ef521fa0ef41d4301fa0cf320faee
:101250000ef10b434fea154a00fa0cf6b4fbfaf90b
:101260001ffa85f80afb19401c0c09fb08f144ea37
:101270000044a14202fa0cf23fd92c1909f1ff30c7
:1012800004d2a14202d9a9f102002c44641a9bb2f3
:10129000b4fbfaf90afb194409fb08f843ea0441d4
:1012a00088452cd9691809f1ff3304d2884502d941
:1012b000a9f10203294443ea0040a1eb0801a0fb85
:1012c00002894945c2464c4602d306d1464504d25e
:1012d000b8eb020a69eb05040138afb1b6eb0a03bb
:1012e00061eb040606fa0efe23fa0cf34eea030342
:1012f00026fa0cf6c7e900369ae74846c6e74b4699
:0c130000d9e73e463846f7e63e46f5e6e3
:020000040000fa
:020000040040ba
:10130c002de9f84f80460e4699469500284601f087
:10131c0025ff002800f0c1800746542001f01eff75
:10132c000446002857d007632a46a521384602f008
:10133c0087fe276b002e54d0337884f8343053b1a9
:10134c00334604f134010f3613f8012f01f8012f45
:10135c000ab1b342f8d1002384f843300a9e042e1c
:10136c0028bf0426e66266644ff0000bc4f848b050
:10137c0004f1040a504602f0d0fe04f1180002f009
:10138c00ccfe2461c6f10506a6616462c4f84cb0bb
:10139c0084f850b0043d3d444a46414625f00700d0
:1013ac0002f002fc20600b9b03b11c6002f0f4fc09
:1013bc003e4a1368013313603d4b1b68abb13d4b88
:1013cc001b68bbb93a4b1b68da6ae36a9a4211d8bc
:1013dc00374b1c600ee0384600f0abff4ff0ff308f
:1013ec005de0002384f83430b8e7314b1c6013689f
:1013fc00012b28d0304a136801331360e06a2f4a5e
:10140c001168012383400b43136000eb80005146ad
:10141c002b4b03eb800002f098fd02f0cbfd254b2b
:10142c001b68002b3dd0224b1b68da6ae36a9a4298
:10143c0039d2244b4ff080521a60bff34f8fbff359
:10144c006f8f01202be01e4d284602f073fd05f135
:10145c00140002f06ffd05f1280002f06bfd05f1a0
:10146c003c0002f067fd05f1500002f063fd164ee2
:10147c00304602f05ffd154d284602f05bfd144826
:10148c0002f058fd134802f055fd134802f052fdce
:10149c00124b1e60124b1d60ace74ff0ff30bde8e5
:1014ac00f88f0120fbe70120f9e700bf64f4452029
:1014bc0058f4452088f4452070f4452074f44520f8
:1014cc0040f1452004ed00e09cf34520b0f34520ad
:1014dc00c4f34520ecf34520d8f345205cf44520bb
:0414ec0060f4452043
:020000040000fa
:020000040040ba
:1014f00008b5504b9847504b9847eff3108172b6a0
:101500004e4ad2f8883043f47003c2f88830bff3f3
:101510004f8fbff36f8f01b962b6494b494a5a608a
:101520009a6812f0010ffbd0454bdb6813f4c07fc3
:1015300013d0454b0c221a60414b444a5a609a68ba
:1015400012f0010ffbd03e4b414a5a609a6812f0ec
:10155000010ffbd03f4b404a1a60bff34f8fbff3e0
:101560006f8f364cd4f8903223f00103c4f89032d8
:10157000d4f8943223f00103c4f89432bff34f8fb0
:10158000bff36f8f01f0a4fa344b23f07f03a36005
:10159000334b984702f096f9636913f4003f12d178
:1015a000bff34f8fbff36f8f0022c4f85022bff3f9
:1015b0004f8fbff36f8f626942f400326261bff3f5
:1015c0004f8fbff36f8f1d4b5b6913f4803f29d1a1
:1015d0001a4b0022c3f88420bff34f8fd3f880301a
:1015e000c3f3c906c3f34e335a0143f6e0751348fb
:1015f00002ea0504334644ea8371c0f86012013bf5
:10160000b3f1ff3ff7d1203a12f1200ff0d1bff331
:101610004f8f0a4a536943f480335361bff34f8fae
:10162000bff36f8f0f4b98470f4b984702f036fd73
:10163000fee700bf3d2340003d23400000ed00e0f9
:10164000000c0e400d00005a44f445200c08005ace
:101650000c07005a00180e40010000a500004000d1
:0c166000453440003d2340003d23400085
:020000040000fa
:020000040040ba
:10166c002de9f04184b0044601914ff00008464644
:10167c004546504f49e0013ba36323684bb12369b6
:10168c005bb902f097fc4ff00108404604b0bde88e
:10169c00f08102f0f7fba060f1e704f1100001f01b
:1016ac008ffb0028edd0434b4ff080521a60bff3f4
:1016bc004f8fbff36f8fe4e702f07cfc4ff0000814
:1016cc00e3e702a802f014fc29e084f8445032e06d
:1016dc0084f8455035e002f05ffba06800f036ff5f
:1016ec00804602f067fc3ce0204601f06ffa00f007
:1016fc00a3fb09e0204601f069fa00f09dfb2046af
:10170c0002f02efc002840d1012602f045fba36b11
:10171c00002bb0d1019b002bced0002ed1d002f0eb
:10172c0049fc02f085fc02f037fb94f844305bb2c4
:10173c00b3f1ff3fc9d094f845305bb2b3f1ff3f32
:10174c00c6d002f037fc01a902a801f047fe002820
:10175c00d0d1204602f004fc0028c5d02368002b11
:10176c00b9d0019904f1240002f07efb204601f06f
:10177c002dfa00f061fb0028c6d14ff080533b607e
:10178c00bff34f8fbff36f8fbee7b8f1000f3ff47d
:10179c007caf02f001fb616a19b1236b1968c1f1ce
:1017ac000501a06801f0d2f902f004fc4ff000082a
:0817bc006be700bf04ed00e043
:020000040000fa
:020000040040ba
:1017c40038b5484b5b6913f0e0030fd1454b5b69b7
:1017d40013f0010f1cd1434b5b6913f0020f04d0cb
:1017e400404b1b6913f0020f44d138bddbb23e4cb1
:1017f40084f82d3002f0c6f93a4be122da60002376
:1018040084f82c30636a002b69d0a06a9847dde71e
:10181400354b93f82c30002bddd03249324b4a69da
:1018240012f0010f13d01a6ad86990420fd98a694d
:10183400c2f30802486810f4003f9c69186a00f17a
:1018440001051d6214bf24f810202254e7e7264b3b
:101854001a6adb699a42bed3234b002283f82c20f8
:10186400204ae121d1605b6a002bb4d01e4a906a01
:101874009847b0e71c4b1b7d002bb6d01a4b586819
:101884001c68184b184a04e091684d1c9560615c13
:10189400d961596911f0020f0fd0916888420cd9af
:1018a400596811f4003fefd091684d1c956034f8ed
:1018b4001110c1f30801d961ebe70b4b9a685b681f
:1018c4009a4292d3084b00221a75064a0221d1602b
:1018d400db68002b89d0044a1069984785e7014bdf
:0c18e4005b6978e70080024014f34520a7
:020000040000fa
:020000040040ba
:1018f0002de9f04784b00446884601921d464ff01a
:1019000000094e46434f39e02a464146204601f041
:1019100011fb636a73b938b13e4b4ff080521a60c5
:10192000bff34f8fbff36f8f02f04afb012004b06b
:10193000bde8f08704f1240001f048fa0028f3d054
:10194000344b4ff080521a60bff34f8fbff36f8f4d
:10195000eae702f035fb0020e9e702a802f0cefa40
:101960001ae084f8446023e084f8456026e02046cd
:1019700001f032f900f066fa4ff0010902f012fab4
:10198000a26be36b9a42bfd3022dbdd0019b002b0b
:10199000dfd0b9f1000fe0d002f012fb02f04efbf5
:1019a00002f000fa94f844305bb2b3f1ff3fd8d0b4
:1019b00094f845305bb2b3f1ff3fd5d002f000fba5
:1019c00001a902a801f010fde8b902f0ebf9d4f882
:1019d00038a0d4f83c9002f0f3faca45c7d1019977
:1019e00004f1100002f046fa204601f0f5f800f08c
:1019f00029fa0028c0d14ff080533b60bff34f8fce
:101a0000bff36f8fb8e7204601f0e6f800f01afa4e
:081a100000208ce704ed00e06a
:020000040000fa
:020000040040ba
:101a18002de9f04f89461946d9e90153d9f80080d4
:101a2800d9f80ca0002d8bb0a8bf28f00208834677
:101a3800b8bf012518f010009646d2e90067029059
:101a480051d056ea07024ed0981e18f008040394a5
:101a5800d9f8104018bf00f1ff30401b013c4ff08f
:101a6800000c049008f0020005900af804c0a1f1e7
:101a780041000690012c0add56ea070235d1002df7
:101a880033dc049a5019002801dd059a6abb029ad2
:101a980062b1dee9006756ea070207d00aeb0402e2
:101aa800023c02f8011c30220af80420039a1ab1f9
:101ab800013c20220af80420d9f81020cdf8008033
:101ac800013a121b0aeb0401584601f0c0f8dbf892
:101ad8000430db0504d5d9f804309842b8bf18465d
:101ae8000bb0bde8f08f1846afe706f00f00069a76
:101af8000928d4bf30305730192a04f1ff340ed8e2
:101b080040f0200cacf1610cbcf1190f07d8cde9fd
:101b180008e1079302f0ccfadde908e1079b0af82f
:101b28000400300940ea07704fea171c013d0646d9
:041b380067469fe776
:020000040000fa
:020000040040ba
:101b3c002de9f047384b1b68002b67d1374b1f68da
:101b4c0001371f60bfb1364b1b68bb4220d9002543
:101b5c00344b1b68db6a03eb83039b00324ad3587c
:101b6c00022b28bf0125314b1b68002b18bf012508
:101b7c002846bde8f0872e4a11682e4b1868106075
:101b8c0019602d4a13680133136002f023f8dae769
:101b9c000025dff89c80dff8a890dff88ca021e00e
:101bac001f4b4ff0ff321a60d2e71d4a1360cfe78c
:101bbc0004f1180002f0b4f8e06ad9f8002001230f
:101bcc0083401343c9f8003000eb800031460aeb28
:101bdc00800002f0baf9134b1b68e26adb6a9a4286
:101bec0028bf0125d8f800301b68002bd8d0d8f8b6
:101bfc000030db68dc6863689f42d6d3261d304614
:101c0c0002f08ef8a36a002bd2d1d5e70b4a1368e9
:101c1c00013313600025abe76cf445208cf44520b0
:101c2c007cf4452058f4452040f1452090f44520a3
:101c3c005cf4452060f4452080f4452084f4452074
:041c4c0074f44520c7
:020000040000fa
:020000040040ba
:101c5000f8b505464ff4a072002102f0f7f9394ab1
:101c6000936943f001039361936913f0010ffbd073
:101c7000344ca36943f00203a361334a156025f095
:101c8000030189b231480143c4f8a01005f14803ab
:101c9000536023f003039bb20343c4f8b03005f153
:101ca0009003936023f003039bb2c4f8ac3005f1ba
:101cb000d803d36023f003039bb243f08073c4f8ce
:101cc000c03005f59073136123f003039bb243f416
:101cd0008033c4f8f03005f5947353611c4e03ce85
:101ce000c5f82801c5f82c1123f003039bb243f477
:101cf0000033c4f8843005f598769661154f0fcf00
:101d0000c5f83001c5f83411c5f83821c5f83c31a3
:101d100026f00306b6b246f40036c4f888600e49d1
:101d2000d1f814210d4b2b4092b21343c1f814315a
:101d3000a36923f00103a3612246936913f0010f05
:101d4000fbd1f8bd0040034080f345200000018036
:101d5000783d40002c404000008008400000ffff1c
:020000040000fa
:020000040040ba
:101d600010b5314b1c6d314b234043b12e4a1365e6
:101d70002f4b1b681bb12e4a51682046984714f020
:101d8000010f0cd0284b01221a65d3f8a400294b6f
:101d90001b6823b1274a516800f07f00984714f070
:101da000100f0cd0204b10221a65d3f8b400214b31
:101db0009b6823b11f4ad16800f07f00984714f454
:101dc000002f09d0184b4ff400221a65d3f8983031
:101dd00013b113f0010f1ed114f4006f09d0124b90
:101de0004ff400621a65144b1b6813b1124a506815
:101df000984714f4805f0dd00b4b4ff480521a6556
:101e0000d3f8f4000d4b1b6823b10c4a516800f065
:101e10003f00984710bd0a4b1b68002bdcd0084ad6
:101e2000516800209847d7e700400340eee7f7ffee
:101e30001cf4452000f4452034f445202cf44520c2
:041e400024f4452021
:020000040000fa
:020000040040ba
:101e44002de9f04101f0acff2d4b1a68013a1a60fc
:101e54001b68002b4dd12b4b1b680bb9002449e0a8
:101e64000024294e294fdff8b880336803b3f368a0
:101e7400dc6804f1180001f057ff251d284601f025
:101e840053ffe06a3a680123834013433b6000eb4d
:101e94008000294608eb800002f05bf81c4b1b68ad
:101ea400e26adb6a9a42e0d31a4b01221a60dce749
:101eb4000cb101f093fe184b1c686cb1154e012552
:101ec40001e0013c05d0fff737fe0028f9d035606a
:101ed400f7e7114b00221a600e4b1c6854b10f4bec
:101ee4004ff080521a60bff34f8fbff36f8f0124fe
:101ef40000e0002402f062f82046bde8f08100bf53
:101f04006cf4452064f44520c4f3452074f4452062
:101f140058f4452090f4452084f4452004ed00e075
:041f240040f1452023
:020000040000fa
:020000040040ba
:101f28002de9f041304d2c78e4b2052c02d0002088
:101f3800bde8f0811f4614460e460546dff8ac8022
:101f480048220021404602f07df8002365f31c0377
:101f5800c8f80030082c0ed90c2c30d9102c30d9e8
:101f6800142c30d9182c30d9202c30d9312c34bf2e
:101f78000e210f2100e021461c4b9a7961f30302e0
:101f88009a71022f25d07b1edbb2012b26d954b1c2
:101f9800731e1748013c56fa84f113f8012f00f814
:101fa800012f8b42f9d10121124802f02bf80e4b78
:101fb80002221a700d49012001f0eafbb8e7092155
:101fc800dae70a21d8e70b21d6e70c21d4e70d215f
:101fd800d2e71a46db7843f04003d370034a93797b
:101fe80043f030039371d2e7baf44520ccf2452090
:081ff800d3f24520d539400069
:020000040000fa
:020000040040ba
:10200000002a61d02de9f84f8046154620b10128fd
:102010002ed00020bde8f88f2c4bd3f8a440c4f399
:102020000524f1b14f1e5ffa87fb0026dff8a0a060
:102030004ff0480900e01e4604ebc401daf8003016
:102040004a4603ebc101284601f09bffb74208d086
:1020500048350134e4b2012c08bf4446731cb34533
:10206000e9d104f03f04194bc3f8a8400120d1e79f
:10207000164bd3f8b440c4f30524f1b14f1e5ffaf8
:1020800087fa0026dff848904ff0480800e01e4627
:1020900004ebc401d9f80430424603ebc1012846e1
:1020a00001f06fffbe4208d048350134e4b2012c84
:1020b00008bf0024731c5645e9d104f03f04034bcc
:1020c000c3f8b8400120a5e7002070470040034056
:0420d00080f3452034
:020000040000fa
:020000040040ba
:1020d400314b0022c3f81421d3f8141141f44161a7
:1020e400c3f814112d494ff400134b606ff400131f
:1020f4000b604ff0ff334b650b66c1f89030c1f8ad
:10210400a0300a614b618a63c1f8182101f500719e
:1021140010200867486748606ff0100008604b653e
:102124000b66c1f89030c1f8a0300a614b618a6334
:10213400c1f8182101f500710a674ff4a0404867ff
:1021440048606ff4a04008604b650b66c1f890309e
:10215400c1f8a0300a614b618a63c1f8182101f506
:1021640000710b604b650b66c1f89030c1f8a0306c
:102174000a614b618a63c1f8182101f500710b6093
:102184004b650b66c1f89030c1f8a0300a614b6111
:102194008a63c1f81821704700800840000e0e4081
:020000040000fa
:020000040040ba
:1021a40038b5044601f0fcfd002c37d0251d284627
:1021b40001f0bafd70b9e26a02eb82039b00224986
:1021c400cb583bb921480368012101fa02f223ea02
:1021d40002020260a36a1bb104f1180001f0a4fd1d
:1021e4001b4a1368013313601a4b1b68a34218d0af
:1021f400194a1368013b1360206b00f09ef82046d7
:1022040000f09bf801f0eafc01f0d8fe134b1b68c8
:102214001bb1104b1b68a3420cd038bd0d4b1c687e
:10222400c4e729460e4801f094fe0e4a13680133b0
:102234001360e9e70c4b4ff080521a60bff34f8fe5
:10224400bff36f8fe9e700bf40f1452074f44520e8
:1022540070f4452058f4452064f4452088f4452062
:0c226400ecf3452068f4452004ed00e098
:020000040000fa
:020000040040ba
:102270002de9f04f87b001900e46914673b1012bc6
:1022800010d0022b12d0019b002b4bd04fea091922
:102290000027dff898800df1080a15e0234801f0c7
:1022a000b7fdf0e7224801f0b3fdece7214801f06b
:1022b000affde8e708f19c0001f024fd4e44013732
:1022c000ffb2019bbb422dd01b4801f01bfd3468bf
:1022d000b57905f00f0508f140030fcb8ae80f0030
:1022e00006ab1d4415f8105c2b4624f06042b18803
:1022f00008f1500001f08cfd08f1880001f088fd24
:10230000002dd7d0f41d013d06f1080353fa85f5e1
:1023100008f1940b14f8011f584601f079fdac4206
:10232000f8d1c7e707b0bde8f08f00bfa82640008e
:0c233000b4264000c0264000d02640002b
:020000040000fa
:020000040040ba
:02233c007047e8
:020000040000fa
:020000040040ba
:02233e007047e6
:020000040000fa
:020000040040ba
:1023400053ec102bc3f30a512de9f04140f2fd701c
:102350004e1e86421d4644d8a1f2ff30002835dbd0
:10236000332831dc264bc0f120084ff0ff3c03fa44
:1023700008f2a1f21f412cfa00fc10ee104a4ceac0
:10238000020c23fa01f24cea020c23fa00fe04eae2
:102390000c0605ea0e0724ea0c0256ea070425eab1
:1023a0000e030fd0002a73f100040bda4ff48015ee
:1023b00005fa08f425fa01f10c43121925fa00f088
:1023c00040eb030343ec102bbde8f0819fed0a7b4b
:1023d000bfee000b002a73f1000327fe000bbde8df
:1023e000f0810029f0d10a4603f0004343ec102ba2
:1023f000eae700bfaff3008000000000000000002b
:04240000ffff0f00cb
:020000040000fa
:020000040040ba
:102404000d0a4572726f72000d0a46696e2074617e
:102414007265612063616e20310000000d0a466917
:102424006e2074617265612063616e203200000069
:102434004e6f207365207075646f206372656172de
:1024440020656c20626c6f7175656f206d757465a5
:10245400780000004e6f207365207075646f2063f0
:102464007265617220656c20626c6f7175656f2096
:102474006d75746578320d0a0000000054415245b0
:10248400415f43616e31000054415245415f4361f5
:102494006e3200000d0a4573706572616e646f20c0
:0c24a4007465636c612e2e2e000000bfda
:020000040000fa
:020000040040ba
:1024b000244b1b681bb1244b01221a60704710b5d6
:1024c000214b00221a60214b1b681b6b1a68b2f16a
:1024d000a53f03d15a68b2f1a53f23d01b4b186822
:1024e0001968343101f016fd194b1b68b3fa83f3f8
:1024f000dbb2c3f11f03174a9900c81802eb800032
:10250000446864684460194402460832944212d018
:1025100003eb83030f4a02eb83035b68da680b4b20
:102520001a6010bd9a68b2f1a53fd7d1db68b3f14c
:10253000a53fd3d1d8e760680a46064901eb82027d
:102540005060e5e76cf4452090f4452058f44520b0
:0825500074f4452040f1452020
:020000040000fa
:020000040040ba
:10255800002849d038b50446c26a24490968c96abe
:102568008a4238d28169002905db20490968c96a8d
:10257800c1f10501816102eb82021d4901eb820272
:102588006169914205d0194a1268d26ae262012053
:1025980029e0251d284601f0c5fb38b915490b6807
:1025a800e06a0122824023ea02030b600f4b1b689a
:1025b800d86ae0620f4a1168012404fa00f30b4359
:1025c800136000eb80002946094b03eb800001f003
:1025d800befc204607e0054a1268406cd36a984260
:1025e8002cbf0020012038bd0020704758f445203a
:0825f80040f1452074f4452078
:020000040000fa
:020000040040ba
:102600002de9f041d2e900230c4686b007465fea87
:10261000d37820684968a5680590e66841d05242a1
:1026200063eb4303002908db20f002000590b8f1ba
:10263000000f02d1059948072ad5691e05a8029006
:102640000a20cde90010204600f038fcb8f1000f58
:1026500002d1059b59071fd5b8f1000f00f1ff30db
:1026600014bf2d232b2333542269059b0093013a79
:102670002b46121a3118384600f0edfa7b68db055c
:1026800003d563689842b8bf184606b0bde8f0812c
:102690000807d2d42946d1e71a07e5d50138202307
:0826a000e1e70029c0dac5e7fb
:020000040000fa
:020000040040ba
:1026a800205278204649464f30203a002052782060
:1026b8004649464f31203a002052782042756666d6
:1026c8006572203a00000000204e6577204d657342
:1026d800736167652052656365697665640d0000fe
:1026e8000001020304050607080c101418203040e6
:1026f800204d657373616765202d2054696d65737e
:1027080074616d70203a2030782578204944203a49
:102718002030782578204c656e677468203a203020
:1027280078257820000000004d6573736167652087
:102738003a20000030782578200000000d0000bf06
:020000040000fa
:020000040040ba
:10274800882930b534d012dc81293fd003dc8029b8
:102758003cd0002030bd82290ed08429f9d11c68d4
:1027680054f8041b1c60f2b10ab2d3171de0a0296b
:1027780027d00cdc9029ecd11968073121f007012a
:10278800f1e802451960c0e900450120e2e7c029e7
:1027980001d0f029ddd11a68111d19601368036092
:1027a80000234360f1e78ab20023c0e90023ece785
:1027b8001c6854f8041b1c600ab14ab2d5e7cab2b7
:1027c800f2e71a68111d19601268cee719680c1d26
:1027d8001c600ab10a68c8e70b68c0e90032d4e790
:020000040000fa
:020000040040ba
:1027e800224b01229a611a46936913f0010ffbd01c
:1027f8001e4b9a6942f002029a6141f26602da605f
:102808001b4ada6140f27772c3f8bc204ff0ff32fe
:10281800c3f89820c3f89c200722c3f8c8202822b0
:10282800c3f880206ff06042c3f8902001221a623a
:102838009a6942f440729a619a6922f001029a6197
:102848001a46936913f0010ffbd1084a00239365d8
:102858000121d16507495165074a136053609360a8
:10286800d360136153619361704700bf0040034018
:0c287800040d0408ddddcb3f80f345209b
:020000040000fa
:020000040040ba
:10288400f8b504460f464ff0ff31204b1868fef7a9
:10289400ebfe1f4b1b784bb9002400231a46194644
:1028a4001a480068fff722f82046f8bd184b0022aa
:1028b4001a702146174800f04dff174b1b788bb94f
:1028c40013240a26144d304601f068f82b784bb9ce
:1028d400631e13f0ff04f6d10e49384601f004fce0
:1028e4000224dae701f05cfa0a4c2146384601f08a
:1028f400fbfb01f063fb234604f10a02202103f8e9
:10290400011b9342fbd10124c7e700bf94f4452087
:0c291400b9f4452010f445201bf44520c8
:020000040000fa
:020000040040ba
:1029200070b504460e461c4b1d681c4b18680430dd
:1029300001f0fcf948b9194b1a6819490b68d06abb
:102940000122824023ea02030b60b4f1ff3f00d171
:102950006eb92c44114b1b685c60a5420ed9114b1b
:1029600018680e4b1968043101f000f870bd0b4b6c
:10297000196804310c4801f0eefaf7e70b4b1868c0
:10298000064b1968043100f0f1ff094b1b68a342a4
:10299000ecd9074b1c60e9e78cf4452058f445203e
:1029a00074f4452060f44520d8f345205cf44520bc
:0429b0007cf445204e
:020000040000fa
:020000040040ba
:1029b40000b585b01c4801f0b5f81c4c04f1940630
:1029c4001b4d13e01b4b01930423009300234ff48e
:1029d400007204f17c011848fef796fc13e03046bf
:1029e40001f088f840f2dc5000f0d8ff00238df8a5
:1029f4000c3003a90120fff743ff9df80c30202b76
:102a0400edd0312bded09df80c30322bead10b4bbc
:102a140001930423009300234ff4007204f188010e
:102a24002846fef771fcdde700f045200424400051
:102a3400ed3d4000a0f44520452e4000a4f445207f
:020000040000fa
:020000040040ba
:102a4400204b214a9a629a6e12f0020ffbd01d4a63
:102a5400136b23f07003136313469a6e12f0080f7e
:102a6400fbd0184a136b23f4407343f4807313634d
:102a740013469a6e12f0080ffbd0124a136b23f020
:102a8400030343f00203136313469a6e12f0080f14
:102a9400fbd00c4b4ff440525a600021196524219d
:102aa40059651a601a46936e03f44053b3f5405fb8
:102ab400f9d1044b4ff457321a612022c3f8002194
:0c2ac400704700bf00060e40013f1820c4
:020000040000fa
:020000040040ba
:102ad0001e4b1f4a9342f0b438bf002103d203f8c3
:102ae000011b9342fbd11b4ad2e9000150ea0103ca
:102af0004ff0000610d09468034602f10c076cb941
:102b000021b1014403f8016b9942fbd13a46d2e965
:102b1000000150ea0103eed1f0bc704759b101f158
:102b20000c030c38801a1a443b461c1813f8015b3e
:102b300025709342f9d111f0030318bf012303eb71
:102b4000910107eb81073a46e1e700bf0000402012
:082b500000004020900140004c
:020000040000fa
:020000040040ba
:102b5800002838d038b50446426c914238bf114637
:102b6800c26a8a4202d0806c012800d038bde16276
:102b7800a069002802dbc1f10501a16102eb820214
:102b8800114901eb820261699142efd1251d284666
:102b980001f0c8f838b90d490b68e06a0122824093
:102ba80023ea02030b60e06a084a116801238340a4
:102bb8000b43136000eb80002946034b03eb8000b6
:102bc80001f0c5f9d2e7704740f1452074f445207b
:020000040000fa
:020000040040ba
:102bd80070b5054601f0e2f895f8454064b2002c5e
:102be80011dd6b6a7bb105f1240606e001f06efa8f
:102bf800013c64b23cb16b6a2bb1304600f0e2f89c
:102c08000028f5d0f2e7ff2385f8453001f0d4f924
:102c180001f0c4f895f8444064b2002c11dd2b692a
:102c28007bb105f1100606e001f050fa013c64b2f0
:102c38003cb12b692bb1304600f0c4f80028f5d020
:0e2c4800f2e7ff2385f8443001f0b6f970bdc5
:020000040000fa
:020000040040ba
:102c56002de9ff471d460c9b13f0010807468946e0
:102c6600144624d1aa4222da2e1b102e32464ff0e9
:102c7600200128bf10226846b24601f0e4f90f2e63
:102c86001edc4fea1a136ff00f0202fb03a269461d
:102c9600384600f0f6fdb8f1000f04d12246494649
:102ca600384600f0eefd284604b0bde8f08722461f
:102cb6004946384600f0e5fdac42d5db2546f2e74d
:0e2cc60010226946384600f0dcfd103ed7e7cc
:020000040000fa
:020000040040ba
:102cd400002835d038b50446826c013a8264c06a53
:102ce400616c884200d00ab1002038bd251d2846f9
:102cf40001f01af870b9e26a02eb82039b001149f1
:102d0400cb583bb910480368012101fa02f223eac7
:102d140002020260606ce062c0f10503a3610a4a2a
:102d24001168012404fa00f30b43136000eb8000e4
:102d34002946044b03eb800001f00bf92046d4e74d
:0c2d44000020704740f1452074f4452049
:020000040000fa
:020000040040ba
:102d5000842910b523d00cdc812903d0822913d01b
:102d600080290bd119680c1d1c600b6803601a6068
:102d700013e0902921d003dc882917d0002010bd52
:102d8000a029efd0c029ece719680c1d1c600b6866
:102d90000360d1171046c3e900010120efe719686d
:102da0000c1d1c600b6803601a80f6e719680c1d87
:102db0001c600b6803601a70efe719680c1d1c603b
:0c2dc00009680160d317c1e90023e6e7b1
:020000040000fa
:020000040040ba
:102dcc0038b5c368dc6804f11805284600f0a8ff84
:102ddc00134b1b68e3b9251d284600f0a1ffe06ae0
:102dec00104a1168012383400b43136000eb8000f1
:102dfc0029460d4b03eb800001f0a7f80b4b1b6829
:102e0c00e26adb6a9a4208d90120094b186005e096
:102e1c002946084801f099f8f0e7002038bd00bfba
:102e2c006cf4452074f4452040f1452058f44520bd
:082e3c0090f44520c4f3452089
:020000040000fa
:020000040040ba
:102e440010b54ff0ff31174b1868fef70dfc164c08
:102e54005423237049226270a3704f23e37000202f
:102e640000f0a0fb00230422214640f25a40fff761
:102e740059f890b100231a4619460a480068fef72b
:102e840035fd0a4800f036fe094b186820b1fff7fb
:102e940087f9074b00221a6010bd064800f02afe8d
:102ea400e8e700bf98f445209cf445200c2440003a
:082eb400a0f4452004244000b5
:020000040000fa
:020000040040ba
:102ebc002de9f84f04460c9f6668d4f80cb02469d1
:102ecc0010463a68013c002502f0020a0b9a0bf8f6
:102edc000450002e1946b8bf0126012390464fea34
:102eec00e279002c03dcd3b12046bde8f88f50ea20
:102efc00010209d1721b002a06dc0a9a521b002a15
:102f0c00f1ddbaf1000feed042464b4600f01efe4a
:102f1c00013c134630320bf804200135e1e73b68e5
:082f2c0023f010033b60dfe716
:020000040000fa
:020000040040ba
:102f340070b504461646856b026c5ab903681bb11a
:102f440000200135a56370bd8068fff7c1fe002332
:102f5400a360f6e76eb9406801f011f86368226c6b
:102f640013446360a268934219d3236863603046b4
:102f7400e7e7c06801f003f8226c5242e3681344a7
:102f8400e36021688b4202d2a3681a44e2600db167
:102f9400022e01d00020d4e7013d0020d1e73046c5
:022fa400cfe775
:020000040000fa
:020000040040ba
:102fa600f0b50c4649682368a768e56887b000292c
:102fb6000593a4bf23f00203059305ab02930823f0
:102fc600cde900730646d2e900232046fff773ffda
:102fd600059bd90642bf00f1ff3030232b54059bd9
:102fe6001a0742bf00f1ff3020232b542269059bac
:102ff6000093013a3b46121a29183046fff728fe7d
:103006007368db0503d563689842b8bf184607b0f6
:02301600f0bd0b
:020000040000fa
:020000040040ba
:1030180000282dd030b40446174b1b7d53bb164bec
:103028001860596000229a6001221a75134b124adf
:1030380004e09068451c9560205cd861586910f0e0
:10304800020f0fd0906888420cd2586810f4003fe5
:10305800efd09068451c956034f81000c0f3080064
:10306800d861ebe7054b02229a60012030bc70471b
:10307800002070470020f9e714f345200080024043
:020000040000fa
:020000040040ba
:1030880038b504460d4600f089fe2268216ce36bd2
:1030980003fb01f3d018a0600020a06362605b1af4
:1030a8001344e360ff2384f8443084f84530a5b91d
:1030b80023691bb900f080ff012038bd04f110001e
:1030c800fff780fe0028f5d0084b4ff080521a60b9
:1030d800bff34f8fbff36f8fece704f1100000f0e0
:1030e8002bff04f1240000f027ffe3e704ed00e0e4
:020000040000fa
:020000040040ba
:1030f80080b5164c164f174edff860802368bbb1b9
:1031080000f04cfefb68dd68281d00f00bfe3368fc
:10311800013b33602368013b236000f04dff286bbf
:10312800fff709f92846fff706f92368002be7d1ce
:10313800094b1b68012be1d94ff08053c8f80030c8
:10314800bff34f8fbff36f8fd8e700bf68f44520f8
:10315800ecf3452064f4452040f1452004ed00e0ff
:020000040000fa
:020000040040ba
:1031680038b5044610f0070f02d020f007040834e1
:1031780000f060ff124b1b687bb1124b1b681c44ac
:1031880049f6f77294420ed8a3420fd3fef756fec3
:1031980000f0c7fe0025284638bd094a0a4b23f02f
:1031a80007031360e9e7fef749fef1e7044a1568eb
:1031b8001d44044b1c60fef741fe002debd1e7e7f0
:0c31c80050f4452054f44520080040203d
:020000040000fa
:020000040040ba
:1031d40038b505460c46164b196000f013fc10f088
:1031e400070005d0072803d0124b04221a7038bdfb
:1031f40014f0ff0ffbd105ebc5020f4cd2000021e8
:10320400204600f021ff224629460020fef7f6fe64
:1032140018b9084b04221a70e9e700234822214612
:103224002846fff723f8034b03221a70dfe700bf99
:0c323400a8f44520baf445203cf24520e7
:020000040000fa
:020000040040ba
:1032400038b505460c46164b196000f0ddfb10f052
:10325000070005d0072803d0124b04221a7038bd8e
:1032600014f0ff0ffbd105ebc5020f4cd20000217b
:10327000204600f0ebfe224629460120fef7c0fe64
:1032800018b9084b04221a70e9e7012348222146a5
:103290002846fef7edff034b03221a70dfe700bf5d
:0c32a000a8f44520baf4452084f2452033
:020000040000fa
:020000040040ba
:1032ac0000b583b0124b0193002300938022114987
:1032bc001148fef725f8012802d003b05df804fb95
:1032cc004ff0200372b683f31188bff36f8fbff3f7
:1032dc004f8f62b6094b4ff0ff321a60084b012238
:1032ec001a60084b00221a6000f0a8f9e5e700bf4d
:1032fc0078f4452000414000f93040007cf4452032
:08330c0088f445208cf44520f3
:020000040000fa
:020000040040ba
:0c331400014bd8601961704714f345208c
:020000040000fa
:020000040040ba
:10332000eff30980bff36f8f154b1a681ef0100f73
:1033300008bf20ed108a20e9f04f10602de9090048
:103340004ff0200072b680f31188bff34f8fbff3a8
:103350006f8f62b6fff7acf84ff0000080f3118872
:1033600009bc19680868b0e8f04f1ef0100f08bfdc
:10337000b0ec108a80f30988bff36f8f704700bfed
:0433800058f4452098
:020000040000fa
:020000040040ba
:1033840038b505460c46144b196000f03bfb10f0b1
:10339400070005d0072803d0104b04221a7038bd4b
:1033a40014f0ff0ffbd10e4c48220021204600f000
:1033b4004bfe2146284600f067fc18b9074b04224f
:1033c4001a70ece70223482221460120fef74eff43
:1033d400024b03221a70e2e7a8f44520baf4452010
:0433e400f4f145209b
:020000040000fa
:020000040040ba
:1033e80070b504460d4600f0d9fc124b1a682b68dc
:1033f800b3f1ff3f16d061680f480068266886421f
:1034080001d0914213d9501a834203d800232b606c
:10341800012408e09b1a0b442b60204600f06afd4b
:10342800002400e0002400f0c7fd204670bd012400
:0c343800f9e700bf8cf4452080f445202b
:020000040000fa
:020000040040ba
:103444000e4a38b5002313600d4a0e4c13600e4a21
:103454000e4d13600e4a13600e4a13600e4a5362f7
:1034640013610123936000f00ffe00f060feac4294
:1034740000d338bd54f8043b9847f8e7b0f445202e
:10348400b0f1452074014000acf1452078014000c2
:0c349400a4f14520a8f14520b4f145202a
:020000040000fa
:020000040040ba
:1034a000124bd96821f4e0610904090c104a0a435f
:1034b000da60bff35f8f62b6e02183f823100d4a14
:1034c00082f80e134ff48040106082f825132021fb
:1034d00051605a6a42f480225a625a6942f01002dc
:1034e0005a615a6a42f400325a62704700ed00e0b5
:0834f0000000fa0500e100e014
:020000040000fa
:020000040040ba
:1034f8002de9ff41134dd1f80080af88adf80c706d
:1035080006462868029002aca8798df80e00002ab9
:1035180018bf1446d1e901571a461bb9204600f0d6
:1035280099fd0246002d02dbaa4228bf2a46cdf8a3
:1035380000803b4621463046fff789fb04b0bde8d2
:08354800f08100bf18414000b2
:020000040000fa
:020000040040ba
:10355000f0b50c4649682368a668e76887b000297b
:103560000593a4bf23f00203059305ab02930a233e
:10357000cde900630546d2e900232046fff79efc13
:103580002269059b0093013a3346121a39182846de
:10359000fff761fb6b68db0503d563689842b8bf32
:0635a000184607b0f0bd63
:020000040000fa
:020000040040ba
:0235a600fee73e
:020000040000fa
:020000040040ba
:1035a800124b01229a611a46936913f0010ffbd05e
:1035b8000e4b9a6942f002029a6140f281329a6196
:1035c8001a6942f010021a61012809d0074b4ff41a
:1035d80060729a611a46936913f0010ffbd1704724
:1035e8001a469b6943f020039361efe700400340cc
:020000040000fa
:020000040040ba
:1035f80008b5012000f0e4fb0c4b186080b10021f5
:103608000b48fff783fe00210a4800f059fd0a4bda
:1036180003f10a01202203f8012b8b42fbd108bddc
:1036280021210648fff7f4fce9e700bf94f44520a0
:10363800e14040000d3c400010f445202438400093
:020000040000fa
:020000040040ba
:1036480010b50e4b1a6842f460021a601a6842f00c
:1036580060421a6000f03efb0024094b1c6000f039
:10366800a1fc084a136843f04043136000f01efbb6
:10367800fef71aff00f069fb204610bd20ed00e0c0
:083688004cf4452034ef00e092
:020000040000fa
:020000040040ba
:1036900010b50278202a034600f10100f9d0a2f10a
:1036a00009010429f5d92b2a07d02d2a11d101218e
:1036b0000133013b00200a2403e00021f8e76043c6
:1036c000801a13f8012f303a092af8d901b940427b
:0636d00010bd0021ede732
:020000040000fa
:020000040040ba
:0236d600fee70d
:020000040000fa
:020000040040ba
:1036d80010b5054c227832b9044b13b10448aff346
:1036e80000800123237010bd64f345200000000012
:1036f8000000000008b5034b1bb103490348aff3b2
:10370800008008bd0000000068f3452000000000ac
:020000040000fa
:020000040040ba
:103718000d4b4ff486721a6050221a604ff40c62f7
:103728005a6051221a62094b00229a61da611a62c0
:1037380083f82c205a621a605a609a601a75da6007
:1037480083f82d20704700bf0080024014f3452005
:020000040000fa
:020000040040ba
:10375800c0b138b505460c4a92f82c200ab10020b1
:1037680038bd0c4600f00cfa074b002283f82d20d8
:103778009d61dc611a62012083f82c00034be12271
:103788009a60ede70020704714f34520008002405e
:020000040000fa
:020000040040ba
:10379800012815d1a1b138b50a4dd5f8c440c4f3f4
:1037a800044404ebc400084bdb68482203ebc00068
:1037b80000f0e3fb012000fa04f4c5f8d04038bd5e
:0c37c800002070470040034080f34520c3
:020000040000fa
:020000040040ba
:1037d40038b505460b4c4ff0ff312068fdf744ff28
:1037e400284600f039fc01462846fff713fc022165
:1037f4000548fff70ffc00231a4619462068fef718
:0c38040075f838bd94f4452048384000a9
:020000040000fa
:020000040040ba
:103810004572726f7220616c206c65657220555321
:10382000415254004e6f207365207075646f2063a1
:103830007265617220656c20626c6f7175656f20b6
:0c3840006d757465780000000d0a000032
:020000040000fa
:020000040040ba
:10384c0008b50a4b00221a70fff7d0fe0848fff7a4
:10385c00bbff012000f0b2fa064b186000b108bda6
:10386c0024210548fff7d2fbf9e700bfb8f4452047
:0c387c003424400098f4452058244000fb
:020000040000fa
:020000040040ba
:1038880038b5436813f4807f0446154610d00369a1
:1038980040699a4228bf1d462a4600f06efb6269bd
:1038a8005319636123695b1b23610023535538bd9a
:0a38b800db06fcd400f036fcf9e753
:020000040000fa
:020000040040ba
:0238c200fee71f
:020000040000fa
:020000040040ba
:1038c400094b00225a60094ada60094a1a61094917
:1038d4004a6a42f480324a6205225a60bff34f8f2b
:1038e400bff36f8f704700bf90ed00e010f04520ec
:0838f4001700081300ed00e0cd
:020000040000fa
:020000040040ba
:1038fc0007b54a68c0b2d2050b468df8070006d54d
:10390c004a69511c5961107003b05df804fb012227
:10391c000df10701184600f003fc10b19df80700eb
:08392c00f2e74ff0ff30efe776
:020000040000fa
:020000040040ba
:1039340030b50c4a002312f8134024b902eb4303b8
:103944005b78184630bd01680d78a54209bf02ebcb
:10395400430301335b78013114bfdbb201600a2bee
:08396400e9d9eee7c83e40007e
:020000040000fa
:020000040040ba
:10396c0030b40d68b5f1ff3f02d000f1080202e05f
:10397c00026904e01a4653681c68ac42fad95368d1
:10398c004b6099608a605160086103680133036081
:04399c0030bc704784
:020000040000fa
:020000040040ba
:1039a00010b540b90a4b4ff080521a60bff34f8fe9
:1039b000bff36f8f10bd044600f040fb002120468e
:1039c000fef7aefffef73efa0028f3d1eae700bfac
:0439d00004ed00e022
:020000040000fa
:020000040040ba
:1039d40010b50446094b186000f014f810f0070005
:1039e40005d0072803d0064b04221a7010bde4b298
:1039f400012cfbd1024b03221a70f7e7a8f44520ef
:043a0400baf44520ab
:020000040000fa
:020000040040ba
:103a08000a4b586c20f4605020f018004004400c19
:103a18009b6913f0010f08d0044a936923f001034e
:103a28009361936913f0010ffbd170470040034085
:020000040000fa
:020000040040ba
:103a380008b500f0dffafff701f8fef747fb4ff48f
:103a48000043064a5360b03a5360fef7c9fefff7d9
:103a58005ffefff7f7fefff71ffd08bd00190e40d8
:020000040000fa
:020000040040ba
:103a680000b583b0074b01930123009300234ff463
:103a7800806205490548fdf745fcfff713fc03b0d4
:103a88005df804fb48f44520e43e4000f94040005e
:020000040000fa
:020000040040ba
:103a980008b54ff0200372b683f31188bff36f8f18
:103aa800bff34f8f62b6fef745f818b1034b4ff0de
:103ab80080521a60002383f3118808bd04ed00e0ea
:020000040000fa
:020000040040ba
:103ac80070b506460d4601fb00f04830fff748fb8d
:103ad800044648b155b100f148032360e663256404
:103ae80001212046fff7ccfa204670bd0346f4e7d3
:020000040000fa
:020000040040ba
:103af80038b50546094c4ff0ff312068fdf7b2fd97
:103b0800284600f0a7fa01462846fff781fa002365
:103b18001a4619462068fdf7e7fe38bd94f445209b
:020000040000fa
:020000040040ba
:103b280008b5fef791f800220649104600f090f912
:103b380000220549012000f08bf90021034800f01c
:103b480069fa08bdd5314000413240008533400054
:020000040000fa
:020000040040ba
:103b580053b94ab9002908bf00281cbf4ff0ff31ec
:103b68004ff0ff30fcf716bfadf1080c6de904ce3d
:103b7800fdf76afaddf804e0dde9022304b07047d6
:020000040000fa
:020000040040ba
:103b8800094b5b6913f0e00f0dd0074b4ff48072bf
:103b98001a605b6913f0010f05d0034b9a695a69e3
:0c3ba80012f0010ffad1704700800240bb
:020000040000fa
:020000040040ba
:103bb4004ff0807340f8043c21f0010140f8081ce8
:103bc400054b40f80c3c40f8202c6ff0020340f801
:0c3bd400243c4438704700bf533d4000c3
:020000040000fa
:020000040040ba
:103be000084b1b681b6823b9074b4ff0ff321a6064
:103bf0007047044b1b68db68db685a68024b1a602d
:0c3c0000704700bf5cf445207cf44520b8
:020000040000fa
:020000040040ba
:103c0c0008b500f0c3f918b9054b01221a7008bdac
:103c1c00044b01221a7014210348fff7f7f9f6e759
:0c3c2c001bf445201af44520103840001d
:020000040000fa
:020000040040ba
:103c380070b5002902fb01f614460d4618bf14465c
:103c480001463246184608bf002400f06bfa864247
:0a3c580018bfb0fbf5f4204670bd64
:020000040000fa
:020000040040ba
:103c6200802910db812901dd83290cd113680733f8
:103c720023f0070303f108011160d3e90023c0e92f
:0a3c82000023012070470020704766
:020000040000fa
:020000040040ba
:103c8c0060b959b108b508464822054b996800f04f
:103c9c0072f90120034bc3f8980008bd002070474f
:083cac0080f3452000400340b5
:020000040000fa
:020000040040ba
:103cb40008480068006880f308884ff0000080f32b
:103cc400148862b661b6bff34f8fbff36f8f00df06
:083cd40000bf000008ed00e054
:020000040000fa
:020000040040ba
:103cdc00054b00221a6005490a60054a0549116026
:103cec0007221a60704700bf10e000e018e000e007
:083cfc0014e000e0df93040076
:020000040000fa
:020000040040ba
:103d040010b5084c2368196800f092f8002807db06
:103d140023680a20196800f0f5f9c00f404210bd6d
:083d24000120fbe760f34520dc
:020000040000fa
:020000040040ba
:103d2c000369416882688a60416851605a688242be
:103d3c0006d0002202611a68013a1a6018687047ae
:063d4c0082685a60f5e7f1
:020000040000fa
:020000040040ba
:103d520082b0002301934ff0200372b683f31188df
:103d6200bff36f8fbff34f8f62b6019b002bfcd066
:043d720002b07047e4
:020000040000fa
:020000040040ba
:023d7600fee766
:020000040000fa
:020000040040ba
:083d78006904690c00005a3ccb
:020000040000fa
:020000040040ba
:103d8000074b19680868b0e8f04f80f30988bff363
:103d90006f8f4ff0000080f311887047aff3008001
:043da00058f445206e
:020000040000fa
:020000040040ba
:103da4004ff0200372b683f31188bff36f8fbff314
:103db4004f8f62b6024a136801331360704700bf25
:043dc4004cf4452056
:020000040000fa
:020000040040ba
:103dc80010b5024600210120fff77afe044638b1fb
:103dd800002181600160c1600b460a46fdf784fd41
:043de800204610bda4
:020000040000fa
:020000040040ba
:103dec0008b50648fff782fe054b186820b1fef7b0
:103dfc00d3f9034b00221a6008bd00bf20244000f9
:043e0c00a4f44520b5
:020000040000fa
:020000040040ba
:103e10000fb407b5064b04aa1b6852f8041b1868b8
:103e2000019200f043f803b05df804eb04b0704772
:043e300060f34520d6
:020000040000fa
:020000040040ba
:103e340070b50e46054600f00ff9334604460246b7
:103e440001212846fff7f6fe001b18bf4ff0ff3094
:023e540070bd3f
:020000040000fa
:020000040040ba
:023e5600fee785
:020000040000fa
:020000040040ba
:103e580010b429b1044b43f8301003ebc0035a6087
:0c3e68005df8044b704700bf00f44520db
:020000040000fa
:020000040040ba
:103e740010b50c46044b19681831fff775fd012184
:0c3e84002046fef74bfd10bd58f4452011
:020000040000fa
:020000040040ba
:103e9000054b1b6823b1044b1a68936c0133936480
:0c3ea000014b1868704700bf58f4452023
:020000040000fa
:020000040040ba
:103eac0013b50446019201aafcf752ff636813f0a4
:0c3ebc00100f18bf4ff0ff3002b010bd17
:020000040000fa
:020000040040ba
:103ec80068076c094c836a9074a07ac0008068887f
:103ed80000846c820081286e696c29005441524527
:103ee800415f5052494e434950414c5f5461736b96
:043ef800730000bf94
:020000040000fa
:020000040040ba
:103efc00034b1b680360034b1b684360704700bf98
:083f0c0080f445208cf44520ef
:020000040000fa
:020000040040ba
:103f14004ff0200372b683f31188bff36f8fbff3a2
:063f24004f8f62b6fee7bc
:020000040000fa
:020000040040ba
:103f2a004ff0200372b683f31188bff36f8fbff38c
:063f3a004f8f62b6fee7a6
:020000040000fa
:020000040040ba
:103f400000f1080343604ff0ff328260c3600361f9
:063f50000023036070472e
:020000040000fa
:020000040040ba
:103f560043684b609a688a6051609960086103689b
:063f660001330360704707
:020000040000fa
:020000040040ba
:103f6c0010b50446fff718ffa46b00f023f8b4fa61
:063f7c0084f0400910bdb5
:020000040000fa
:020000040040ba
:103f820010b5431e0a44914200d110bd11f8014bf5
:063f920003f8014ff7e700
:020000040000fa
:020000040040ba
:103f9800034b93f82d00002283f82d20704700bfb3
:043fa80014f34520a9
:020000040000fa
:020000040040ba
:103fac00dff80c00016841f47001016070470000fb
:043fbc0088ed00e0ac
:020000040000fa
:020000040040ba
:103fc000034a1368013b13600bb983f311887047f0
:043fd0004cf4452048
:020000040000fa
:020000040040ba
:103fd40008b500f09bf8024b1860586008bd00bf9c
:043fe4003cf4452044
:020000040000fa
:020000040040ba
:103fe800034611f8012b184603f8012b002af8d1d3
:023ff800704710
:020000040000fa
:020000040040ba
:023ffa00fee7e0
:020000040000fa
:020000040040ba
:103ffc00014b024a1a607047000c0e400006000488
:020000040000fa
:020000040040ba
:10400c0010b1024b18605960704700bf34f4452062
:020000040000fa
:020000040040ba
:10401c0010b1024b18605960704700bf24f4452062
:020000040000fa
:020000040040ba
:10402c00a50000f000000000960000509600001063
:020000040000fa
:020000040040ba
:10403c00024a136801331360704700bf6cf44520cb
:020000040000fa
:020000040040ba
:10404c0002440346934200d1704703f8011bf9e781
:020000040000fa
:020000040040ba
:10405c0003461a46013311780029fad1101a704719
:020000040000fa
:020000040040ba
:10406c00494e4600696e66004e414e006e616e0010
:10407c00494e4600696e66004e414e006e616e0000
:020000040000fa
:020000040040ba
:10408c0008b5fff7a1ff00f04ff800f04df808bda0
:020000040000fa
:020000040040ba
:0e409c0008b50020fff7cafcfff7e0fcfce7c8
:020000040000fa
:020000040040ba
:0e40aa00a0f14103192b98bf40f02000704791
:020000040000fa
:020000040040ba
:0e40b800a0f16103192b98bf00f05f00704764
:020000040000fa
:020000040040ba
:0240c600fee713
:020000040000fa
:020000040040ba
:0c40c800014b58629962704714f34520c8
:020000040000fa
:020000040040ba
:0c40d400014b01221a60704790f4452057
:020000040000fa
:020000040040ba
:0c40e000014b01221a707047b9f4452012
:020000040000fa
:020000040040ba
:0c40ec0010b50446fff77aff204610bd17
:020000040000fa
:020000040040ba
:0840f80008b5fef75bfcfce7d4
:020000040000fa
:020000040040ba
:0841000049444c45000000bfda
:020000040000fa
:020000040040ba
:0841080008b5fff7f7fb08bd45
:020000040000fa
:020000040040ba
:084110000048704744f345200c
:020000040000fa
:020000040040ba
:07411800286e756c6c290094
:020000040000fa
:020000040040ba
:064120004ff0ff30704774
:020000040000fa
:020000040040ba
:0641260000230361704755
:020000040000fa
:020000040040ba
:06412c000068fff7f7bf79
:020000040000fa
:020000040040ba
:04413200704770471b
:020000040000fa
:02000004d0002a
:0400000002000000fa
:00000001FF
