:020000040000fa
:020000040040ba
:10000000f8ef452099104000cf3240000337400000
:10001000a73b4000033c4000093c400000000000ba
:100020000000000000000000000000002138400037
:10003000f339400000000000d12d40006135400040
:100040000b3140000b3140000b3140000b314000c0
:100050000b3140000b3140000b3140000b314000b0
:100060000b314000000000000b3140000b3140001c
:100070000b3140000b3140001d0f40000b314000a0
:100080000b3140000b3140000b3140000b31400080
:100090000b3140000b3140000b3140000b31400070
:1000a0000b3140000b3140000b3140000b31400060
:1000b0000b3140000b3140000b3140000b31400050
:1000c0000b3140000b3140000b3140000b31400040
:1000d0000b314000191a40000b3140000b31400039
:1000e0000b3140000b3140000b3140000b31400020
:1000f0000b3140000b3140000b3140000b31400010
:100100000b3140000b3140000b3140000b314000ff
:100110000b3140000b3140000000000000000000e7
:100120000b3140000b3140000b3140000b314000df
:100130000b3140000b314000000000000b3140004b
:100140000b3140000b3140000b3140000b314000bf
:100150000b3140000b3140000b3140000b314000af
:080160000b3140000b3140009f
:020000040000fa
:020000040040ba
:10016800f8b500bff8bc08bc9e467047f5324000a1
:10017800f8b500bff8bc08bc9e467047d1324000b5
:020000040000fa
:020000040040ba
:080188004c070000010000001b
:020000040000fa
:020000040040ba
:1001900094f445201c0000000000000040f54520bc
:1001a0000800000000000000b0f445201c00000022
:1001b0000000000048f54520080000000000000095
:1001c00030f54520100000000000000050f54520eb
:1001d000080000000000000058f54520080000005d
:1001e0000000000040f145208000000000000000f9
:1001f000c0f14520800000000000000014f44520fc
:10020000400000000000000068f5452004000000e8
:10021000000000006cf54520040000000000000014
:1002200070f545200400000001000000aaaaaaaa57
:1002300074f545200400000000000000000040208c
:1002400000a000000000000078f545200400000038
:10025000000000007cf545200400000000000000c4
:1002600080f54520040000000000000084f54520d2
:10027000040000000000000040f24520640000007f
:100280000000000088f54520040000000000000088
:100290008cf54520040000000000000090f545208a
:1002a000040000000000000094f545200400000058
:1002b0000000000098f54520040000000000000048
:1002c000ccf445201400000000000000e0f44520bc
:1002d00014000000000000009cf545200400000010
:1002e00000000000a0f54520040000000000000010
:1002f000a4f545200400000000000000a8f54520fa
:100300000400000000000000f4f445201400000088
:1003100000000000acf545200400000000000000d3
:1003200008f5452014000000000000001cf54520e1
:100330001400000000000000b0f54520040000009b
:1003400000000000b4f5452004000000000000009b
:10035000b8f545200400000000000000e2f545204b
:100360000100000000000000e4f54520010000004d
:1003700000000000bcf54520040000000000000063
:10038000c0f545200400000000000000f4f2452004
:1003900048000000000000003cf345204800000039
:1003a0000000000084f34520480000000000000029
:1003b000c4f545200400000000000000e3f54520de
:1003c0000100000000000000e0f5452002000000f0
:1003d00000000000ccf345204800000000000000b1
:1003e000c8f545200400000000000000e5f54520a8
:1003f000010000000100000005000000ccf54520d0
:100400000400000000000000e6f5452001000000a7
:1004100000000000e7f5452001000000000000009a
:1004200060f54520080000000000000054f445205d
:100430004000000000000000d0f54520040000004e
:1004400000000000e8f54520010000000000000069
:10045000e9f54520010000000000000000f0452003
:10046000400100000100000000000000000000004a
:10047000000000000000000000000000000000007c
:10048000000000000000000000000000000000006c
:10049000000000000000000000000000000000005c
:1004a000000000000000000000000000000000004c
:1004b000000000000000000000000000000000003c
:1004c000000000000000000000000000000000002c
:1004d000000000000000000000000000000000001c
:1004e000000000000000000000000000000000000c
:1004f00000000000000000000000000000000000fc
:1005000000000000000000000000000000000000eb
:1005100000000000000000000000000000000000db
:1005200000000000000000000000000000000000cb
:1005300000000000000000000000000000000000bb
:1005400000000000000000000000000000000000ab
:10055000000000000000000000000000000000009b
:10056000000000000000000000000000000000008b
:10057000000000000000000000000000000000007b
:10058000000000000000000000000000000000006b
:10059000000000000000000000000000000000005b
:1005a0000000000000000000d4f545200400000019
:1005b00000000000a4f245205000000000000000f0
:1005c000d8f545200400000000000000dcf54520bf
:1005d0000400000000000000000000000000000017
:020000040000fa
:020000040040ba
:1005e0002de9f04fadb00027dff8e4a203910646f5
:1005f0001546b8464ff0ff3903990b78002b00f0f1
:10060000f9800cabcde907890a938023cdf82480cb
:100610000b9300240b5d0bb1252b26d134b1224660
:10062000304603f0d2f8039b23440393039b1a78cc
:10063000252a40f0d78003f1010bcdf80cb00398c8
:1006400003782b2b1ad025d8202b1bd0232b1dd081
:100650002a2b27d002f018fe0990039b1a78303a13
:10066000092a2ed801330393f7e70134d2e7079b19
:1006700043f00103013007930390e0e7079b43f049
:100680000403f7e7079b43f00803f3e7079b43f0f6
:100690001003efe72d2bead0302bd9d1079b43f085
:1006a0000203e7e72b681a1d1b682a600130002b44
:1006b0000390099305da079a5b4282f001020792e0
:1006c0000993079bda0744bf23f002030793039bb8
:1006d0001a782e2a0dd1581ccdf8208003905a7814
:1006e0002a2a25d1023303932b681a1d1b682a601e
:1006f000089303a802f082fe039b0190187803f090
:1007000044fa6928019979d032dc632800f0c68068
:1007100019dc252800f0d080612853d025238df8de
:100720001030cdf80cb0cdf81c80cde90898c0e0b1
:1007300002f0aafd0890039b1a78303a092ad8d80b
:1007400001330393f7e7642858d06728e6dc2a468c
:1007500004a802f0c1ff002800f09c80039b5a1cf3
:1007600003921b7804aa07a9304603f048fa38e040
:10077000702873d015dc6e2800f087806f28cdd1eb
:100780002b46002204a801f073fd002800f08280af
:10079000039b04aa013307a93046039302f05ff9d3
:1007a0001fe075283ad0782848d07328b6d1802920
:1007b00070d1039b2a6801330393131d2b601268c9
:1007c00000235be02a4604a802f086ff002861d0df
:1007d000039b5a1c03921b7804aa07a9304603f016
:1007e0000efa04443c44a7426edd384b4f221a6097
:1007f0004ff0ff3738462db0bde8f08f2b46012271
:1008000004a801f035fd002844d0039b04aa01335d
:1008100007a93046039301f085fce2e72b4600224e
:1008200004a801f025fd002834d0039b04aa01335d
:1008300007a93046039302f03dfcd2e72b46002285
:1008400004a801f015fd28b3039b5a1c03921b78e2
:1008500004aa07a9304600f0b5fec2e72b460022e5
:10086000f02104a801f004fda0b1039b0133039320
:10087000dde90423134306d10023524607a930467d
:1008800002f0ecfbade77823e2e72b463a1904a827
:1008900001f0f6ff039b01330393a3e78029f9d10d
:1008a000039b013303932b681a1d1b682a608df884
:1008b0001030012304aae1e78029ebd1039b8df8d6
:1008c000100001330393f4e7274695e6dcf5452055
:0408d000b6394000f5
:020000040000fa
:020000040040ba
:1008d4002de9f04f099f154604468e461e46002b0f
:1008e40040f0cc808a42b2fa82fc4cd9bcf1000fb1
:1008f4000bd0ccf1200801fa0cfe20fa08f802fa19
:100904000cf548ea0e0e00fa0cf44fea15491ffaea
:1009140085f8befbf9fa210c09fb1ae30afb08fb74
:1009240041ea03439b452ad9eb180af1ff3004d26c
:100934009b4502d9aaf102002b44a3eb0b03a4b2fa
:10094400b3fbf9f209fb123302fb08f844ea03444f
:10095400a04516d92c1902f1ff3303d2a04501d9c1
:10096400931e2c44a4eb080443ea004027b124fa64
:100974000cf400233c607b603146bde8f08f5046a8
:10098400dbe71346eee702b9ffdebcf1000f2ed120
:100994008b1a01264fea154eaab2b3fbfef8210cbe
:1009a4000efb183308fb02f941ea0343994561d968
:1009b400eb1808f1ff3004d2994502d9a8f10200de
:1009c4002b44a3eb0903a4b2b3fbfef10efb1133da
:1009d4004a4344ea0344a2424ed92c1901f1ff339d
:1009e40003d2a24201d98b1e2c44a41abce7ccf139
:1009f400200e02fa0cf521fa0ef901fa0cf320fa92
:100a04000efe4eea03034fea154800fa0cf4b9fb54
:100a1400f8f11ffa85fe08fb1192180c01fb0ef683
:100a240040ea0242964221d9aa1801f1ff3003d2ca
:100a3400964201d9881e2a44921b9bb2b2fbf8f954
:100a440008fb192209fb0efe43ea02439e450fd917
:100a5400eb1809f1ff3604d29e4502d9a9f102062a
:100a64002b44a3eb0e0346ea004693e70846e3e76c
:100a74004e46f6e74046a4e70b46b6e78b4206d956
:100a8400002f7ed00026c7e90001304674e7b3fa90
:100a940083fcbcf1000f0fd18b4201d3824209d8f1
:100aa400841a61eb030e0120002f6dd0c7e9004ebc
:100ab400002661e76046f7e7ccf1200e03fa0cf359
:100ac40022fa0ef521fa0ef41d4301fa0cf320fa72
:100ad4000ef10b434fea154a00fa0cf6b4fbfaf98f
:100ae4001ffa85f80afb19401c0c09fb08f144eabb
:100af4000044a14202fa0cf23fd92c1909f1ff304b
:100b040004d2a14202d9a9f102002c44641a9bb276
:100b1400b4fbfaf90afb194409fb08f843ea044157
:100b240088452cd9691809f1ff3304d2884502d9c4
:100b3400a9f10203294443ea0040a1eb0801a0fb08
:100b440002894945c2464c4602d306d1464504d2e1
:100b5400b8eb020a69eb05040138afb1b6eb0a033e
:100b640061eb040606fa0efe23fa0cf34eea0303c5
:100b740026fa0cf6c7e900369ae74846c6e74b461c
:0c0b8400d9e73e463846f7e63e46f5e667
:020000040000fa
:020000040040ba
:100b90002de9f84f80460e4699469500284602f00a
:100ba00007f8002800f0c1800746542002f000f842
:100bb0000446002857d007632a46a521384602f08c
:100bc000cdff276b002e54d0337884f8343053b1e6
:100bd000334604f134010f3613f8012f01f8012fc9
:100be0000ab1b342f8d1002384f843300a9e042ea0
:100bf00028bf0426e66266644ff0000bc4f848b0d4
:100c000004f1040a504602f0f7ff04f1180002f064
:100c1000f3ff2461c6f10506a6616462c4f84cb016
:100c200084f850b0043d3d444a46414625f0070053
:100c300002f026fd20600b9b03b11c6002f002fe57
:100c40003e4a1368013313603d4b1b68abb13d4b0b
:100c50001b68bbb93a4b1b68da6ae36a9a4211d83f
:100c6000374b1c600ee0384602f0d0ff4ff0ff30eb
:100c70005de0002384f83430b8e7314b1c60136822
:100c8000012b28d0304a136801331360e06a2f4ae1
:100c90001168012383400b43136000eb8000514631
:100ca0002b4b03eb800002f0eafe02f01dff254b08
:100cb0001b68002b3dd0224b1b68da6ae36a9a421c
:100cc00039d2244b4ff080521a60bff34f8fbff3dd
:100cd0006f8f01202be01e4d284602f0c5fe05f166
:100ce000140002f0c1fe05f1280002f0bdfe05f17e
:100cf0003c0002f0b9fe05f1500002f0b5fe164ec0
:100d0000304602f0b1fe154d284602f0adfe144803
:100d100002f0aafe134802f0a7fe134802f0a4fe58
:100d2000124b1e60124b1d60ace74ff0ff30bde868
:100d3000f88f0120fbe70120f9e700bf88f5452087
:100d40007cf54520acf5452094f5452098f54520e7
:100d500040f2452004ed00e0ccf44520e0f44520cd
:100d6000f4f445201cf5452008f5452080f5452084
:040d700084f54520a1
:020000040000fa
:020000040040ba
:100d74002de9f84f0a9f9df82ca05f4c2478e4b22b
:100d8400012c05d05c4c2478e4b2022c40f0ab80fa
:100d94001c461646884605464ff0ff31574b1868e7
:100da40000f036fa564a82f8008056704fea162b45
:100db40082f802b0d4703b7813717b785371bb789e
:100dc4009371fb78d371baf1000f0bd105f5c060b4
:100dd400002308224a4900f001ff30b901242046cb
:100de400bde8f88f05f5b060f2e702f0ddf90446de
:100df4000128f4d0baf1000f6cd1424a4249434869
:100e040002f066fd20b1d0460924dff808914de0d8
:100e140000231a4619463948006800f03dfb0224b5
:100e2400dde705f5b065394b1b689d420ad0032404
:100e340002f0befe00231a4619463048006800f04e
:100e44002bfbcce7304b1978a1f14303dbb21d2b0c
:100e54004bd82f4a22fa03f313f0010f47d060292d
:100e640047d0294b5b78f6b2b34201d00324dfe7c5
:100e7400254b9b785b4501d00324d9e7224b1a7993
:100e84003a705a797a709a79ba70db79fb70544661
:100e9400cee70224a31edbb2012bc9d9002cc7d094
:100ea400b8f1090f12d8012002f0dcfa02f06afa54
:100eb40089f8000099f80030dbb2012bb1d0032b84
:100ec400e7d008f101085ffa88f8e3e702f070fe62
:100ed4000224afe700231a4619460848006800f0c8
:100ee400dbfa00247be7042479e70324a0e7032446
:100ef4009ee754469ce700bfe9f54520ccf5452024
:100f040060f54520e8f5452054f44520d0f545200a
:080f140001110020e7f5452062
:020000040000fa
:020000040040ba
:100f1c00f8b55a4b5b6913f0e0030ad1574b5b6988
:100f2c0013f0010f20d1554b5b6913f0020f67d101
:100f3c00f8bddbb2524a82f83d30504b4ff4807210
:100f4c001a605b6913f0010f05d04c4b9a695a6912
:100f5c0012f0010ffad14a4b1b6a002bded0484a23
:100f6c00516a02209847d9e7444e454c46e0226a24
:100f7c00002a31d0616a38469047a36a0133226b4c
:100f8c00934228bf002327e0a16a3e48425430e038
:100f9c0002f0d6fc236a002b30d094f83c2032b1fe
:100fac00a26b90422ad3616a0020984726e0a26b7c
:100fbc00904223d1616a002098471fe0736913f0b7
:100fcc00010fb0d0b569a36a0133226b934228bfdd
:100fdc000023e26a9a42cad0e26a9a42eed0c5f382
:100fec000802716811f4003fced0a06a254921f89f
:100ffc001020a36294f83430002bc9d10127dde70f
:10100c001e4d1f4c204e6b6913f0020f90d0e368fd
:10101c00a26893422dd06a6812f4003f03f10102da
:10102c0014bf36f81330f35c2169914298bf00224b
:10103c00e2606a6812f4003f14bfc3f30803dbb22a
:10104c00eb61237d002bded002f034fd2368002bf6
:10105c00d9d0227f32b1a2699042d4d361680320e7
:10106c009847d0e7a2699042cdd161680320984798
:10107c00c9e7024b0222da605ae700bf0080024047
:0c108c0014f4452040f14520c0f145203f
:020000040000fa
:020000040040ba
:1010980008b5504b9847504b9847eff3108172b6fc
:1010a8004e4ad2f8883043f47003c2f88830bff350
:1010b8004f8fbff36f8f01b962b6494b494a5a60e7
:1010c8009a6812f0010ffbd0454bdb6813f4c07f20
:1010d80013d0454b0c221a60414b444a5a609a6817
:1010e80012f0010ffbd03e4b414a5a609a6812f049
:1010f800010ffbd03f4b404a1a60bff34f8fbff33d
:101108006f8f364cd4f8903223f00103c4f8903234
:10111800d4f8943223f00103c4f89432bff34f8f0c
:10112800bff36f8f01f068fa344b23f07f03a3609d
:10113800334b984702f042f9636913f4003f12d128
:10114800bff34f8fbff36f8f0022c4f85022bff355
:101158004f8fbff36f8f626942f400326261bff351
:101168004f8fbff36f8f1d4b5b6913f4803f29d1fd
:101178001a4b0022c3f88420bff34f8fd3f8803076
:10118800c3f3c906c3f34e335a0143f6e075134857
:1011980002ea0504334644ea8371c0f86012013b51
:1011a800b3f1ff3ff7d1203a12f1200ff0d1bff38e
:1011b8004f8f0a4a536943f480335361bff34f8f0b
:1011c800bff36f8f0f4b98470f4b984702f0d2fc35
:1011d800fee700bf0b3c40000b3c400000ed00e088
:1011e800000c0e400d00005a68f545200c08005a06
:1011f8000c07005a00180e40010000a5000040002e
:0c120800512f40000b3c40000b3c40000c
:020000040000fa
:020000040040ba
:101214002de9f04184b0044601914ff000084646a0
:101224004546504f49e0013ba36323684bb1236912
:101234005bb902f057fc4ff00108404604b0bde82a
:10124400f08102f09dfba060f1e704f1100001f0d1
:1012540053fb0028edd0434b4ff080521a60bff38c
:101264004f8fbff36f8fe4e702f03cfc4ff00008b0
:10127400e3e702a802f0d4fb29e084f8445032e00a
:1012840084f8455035e002f0dbfaa06800f0a0fed7
:10129400804602f027fc3ce0204601f033fa00f0df
:1012a4002bfc09e0204601f02dfa00f025fc204635
:1012b40002f0eefb002840d1012602f0c1faa36b34
:1012c400002bb0d1019b002bced0002ed1d002f048
:1012d40009fc02f031fc02f0b3fa94f844305bb23a
:1012e400b3f1ff3fc9d094f845305bb2b3f1ff3f8f
:1012f400c6d002f0f7fb01a902a801f0f9fd00280d
:10130400d0d1204602f0c4fb0028c5d02368002bae
:10131400b9d0019904f1240002f024fb204601f025
:10132400f1f900f0e9fb0028c6d14ff080533b608f
:10133400bff34f8fbff36f8fbee7b8f1000f3ff4d9
:101344007caf02f07dfa616a19b1236b1968c1f1af
:101354000501a06801f096f902f0c4fb4ff0000803
:081364006be700bf04ed00e09f
:020000040000fa
:020000040040ba
:10136c002de9f04f87b000900e46144683b1012b47
:10137c0012d0022b14d0009b002b77d023010193a9
:10138c004ff0000adff8f090dff800b1394f18e0a9
:10139c00394802f00ff9eee7384802f00bf9eae7aa
:1013ac00374802f007f9e6e709f1980001f0c8ffa9
:1013bc00019b1e440af1010a5ffa8afa009b53450d
:1013cc0054d0304801f0bcff02f036faf37813f039
:1013dc00400f336814bfc3f31c03c3f38a43cbf829
:1013ec000030b47904f00f0409f140030fcb06adc3
:1013fc0005e90f002c4414f8104c3c70224db388b6
:10140c002b8002f06bfb09f1500002f0d3f8288816
:10141c0002f0d0f809f16c0002f0ccf8dbf8000017
:10142c0002f0c8f809f1780002f0c4f8387802f03c
:10143c00c1f809f1880002f0bdf8002cb4d009f114
:10144c009408651eedb23878041be4b202f0f4f98e
:10145c0002f044fb404602f0adf804f108003044c1
:10146c0002f0a8f82c46002debd19de707b0bde8a3
:10147c00f08f00bfe3f54520ac234000b8234000bb
:10148c00c4234000d4234000e0f54520c4f545209a
:020000040000fa
:020000040040ba
:10149c002de9f04784b00446884601921d464ff072
:1014ac0000094e46434f39e02a464146204601f09a
:1014bc0097fa636a73b938b13e4b4ff080521a6099
:1014cc00bff34f8fbff36f8f02f008fb012004b006
:1014dc00bde8f08704f1240001f00afa0028f3d0eb
:1014ec00344b4ff080521a60bff34f8fbff36f8fa6
:1014fc00eae702f0f3fa0020e9e702a802f08cfa1e
:10150c001ae084f8446023e084f8456026e0204625
:10151c0001f0f4f800f0ecfa4ff0010902f08cf94c
:10152c00a26be36b9a42bfd3022dbdd0019b002b63
:10153c00dfd0b9f1000fe0d002f0d0fa02f0f8fae7
:10154c0002f07af994f844305bb2b3f1ff3fd8d093
:10155c0094f845305bb2b3f1ff3fd5d002f0befa40
:10156c0001a902a801f0c0fce8b902f065f9d4f8b1
:10157c0038a0d4f83c9002f0b1faca45c7d1019911
:10158c0004f1100002f0eaf9204601f0b7f800f07f
:10159c00affa0028c0d14ff080533b60bff34f8fa0
:1015ac00bff36f8fb8e7204601f0a8f800f0a0fa5f
:0815bc0000208ce704ed00e0c3
:020000040000fa
:020000040040ba
:1015c4002de9f04f89461946d9e90153d9f800802d
:1015d400d9f80ca0002d8bb0a8bf28f002088346d0
:1015e400b8bf012518f010009646d2e900670290b2
:1015f40051d056ea07024ed0981e18f008040394fe
:10160400d9f8104018bf00f1ff30401b013c4ff0e7
:10161400000c049008f0020005900af804c0a1f13f
:1016240041000690012c0add56ea070235d1002d4f
:1016340033dc049a5019002801dd059a6abb029a2a
:1016440062b1dee9006756ea070207d00aeb04023a
:10165400023c02f8011c30220af80420039a1ab151
:10166400013c20220af80420d9f81020cdf800808b
:10167400013a121b0aeb0401584601f082f8dbf828
:101684000430db0504d5d9f804309842b8bf1846b5
:101694000bb0bde8f08f1846afe706f00f00069ace
:1016a4000928d4bf30305730192a04f1ff340ed83a
:1016b40040f0200cacf1610cbcf1190f07d8cde956
:1016c40008e1079302f066fadde908e1079b0af8ee
:1016d4000400300940ea07704fea171c013d064632
:0416e40067469fe7cf
:020000040000fa
:020000040040ba
:1016e8002de9f047384b1b68002b67d1374b1f6833
:1016f80001371f60bfb1364b1b68bb4220d900259c
:10170800344b1b68db6a03eb83039b00324ad358d4
:10171800022b28bf0125314b1b68002b18bf012560
:101728002846bde8f0872e4a11682e4b18681060cd
:1017380019602d4a13680133136001f0b3ffdae72b
:101748000025dff89c80dff8a890dff88ca021e066
:101758001f4b4ff0ff321a60d2e71d4a1360cfe7e4
:1017680004f1180002f01af8e06ad9f80020012301
:1017780083401343c9f8003000eb800031460aeb80
:10178800800002f078f9134b1b68e26adb6a9a4220
:1017980028bf0125d8f800301b68002bd8d0d8f80e
:1017a8000030db68dc6863689f42d6d3261d30466c
:1017b80001f0f4ffa36a002bd2d1d5e70b4a1368d6
:1017c800013313600025abe790f54520b0f54520bf
:1017d800a0f545207cf5452040f24520b4f545208c
:1017e80080f5452084f54520a4f54520a8f5452039
:0417f80098f54520fb
:020000040000fa
:020000040040ba
:1017fc00f8b505464ff4a072002102f0a9f9394a58
:10180c00936943f001039361936913f0010ffbd0cb
:10181c00344ca36943f00203a361334a156025f0ed
:10182c00030189b231480143c4f8a01005f1480303
:10183c00536023f003039bb20343c4f8b03005f1ab
:10184c009003936023f003039bb2c4f8ac3005f112
:10185c00d803d36023f003039bb243f08073c4f826
:10186c00c03005f59073136123f003039bb243f46e
:10187c008033c4f8f03005f5947353611c4e03cedd
:10188c00c5f82801c5f82c1123f003039bb243f4cf
:10189c000033c4f8843005f598769661154f0fcf58
:1018ac00c5f83001c5f83411c5f83821c5f83c31fc
:1018bc0026f00306b6b246f40036c4f888600e492a
:1018cc00d1f814210d4b2b4092b21343c1f81431b3
:1018dc00a36923f00103a3612246936913f0010f5e
:1018ec00fbd1f8bd00400340b0f44520000001805e
:1018fc00d83b40002c3b4000008008400000ffff1c
:020000040000fa
:020000040040ba
:10190c004573637269747572612045504f5334206e
:10191c004f4b000046616c6c6f2065736372697489
:10192c007572612045504f533400000046696e209b
:10193c0074617265612063616e20310046696e20ae
:10194c0074617265612063616e20320043414e6f99
:10195c0070656e2077617320696e697469616c695a
:10196c007a656420616e6420697320696e207072e0
:10197c00652d6f7065726174696f6e616c206d6f2f
:10198c00646500004e6f207365207075646f206372
:10199c007265617220656c20626c6f7175656f2069
:1019ac006d757465780000004572726f7220616c01
:1019bc00206d616e646172206d656e73616a652065
:1019cc00426f6f745f557000202020202020202053
:1019dc00000000005465636c61733a2025630000bd
:1019ec0054415245415f43616e31000054415245b0
:1019fc00415f43616e3200004573706572616e64c5
:0c1a0c006f207465636c612e2e2e0000ac
:020000040000fa
:020000040040ba
:101a180010b5314b1c6d314b234043b12e4a136531
:101a28002f4b1b681bb12e4a51682046984714f06b
:101a3800010f0cd0284b01221a65d3f8a400294bba
:101a48001b6823b1274a516800f07f00984714f0bb
:101a5800100f0cd0204b10221a65d3f8b400214b7c
:101a68009b6823b11f4ad16800f07f00984714f49f
:101a7800002f09d0184b4ff400221a65d3f898307c
:101a880013b113f0010f1ed114f4006f09d0124bdb
:101a98004ff400621a65144b1b6813b1124a506860
:101aa800984714f4805f0dd00b4b4ff480521a65a1
:101ab800d3f8f4000d4b1b6823b10c4a516800f0b1
:101ac8003f00984710bd0a4b1b68002bdcd0084a22
:101ad800516800209847d7e700400340eee7f7ff3a
:101ae80040f5452030f5452058f5452050f545206e
:041af80048f5452048
:020000040000fa
:020000040040ba
:101afc002de9f04101f0a0fe2d4b1a68013a1a6055
:101b0c001b68002b4dd12b4b1b680bb9002449e0f3
:101b1c000024294e294fdff8b880336803b3f368eb
:101b2c00dc6804f1180001f037fe251d284601f091
:101b3c0033fee06a3a680123834013433b6000ebb9
:101b4c008000294608eb800001f093ff1c4b1b68ba
:101b5c00e26adb6a9a42e0d31a4b01221a60dce794
:101b6c000cb101f09dfd184b1c686cb1154e012594
:101b7c0001e0013c05d0fff7b1fd0028f9d035603c
:101b8c00f7e7114b00221a600e4b1c6854b10f4b37
:101b9c004ff080521a60bff34f8fbff36f8f012449
:101bac0000e0002401f09aff2046bde8f08100bf60
:101bbc0090f5452088f54520f4f4452098f545200e
:101bcc007cf54520b4f54520a8f5452004ed00e052
:041bdc0040f245206e
:020000040000fa
:020000040040ba
:101be0002de9f041314d2c78e4b2052c02d00020d3
:101bf000bde8f0811f4614460e460546dff8b0806a
:101c000048220021404601f0a9ffa804002360f308
:101c10001c03c8f80030082c0ed90c2c30d9102c1d
:101c200030d9142c30d9182c30d9202c30d9312c63
:101c300034bf0e210f2100e021461d4b9a7961f33c
:101c400003029a71022f25d07b1edbb2012b26d90d
:101c500054b1731e1748013c56fa84f113f8012f52
:101c600000f8012f8b42f9d10121134801f04efffa
:101c70000e4b02221a700e49012001f049fbb7e712
:101c80000921dae70a21d8e70b21d6e70c21d4e7ae
:101c90000d21d2e71a46db7843f04003d370044aa3
:101ca000937943f030039371d2e700bfe5f5452007
:0c1cb000ccf34520d3f345209d344000c8
:020000040000fa
:020000040040ba
:101cbc00002a61d02de9f84f8046154620b1012845
:101ccc002ed00020bde8f88f2c4bd3f8a440c4f3e1
:101cdc000524f1b14f1e5ffa87fb0026dff8a0a0a8
:101cec004ff0480900e01e4604ebc401daf800305e
:101cfc004a4603ebc101284601f0d1feb74208d099
:101d0c0048350134e4b2012c08bf4446731cb3457a
:101d1c00e9d104f03f04194bc3f8a8400120d1e7e6
:101d2c00164bd3f8b440c4f30524f1b14f1e5ffa3f
:101d3c0087fa0026dff848904ff0480800e01e466e
:101d4c0004ebc401d9f80430424603ebc101284628
:101d5c0001f0a5febe4208d048350134e4b2012c96
:101d6c0008bf0024731c5645e9d104f03f04034b13
:101d7c00c3f8b8400120a5e700207047004003409d
:041d8c00b0f445204a
:020000040000fa
:020000040040ba
:101d9000314b0022c3f81421d3f8141141f44161ee
:101da000c3f814112d494ff400134b606ff4001366
:101db0000b604ff0ff334b650b66c1f89030c1f8f4
:101dc000a0300a614b618a63c1f8182101f50071e6
:101dd00010200867486748606ff0100008604b6586
:101de0000b66c1f89030c1f8a0300a614b618a637c
:101df000c1f8182101f500710a674ff4a040486747
:101e000048606ff4a04008604b650b66c1f89030e5
:101e1000c1f8a0300a614b618a63c1f8182101f54d
:101e200000710b604b650b66c1f89030c1f8a030b3
:101e30000a614b618a63c1f8182101f500710b60da
:101e40004b650b66c1f89030c1f8a0300a614b6158
:101e50008a63c1f81821704700800840000e0e40c8
:020000040000fa
:020000040040ba
:101e600038b5044601f0eefc002c37d0251d28467d
:101e700001f098fc70b9e26a02eb82039b002249f0
:101e8000cb583bb921480368012101fa02f223ea49
:101e900002020260a36a1bb104f1180001f082fc87
:101ea0001b4a1368013313601a4b1b68a34218d0f6
:101eb000194a1368013b1360206b01f0a7fe20460e
:101ec00001f0a4fe01f0f2fb01f00efe134b1b68c3
:101ed0001bb1104b1b68a3420cd038bd0d4b1c68c6
:101ee000c4e729460e4801f0cafd0e4a13680133c3
:101ef0001360e9e70c4b4ff080521a60bff34f8f2d
:101f0000bff36f8fe9e700bf40f2452098f5452009
:101f100094f545207cf5452088f54520acf5452015
:0c1f20001cf545208cf5452004ed00e088
:020000040000fa
:020000040040ba
:101f2c00244b1b681bb1244b01221a60704710b55f
:101f3c00214b00221a60214b1b681b6b1a68b2f1f3
:101f4c00a53f03d15a68b2f1a53f23d01b4b1868ab
:101f5c001968343101f06cfd194b1b68b3fa83f32b
:101f6c00dbb2c3f11f03174a9900c81802eb8000bb
:101f7c00446864684460194402460832944212d0a2
:101f8c0003eb83030f4a02eb83035b68da680b4baa
:101f9c001a6010bd9a68b2f1a53fd7d1db68b3f1d6
:101fac00a53fd3d1d8e760680a46064901eb820207
:101fbc005060e5e790f54520b4f545207cf54520cb
:081fcc0098f5452040f2452084
:020000040000fa
:020000040040ba
:101fd400002849d038b50446c26a24490968c96a48
:101fe4008a4238d28169002905db20490968c96a17
:101ff400c1f10501816102eb82021d4901eb8202fc
:102004006169914205d0194a1268d26ae2620120dc
:1020140029e0251d284601f0c3fb38b915490b6892
:10202400e06a0122824023ea02030b600f4b1b6823
:10203400d86ae0620f4a1168012404fa00f30b43e2
:10204400136000eb80002946094b03eb800001f08c
:1020540014fd204607e0054a1268406cd36a984292
:102064002cbf0020012038bd002070477cf545209e
:0820740040f2452098f54520db
:020000040000fa
:020000040040ba
:10207c00f0b587b0234d05f1f806234f13e0234b41
:10208c0001930423009300234ff4007205f1e00147
:10209c001f48fef777fd24e0304601f051f940f27d
:1020ac00dc5001f0dbf900238df80c3003a9012082
:1020bc0000f0c4f99df80c20202aedd004ac05f1f9
:1020cc00c80393e8030084e8030005f1d40120461b
:1020dc0001f07cfc204601f033f99df80c30312bdb
:1020ec00cdd09df80c30322bd9d10a4b019304235f
:1020fc00009300234ff4007205f1ec013846fef713
:10210c0041fdcce70c194000b1384000bcf545202e
:08211c005d2d4000c0f54520d7
:020000040000fa
:020000040040ba
:102124002de9f041d2e900230c4686b007465fea68
:10213400d37820684968a5680590e66841d0524282
:1021440063eb4303002908db20f002000590b8f19b
:10215400000f02d1059948072ad5691e05a80290e7
:102164000a20cde90010204600f002fcb8f1000f6f
:1021740002d1059b59071fd5b8f1000f00f1ff30bc
:1021840014bf2d232b2333542269059b0093013a5a
:102194002b46121a3118384600f0f3fa7b68db0537
:1021a40003d563689842b8bf184606b0bde8f0810d
:1021b4000807d2d42946d1e71a07e5d501382023e8
:0821c400e1e70029c0dac5e7dc
:020000040000fa
:020000040040ba
:1021cc002de9f041002945d08c46234b1e69002493
:1021dc00224d1a46dff888e00fe030f81470d5f87d
:1021ec00048018f4003f14bf2ef811700ef8017023
:1021fc009360631c013463452ad26b6813f400337b
:10220c0010d0d76891684b1cb34228bf00239f4263
:10221c00e3d101f087fb10b1104b02229a602046eb
:10222c00bde8f081d2f80c809768791cb14228bfc8
:10223c0019468845edd0035dd5f8048018f4003fad
:10224c0014bf2ef817300ef807309160631cd1e7dd
:10225c001c46dee70c46dce714f445200080024007
:04226c00c0f1452058
:020000040000fa
:020000040040ba
:10227000882930b534d012dc81293fd003dc802995
:102280003cd0002030bd82290ed08429f9d11c68b1
:1022900054f8041b1c60f2b10ab2d3171de0a02948
:1022a00027d00cdc9029ecd11968073121f0070107
:1022b000f1e802451960c0e900450120e2e7c029c4
:1022c00001d0f029ddd11a68111d1960136803606f
:1022d00000234360f1e78ab20023c0e90023ece762
:1022e0001c6854f8041b1c600ab14ab2d5e7cab294
:1022f000f2e71a68111d19601268cee719680c1d03
:102300001c600ab10a68c8e70b68c0e90032d4e76c
:020000040000fa
:020000040040ba
:10231000224b01229a611a46936913f0010ffbd0f8
:102320001e4b9a6942f002029a6141f26602da603b
:102330001b4ada6140f27772c3f8bc204ff0ff32db
:10234000c3f89820c3f89c200722c3f8c82028228d
:10235000c3f880206ff06042c3f8902001221a6217
:102360009a6942f440729a619a6922f001029a6174
:102370001a46936913f0010ffbd1084a00239365b5
:102380000121d16507495165074a13605360936085
:10239000d360136153619361704700bf00400340f5
:0c23a000040d0408ddddcb3fb0f4452047
:020000040000fa
:020000040040ba
:1023ac00205278204649464f30203a00205278205f
:1023bc004649464f31203a002052782042756666d5
:1023cc006572203a00000000204e6577204d657341
:1023dc00736167652052656365697665640000000a
:1023ec000001020304050607080c101418203040e5
:1023fc00204d657373616765202d2054696d65737d
:10240c0074616d70203a203078000000204944201f
:10241c003a20307800000000204c656e677468200c
:10242c003a203078000000004d65737361676520b9
:0c243c003a20000030780000200000bfb3
:020000040000fa
:020000040040ba
:102448002de9f041074688464ff0ff311f4b1868c9
:10245800fef7dcfe00211e4801f0d8f9384600f0ee
:10246800adfc0021012001f0c1fa1a4b1b780bbb0f
:1024780015240a26174d304600f0f2ff2b78cbb909
:10248800631e13f0ff04f6d1efb108f1ff33791e94
:1024980058fa81f1202203f8012f8b42fbd1022444
:1024a80000231a46194609480068fef7f3ff20463c
:1024b800bde8f081074b00221a703946404600f00b
:1024c8009dfd0124ece70224eae700bfb8f54520aa
:0824d8004d3b4000e2f54520f8
:020000040000fa
:020000040040ba
:1024e00070b504460e461c4b1d681c4b1868043022
:1024f00001f058f948b9194b1a6819490b68d06aa4
:102500000122824023ea02030b60b4f1ff3f00d1b5
:102510006eb92c44114b1b685c60a5420ed9114b5f
:1025200018680e4b1968043100f084ff70bd0b4b26
:10253000196804310c4801f0a2faf7e70b4b186850
:10254000064b1968043100f075ff094b1b68a34264
:10255000ecd9074b1c60e9e7b0f545207cf5452038
:1025600098f5452084f5452008f5452080f545205f
:04257000a0f545206d
:020000040000fa
:020000040040ba
:10257400204b214a9a629a6e12f0020ffbd01d4a38
:10258400136b23f07003136313469a6e12f0080f53
:10259400fbd0184a136b23f4407343f48073136322
:1025a40013469a6e12f0080ffbd0124a136b23f0f5
:1025b400030343f00203136313469a6e12f0080fe9
:1025c400fbd00c4b4ff440525a6000211965242172
:1025d40059651a601a46936e03f44053b3f5405f8d
:1025e400f9d1044b4ff457321a612022c3f8002169
:0c25f400704700bf00060e40013f182099
:020000040000fa
:020000040040ba
:102600001e4b1f4a9342f0b438bf002103d203f897
:10261000011b9342fbd11b4ad2e9000150ea01039e
:102620004ff0000610d09468034602f10c076cb915
:1026300021b1014403f8016b9942fbd13a46d2e93a
:10264000000150ea0103eed1f0bc704759b101f12d
:102650000c030c38801a1a443b461c1813f8015b13
:1026600025709342f9d111f0030318bf012303eb46
:10267000910107eb81073a46e1e700bf00004020e7
:08268000000040209001400021
:020000040000fa
:020000040040ba
:10268800002838d038b50446426c914238bf11460c
:10269800c26a8a4202d0806c012800d038bde1624b
:1026a800a069002802dbc1f10501a16102eb8202e9
:1026b800114901eb820261699142efd1251d28463b
:1026c80001f06cf838b90d490b68e06a01228240c4
:1026d80023ea02030b60e06a084a11680123834079
:1026e8000b43136000eb80002946034b03eb80008b
:1026f80001f0c1f9d2e7704740f2452098f545202e
:020000040000fa
:020000040040ba
:1027080070b5054601f09af895f8454064b2002c7a
:1027180011dd6b6a7bb105f1240606e001f040fa91
:10272800013c64b23cb16b6a2bb1304600f0e2f870
:102738000028f5d0f2e7ff2385f8453001f0d0f9fd
:1027480001f07cf895f8444064b2002c11dd2b6947
:102758007bb105f1100606e001f022fa013c64b2f3
:102768003cb12b692bb1304600f0c4f80028f5d0f5
:0e277800f2e7ff2385f8443001f0b2f970bd9e
:020000040000fa
:020000040040ba
:102786002de9ff471d460c9b13f0010807468946b5
:10279600144624d1aa4222da2e1b102e32464ff0be
:1027a600200128bf10226846b24601f0d4f90f2e48
:1027b6001edc4fea1a136ff00f0202fb03a26946f2
:1027c600384600f0ffffb8f1000f04d12246494613
:1027d600384600f0f7ff284604b0bde8f0872246e9
:1027e6004946384600f0eeffac42d5db2546f2e717
:0e27f60010226946384600f0e5ff103ed7e796
:020000040000fa
:020000040040ba
:10280400002835d038b50446826c013a8264c06a27
:10281400616c884200d00ab1002038bd251d2846cd
:1028240000f0beff70b9e26a02eb82039b0011491b
:10283400cb583bb910480368012101fa02f223ea9c
:1028440002020260606ce062c0f10503a3610a4aff
:102854001168012404fa00f30b43136000eb8000b9
:102864002946044b03eb800001f007f92046d4e726
:0c2874000020704740f2452098f54520f8
:020000040000fa
:020000040040ba
:10288000842910b523d00cdc812903d0822913d0f0
:1028900080290bd119680c1d1c600b6803601a603d
:1028a00013e0902921d003dc882917d0002010bd27
:1028b000a029efd0c029ece719680c1d1c600b683b
:1028c0000360d1171046c3e900010120efe7196842
:1028d0000c1d1c600b6803601a80f6e719680c1d5c
:1028e0001c600b6803601a70efe719680c1d1c6010
:0c28f00009680160d317c1e90023e6e786
:020000040000fa
:020000040040ba
:1028fc0038b5c368dc6804f11805284600f04cffb5
:10290c00134b1b68e3b9251d284600f045ffe06a10
:10291c00104a1168012383400b43136000eb8000c5
:10292c0029460d4b03eb800001f0a3f80b4b1b6801
:10293c00e26adb6a9a4208d90120094b186005e06b
:10294c002946084801f095f8f0e7002038bd00bf93
:10295c0090f5452098f5452040f245207cf5452022
:08296c00b4f54520f4f4452008
:020000040000fa
:020000040040ba
:102974002de9f84f04460c9f6668d4f80cb024691e
:1029840010463a68013c002502f0020a0b9a0bf843
:102994000450002e1946b8bf0126012390464fea81
:1029a400e279002c03dcd3b12046bde8f88f50ea6d
:1029b400010209d1721b002a06dc0a9a521b002a62
:1029c400f1ddbaf1000feed042464b4600f03efe78
:1029d400013c134630320bf804200135e1e73b6833
:0829e40023f010033b60dfe764
:020000040000fa
:020000040040ba
:1029ec0070b504461646856b026c5ab903681bb168
:1029fc0000200135a56370bd8068fff7fdfe002344
:102a0c00a360f6e76eb9406801f049f86368226c80
:102a1c0013446360a268934219d323686360304601
:102a2c00e7e7c06801f03bf8226c5242e3681344bc
:102a3c00e36021688b4202d2a3681a44e2600db1b4
:102a4c00022e01d00020d4e7013d0020d1e7304612
:022a5c00cfe7c2
:020000040000fa
:020000040040ba
:102a5e00f0b50c4649682368a768e56887b0002979
:102a6e000593a4bf23f00203059305ab029308233d
:102a7e00cde900730646d2e900232046fff773ff27
:102a8e00059bd90642bf00f1ff3030232b54059b26
:102a9e001a0742bf00f1ff3020232b542269059bf9
:102aae000093013a3b46121a29183046fff764fe8e
:102abe007368db0503d563689842b8bf184607b044
:022ace00f0bd59
:020000040000fa
:020000040040ba
:102ad00038b504460d4600f0b5fe2268216ce36b64
:102ae00003fb01f3d018a0600020a06362605b1ab2
:102af0001344e360ff2384f8443084f84530a5b9db
:102b000023691bb900f0f0ff012038bd04f110006b
:102b1000fff7f4fe0028f5d0084b4ff080521a6002
:102b2000bff34f8fbff36f8fece704f1100000f09d
:102b30009bff04f1240000f097ffe3e704ed00e0c1
:020000040000fa
:020000040040ba
:102b400080b5164c164f174edff860802368bbb176
:102b500000f078fefb68dd68281d00f023fe336876
:102b6000013b33602368013b236000f0bdff286b0d
:102b700001f04cf8284601f049f82368002be7d112
:102b8000094b1b68012be1d94ff08053c8f8003086
:102b9000bff34f8fbff36f8fd8e700bf8cf5452091
:102ba0001cf5452088f5452040f2452004ed00e065
:020000040000fa
:020000040040ba
:102bb00038b5044610f0070f02d020f0070408349f
:102bc00000f0bcff124b1b687bb1124b1b681c440e
:102bd00049f6f77294420ed8a3420fd3fef78eff48
:102be00000f037ff0025284638bd094a0a4b23f07c
:102bf00007031360e9e7fef781fff1e7044a156870
:102c00001d44044b1c60fef779ff002debd1e7e774
:0c2c100074f5452078f5452008004020b0
:020000040000fa
:020000040040ba
:102c1c0038b505460c46164b196000f053fc10f005
:102c2c00070005d0072803d0124b04221a7038bdb8
:102c3c0014f0ff0ffbd105ebc5020f4cd2000021a5
:102c4c00204600f085ff224629460020fff730f889
:102c5c0018b9084b04221a70e9e7002348222146d0
:102c6c002846fef77dfb034b03221a70dfe700bffb
:0c2c7c00c8f54520e5f545203cf3452057
:020000040000fa
:020000040040ba
:102c880038b505460c46164b196000f01dfc10f0cf
:102c9800070005d0072803d0124b04221a7038bd4c
:102ca80014f0ff0ffbd105ebc5020f4cd200002139
:102cb800204600f04fff224629460120fef7faff82
:102cc80018b9084b04221a70e9e701234822214663
:102cd8002846fef747fb034b03221a70dfe700bfc5
:0c2ce800c8f54520e5f5452084f34520a3
:020000040000fa
:020000040040ba
:102cf40000b583b0124b0193002300938022114945
:102d04001148fdf743ff012802d003b05df804fb2e
:102d14004ff0200372b683f31188bff36f8fbff3b4
:102d24004f8f62b6094b4ff0ff321a60084b0122f5
:102d34001a60084b00221a6000f05cfae5e700bf55
:102d44009cf54520e83b4000412b4000a0f5452080
:082d5400acf54520b0f5452067
:020000040000fa
:020000040040ba
:102d5c0000b583b0002000f0d3f942238df8043085
:102d6c0013238df8053023238df8063087238df837
:102d7c00073001a9012000f0b7fd80b10a4800f02e
:102d8c00dffa0a4800f0dcfa094b186820b1fff7ab
:102d9c0061f8074b00221a6003b05df804fb05488c
:102dac0000f0cefaede700bf0c19400038194000d6
:082dbc00bcf545202019400080
:020000040000fa
:020000040040ba
:0c2dc40008b1014a9063704714f44520e8
:020000040000fa
:020000040040ba
:102dd000eff30980bff36f8f154b1a681ef0100fc9
:102de00008bf20ed108a20e9f04f10602de909009e
:102df0004ff0200072b680f31188bff34f8fbff3fe
:102e00006f8f62b6fff792f84ff0000080f31188e1
:102e100009bc19680868b0e8f04f1ef0100f08bf31
:102e2000b0ec108a80f30988bff36f8f704700bf42
:042e30007cf54520c8
:020000040000fa
:020000040040ba
:102e340038b505460c46144b196000f047fb10f0fa
:102e4400070005d0072803d0104b04221a7038bda0
:102e540014f0ff0ffbd10e4c48220021204600f055
:102e64007bfe2146284600f04bfc18b9074b042290
:102e74001a70ece70223482221460120fef774fa77
:102e8400024b03221a70e2e7c8f54520e5f5452018
:042e9400f4f24520ef
:020000040000fa
:020000040040ba
:102e980014494ff486730b6050230b604ff40c6396
:102ea8004b6051230b62104b00221a629a62da625d
:102eb80083f8342083f83c209a6383f83d201a6015
:102ec8009a60da601a751a779a614b6813f4003fb2
:102ed800054b14bf402280221a631a61014be1227c
:0c2ee8009a6070470080024014f44520fe
:020000040000fa
:020000040040ba
:102ef40070b504460d4600f0a3fc124b1a682b680b
:102f0400b3f1ff3f16d061680f4800682668864217
:102f140001d0914213d9501a834203d800232b6065
:102f2400012408e09b1a0b442b60204600f078fd36
:102f3400002400e0002400f0d5fd204670bd0124eb
:0c2f4400f9e700bfb0f54520a4f54520da
:020000040000fa
:020000040040ba
:102f50000e4a38b5002313600d4a0e4c13600e4a1a
:102f60000e4d13600e4a13600e4a13600e4a5362f0
:102f700013610123936000f04afe00f048feac426a
:102f800000d338bd54f8043b9847f8e7d8f54520fe
:102f9000b0f2452074014000acf2452078014000b9
:0c2fa000a4f24520a8f24520b4f2452020
:020000040000fa
:020000040040ba
:102fac00124bd96821f4e0610904090c104a0a4358
:102fbc00da60bff35f8f62b6e02183f823100d4a0d
:102fcc0082f80e134ff48040106082f825132021f4
:102fdc0051605a6a42f480225a625a6942f01002d5
:102fec005a615a6a42f400325a62704700ed00e0ae
:082ffc000000fa0500e100e00d
:020000040000fa
:020000040040ba
:10300400f0b4124ad36a956a0022114fdff844c023
:103014000e4e08e01cf8034084540133346b9c4288
:1030240098bf00230132ab420bd0914209d97c688e
:1030340014f4003feed03cf8134020f81240013362
:10304400ece70249cb621046f0bc704714f445200b
:083054000080024040f145201c
:020000040000fa
:020000040040ba
:10305c002de9ff41134dd1f80080af88adf80c700d
:10306c0006462868029002aca8798df80e00002a5a
:10307c0018bf1446d1e901571a461bb9204600f077
:10308c006ffd0246002d02dbaa4228bf2a46cdf86e
:10309c0000803b4621463046fff76ffb04b0bde88d
:0830ac00f08100bff03b400081
:020000040000fa
:020000040040ba
:1030b400f0b50c4649682368a668e76887b000291c
:1030c4000593a4bf23f00203059305ab02930a23df
:1030d400cde900630546d2e900232046fff748fc0a
:1030e4002269059b0093013a3346121a391828467f
:1030f400fff747fb6b68db0503d563689842b8bfed
:06310400184607b0f0bd03
:020000040000fa
:020000040040ba
:02310a00fee7de
:020000040000fa
:020000040040ba
:10310c00124b01229a611a46936913f0010ffbd0fe
:10311c000e4b9a6942f002029a6140f281329a6136
:10312c001a6942f010021a61012809d0074b4ff4ba
:10313c0060729a611a46936913f0010ffbd17047c4
:10314c001a469b6943f020039361efe7004003406c
:020000040000fa
:020000040040ba
:10315c0030b589b015464ff0ff32019202f20312de
:10316c00029200b96846cde9030151b14c1e002909
:10317c00059408da094b4f221a604ff0ff3009b062
:10318c0030bd0c46f3e700220270cde906001a466a
:10319c00294601a800f00cfcf1e700bfdcf5452046
:020000040000fa
:020000040040ba
:1031ac0070b50a24104d01260ae000f0fdfc002049
:1031bc0018e000f0f9fc012014e0304600f04ef964
:1031cc0000f0dcf828702b78dbb2022bedd02b78da
:1031dc00dbb2042bedd0631e13f0ff04edd100f035
:0c31ec00e3fc012070bd00bfe6f54520ab
:020000040000fa
:020000040040ba
:1031f80010b50e4b1a6842f460021a601a6842f061
:1032080060421a6000f0a2fa0024094b1c6000f02a
:103218005dfc084a136843f04043136000f082faeb
:10322800fef780fe00f0e0fa204610bd20ed00e039
:0832380070f5452034ef00e0c1
:020000040000fa
:020000040040ba
:1032400008b50d4b00221a70022000f01ffb00f0a1
:10325000e7f948b101280bd0022808d1074800f04f
:1032600075f800f0adfc02e0054800f06ff808bd0d
:10327000044800f06bf8fae7e4f54520b419400083
:083280005819400090194000ac
:020000040000fa
:020000040040ba
:1032880010b50278202a034600f10100f9d0a2f116
:1032980009010429f5d92b2a07d02d2a11d101219a
:1032a8000133013b00200a2403e00021f8e76043d2
:1032b800801a13f8012f303a092af8d901b9404287
:0632c80010bd0021ede73e
:020000040000fa
:020000040040ba
:0232ce00fee719
:020000040000fa
:020000040040ba
:1032d00010b5054c227832b9044b13b10448aff352
:1032e00000800123237010bd94f4452000000000ed
:1032f0000000000008b5034b1bb103490348aff3be
:10330000008008bd0000000098f445200000000087
:020000040000fa
:020000040040ba
:10331000012815d1a1b138b50a4dd5f8c440c4f380
:10332000044404ebc400084bdb68482203ebc000f4
:1033300000f0bbfb012000fa04f4c5f8d04038bd12
:0c3340000020704700400340b0f445201e
:020000040000fa
:020000040040ba
:10334c0038b505460b4c4ff0ff312068fdf75cff9c
:10335c00284600f005fc01462846fef731ff022105
:10336c000548fef72dff00231a4619462068fef784
:0c337c008ff838bdb8f54520a0374000a0
:020000040000fa
:020000040040ba
:103388000c4b1878c0b2032803d0042809d00020b9
:103398007047094b1b7853b1012b14bf0020022042
:1033a8007047054b1b78002b08bf0320704701208e
:0c33b800704700bfe5f54520c8f5452032
:020000040000fa
:020000040040ba
:1033c400094b00225a60094ada60094a1a6109491c
:1033d4004a6a42f480324a6205225a60bff34f8f30
:1033e400bff36f8f704700bf90ed00e010f04520f1
:0833f4001700081300ed00e0d2
:020000040000fa
:020000040040ba
:1033fc0030b50c4a002312f8134024b902eb4303f6
:10340c005b78184630bd01680d78a54209bf02eb08
:10341c00430301335b78013114bfdbb201600a2b2b
:08342c00e9d9eee7a0394000e8
:020000040000fa
:020000040040ba
:1034340030b40d68b5f1ff3f02d000f1080202e09c
:10344400026904e01a4653681c68ac42fad953680e
:103454004b6099608a6051600861036801330360be
:0434640030bc7047c1
:020000040000fa
:020000040040ba
:1034680010b540b90a4b4ff080521a60bff34f8f26
:10347800bff36f8f10bd044600f05cfb00212046af
:10348800fff72af8fef736fb0028f3d1eae700bf7a
:0434980004ed00e05f
:020000040000fa
:020000040040ba
:10349c0010b50446094b186000f014f810f0070042
:1034ac0005d0072803d0064b04221a7010bde4b2d5
:1034bc00012cfbd1024b03221a70f7e7c8f545200b
:0434cc00e5f54520bd
:020000040000fa
:020000040040ba
:1034d0000a4b586c20f4605020f018004004400c57
:1034e0009b6913f0010f08d0044a936923f001038c
:1034f0009361936913f0010ffbd1704700400340c3
:020000040000fa
:020000040040ba
:1035000008b500f0fbfafff735f8fef741fc4ff481
:103510000043064a5360b03a5360fef7f9fefff7e6
:10352000bbfcfff78dfefff741fd08bd00190e4003
:020000040000fa
:020000040040ba
:1035300000b583b0074b01930123009300234ff4a0
:10354000806205490548fdf723fbfff7d3fb03b075
:103550005df804fb6cf545200c3a4000e13b40006f
:020000040000fa
:020000040040ba
:1035600008b54ff0200372b683f31188bff36f8f55
:10357000bff34f8f62b6fef7b7f818b1034b4ff0a9
:1035800080521a60002383f3118808bd04ed00e027
:020000040000fa
:020000040040ba
:1035900070b506460d4601fb00f04830fff708fb0a
:1035a000044648b155b100f148032360e663256441
:1035b00001212046fff78cfa204670bd0346f4e750
:020000040000fa
:020000040040ba
:1035c00038b50546094c4ff0ff312068fdf722fe63
:1035d000284600f0cbfa01462846fef7f7fd002307
:1035e0001a4619462068fdf759ff38bdb8f5452041
:020000040000fa
:020000040040ba
:1035f00008b5fef703f900220649104600f08af9e3
:1036000000220549012000f085f90021034800f05f
:1036100085fa08bd1d2c4000892c4000352e400045
:020000040000fa
:020000040040ba
:1036200008b5012000f020f9064b186038b10648b3
:10363000fff7deff054b01221a70002008bd0120b4
:10364000fce700bfccf5452000f04520e9f545201a
:020000040000fa
:020000040040ba
:1036500053b94ab9002908bf00281cbf4ff0ff31f9
:103660004ff0ff3000f0cebaadf1080c6de904ce9a
:10367000fdf730f9ddf804e0dde9022304b070471e
:020000040000fa
:020000040040ba
:103680004ff0807340f8043c21f0010140f8081c21
:10369000054b40f80c3c40f8202c6ff0020340f83a
:0c36a000243c4438704700bff137400064
:020000040000fa
:020000040040ba
:1036ac00084b1b681b6823b9074b4ff0ff321a609d
:1036bc007047044b1b68db68db685a68024b1a6066
:0c36cc00704700bf80f54520a0f54520a8
:020000040000fa
:020000040040ba
:1036d800802910db812901dd83290cd11368073388
:1036e80023f0070303f108011160d3e90023c0e9bf
:0a36f80000230120704700207047f6
:020000040000fa
:020000040040ba
:02370200fee7e0
:020000040000fa
:020000040040ba
:1037040060b959b108b508464822054b996800f0dc
:10371400caf90120034bc3f8980008bd0020704784
:08372400b0f445200040034011
:020000040000fa
:020000040040ba
:10372c0008480068006880f308884ff0000080f3b8
:10373c00148862b661b6bff34f8fbff36f8f00df93
:08374c0000bf000008ed00e0e1
:020000040000fa
:020000040040ba
:10375400054b00221a6005490a60054a05491160b3
:1037640007221a60704700bf10e000e018e000e094
:0837740014e000e0df93040003
:020000040000fa
:020000040040ba
:10377c004e6f207365207075646f20637265617283
:10378c0020656c20626c6f7175656f206d7574654a
:08379c00780000000d0a000096
:020000040000fa
:020000040040ba
:1037a4000369416882688a60416851605a6882424c
:1037b40006d0002202611a68013a1a60186870473c
:0637c40082685a60f5e77f
:020000040000fa
:020000040040ba
:1037ca0038b504699442054628bf14462246406922
:1037da0000f066f96a6913196b612b691b1b2b616f
:0637ea000023135538bd59
:020000040000fa
:020000040040ba
:1037f00082b0002301934ff0200372b683f3118847
:10380000bff36f8fbff34f8f62b6019b002bfcd0cd
:0438100002b070474b
:020000040000fa
:020000040040ba
:0c381400014b18625962704714f4452003
:020000040000fa
:020000040040ba
:10382000074b19680868b0e8f04f80f30988bff3c8
:103830006f8f4ff0000080f311887047aff3008066
:043840007cf54520ae
:020000040000fa
:020000040040ba
:103844004ff0200372b683f31188bff36f8fbff379
:103854004f8f62b6024a136801331360704700bf8a
:0438640070f5452096
:020000040000fa
:020000040040ba
:1038680010b5024600210120fff78efe044638b14c
:10387800002181600160c1600b460a46fdf70afe1f
:04388800204610bd09
:020000040000fa
:020000040040ba
:10388c0008b50120fff7eaff044b186000b108bd32
:10389c0021210348fef794fcf9e700bfb8f5452059
:0438ac007c37400025
:020000040000fa
:020000040040ba
:1038b00008b50648fff74afd054b186820b1fef72a
:1038c000cffa034b00221a6008bd00bf4819400020
:0438d000c0f54520da
:020000040000fa
:020000040040ba
:1038d40008b5064b1b78dbb2032b01d0002008bdd2
:1038e400fff7aeff00f0fef80120f8e7e5f545200c
:020000040000fa
:020000040040ba
:1038f40000b583b000230193009146f27a0223219c
:10390400fdf736fab0fa80f0400903b05df804fb25
:020000040000fa
:020000040040ba
:1039140010b429b1044b43f8301003ebc0035a60d0
:0c3924005df8044b704700bf30f54520f3
:020000040000fa
:020000040040ba
:10393000054bd8689b68984201d8181a7047024a0c
:0c39400012691344181a704714f4452053
:020000040000fa
:020000040040ba
:10394c00054bd86a9b6a984201d8181a7047024aec
:0c395c00126b1344181a704714f4452035
:020000040000fa
:020000040040ba
:1039680010b50c46044b19681831fff75ffd0121ab
:0c3978002046fef7b1fd10bd7cf5452097
:020000040000fa
:020000040040ba
:10398400054b1b6823b1044b1a68936c0133936491
:0c399400014b1868704700bf7cf545200f
:020000040000fa
:020000040040ba
:1039a00068076c094c836a9074a07ac000806888ac
:0c39b00000846c820081286e696c290084
:020000040000fa
:020000040040ba
:1039bc0013b50446019201aafcf70cfe636813f0e0
:0c39cc00100f18bf4ff0ff3002b010bd0c
:020000040000fa
:020000040040ba
:1039d8000eb403b503aa52f8041b019200f0f2f8e2
:0a39e80002b05df804eb03b0704775
:020000040000fa
:020000040040ba
:0239f200fee7ee
:020000040000fa
:020000040040ba
:1039f400044b93f8342083f8340083f83c101046c9
:083a0400704700bf14f44520d7
:020000040000fa
:020000040040ba
:103a0c0054415245415f5052494e434950414c5fdd
:083a1c005461736b730000bfdd
:020000040000fa
:020000040040ba
:103a2400034b1b680360034b1b684360704700bf74
:083a3400a4f54520b0f5452082
:020000040000fa
:020000040040ba
:103a3c004ff0200372b683f31188bff36f8fbff37f
:063a4c004f8f62b6fee799
:020000040000fa
:020000040040ba
:103a52004ff0200372b683f31188bff36f8fbff369
:063a62004f8f62b6fee783
:020000040000fa
:020000040040ba
:103a680000f1080343604ff0ff328260c3600361d6
:063a78000023036070470b
:020000040000fa
:020000040040ba
:103a7e0043684b609a688a60516099600861036878
:063a8e00013303607047e4
:020000040000fa
:020000040040ba
:103a940010b50446fff7d4fea46b00f023f8b4fa83
:063aa40084f0400910bd92
:020000040000fa
:020000040040ba
:103aaa0010b5431e0a44914200d110bd11f8014bd2
:063aba0003f8014ff7e7dd
:020000040000fa
:020000040040ba
:103ac00010b5034b1c69fff733ff013c201a10bdf2
:043ad00014f4452085
:020000040000fa
:020000040040ba
:103ad400dff80c00016841f47001016070470000d8
:043ae40088ed00e089
:020000040000fa
:020000040040ba
:103ae800034a1368013b13600bb983f311887047cd
:043af80070f5452000
:020000040000fa
:020000040040ba
:103afc00014b024a1a607047000c0e40000600048d
:020000040000fa
:020000040040ba
:103b0c0010b1024b18605960704700bf58f5452042
:020000040000fa
:020000040040ba
:103b1c0010b1024b18605960704700bf48f5452042
:020000040000fa
:020000040040ba
:103b2c00a50000f000000000960000509600001068
:020000040000fa
:020000040040ba
:103b3c00024a136801331360704700bf90f54520ab
:020000040000fa
:020000040040ba
:103b4c0010b9024b01221a70704700bfe2f54520f4
:020000040000fa
:020000040040ba
:103b5c0002440346934200d1704703f8011bf9e776
:020000040000fa
:020000040040ba
:103b6c0003461a46013311780029fad1101a70470e
:020000040000fa
:020000040040ba
:0e3b7c0008b50020fff7befcfff7d4fcfce705
:020000040000fa
:020000040040ba
:0e3b8a00a0f14103192b98bf40f020007047b6
:020000040000fa
:020000040040ba
:0e3b9800a0f16103192b98bf00f05f00704789
:020000040000fa
:020000040040ba
:023ba600fee738
:020000040000fa
:020000040040ba
:0c3ba800014b01221a607047b4f5452063
:020000040000fa
:020000040040ba
:0c3bb400014b05221a707047e5f5452012
:020000040000fa
:020000040040ba
:0c3bc000014b03221a707047e9f5452004
:020000040000fa
:020000040040ba
:0c3bcc0013460a466ff00041fff7c2ba32
:020000040000fa
:020000040040ba
:083bd8006904690c00005a3c6d
:020000040000fa
:020000040040ba
:083be00008b5fef74bfafce703
:020000040000fa
:020000040040ba
:0f3be80049444c45000000bf286e756c6c2900e5
:020000040000fa
:020000040040ba
:063bf80000230361704789
:020000040000fa
:020000040040ba
:043bfe0000207047ec
:020000040000fa
:020000040040ba
:023c0200fee7db
:020000040000fa
:020000040040ba
:043c0400704700bf46
:020000040000fa
:020000040040ba
:023c0800fee7d5
:020000040000fa
:020000040040ba
:023c0a00704701
:020000040000fa
:020000040040ba
:023c0c007047ff
:020000040000fa
:020000040040ba
:023c0e007047fd
:020000040000fa
:02000004d0002a
:0400000002000000fa
:00000001FF
