:020000040000fa
:020000040040ba
:10000000f0ff4520651440007f354000c7384000b0
:10001000b73c4000573d4000593d40000000000003
:10002000000000000000000000000000b1394000a6
:100030001b3b40000000000091304000b5374000fd
:100040006f3340006f3340006f3340006f33400028
:100050006f3340006f3340006f3340006f33400018
:100060006f334000000000004d3c40006f33400003
:100070006f3340006f334000e91240006f3340009f
:100080006f3340006f3340006f3340006f334000e8
:100090006f3340006f3340006f3340006f334000d8
:1000a0006f3340006f3340006f3340006f334000c8
:1000b0006f3340006f3340006f3340006f334000b8
:1000c0006f3340006f3340006f3340006f334000a8
:1000d0006f334000f10540006f3340006f33400044
:1000e0006f3340006f3340006f3340006f33400088
:1000f0006f3340006f3340006f3340006f33400078
:100100006f3340006f3340006f3340006f33400067
:100110006f3340006f33400000000000000000001b
:100120006f3340006f3340006f3340006f33400047
:100130006f3340006f3340006f3340006f33400037
:100140006f3340006f3340006f3340006f33400027
:100150006f3340006f3340006f3340006f33400017
:080160006f3340006f334000d3
:020000040000fa
:020000040040ba
:10016800f8b500bff8bc08bc9e467047a5354000ee
:10017800f8b500bff8bc08bc9e4670478135400002
:020000040000fa
:020000040040ba
:08018800180b0000010000004b
:020000040000fa
:020000040040ba
:1001900038a540201c0000000000000018a54020e9
:1001a0002000000000000000f0a440202800000013
:1001b00000000000b4a440203c000000000000004b
:1001c00065a640200100000000000000c8a54020f6
:1001d0000c00000000000000d4a540200600000034
:1001e000010000000001010101010000b8a540204c
:1001f000100000000000000000a0402000020000ed
:1002000000000000f4a340204000000000000000b7
:10021000dca540200400000000000000e0a5402014
:100220000400000000000000e4a5402004000000dd
:1002300000000000e8a540200400000000000000cd
:10024000eca540200400000001000000aaaaaaaa10
:10025000f0a5402004000000000000000000402045
:1002600000a0000000000000f4a5402004000000f1
:1002700000000000f8a5402004000000000000007d
:10028000fca54020040000000000000000a6402063
:10029000040000000000000040a3402064000000b3
:1002a0000000000004a64020040000000000000040
:1002b00008a6402004000000000000000ca640201a
:1002c000040000000000000010a640200400000010
:1002d0000000000014a64020040000000000000000
:1002e00054a54020140000000000000068a5402034
:1002f000140000000000000018a6402004000000c8
:10030000000000001ca640200400000000000000c7
:1003100020a64020040000000000000024a6402089
:1003200004000000000000007ca540201400000034
:100330000000000028a6402004000000000000008b
:1003400090a540201400000000000000a4a540205b
:1003500014000000000000002ca640200400000053
:100360000000000030a64020040000000000000053
:1003700034a6402004000000000000006ca64020cd
:10038000010000000000000066a6402001000000ff
:10039000010000002000000068a6402001000000cd
:1003a0000000000038a6402004000000000000000b
:1003b00067a6402001000000000000003ca640208d
:1003c000040000000000000034a4402040000000b1
:1003d0000000000069a640200100000000000000ad
:1003e00074a44020400000000000000040a640200f
:1003f00004000000000000006aa640200100000088
:100400000000000064a64020010000000000000081
:10041000daa54020020000000000000044a64020b1
:10042000040000000000000048a640200400000076
:10043000000000004ca64020040000000000000066
:1004400050a64020040000000000000000a2402050
:10045000400100000100000000000000000000005a
:10046000000000000000000000000000000000008c
:10047000000000000000000000000000000000007c
:10048000000000000000000000000000000000006c
:10049000000000000000000000000000000000005c
:1004a000000000000000000000000000000000004c
:1004b000000000000000000000000000000000003c
:1004c000000000000000000000000000000000002c
:1004d000000000000000000000000000000000001c
:1004e000000000000000000000000000000000000c
:1004f00000000000000000000000000000000000fc
:1005000000000000000000000000000000000000eb
:1005100000000000000000000000000000000000db
:1005200000000000000000000000000000000000cb
:1005300000000000000000000000000000000000bb
:1005400000000000000000000000000000000000ab
:10055000000000000000000000000000000000009b
:10056000000000000000000000000000000000008b
:10057000000000000000000000000000000000007b
:10058000000000000000000000000000000000006b
:10059000000000000000000054a6402004000000fd
:1005a000000000006ba640200100000001000000d8
:1005b0000500000058a640200400000000000000d4
:1005c000a4a3402050000000000000005ca64020d2
:1005d000040000000000000060a6402004000000ad
:1005e0000000000000000000000000002222222283
:020000040000fa
:020000040040ba
:1005f0002de9f04f83b0a94b1d6d15f0007f02d09f
:100600004ff000721a6515f0010f62d0a34b012262
:100610001a655a6d22f001025a65d3f8a43013f01e
:100620007f0f56d09d4bd3f8a440c4f3052404ebb0
:10063000c403db009a4ad268d718d15811f0804f12
:10064000d15804eb8400974e56f8200014bf21f0d7
:100650006041c1f38a410160d35813f0005f0cd0b0
:100660007b6813f4001f08d104eb84038d4a02eb6e
:1006700083031b6901221a7007e004eb8403894a93
:1006800002eb83031b6900221a707868c0f30340f1
:1006900003f068f98246dff80c824fea840909eb1f
:1006a000040608eb8606024607f10801706803f0ad
:1006b00084fab36883f800a0f3680bb17a681a80f3
:1006c000764bc3f8a840784b1b6813b1764a506844
:1006d000984715f0100f69d0704b10221a655a6dab
:1006e00022f010025a65d3f8b43013f07f0f5dd0ba
:1006f0006a4bd3f8b440c4f3052404ebc403db0015
:10070000674a1269d718d15811f0804fd05804f1b8
:10071000010101eb8101634e56f8216014bf20f006
:100720006040c0f38a403060d35813f0005f0cd0b3
:100730007b6813f4001f08d104eb8403594a02ebd1
:1007400083035b6a01221a7007e004eb8403554ab5
:1007500002eb83035b6a00221a707868c0f30340df
:1007600003f000f980464f4e631c03eb830306eb56
:100770008303024607f10801586803f01efaa3003c
:100780001a1906eb8202d26982f80080234406eb34
:100790008306336a0bb17a681a80404bc3f8b840bd
:1007a000414b9b6813b1404ad068984715f4002f1d
:1007b00000f0b180394b4ff400221a655a6d22f4d3
:1007c00000225a65d3f89830abb9344bd3f89c303b
:1007d00013f0010f25d10123304e1846dcb2d6f8b4
:1007e0009c1000fa03f28a431cd00134e4b20133b6
:1007f000202bf3d118e0294bd3f8983013f0010fd8
:1008000043d10123254e1846dcb2d6f8981000fae1
:1008100003f28a4308d00134e4b20133202bf3d130
:1008200002e000242034e4b201941d4904ebc40327
:10083000db004a6902eb030a496811f0010f26d177
:100840000126d15811f0804fd1584fea860000ebb5
:100850000607144800eb8700806a14bf21f060414e
:10086000c1f38a410160d35813f0005f1ed0daf85b
:10087000043013f4001f19d1b3009a19094b03eb8c
:1008800082039b6b01221a7018e00024cce721f050
:100890000101034841600026d3e700bf0040034048
:1008a000f0a44020b4a4402018a54020b3009a1919
:1008b0003b4b03eb82039b6b00221a70daf80400b7
:1008c000c0f3034003f04ef88346354f4fea8608e5
:1008d00008eb060907eb890902460af10801d9f875
:1008e0002c0003f06af9d9f8303083f800b0d9f859
:1008f000343013b1daf804201a801f2c46d80123b3
:10090000019a9340274ac2f89830274b1b6913b1cc
:10091000254a5069984715f4007f1fd0214b4ff4aa
:1009200000721a655a6d22f400725a65d3f8d830f5
:1009300013f0010f0cd01b4bd3f8e03013f0010f74
:1009400006d0184ad2f8e03023f00103c2f8e030b4
:10095000154b9b6913b1144ad069984715f4006f81
:1009600011d0104a4ff400631365d2f8c430c3f3ba
:100970000423d2f8c420c2f30442934203d20133c9
:10098000dbb29a42fbd103b0bde8f08f019b203b64
:10099000012202fa03f3034ac2f89c30b5e700bf14
:0c09a000b4a440200040034018a54020f3
:020000040000fa
:020000040040ba
:1009ac002de9f04fadb00027dff8e4a20391064625
:1009bc001546b8464ff0ff3903990b78002b00f021
:1009cc00f9800cabcde907890a938023cdf82480fc
:1009dc000b9300240b5d0bb1252b26d134b1224691
:1009ec00304602f0a6ff039b23440393039b1a7823
:1009fc00252a40f0d78003f1010bcdf80cb00398f9
:100a0c0003782b2b1ad025d8202b1bd0232b1dd0b1
:100a1c002a2b27d002f08afd0990039b1a78303ad2
:100a2c00092a2ed801330393f7e70134d2e7079b49
:100a3c0043f00103013007930390e0e7079b43f079
:100a4c000403f7e7079b43f00803f3e7079b43f026
:100a5c001003efe72d2bead0302bd9d1079b43f0b5
:100a6c000203e7e72b681a1d1b682a600130002b74
:100a7c000390099305da079a5b4282f00102079210
:100a8c000993079bda0744bf23f002030793039be8
:100a9c001a782e2a0dd1581ccdf8208003905a7844
:100aac002a2a25d1023303932b681a1d1b682a604e
:100abc00089303a802f0f4fd039b0190187803f04f
:100acc00e6f86928019979d032dc632800f0c680f9
:100adc0019dc252800f0d080612853d025238df80f
:100aec001030cdf80cb0cdf81c80cde90898c0e0e2
:100afc0002f01cfd0890039b1a78303a092ad8d8ca
:100b0c0001330393f7e7642858d06728e6dc2a46bc
:100b1c0004a802f0bdfe002800f09c80039b5a1c28
:100b2c0003921b7804aa07a9304602f0a9fa38e010
:100b3c00702873d015dc6e2800f087806f28cdd11b
:100b4c002b46002204a801f08bfd002800f08280c7
:100b5c00039b04aa013307a93046039302f00ff953
:100b6c001fe075283ad0782848d07328b6d1802950
:100b7c0070d1039b2a6801330393131d2b601268f9
:100b8c0000235be02a4604a802f082fe002861d014
:100b9c00039b5a1c03921b7804aa07a9304602f047
:100bac006ffa04443c44a7426edd384b4f221a6066
:100bbc004ff0ff3738462db0bde8f08f2b460122a1
:100bcc0004a801f04dfd002844d0039b04aa013376
:100bdc0007a93046039301f04bfce2e72b460022b9
:100bec0004a801f03dfd002834d0039b04aa013376
:100bfc0007a93046039302f089fbd2e72b4600226b
:100c0c0004a801f02dfd28b3039b5a1c03921b78fa
:100c1c0004aa07a9304600f045ffc2e72b46002284
:100c2c00f02104a801f01cfda0b1039b0133039338
:100c3c00dde90423134306d10023524607a93046ad
:100c4c0002f038fbade77823e2e72b463a1904a80b
:100c5c0001f06cff039b01330393a3e78029f9d1c7
:100c6c00039b013303932b681a1d1b682a608df8b4
:100c7c001030012304aae1e78029ebd1039b8df806
:100c8c00100001330393f4e7274695e660a6402055
:040c9c00de3a4000fc
:020000040000fa
:020000040040ba
:100ca0002de9f047089e04468846002b40f08580d9
:100cb0008a42154648d9b2fa82f24ab1c2f12007f7
:100cc00001fa02f320fa07f7954047ea0308944037
:100cd0004fea154e230cb8fbfef71ffa85fc0efbfe
:100ce000178843ea084307fb0cf1994209d9eb182e
:100cf00007f1ff3080f0e380994240f2e080023f4c
:100d00002b445b1aa4b2b3fbfef00efb103344ea93
:100d1000034400fb0cfca44509d92c1900f1ff3356
:100d200080f0cb80a44540f2c88002382c4440ead1
:100d30000740a4eb0c0400271eb1d4400023c6e9f1
:100d400000433946bde8f087002a53d0b2fa82f258
:100d5000002a40f0b680491b4fea154e1ffa85f86d
:100d60000127b1fbfefc230c0efb1c1143ea0143df
:100d700008fb0cf1994207d9eb180cf1ff3002d2b5
:100d8000994200f2ec808446591aa3b2b1fbfef0fe
:100d90000efb101443ea044408fb00f8a04507d9f1
:100da0002c1900f1ff3302d2a04500f2dc80184676
:100db000a4eb080440ea0c40bee78b4208d9002ea1
:100dc00078d00027c6e9000138463946bde8f087eb
:100dd000b3fa83f77fb98b4202d3824200f2bd801f
:100de000841a61eb030301209846002ea9d0c6e9be
:100df0000048a6e7ffdec7f12005bb4022fa05fc4c
:100e00004cea030c01fa07f420fa05f821fa05f37d
:100e10004fea1c4e48ea0404b3fbfef9210c0efb1a
:100e200019331ffa8cf841ea034309fb08fa9a4583
:100e300002fa07f200fa07f10bd91ceb030309f1e0
:100e4000ff3080f088809a4540f28580a9f1020940
:100e50006344a3eb0a03a4b2b3fbfef00efb103312
:100e600044ea034400fb08f8a04508d91ceb04043d
:100e700000f1ff336bd2a04569d90238644440eadf
:100e80000940a4eb0804a0fb02894c45c6464b462a
:100e900054d351d0002e69d0b1eb0e0264eb0304a1
:100ea00004fa05f522fa07f3fc401d43c6e9005495
:100eb000002746e73746304643e7184637e70746f8
:100ec0001fe7c2f1200320fa03f7954001fa02f070
:100ed00021fa03f34fea154e3843010cb3fbfef73a
:100ee0001ffa85f80efb173341ea034107fb08f3ad
:100ef0008b4204fa02f407d9691807f1ff3c28d2a3
:100f00008b4226d9023f2944cb1a81b2b3fbfef0b3
:100f10000efb103341ea034100fb08f38b4207d973
:100f2000691800f1ff3c10d28b420ed902382944d7
:100f3000c91a40ea074714e74145abd2b8eb020ea5
:100f400069eb0c0201381346a4e76046f0e7184647
:100f500095e76746d8e781467be7384645e7acf139
:100f6000020c2b4410e702382c4421e73746e8e610
:020000040000fa
:020000040040ba
:100f70002de9f84f80460e4699469500284602f026
:100f80001bf8002800f0c1800746542002f014f836
:100f90000446002857d007632a46a521384602f0a8
:100fa00065fe276b002e54d0337884f8343053b16b
:100fb000334604f134010f3613f8012f01f8012fe5
:100fc0000ab1b342f8d1002384f843300a9e042ebc
:100fd00028bf0426e66266644ff0000bc4f848b0f0
:100fe00004f1040a504602f0b3fe04f1180002f0c6
:100ff000affe2461c6f10506a6616462c4f84cb078
:1010000084f850b0043d3d444a46414625f007006f
:1010100002f018fc20600b9b03b11c6002f0dafcac
:101020003e4a1368013313603d4b1b68abb13d4b27
:101030001b68bbb93a4b1b68da6ae36a9a4211d85b
:10104000374b1c600ee0384602f088fe4ff0ff3050
:101050005de0002384f83430b8e7314b1c6013683e
:10106000012b28d0304a136801331360e06a2f4afd
:101070001168012383400b43136000eb800051464d
:101080002b4b03eb800002f082fd02f0b5fd254bf7
:101090001b68002b3dd0224b1b68da6ae36a9a4238
:1010a00039d2244b4ff080521a60bff34f8fbff3f9
:1010b0006f8f01202be01e4d284602f05dfd05f1eb
:1010c000140002f059fd05f1280002f055fd05f16c
:1010d0003c0002f051fd05f1500002f04dfd164eae
:1010e000304602f049fd154d284602f045fd1448f2
:1010f00002f042fd134802f03ffd134802f03cfdb0
:10110000124b1e60124b1d60ace74ff0ff30bde884
:10111000f88f0120fbe70120f9e700bf04a640207b
:10112000f8a5402028a6402010a6402014a6402064
:1011300040a3402004ed00e054a5402068a54020d5
:101140007ca54020a4a5402090a54020fca54020df
:0411500000a6402095
:020000040000fa
:020000040040ba
:10115400f0b585b0524802f0f1fd524b01930523de
:10116400009300234ff400724f495048fff7fefeee
:101174004f4e504d05f588772ae04f4b01930423d9
:10118400009300234ff4007205f1dc014b48fff794
:10119400edfe47e04a4b01930423009300234ff4f0
:1011a400007205f1e8014748fff7e0fe3ee0002346
:1011b4001a4619464448006800f050fb02f008fc47
:1011c4002023337002f016fd40f2dc5002f0a2fa44
:1011d40002f0fefb33788df80f3002f00bfd9df822
:1011e4000f30202b4ad0394c4ff0ff31206800f0eb
:1011f400f3f9072105f1d40001f0e4f901210df11f
:101204000f0001f0dff9022105f1400001f0daf9e5
:1012140000231a461946206800f020fb9df80f3081
:10122400312baad09df80f30322bb3d09df80f305c
:10123400332bc3d14ff0ff31234b186800f0ccf9a6
:10124400234b019302230093224b234a234924482e
:1012540002f08cf80028aad11c4c4ff0ff31206812
:1012640000f0baf91b2105f1f40001f0abf90023f9
:101274001a461946206800f0f1fa98e7134c4ff02b
:10128400ff31206800f0a8f91421384601f09af9da
:1012940000231a461946206800f0e0fa94e700bfdc
:1012a40000a2402048a64020501a400035174000b4
:1012b40066a64020881940004ca640202d284000f6
:1012c40050a640207922400038a6402044a6402061
:1012d40069a64020daa540206aa6402074a44020d4
:0412e40040a64020c0
:020000040000fa
:020000040040ba
:1012e800f8b55a4b5b6913f0e0030ad1574b5b69b9
:1012f80013f0010f20d1554b5b6913f0020f67d132
:10130800f8bddbb2524a82f83d30504b4ff4807240
:101318001a605b6913f0010f05d04c4b9a695a6942
:1013280012f0010ffad14a4b1b6a002bded0484a53
:10133800516a02209847d9e7444e454c46e0226a54
:10134800002a31d0616a38469047a36a0133226b7c
:10135800934228bf002327e0a16a3e48425430e068
:1013680002f084fb236a002b30d094f83c2032b181
:10137800a26b90422ad3616a0020984726e0a26bac
:10138800904223d1616a002098471fe0736913f0e7
:10139800010fb0d0b569a36a0133226b934228bf0d
:1013a8000023e26a9a42cad0e26a9a42eed0c5f3b2
:1013b8000802716811f4003fced0a06a254921f8cf
:1013c8001020a36294f83430002bc9d10127dde73f
:1013d8001e4d1f4c204e6b6913f0020f90d0e3682e
:1013e800a26893422dd06a6812f4003f03f101020b
:1013f80014bf36f81330f35c2169914298bf00227c
:10140800e2606a6812f4003f14bfc3f30803dbb25a
:10141800eb61237d002bded002f0d6fb2368002b86
:10142800d9d0227f32b1a2699042d4d36168032017
:101438009847d0e7a2699042cdd1616803209847c8
:10144800c9e7024b0222da605ae700bf0080024077
:0c145800f4a34020b8a5402000a04020d4
:020000040000fa
:020000040040ba
:1014640008b54f4b98474f4b9847eff3108172b62e
:101474004d4ad2f8883043f47003c2f88830bff381
:101484004f8fbff36f8f01b962b6484b484a5a6019
:101494009a6812f0010ffbd0444bdb6813f4c07f51
:1014a40013d0444b0c221a60404b434a5a609a684a
:1014b40012f0010ffbd03d4b404a5a609a6812f07b
:1014c400010ffbd03e4b3f4a1a60bff34f8fbff36f
:1014d4006f8f354cd4f8903223f00103c4f8903266
:1014e400d4f8943223f00103c4f89432bff34f8f3d
:1014f400bff36f8f01f0def9334b23f07f03a3605a
:10150400324b9847636913f4003f12d1bff34f8ff6
:10151400bff36f8f0022c4f85022bff34f8fbff385
:101524006f8f626942f400326261bff34f8fbff381
:101534006f8f1d4b5b6913f4803f29d11a4b002236
:10154400c3f88420bff34f8fd3f88030c3f3c906a8
:10155400c3f34e335a0143f6e075134802ea050417
:10156400334644ea8371c0f86012013bb3f1ff3f94
:10157400f7d1203a12f1200ff0d1bff34f8f0a4a6e
:10158400536943f480335361bff34f8fbff36f8fbd
:101594000f4b98470f4b984702f076fbfee700bfce
:1015a4005b3d40005b3d400000ed00e0000c0e4060
:1015b4000d00005adca540200c08005a0c07005a04
:1015c40000180e40010000a500004000b5314000a5
:0815d4005b3d40005b3d40005f
:020000040000fa
:020000040040ba
:1015dc002de9f04184b0044601914ff000084646d5
:1015ec004546504f49e0013ba36323684bb1236947
:1015fc005bb902f0fbfa4ff00108404604b0bde8bd
:10160c00f08102f04dfaa060f1e704f1100001f056
:10161c00cbfa0028edd0434b4ff080521a60bff349
:10162c004f8fbff36f8fe4e702f0e0fa4ff0000842
:10163c00e3e702a802f078fa29e084f8445032e09b
:10164c0084f8455035e002f0bff9a06800f0bcfe0c
:10165c00804602f0cbfa3ce0204601f0abf900f0fa
:10166c00c5fc09e0204601f0a5f900f0bffc2046be
:10167c0002f092fa002840d1012602f0a5f9a36be2
:10168c00002bb0d1019b002bced0002ed1d002f07c
:10169c00adfa02f0ddfa02f097f994f844305bb23f
:1016ac00b3f1ff3fc9d094f845305bb2b3f1ff3fc3
:1016bc00c6d002f09bfa01a902a801f047fd002850
:1016cc00d0d1204602f068fa0028c5d02368002b40
:1016dc00b9d0019904f1240002f0d4f9204601f0ac
:1016ec0069f900f083fc0028c6d14ff080533b60b1
:1016fc00bff34f8fbff36f8fbee7b8f1000f3ff40e
:10170c007caf02f061f9616a19b1236b1968c1f100
:10171c000501a06801f00ef902f068fa4ff000081c
:08172c006be700bf04ed00e0d3
:020000040000fa
:020000040040ba
:101734002de9f04383b0444e444d05f1700934e083
:101744004ff0ff31424b1868fff746ff192105f1ae
:10175400140000f037ff3f4b1c78c4b13e4f05f135
:1017640030083c4b1b781b1b98e8030000908df855
:101774000410fa5c05f13801684602f0bff905214e
:10178400684600f01fff013c14f0ff0fe9d102216d
:1017940005f1400000f016ff00231a4619462c48b4
:1017a400006800f05bf802f0a9fa01f043ff307022
:1017b4003378013b032bf8d801a252f823f000bf81
:1017c40045174000d5174000fd174000251840007c
:1017d4001f4c4ff0ff312068fff7fefe0a2105f190
:1017e400440000f0effe00231a461946206800f07a
:1017f40035f802f083fad8e7154c4ff0ff31206832
:10180400fff7eafe1c2105f1500000f0dbfe002387
:101814001a461946206800f021f802f06ffac4e76e
:101824000b4c4ff0ff312068fff7d6fe09214846e4
:1018340000f0c8fe00231a461946206800f00ef88e
:1018440002f05cfab1e700bf67a6402088194000a7
:0c18540044a640206aa6402074a4402056
:020000040000fa
:020000040040ba
:101860002de9f04784b00446884601921d464ff0aa
:1018700000094e46434f39e02a464146204601f0d2
:101880004bfa636a73b938b13e4b4ff080521a601d
:10189000bff34f8fbff36f8f02f0aef9012004b09a
:1018a000bde8f08704f1240001f084f90028f3d0aa
:1018b000344b4ff080521a60bff34f8fbff36f8fde
:1018c000eae702f099f90020e9e702a802f032f90c
:1018d0001ae084f8446023e084f8456026e020465e
:1018e00001f06ef800f088fb4ff0010902f072f889
:1018f000a26be36b9a42bfd3022dbdd0019b002b9c
:10190000dfd0b9f1000fe0d002f076f902f0a6f9cd
:1019100002f060f894f844305bb2b3f1ff3fd8d0e6
:1019200094f845305bb2b3f1ff3fd5d002f064f9d3
:1019300001a902a801f010fce8b902f04bf8d4f8b4
:1019400038a0d4f83c9002f057f9ca45c7d10199a4
:1019500004f1100002f09cf8204601f031f800f08c
:101960004bfb0028c0d14ff080533b60bff34f8f3b
:10197000bff36f8fb8e7204601f022f800f03cfb80
:0819800000208ce704ed00e0fb
:020000040000fa
:020000040040ba
:101988004572726f720d0a00456c696d696e6f0d54
:101998000a000000204e6577204d65737361676506
:1019a8002052656365697665643a200d0a00000077
:1019b800202020202000000030782578200000001a
:1019c8000d0a000020537563636573730d0a0000e8
:1019d800204572726f7220696e2072656365697640
:1019e8006564206d6573736167650d0a000000000a
:1019f800204661696c65640d0a0000004e6f207313
:101a080065207075646f20637265617220656c2053
:101a1800626c6f7175656f206d757465780d0a005d
:101a28004e6f207365207075646f206372656172f4
:101a380020656c20626c6f7175656f206d757465bb
:101a480078320d0a0000000054415245415f43615d
:101a58006e0000005465636c613a200054415245a1
:101a6800415f43616e31000054415245415f43611b
:101a78006e3200004d65737361676520526563655a
:101a88007074696f6e204661696c6564200d0a0088
:101a98004573706572616e646f207465636c612e46
:081aa8002e2e0d0a000000bf04
:020000040000fa
:020000040040ba
:101ab0002de9f04f89461946d9e90153d9f800803c
:101ac000d9f80ca0002d8bb0a8bf28f002088346df
:101ad000b8bf012518f010009646d2e900670290c1
:101ae00051d056ea07024ed0981e18f0080403940d
:101af000d9f8104018bf00f1ff30401b013c4ff0f7
:101b0000000c049008f0020005900af804c0a1f14e
:101b100041000690012c0add56ea070235d1002d5e
:101b200033dc049a5019002801dd059a6abb029a39
:101b300062b1dee9006756ea070207d00aeb040249
:101b4000023c02f8011c30220af80420039a1ab160
:101b5000013c20220af80420d9f81020cdf800809a
:101b6000013a121b0aeb0401584600f068ffdbf84b
:101b70000430db0504d5d9f804309842b8bf1846c4
:101b80000bb0bde8f08f1846afe706f00f00069add
:101b90000928d4bf30305730192a04f1ff340ed849
:101ba00040f0200cacf1610cbcf1190f07d8cde965
:101bb00008e1079302f078f8dde908e1079b0af8ed
:101bc0000400300940ea07704fea171c013d064641
:041bd00067469fe7de
:020000040000fa
:020000040040ba
:101bd400f8b59df81850012d01d90020f8bd3e4cf0
:101be400d4f8c44014f4001f74d13b4cd4f8c4405e
:101bf400c4f3044404ebc407ff00384ed6f818c0fd
:101c04000ceb0706b0f5006f1bd320f0604040f0ea
:101c140080404cf807008e46402928bf4ff0400e04
:101c2400082912d90c293ad910293ad914293ad9b0
:101c340018293ad920293ad9312934bf0e200f2046
:101c440004e080044cf80700e5e77046000400f463
:101c540070207060022b2cd0012b2fd015f0fd0fbb
:101c640031d05cf8073043f000534cf807301c4a7d
:101c740013780133dbb21370726842ea036343f4ee
:101c840000037360012000fa04f4134bc3f8e0402e
:101c9400c3f8d0405a6d42f400725a659ee7092099
:101ca400d4e70a20d2e70b20d0e70c20cee70d20a2
:101cb400cce7736843f440137360cfe7736843f46d
:101cc40000137360cae71146724606f1080001f07a
:101cd40072ffcce7002081e700400340f0a44020dd
:041ce40065a6402091
:020000040000fa
:020000040040ba
:101ce8002de9f047384b1b68002b67d1374b1f682d
:101cf80001371f60bfb1364b1b68bb4220d9002596
:101d0800344b1b68db6a03eb83039b00324ad358ce
:101d1800022b28bf0125314b1b68002b18bf01255a
:101d28002846bde8f0872e4a11682e4b18681060c7
:101d380019602d4a13680133136001f095fddae745
:101d48000025dff89c80dff8a890dff88ca021e060
:101d58001f4b4ff0ff321a60d2e71d4a1360cfe7de
:101d680004f1180001f0d4fde06ad9f8002001233d
:101d780083401343c9f8003000eb800031460aeb7a
:101d8800800001f000ff134b1b68e26adb6a9a428d
:101d980028bf0125d8f800301b68002bd8d0d8f808
:101da8000030db68dc6863689f42d6d3261d304666
:101db80001f0aefda36a002bd2d1d5e70b4a136818
:101dc800013313600025abe70ca640202ca6402069
:101dd8001ca64020f8a5402040a3402030a6402063
:101de800fca5402000a6402020a6402024a6402094
:041df80014a64020cd
:020000040000fa
:020000040040ba
:101dfc00f8b504464ff4a072002101f031ff384bc6
:101e0c0001229a611a46936913f0010ffbd0344eec
:101e1c00b36943f00203b361324ad46024f0030186
:101e2c0089b231480143c6f8a01004f1480313618c
:101e3c0023f003039bb20343c6f8b03004f19003c4
:101e4c00536123f003039bb2c6f8ac3004f1d80302
:101e5c00936123f003039bb243f08073c6f8c03048
:101e6c0004f59073d36123f003039bb243f48033e6
:101e7c00c6f8f03004f5947313621c4d03cdc4f80e
:101e8c002801c4f82c1123f003039bb243f4003354
:101e9c00c6f8843004f598755562154f0fcfc4f809
:101eac003001c4f83411c4f83821c4f83c3125f0a1
:101ebc000305adb245f40035c6f888500d49d1f88c
:101ecc0014210d4b234092b21343c1f814314ff43b
:101edc004073b3613246936913f0010ffbd1f8bd27
:101eec0000400340f0a4402000000180183d400059
:0c1efc003c3c4000008008400000ffff5c
:020000040000fa
:020000040040ba
:101f0800384b0022c3f81421d3f8140141f2100110
:101f18000143c3f8141134494ff400134b606ff4b4
:101f280000130b604ff0ff334b650b66c1f8903020
:101f3800c1f8a0304ff4000008616ff40000486158
:101f48008a634ff40070c1f8b000c1f8d400c86cbf
:101f5800c1f8182101f5007110200867486748602a
:101f68006ff0100008604b650b66c1f89030c1f83f
:101f7800a0300a614b618a63c1f8182101f500712c
:101f88000b604b650b66c1f89030c1f8a0304ff478
:101f9800813008616ff4813048618a63c1f8182183
:101fa80001f500710b604b650b66c1f89030c1f804
:101fb800a0300a614b618a63c1f8182101f50071ec
:101fc8000b604b650b66c1f89030c1f8a0300a6110
:101fd8004b618a63c1f81821044b092119805a60a2
:101fe800704700bf00800840000e0e40c8a5402082
:020000040000fa
:020000040040ba
:101ff8002de9f04101f0eafc2d4b1a68013a1a600c
:102008001b68002b4dd12b4b1b680bb9002449e0f2
:102018000024294e294fdff8b880336803b3f368ea
:10202800dc6804f1180001f073fc251d284601f056
:102038006ffce06a3a680123834013433b6000eb7e
:102048008000294608eb800001f09dfd1c4b1b68b1
:10205800e26adb6a9a42e0d31a4b01221a60dce793
:102068000cb101f001fc184b1c686cb1154e012530
:1020780001e0013c05d0fff733fe0028f9d03560b8
:10208800f7e7114b00221a600e4b1c6854b10f4b36
:102098004ff080521a60bff34f8fbff36f8f012448
:1020a80000e0002401f0a4fd2046bde8f08100bf57
:1020b8000ca6402004a640207ca5402014a6402061
:1020c800f8a5402030a6402024a6402004ed00e0da
:0420d80040a34020c1
:020000040000fa
:020000040040ba
:1020dc00f0b59df81440012c3ad065b2d5b1022c64
:1020ec0055d12c4c646814f0010f18bf00204fd14f
:1020fc0044f00104274d6c60274ca062e26221631e
:10210c006363069ba363254a536d43f40023536515
:10211c0001203de0dff884c0dcf8a450c5f30525b0
:10212c001d4cae007719bf0004eb070ee051cef842
:10213c000420cef80810cef80c30069bcef81030e8
:10214c00dcf8543043f00103ccf8543001201fe08c
:10215c00124fd7f8b450c5f305250f4c05f1010cff
:10216c004fea8c0606eb0c0e44f82e0004eb8e06a0
:10217c007260aa00501904eb8000c1610362069bd7
:10218c0043627b6d43f010037b65012000e000206f
:10219c00f0bd00bff0a44020b4a440200040034098
:020000040000fa
:020000040040ba
:1021ac0038b5044601f010fc002c37d0251d28460c
:1021bc0001f0acfb70b9e26a02eb82039b0022498e
:1021cc00cb583bb921480368012101fa02f223eafa
:1021dc0002020260a36a1bb104f1180001f096fb25
:1021ec001b4a1368013313601a4b1b68a34218d0a7
:1021fc00194a1368013b1360206b01f0a9fd2046be
:10220c0001f0a6fd01f02efb01f0f0fc134b1b6856
:10221c001bb1104b1b68a3420cd038bd0d4b1c6876
:10222c00c4e729460e4801f0acfc0e4a1368013392
:10223c001360e9e70c4b4ff080521a60bff34f8fdd
:10224c00bff36f8fe9e700bf40a3402014a64020e6
:10225c0010a64020f8a5402004a6402028a6402027
:0c226c00a4a5402008a6402004ed00e0de
:020000040000fa
:020000040040ba
:1022780010b582b04ff0ff31244b1868fff7aaf968
:10228800234952230b706f234b7076238b70652381
:10229800cb7072230b7100230093082240f269402f
:1022a80001f022f900b300231a46194617480068be
:1022b800fff7d2fa174c4ff0ff312068fff78af981
:1022c8000921154800f07cf900231a4619462068b0
:1022d800fff7c2fa114b186820b1fff763ff0f4be5
:1022e80000221a6002b010bd0a4c4ff0ff3120687e
:1022f800fff770f907210a4800f062f900231a462f
:1023080019462068fff7a8facde700bf38a6402095
:1023180034a4402044a640209019400050a64020f4
:0423280088194000d0
:020000040000fa
:020000040040ba
:10232c00244b1b681bb1244b01221a60704710b55b
:10233c00214b00221a60214b1b681b6b1a68b2f1ef
:10234c00a53f03d15a68b2f1a53f23d01b4b1868a7
:10235c001968343101f0f4fb194b1b68b3fa83f3a1
:10236c00dbb2c3f11f03174a9900c81802eb8000b7
:10237c00446864684460194402460832944212d09e
:10238c0003eb83030f4a02eb83035b68da680b4ba6
:10239c001a6010bd9a68b2f1a53fd7d1db68b3f1d2
:1023ac00a53fd3d1d8e760680a46064901eb820203
:1023bc005060e5e70ca6402030a64020f8a5402050
:0823cc0014a6402040a34020ac
:020000040000fa
:020000040040ba
:1023d400002849d038b50446c26a24490968c96a44
:1023e4008a4238d28169002905db20490968c96a13
:1023f400c1f10501816102eb82021d4901eb8202f8
:102404006169914205d0194a1268d26ae2620120d8
:1024140029e0251d284601f07dfa38b915490b68d5
:10242400e06a0122824023ea02030b600f4b1b681f
:10243400d86ae0620f4a1168012404fa00f30b43de
:10244400136000eb80002946094b03eb800001f088
:102454009cfb204607e0054a1268406cd36a984208
:102464002cbf0020012038bd00207047f8a5402073
:0824740040a3402014a6402003
:020000040000fa
:020000040040ba
:10247c002de9f041d2e900230c4686b007465fea0d
:10248c00d37820684968a5680590e66841d0524227
:10249c0063eb4303002908db20f002000590b8f140
:1024ac00000f02d1059948072ad5691e05a802908c
:1024bc000a20cde90010204600f0b2fbb8f1000f65
:1024cc0002d1059b59071fd5b8f1000f00f1ff3061
:1024dc0014bf2d232b2333542269059b0093013aff
:1024ec002b46121a3118384600f0a3fa7b68db052c
:1024fc0003d563689842b8bf184606b0bde8f081b2
:10250c000807d2d42946d1e71a07e5d5013820238c
:08251c00e1e70029c0dac5e780
:020000040000fa
:020000040040ba
:1025240038b5244b01229a611a46936913f0010fbe
:10253400fbd0204b9a6942f002029a6141f2660292
:10254400da601d4ada6140f27772c3f8bc204ff0ba
:10255400ff32c3f89820c3f89c200722c3f8c82090
:102564002822c3f880206ff06042c3f89020012233
:102574001a624ff440729a611a46936913f0010f7c
:10258400fbd10c4b00249c650122da654ff00072ec
:102594005a650a4d2c606c60ac603c2221460848a8
:1025a40001f062fbec602c616c61ac61ec612c624b
:1025b4006c6238bd00400340040d0408f0a44020c0
:0425c400b4a440205b
:020000040000fa
:020000040040ba
:1025c8002de9f041002945d08c46234b1e69002493
:1025d800224d1a46dff888e00fe030f81470d5f87d
:1025e800048018f4003f14bf2ef811700ef8017023
:1025f8009360631c013463452ad26b6813f400337b
:1026080010d0d76891684b1cb34228bf00239f4263
:10261800e3d101f01dfa10b1104b02229a60204656
:10262800bde8f081d2f80c809768791cb14228bfc8
:1026380019468845edd0035dd5f8048018f4003fad
:1026480014bf2ef817300ef807309160631cd1e7dd
:102658001c46dee70c46dce7f4a34020008002407d
:0426680000a040206e
:020000040000fa
:020000040040ba
:10266c00882930b534d012dc81293fd003dc802995
:10267c003cd0002030bd82290ed08429f9d11c68b1
:10268c0054f8041b1c60f2b10ab2d3171de0a02948
:10269c0027d00cdc9029ecd11968073121f0070107
:1026ac00f1e802451960c0e900450120e2e7c029c4
:1026bc0001d0f029ddd11a68111d1960136803606f
:1026cc0000234360f1e78ab20023c0e90023ece762
:1026dc001c6854f8041b1c600ab14ab2d5e7cab294
:1026ec00f2e71a68111d19601268cee719680c1d03
:1026fc001c600ab10a68c8e70b68c0e90032d4e76d
:020000040000fa
:020000040040ba
:10270c0070b504460e461c4b1d681c4b18680430f3
:10271c0001f0fcf848b9194b1a6819490b68d06ad2
:10272c000122824023ea02030b60b4f1ff3f00d187
:10273c006eb92c44114b1b685c60a5420ed9114b31
:10274c0018680e4b1968043100f0c6ff70bd0b4bb6
:10275c00196804310c4801f014faf7e70b4b1868b0
:10276c00064b1968043100f0b7ff094b1b68a342f4
:10277c00ecd9074b1c60e9e72ca64020f8a54020bb
:10278c0014a6402000a6402090a54020fca5402087
:04279c001ca6402017
:020000040000fa
:020000040040ba
:1027a000204b214a9a629a6e12f0020ffbd01d4a0a
:1027b000136b23f07003136313469a6e12f0080f25
:1027c000fbd0184a136b23f4407343f480731363f4
:1027d00013469a6e12f0080ffbd0124a136b23f0c7
:1027e000030343f00203136313469a6e12f0080fbb
:1027f000fbd00c4b4ff440525a6004211965242140
:1028000059651a601a46936e03f44053b3f5405f5e
:10281000f9d1044b4ff457321a612022c3f800213a
:0c282000704700bf00060e40013f18206a
:020000040000fa
:020000040040ba
:10282c0010b582b04ff0ff311b4b1868fef7d0fe8d
:10283c001a4954230b7049224a708b704f23cb706a
:10284c00002300930223042240f25a4000f04afe77
:10285c0080b100231a4619460f480068fef7faffac
:10286c000f4b186820b1fff79bfc0d4b00221a6030
:10287c0002b010bd0b4c4ff0ff312068fef7a8fee4
:10288c0007210948fff79afe00231a4619462068cb
:10289c00fef7e0ffdde700bf38a640203ca6402055
:0c28ac004ca6402044a6402088194000a3
:020000040000fa
:020000040040ba
:1028b8001e4b1f4a9342f0b438bf002103d203f8dd
:1028c800011b9342fbd11b4ad2e9000150ea0103e4
:1028d8004ff0000610d09468034602f10c076cb95b
:1028e80021b1014403f8016b9942fbd13a46d2e980
:1028f800000150ea0103eed1f0bc704759b101f173
:102908000c030c38801a1a443b461c1813f8015b58
:1029180025709342f9d111f0030318bf012303eb8b
:10292800910107eb81073a46e1e700bf000040202c
:08293800000040209001400066
:020000040000fa
:020000040040ba
:10294000002838d038b50446426c914238bf114651
:10295000c26a8a4202d0806c012800d038bde16290
:10296000a069002802dbc1f10501a16102eb82022e
:10297000114901eb820261699142efd1251d284680
:1029800000f0caff38b90d490b68e06a01228240a5
:1029900023ea02030b60e06a084a116801238340be
:1029a0000b43136000eb80002946034b03eb8000d0
:1029b00001f0edf8d2e7704740a3402014a6402074
:020000040000fa
:020000040040ba
:1029c00070b5054601f006f895f8454064b2002c54
:1029d00011dd6b6a7bb105f1240606e001f078f9a0
:1029e000013c64b23cb16b6a2bb1304600f0e2f8b6
:1029f0000028f5d0f2e7ff2385f8453001f0fcf818
:102a000000f0e8ff95f8444064b2002c11dd2b691a
:102a10007bb105f1100606e001f05af9013c64b201
:102a20003cb12b692bb1304600f0c4f80028f5d03a
:0e2a3000f2e7ff2385f8443001f0def870bdb8
:020000040000fa
:020000040040ba
:102a3e002de9ff471d460c9b13f0010807468946fa
:102a4e00144624d1aa4222da2e1b102e32464ff003
:102a5e00200128bf10226846b24601f000f90f2e61
:102a6e001edc4fea1a136ff00f0202fb03a2694637
:102a7e00384600f05dffb8f1000f04d122464946fa
:102a8e00384600f055ff284604b0bde8f0872246d0
:102a9e004946384600f04cffac42d5db2546f2e7fe
:0e2aae0010226946384600f043ff103ed7e77d
:020000040000fa
:020000040040ba
:102abc00002835d038b50446826c013a8264c06a6d
:102acc00616c884200d00ab1002038bd251d284613
:102adc0000f01cff70b9e26a02eb82039b00114903
:102aec00cb583bb910480368012101fa02f223eae2
:102afc0002020260606ce062c0f10503a3610a4a45
:102b0c001168012404fa00f30b43136000eb8000fe
:102b1c002946044b03eb800001f033f82046d4e740
:0c2b2c000020704740a3402014a6402069
:020000040000fa
:020000040040ba
:102b3800842910b523d00cdc812903d0822913d035
:102b480080290bd119680c1d1c600b6803601a6082
:102b580013e0902921d003dc882917d0002010bd6c
:102b6800a029efd0c029ece719680c1d1c600b6880
:102b78000360d1171046c3e900010120efe7196887
:102b88000c1d1c600b6803601a80f6e719680c1da1
:102b98001c600b6803601a70efe719680c1d1c6055
:0c2ba80009680160d317c1e90023e6e7cb
:020000040000fa
:020000040040ba
:102bb40038b5c368dc6804f11805284600f0aafe9d
:102bc400134b1b68e3b9251d284600f0a3fee06af9
:102bd400104a1168012383400b43136000eb80000b
:102be40029460d4b03eb800000f0cfff0b4b1b6815
:102bf400e26adb6a9a4208d90120094b186005e0b1
:102c04002946084800f0c1fff0e7002038bd00bfa6
:102c14000ca6402014a6402040a34020f8a5402044
:082c240030a640207ca54020f1
:020000040000fa
:020000040040ba
:102c2c002de9f84f04460c9f6668d4f80cb0246963
:102c3c0010463a68013c002502f0020a0b9a0bf888
:102c4c000450002e1946b8bf0126012390464feac6
:102c5c00e279002c03dcd3b12046bde8f88f50eab2
:102c6c00010209d1721b002a06dc0a9a521b002aa7
:102c7c00f1ddbaf1000feed042464b4600f0c4fd38
:102c8c00013c134630320bf804200135e1e73b6878
:082c9c0023f010033b60dfe7a9
:020000040000fa
:020000040040ba
:102ca400f0b583b00021184801f00af8012001f0c2
:102cb40001f80021012000f02fff03220021012050
:102cc40000f08efd0746114b18601d46104ec7b12b
:102cd4004ff0ff3421462868fef77efc0128f9d125
:102ce400012406e000f074fe9df80730337000f014
:102cf40081ff21460df1070000f0b4fa0128f1d05c
:102d0400e5e703b0f0bd00bf4d37400034a64020d6
:042d140066a640204f
:020000040000fa
:020000040040ba
:102d180070b504461646856b026c5ab903681bb138
:102d280000200135a56370bd8068fff7c3fe00234e
:102d3800a360f6e76eb9406800f03bff6368226c59
:102d480013446360a268934219d3236863603046d2
:102d5800e7e7c06800f02dff226c5242e368134495
:102d6800e36021688b4202d2a3681a44e2600db185
:102d7800022e01d00020d4e7013d0020d1e73046e3
:022d8800cfe793
:020000040000fa
:020000040040ba
:102d8a00f0b50c4649682368a768e56887b000294a
:102d9a000593a4bf23f00203059305ab029308230e
:102daa00cde900730646d2e900232046fff739ff32
:102dba00059bd90642bf00f1ff3030232b54059bf7
:102dca001a0742bf00f1ff3020232b542269059bca
:102dda000093013a3b46121a29183046fff72afe99
:102dea007368db0503d563689842b8bf184607b015
:022dfa00f0bd2a
:020000040000fa
:020000040040ba
:102dfc0010b582b0134c144b0193012300930023a4
:102e0c004ff4806221461148fef7acf8104b019349
:102e1c000223009300234ff4806204f118010d4843
:102e2c00fef7a0f80c4b01930323009300234ff4ff
:102e3c00806204f128010948fef794f800f0ecf8e0
:102e4c0002b010bdfc354000e4a54020213d4000ff
:102e5c00e0a54020293d4000e8a54020313d400040
:020000040000fa
:020000040040ba
:102e6c0038b504460d4600f0affd2268216ce36bcb
:102e7c0003fb01f3d018a0600020a06362605b1a12
:102e8c001344e360ff2384f8443084f84530a5b93b
:102e9c0023691bb900f0aafe012038bd04f1100013
:102eac00fff782fe0028f5d0084b4ff080521a60d5
:102ebc00bff34f8fbff36f8fece704f1100000f0fe
:102ecc0055fe04f1240000f051fee3e704ed00e0b0
:020000040000fa
:020000040040ba
:102edc0080b5164c164f174edff860802368bbb1d7
:102eec0000f072fdfb68dd68281d00f00ffd3368f3
:102efc00013b33602368013b236000f077fe286bb5
:102f0c0000f026ff284600f023ff2368002be7d1b2
:102f1c00094b1b68012be1d94ff08053c8f80030e6
:102f2c00bff34f8fbff36f8fd8e700bf08a64020c9
:102f3c00a4a5402004a6402040a3402004ed00e0be
:020000040000fa
:020000040040ba
:102f4c0018494ff486730b6050230b604ff40c63dd
:102f5c004b6051230b62144b00221a629a62da62a4
:102f6c0083f8342083f83c209a6383f83d201a6060
:102f7c009a60da601a751a779a614b6813f4003ffd
:102f8c0009d0094b08221a634ff480721a61054b61
:102f9c00e1229a607047044b10221a634ff40072be
:0c2fac001a61f4e700800240f4a340200a
:020000040000fa
:020000040040ba
:102fb80038b5044610f0070f02d020f00704083493
:102fc80000f048fe124b1b687bb1124b1b681c4477
:102fd80049f6f77294420ed8a3420fd3fff708f8c8
:102fe80000f0bbfd0025284638bd094a0a4b23f0ee
:102ff80007031360e9e7fef7fbfff1e7044a1568ea
:103008001d44044b1c60fef7f3ff002debd1e7e7ee
:0c301800f0a54020f4a540200800402056
:020000040000fa
:020000040040ba
:1030240000b583b0124b0193002300938022114911
:103034001148fdf79bff012802d003b05df804fba3
:103044004ff0200372b683f31188bff36f8fbff381
:103054004f8f62b6094b4ff0ff321a60084b0122c2
:103064001a60084b00221a6000f01cfae5e700bf62
:1030740018a64020383d4000dd2e40001ca640200c
:0830840028a640202ca64020e4
:020000040000fa
:020000040040ba
:04308c000020704769
:020000040000fa
:020000040040ba
:10309000eff30980bff36f8f154b1a681ef0100f06
:1030a00008bf20ed108a20e9f04f10602de90900db
:1030b0004ff0200072b680f31188bff34f8fbff33b
:1030c0006f8f62b6fff732f94ff0000080f311887e
:1030d00009bc19680868b0e8f04f1ef0100f08bf6f
:1030e000b0ec108a80f30988bff36f8f704700bf80
:0430f000f8a54020df
:020000040000fa
:020000040040ba
:1030f40038b5eff311844ff0200372b683f31188cf
:10310400bff36f8fbff34f8f62b6826bc36b934273
:103114001ad990f845305bb201328263b3f1ff3fb4
:1031240005d001335bb280f8453001200de0436add
:103134000bb9012009e00d462430fff739fd3db1fc
:1031440030b10120286000e0002084f3118838bdec
:043154000120fae775
:020000040000fa
:020000040040ba
:1031580070b504460d4600f039fc124b1a682b680e
:10316800b3f1ff3f16d061680f48006826688642b1
:1031780001d0914213d9501a834203d800232b60ff
:10318800012408e09b1a0b442b60204600f0cefc7b
:10319800002400e0002400f02bfd204670bd01242f
:0c31a800f9e700bf2ca6402020a6402024
:020000040000fa
:020000040040ba
:1031b4000e4a38b5002313600d4a0e4c13600e4ab4
:1031c4000e4d13600e4a13600e4a13600e4a53628a
:1031d40013610123936000f0c0fd00f0befdac421a
:1031e40000d338bd54f8043b9847f8e75ca6402068
:1031f400b0a3402074014000aca3402078014000fb
:0c320400a4a34020a8a34020b4a34020b5
:020000040000fa
:020000040040ba
:1032100038b5c46c856c114b03445b0a1049ca5c19
:103220000b445b789a4218d202eb42030d4931f904
:10323000230000f01f0101238b402c4023420cd0bf
:1032400002eb4203074901eb83035c682cb102ebfc
:10325000420201eb82029168a04738bd00f2f1bf43
:08326000d4a54020c8a54020c0
:020000040000fa
:020000040040ba
:10326800f0b4124ad36a956a0022114fdff844c0bd
:103278000e4e08e01cf8034084540133346b9c4222
:1032880098bf00230132ab420bd0914209d97c6828
:1032980014f4003feed03cf8134020f812400133fc
:1032a800ece70249cb621046f0bc7047f4a340201b
:0832b80000800240b8a540208f
:020000040000fa
:020000040040ba
:1032c0002de9ff41134dd1f80080af88adf80c70a7
:1032d00006462868029002aca8798df80e00002af4
:1032e00018bf1446d1e901571a461bb9204600f011
:1032f000c5fc0246002d02dbaa4228bf2a46cdf8b3
:1033000000803b4621463046fff799fb04b0bde8fc
:08331000f08100bf483d4000c0
:020000040000fa
:020000040040ba
:10331800f0b50c4649682368a668e76887b00029b5
:103328000593a4bf23f00203059305ab02930a2378
:10333800cde900630546d2e900232046fff772fc79
:103348002269059b0093013a3346121a3918284618
:10335800fff771fb6b68db0503d563689842b8bf5c
:06336800184607b0f0bd9d
:020000040000fa
:020000040040ba
:02336e00fee778
:020000040000fa
:020000040040ba
:103370002de9f04182b09df82060104c2478e4b231
:10338000052c03d0002002b0bde8f0819846174616
:103390000d46044632460021094800f04ffb074b1a
:1033a00002221a7000232b60099b0193009643466a
:1033b0002a4639462046fef791fee4e76ba64020f8
:0433c0008137400011
:020000040000fa
:020000040040ba
:1033c40030b589b015464ff0ff32019202f2031274
:1033d400029200b96846cde9030151b14c1e00299f
:1033e400059408da094b4f221a604ff0ff3009b0f8
:1033f40030bd0c46f3e700220270cde906001a4600
:10340400294601a800f06cfbf1e700bf60a640204c
:020000040000fa
:020000040040ba
:1034140008b50d4b00221a70012000f0ebfa0b4b9b
:10342400186030b1012000f0e5fa094b186028b1aa
:1034340008bd23210748fff7c5f8f3e72421064810
:10344400fff7c0f8f4e700bf64a6402044a640207c
:0c34540038a64020041a4000281a40004e
:020000040000fa
:020000040040ba
:103460000f4bd96821f4e0610904090c0d4a0a43a5
:10347000da60bff35f8f62b6e02283f82320a3f502
:10348000406383f80a234ff48061196083f80e23a8
:103490004ff48041196083f8252320225a60704739
:0834a00000ed00e00000fa0558
:020000040000fa
:020000040040ba
:1034a80010b50e4b1a6842f460021a601a6842f0ae
:1034b80060421a6000f018fa0024094b1c6000f002
:1034c8008dfb084a136843f04043136000f0f8f995
:1034d800fef728ff00f054fa204610bd20ed00e06a
:0834e800eca5402034ef00e0e8
:020000040000fa
:020000040040ba
:1034f000f0b583b00e4c2478e4b2052c02d0002045
:1035000003b0f0bd1f4616460d460446012109488a
:1035100000f084fb064b02221a709df820300093c5
:103520003b462a4631462046fef754fbe8e700bffb
:083530006ba64020813740002a
:020000040000fa
:020000040040ba
:1035380010b50278202a034600f10100f9d0a2f163
:1035480009010429f5d92b2a07d02d2a11d10121e7
:103558000133013b00200a2403e00021f8e760431f
:10356800801a13f8012f303a092af8d901b94042d4
:0635780010bd0021ede78b
:020000040000fa
:020000040040ba
:02357e00fee766
:020000040000fa
:020000040040ba
:1035800010b5054c237833b9044b13b10448aff39d
:1035900000800123237010bd38a5402000000000ea
:1035a0000000000008b5034b1bb103490348aff30b
:1035b000008008bd000000003ca540200000000085
:020000040000fa
:020000040040ba
:1035c00008b500f023fbfff7ebf8fef79dfc4ff486
:1035d0000043094a5360b03a5360fef7a3fffff778
:1035e000b5fc00f01bfafff715ff00f07dfb00f0c3
:0c35f00075fbfff735ff08bd00190e4009
:020000040000fa
:020000040040ba
:1035fc0054415245415f5052494e434950414c5ff2
:10360c005461736b7300000054415245415f325f4b
:10361c005461736b7300000054415245415f554136
:0c362c0052545f5461736b73000000bfc8
:020000040000fa
:020000040040ba
:103638000c4b1878c0b2032803d0042809d0002006
:103648007047094b1b7853b1012b14bf002002208f
:103658007047054b1b78002b08bf032070470120db
:0c366800704700bf6ba6402054a6402015
:020000040000fa
:020000040040ba
:103674000c4b586c20f4605020f018004004400caf
:103684009b6913f0010f0cd0064b9a6942f00202b9
:103694009a614ff440729a611a46936913f0010fcc
:0836a400fbd170470040034018
:020000040000fa
:020000040040ba
:1036ac0030b50c4a002312f8134024b902eb430343
:1036bc005b78184630bd01680d78a54209bf02eb56
:1036cc00430301335b78013114bfdbb201600a2b79
:0836dc00e9d9eee7c83a40000d
:020000040000fa
:020000040040ba
:1036e40030b40d68b5f1ff3f02d000f1080202e0ea
:1036f400026904e01a4653681c68ac42fad953685c
:103704004b6099608a60516008610368013303600b
:0437140030bc70470e
:020000040000fa
:020000040040ba
:1037180010b540b90a4b4ff080521a60bff34f8f73
:10372800bff36f8f10bd044600f094fa00212046c5
:10373800fef7e8fffef75cfc0028f3d1eae700bfdc
:0437480004ed00e0ac
:020000040000fa
:020000040040ba
:10374c0000b1704700b583b001a9084b1868fff7aa
:10375c00cbfc019b3bb1064b4ff080521a60bff380
:10376c004f8fbff36f8f03b05df804fb34a640207e
:04377c0004ed00e078
:020000040000fa
:020000040040ba
:1037800010b50446094b1860fff774ff10f00700ee
:1037900005d0072803d0064b04221a7010bd14f080
:1037a000fe0ffbd1024b03221a70f7e754a640200c
:0437b0006ba64020a4
:020000040000fa
:020000040040ba
:1037b40008b54ff0200372b683f31188bff36f8fff
:1037c400bff34f8f62b6fef78dfa18b1034b4ff07b
:1037d40080521a60002383f3118808bd04ed00e0d1
:020000040000fa
:020000040040ba
:1037e40070b506460d4601fb00f04830fff7e2fbda
:1037f400044648b155b100f148032360e6632564eb
:1038040001212046fff730fb204670bd0346f4e754
:020000040000fa
:020000040040ba
:1038140053b94ab9002908bf00281cbf4ff0ff3133
:103824004ff0ff3000f0c0b8adf1080c6de904cee4
:10383400fdf734faddf804e0dde9022304b0704753
:020000040000fa
:020000040040ba
:103844004ff0807340f8043c21f0010140f8081c5b
:10385400054b40f80c3c40f8202c6ff0020340f874
:0c386400243c4438704700bf8939400004
:020000040000fa
:020000040040ba
:10387000084b1b681b6823b9074b4ff0ff321a60d7
:103880007047044b1b68db68db685a68024b1a60a0
:0c389000704700bffca540201ca6402093
:020000040000fa
:020000040040ba
:10389c00802910db812901dd83290cd113680733c2
:1038ac0023f0070303f108011160d3e90023c0e9f9
:0a38bc000023012070470020704730
:020000040000fa
:020000040040ba
:0238c600fee71b
:020000040000fa
:020000040040ba
:1038c80008480068006880f308884ff0000080f31b
:1038d800148862b661b6bff34f8fbff36f8f00dff6
:0838e80000bf000008ed00e044
:020000040000fa
:020000040040ba
:1038f000054b00221a6005490a60054a0549116016
:1039000007221a60704700bf10e000e018e000e0f6
:0839100014e000e0df93040065
:020000040000fa
:020000040040ba
:103918000369416882688a60416851605a688242d6
:1039280006d0002202611a68013a1a6018687047c6
:0639380082685a60f5e709
:020000040000fa
:020000040040ba
:10393e0038b504699442054628bf144622464069ac
:10394e0000f034f96a6913196b612b691b1b2b612b
:06395e000023135538bde3
:020000040000fa
:020000040040ba
:1039640010b485b00446064b0fcb0df1100c0ce9d6
:103974000f00644414f8100c05b05df8044b704754
:043984002c3c400097
:020000040000fa
:020000040040ba
:1039880082b0002301934ff0200372b683f31188ad
:10399800bff36f8fbff34f8f62b6019b002bfcd034
:0439a80002b07047b2
:020000040000fa
:020000040040ba
:0439ac00704700bfa1
:020000040000fa
:020000040040ba
:1039b000074b19680868b0e8f04f80f30988bff337
:1039c0006f8f4ff0000080f311887047aff30080d5
:0439d000f8a54020f6
:020000040000fa
:020000040040ba
:1039d4004ff0200372b683f31188bff36f8fbff3e8
:1039e4004f8f62b6024a136801331360704700bff9
:0439f400eca54020de
:020000040000fa
:020000040040ba
:1039f80010b5024600210120fff7f0fe044638b159
:103a0800002181600160c1600b460a46fdf724ff72
:043a1800204610bd77
:020000040000fa
:020000040040ba
:103a1c00054b4ff480321a63044a4ff400011163d2
:103a2c004ff400721a63704700120e40000e0e40e5
:020000040000fa
:020000040040ba
:103a3c0010b428b1044b43f8320003ebc2035960b5
:0c3a4c005df8044b704700bf18a5402037
:020000040000fa
:020000040040ba
:103a5800054bd8689b68984201d8181a7047024ae3
:0c3a680012691344181a7047f4a34020a0
:020000040000fa
:020000040040ba
:103a7400054bd86a9b6a984201d8181a7047024ac3
:0c3a8400126b1344181a7047f4a3402082
:020000040000fa
:020000040040ba
:103a900010b50c46044b19681831fff723fe0121bd
:0c3aa0002046fef733fe10bdf8a54020c4
:020000040000fa
:020000040040ba
:103aac00054b1b6823b1044b1a68936c0133936468
:0c3abc00014b1868704700bff8a54020bf
:020000040000fa
:020000040040ba
:103ac80068076c094c836a9074a07ac00080688883
:0c3ad80000846c820081286e696c29005b
:020000040000fa
:020000040040ba
:103ae40013b50446019201aafcf75eff636813f064
:0c3af400100f18bf4ff0ff3002b010bde3
:020000040000fa
:020000040040ba
:103b00000eb403b503aa52f8041b019200f0fef8ac
:0a3b100002b05df804eb03b070474b
:020000040000fa
:020000040040ba
:023b1a00fee7c4
:020000040000fa
:020000040040ba
:103b1c00044b93f8342083f8340083f83c1010469f
:083b2c00704700bff4a3402024
:020000040000fa
:020000040040ba
:103b3400034b1b680360034b1b684360704700bf63
:083b440020a640202ca6402021
:020000040000fa
:020000040040ba
:103b4c004ff0200372b683f31188bff36f8fbff36e
:063b5c004f8f62b6fee788
:020000040000fa
:020000040040ba
:103b62004ff0200372b683f31188bff36f8fbff358
:063b72004f8f62b6fee772
:020000040000fa
:020000040040ba
:103b780000f1080343604ff0ff328260c3600361c5
:063b8800002303607047fa
:020000040000fa
:020000040040ba
:103b8e0043684b609a688a60516099600861036867
:063b9e00013303607047d3
:020000040000fa
:020000040040ba
:103ba40010b50446fff714ffa46b00f023f8b4fa31
:063bb40084f0400910bd81
:020000040000fa
:020000040040ba
:103bba0010b5431e0a44914200d110bd11f8014bc1
:063bca0003f8014ff7e7cc
:020000040000fa
:020000040040ba
:103bd00010b5034b1c69fff73fff013c201a10bdd5
:043be000f4a34020ea
:020000040000fa
:020000040040ba
:103be400dff80c00016841f47001016070470000c7
:043bf40088ed00e078
:020000040000fa
:020000040040ba
:103bf800034a1368013b13600bb983f311887047bc
:043c0800eca54020c7
:020000040000fa
:020000040040ba
:103c0c00014b024a1a607047000c0e40000600047b
:020000040000fa
:020000040040ba
:103c1c0010b1024b9861d961704700bf18a54020c4
:020000040000fa
:020000040040ba
:103c2c000001020304050607080c1014182030408c
:020000040000fa
:020000040040ba
:103c3c00a50000f000000000960000509600001057
:020000040000fa
:020000040040ba
:103c4c0008b50248fff7defa08bd00bf000e0e40b3
:020000040000fa
:020000040040ba
:103c5c00024a136801331360704700bf0ca6402062
:020000040000fa
:020000040040ba
:103c6c0002440346934200d1704703f8011bf9e765
:020000040000fa
:020000040040ba
:103c7c0003461a46013311780029fad1101a7047fd
:020000040000fa
:020000040040ba
:0e3c8c0008b50020fff796fcfff7b2f8fce742
:020000040000fa
:020000040040ba
:0e3c9a00a0f14103192b98bf40f020007047a5
:020000040000fa
:020000040040ba
:0e3ca800a0f16103192b98bf00f05f00704778
:020000040000fa
:020000040040ba
:023cb600fee727
:020000040000fa
:020000040040ba
:0c3cb80008b1014a90637047f4a340205b
:020000040000fa
:020000040040ba
:0c3cc400014b186259627047f4a34020c5
:020000040000fa
:020000040040ba
:0c3cd000014b01221a60704730a6402012
:020000040000fa
:020000040040ba
:0c3cdc00014b00221a7070476ca64020bb
:020000040000fa
:020000040040ba
:0c3ce800014b00221a70704768a64020b3
:020000040000fa
:020000040040ba
:0c3cf40008b54ff4fa70fff70dfd08bd95
:020000040000fa
:020000040040ba
:0c3d0000014b05221a7070476ba6402092
:020000040000fa
:020000040040ba
:0c3d0c0013460a466ff00041fff756bb5b
:020000040000fa
:020000040040ba
:083d18006904690c00005a3c2b
:020000040000fa
:020000040040ba
:083d200008b5fdf717fafce7f6
:020000040000fa
:020000040040ba
:083d280008b5fff7e3fffce71b
:020000040000fa
:020000040040ba
:083d300008b5fef7b7fffce740
:020000040000fa
:020000040040ba
:083d380049444c45000000bfa6
:020000040000fa
:020000040040ba
:083d400008b5fef75bf808bdb1
:020000040000fa
:020000040040ba
:073d4800286e756c6c290068
:020000040000fa
:020000040040ba
:063d50000023036170472f
:020000040000fa
:020000040040ba
:023d5600fee786
:020000040000fa
:020000040040ba
:023d5800fee784
:020000040000fa
:020000040040ba
:023d5a007047b0
:020000040000fa
:020000040040ba
:023d5c007047ae
:020000040000fa
:020000040040ba
:023d5e007047ac
:020000040000fa
:02000004d0002a
:0400000002000000fa
:00000001FF
