:020000040000fa
:020000040040ba
:10000000f0ff4520290740009f1540006b2240006b
:10001000eb224000ed224000ef22400000000000f3
:10002000000000000000000000000000312040003f
:100030002f2040000000000061194000491e4000d0
:100040003714400037144000371440003714400084
:100050003714400037144000371440003714400074
:1000600037144000000000002d22400037144000eb
:100070003714400037144000ad05400037144000ed
:100080003714400037144000371440003714400044
:100090003714400037144000371440003714400034
:1000a0003714400037144000371440003714400024
:1000b0003714400037144000371440003714400014
:1000c0003714400037144000371440003714400004
:1000d00037144000371440003714400037144000f4
:1000e00037144000371440003714400037144000e4
:1000f00037144000371440003714400037144000d4
:1001000037144000371440003714400037144000c3
:1001100037144000371440000000000000000000c9
:1001200037144000371440003714400037144000a3
:100130003714400037144000371440003714400093
:100140003714400037144000371440003714400083
:100150003714400037144000371440003714400073
:08016000371440003714400081
:020000040000fa
:020000040040ba
:10016800f8b500bff8bc08bc9e467047a51c400007
:10017800f8b500bff8bc08bc9e467047811c40001b
:020000040000fa
:020000040040ba
:10018800f4a240201c0000000000000084a34020ce
:100198000c0000000000000090a3402006000000b2
:1001a80001000000000101010101000074a34020ca
:1001b800100000000000000000a040200002000025
:1001c80000000000b4a24020400000000000000031
:1001d80098a3402004000000000000009ca34020d9
:1001e8000400000000000000a0a34020040000005c
:1001f80000000000a4a3402004000000000000004c
:10020800a8a340200400000000000000aca3402088
:100218000400000001000000aaaaaaaab0a3402076
:1002280004000000000000000000402000a00000c2
:1002380000000000b4a340200400000000000000fb
:10024800b8a340200400000000000000bca3402028
:100258000400000000000000c0a3402004000000cb
:100268000000000000a24020640000000000000020
:10027800c4a340200400000000000000c8a34020e0
:100288000400000000000000cca34020040000008f
:1002980000000000d0a3402004000000000000007f
:1002a800d4a34020040000000000000010a3402058
:1002b800140000000000000024a3402014000000e7
:1002c80000000000d8a34020040000000000000047
:1002d800dca340200400000000000000e0a3402050
:1002e8000400000000000000e4a340200400000017
:1002f8000000000038a340201400000000000000a7
:10030800e8a3402004000000000000004ca34020a7
:10031800140000000000000060a34020140000004a
:1003280000000000eca340200400000000000000d2
:10033800f0a34020040000000000000014a44020a6
:100348000100000000000000f4a3402004000000a9
:100358000000000010a44020010000000000000080
:10036800f8a3402004000000000000000ca4402076
:100378000100000000000000fca340200400000071
:100388000000000008a44020010000000000000058
:1003980000a44020040000000000000064a24020e7
:1003a800500000000000000004a4402004000000e9
:1003b80000000000000000000000000022222222ad
:020000040000fa
:020000040040ba
:1003c8002de9f84f80460e4699469500284601f0db
:1003d80089f9002800f0c1800746542001f082f90d
:1003e8000446002857d007632a46a521384601f05d
:1003f80029ff276b002e54d0337884f8343053b15a
:10040800334604f134010f3613f8012f01f8012f98
:100418000ab1b342f8d1002384f843300a9e042e6f
:1004280028bf0426e66266644ff0000bc4f848b0a3
:1004380004f1040a504601f04fff04f1180001f0de
:100448004bff2461c6f10506a6616462c4f84cb08e
:1004580084f850b0043d3d444a46414625f0070023
:1004680001f04efd20600b9b03b11c6001f0eefd16
:100478003e4a1368013313603d4b1b68abb13d4bdb
:100488001b68bbb93a4b1b68da6ae36a9a4211d80f
:10049800374b1c600ee0384601f027ff4ff0ff3065
:1004a8005de0002384f83430b8e7314b1c601368f2
:1004b800012b28d0304a136801331360e06a2f4ab1
:1004c8001168012383400b43136000eb8000514601
:1004d8002b4b03eb800001f05efe01f091fe254bf3
:1004e8001b68002b3dd0224b1b68da6ae36a9a42ec
:1004f80039d2244b4ff080521a60bff34f8fbff3ad
:100508006f8f01202be01e4d284601f039fe05f1c2
:10051800140001f035fe05f1280001f031fe05f167
:100528003c0001f02dfe05f1500001f029fe164ea9
:10053800304601f025fe154d284601f021fe1448ed
:1005480001f01efe134801f01bfe134801f018fecf
:10055800124b1e60124b1d60ace74ff0ff30bde838
:10056800f88f0120fbe70120f9e700bfc4a3402072
:10057800b8a34020e8a34020d0a34020d4a3402023
:1005880000a2402004ed00e010a3402024a3402056
:1005980038a3402060a340204ca34020bca34020a7
:0405a800c0a340208c
:020000040000fa
:020000040040ba
:1005ac00f8b55a4b5b6913f0e0030ad1574b5b6902
:1005bc0013f0010f20d1554b5b6913f0020f67d17b
:1005cc00f8bddbb2524a82f83d30504b4ff480728a
:1005dc001a605b6913f0010f05d04c4b9a695a698c
:1005ec0012f0010ffad14a4b1b6a002bded0484a9d
:1005fc00516a02209847d9e7444e454c46e0226a9e
:10060c00002a31d0616a38469047a36a0133226bc5
:10061c00934228bf002327e0a16a3e48425430e0b1
:10062c0001f054fd236a002b30d094f83c2032b1f9
:10063c00a26b90422ad3616a0020984726e0a26bf5
:10064c00904223d1616a002098471fe0736913f030
:10065c00010fb0d0b569a36a0133226b934228bf56
:10066c000023e26a9a42cad0e26a9a42eed0c5f3fb
:10067c000802716811f4003fced0a06a254921f818
:10068c001020a36294f83430002bc9d10127dde788
:10069c001e4d1f4c204e6b6913f0020f90d0e36877
:1006ac00a26893422dd06a6812f4003f03f1010254
:1006bc0014bf36f81330f35c2169914298bf0022c5
:1006cc00e2606a6812f4003f14bfc3f30803dbb2a4
:1006dc00eb61237d002bded001f07cfd2368002b29
:1006ec00d9d0227f32b1a2699042d4d36168032061
:1006fc009847d0e7a2699042cdd161680320984712
:10070c00c9e7024b0222da605ae700bf00800240c0
:0c071c00b4a2402074a3402000a04020a4
:020000040000fa
:020000040040ba
:1007280008b54f4b98474f4b9847eff3108172b677
:100738004d4ad2f8883043f47003c2f88830bff3ca
:100748004f8fbff36f8f01b962b6484b484a5a6062
:100758009a6812f0010ffbd0444bdb6813f4c07f9a
:1007680013d0444b0c221a60404b434a5a609a6893
:1007780012f0010ffbd03d4b404a5a609a6812f0c4
:10078800010ffbd03e4b3f4a1a60bff34f8fbff3b8
:100798006f8f354cd4f8903223f00103c4f89032af
:1007a800d4f8943223f00103c4f89432bff34f8f86
:1007b800bff36f8f00f078fd334b23f07f03a36006
:1007c800324b9847636913f4003f12d1bff34f8f40
:1007d800bff36f8f0022c4f85022bff34f8fbff3cf
:1007e8006f8f626942f400326261bff34f8fbff3cb
:1007f8006f8f1d4b5b6913f4803f29d11a4b002280
:10080800c3f88420bff34f8fd3f88030c3f3c906f1
:10081800c3f34e335a0143f6e075134802ea050460
:10082800334644ea8371c0f86012013bb3f1ff3fdd
:10083800f7d1203a12f1200ff0d1bff34f8f0a4ab7
:10084800536943f480335361bff34f8fbff36f8f06
:100858000f4b98470f4b984701f0fcfcfee700bf91
:10086800f1224000f122400000ed00e0000c0e40b3
:100878000d00005a98a340200c08005a0c07005a93
:1008880000180e40010000a500004000e51a4000d5
:08089800f1224000f1224000b2
:020000040000fa
:020000040040ba
:1008a0002de9f04184b0044601914ff0000846461e
:1008b0004546504f49e0013ba36323684bb1236990
:1008c0005bb901f0a1fc4ff00108404604b0bde85f
:1008d000f08101f01dfca060f1e704f1100000f0d0
:1008e000e9fd0028edd0434b4ff080521a60bff372
:1008f0004f8fbff36f8fe4e701f086fc4ff00008e5
:10090000e3e702a801f01efc29e084f8445032e03d
:1009100084f8455035e001f09dfba06800f090fba5
:10092000804601f071fc3ce0204600f045fd00f0ff
:10093000f9f909e0204600f03ffd00f0f3f9204608
:1009400001f038fc002840d1012601f083fba36ba5
:10095000002bb0d1019b002bced0002ed1d001f0c6
:1009600053fc01f06bfc01f075fb94f844305bb272
:10097000b3f1ff3fc9d094f845305bb2b3f1ff3f0c
:10098000c6d001f041fc01a902a801f07df80028c1
:10099000d0d1204601f00efc0028c5d02368002be2
:1009a000b9d0019904f1240001f0a4fb204600f025
:1009b00003fd00f0b7f90028c6d14ff080533b602b
:1009c000bff34f8fbff36f8fbee7b8f1000f3ff457
:1009d0007caf01f03ffb616a19b1236b1968c1f16b
:1009e0000501a06800f0a8fc01f00efc4ff0000823
:0809f0006be700bf04ed00e01d
:020000040000fa
:020000040040ba
:1009f8002de9f04784b00446884601921d464ff021
:100a080000094e46434f39e02a464146204600f049
:100a180089fd636a73b938b13e4b4ff080521a6052
:100a2800bff34f8fbff36f8f01f0eafb012004b0d3
:100a3800bde8f08704f1240000f038fd0028f3d069
:100a4800344b4ff080521a60bff34f8fbff36f8f54
:100a5800eae701f0d5fb0020e9e702a801f06efb08
:100a68001ae084f8446023e084f8456026e02046d4
:100a780000f09efc00f052f94ff0010901f0e6fa8f
:100a8800a26be36b9a42bfd3022dbdd0019b002b12
:100a9800dfd0b9f1000fe0d001f0b2fb01f0cafbe2
:100aa80001f0d4fa94f844305bb2b3f1ff3fd8d0e8
:100ab80094f845305bb2b3f1ff3fd5d001f0a0fb0d
:100ac80001a902a800f0dcffe8b901f0bffad4f8e8
:100ad80038a0d4f83c9001f093fbca45c7d10199de
:100ae80004f1100001f002fb204600f061fc00f068
:100af80015f90028c0d14ff080533b60bff34f8fea
:100b0800bff36f8fb8e7204600f052fc00f006f9fb
:080b180000208ce704ed00e071
:020000040000fa
:020000040040ba
:100b20002de9f047384b1b68002b67d1374b1f6806
:100b300001371f60bfb1364b1b68bb4220d900256f
:100b4000344b1b68db6a03eb83039b00324ad358a8
:100b5000022b28bf0125314b1b68002b18bf012534
:100b60002846bde8f0872e4a11682e4b18681060a1
:100b700019602d4a13680133136001f0dbf9dae7dd
:100b80000025dff89c80dff8a890dff88ca021e03a
:100b90001f4b4ff0ff321a60d2e71d4a1360cfe7b8
:100ba00004f1180001f01afae06ad9f800200123d4
:100bb00083401343c9f8003000eb800031460aeb54
:100bc000800001f0ecfa134b1b68e26adb6a9a4280
:100bd00028bf0125d8f800301b68002bd8d0d8f8e2
:100be0000030db68dc6863689f42d6d3261d304640
:100bf00001f0f4f9a36a002bd2d1d5e70b4a1368b0
:100c0000013313600025abe7cca34020eca34020c8
:100c1000dca34020b8a3402000a24020f0a3402045
:100c2000bca34020c0a34020e0a34020e4a3402078
:040c3000d4a34020e9
:020000040000fa
:020000040040ba
:100c3400384b0022c3f81421d3f8140141f21001f7
:100c44000143c3f8141134494ff400134b606ff49b
:100c540000130b604ff0ff334b650b66c1f8903007
:100c6400c1f8a0304ff4000008616ff4000048613f
:100c74008a634ff40070c1f8b000c1f8d400c86ca6
:100c8400c1f8182101f50071102008674867486011
:100c94006ff0100008604b650b66c1f89030c1f826
:100ca400a0300a614b618a63c1f8182101f5007113
:100cb4000b604b650b66c1f89030c1f8a0304ff45f
:100cc400813008616ff4813048618a63c1f818216a
:100cd40001f500710b604b650b66c1f89030c1f8eb
:100ce400a0300a614b618a63c1f8182101f50071d3
:100cf4000b604b650b66c1f89030c1f8a0300a61f7
:100d04004b618a63c1f81821044b092119805a6088
:100d1400704700bf00800840000e0e4084a34020ae
:020000040000fa
:020000040040ba
:100d24002de9f04101f094f92d4b1a68013a1a604b
:100d34001b68002b4dd12b4b1b680bb9002449e0d9
:100d44000024294e294fdff8b880336803b3f368d1
:100d5400dc6804f1180001f03ff9251d284601f074
:100d64003bf9e06a3a680123834013433b6000eb9c
:100d74008000294608eb800001f00ffa1c4b1b6829
:100d8400e26adb6a9a42e0d31a4b01221a60dce77a
:100d94000cb101f0cdf8184b1c686cb1154e01254f
:100da40001e0013c05d0fff7b9fe0028f9d0356019
:100db400f7e7114b00221a600e4b1c6854b10f4b1d
:100dc4004ff080521a60bff34f8fbff36f8f01242f
:100dd40000e0002401f016fa2046bde8f08100bfcf
:100de400cca34020c4a3402038a34020d4a3402057
:100df400b8a34020f0a34020e4a3402004ed00e089
:040e040000a24020e8
:020000040000fa
:020000040040ba
:100e08002de9f04782b00021314801f031fa012084
:100e180001f028fa0021012001f084f903220021c1
:100e2800012001f025f807462a4b18601c462a4e77
:100e3800dff8a880dff8a89008f1240a002f43d033
:100e48004ff0ff3529462068fff726fd0128f9d124
:100e58004ff0ff313068fff71ffd2221404600f0b8
:100e68003ff900231a4619463068fff7c1fd0125ee
:100e780029460df1070000f08bfe01280cd19df8e2
:100e8800073003f0df034c2bf2d1d9f8383083f464
:100e98000073c9f83830ebe701f0f0f9054601f0c6
:100ea800edf9401b3128fad94ff0ff313068fff7d0
:100eb800f3fc2221504600f013f900231a46194684
:100ec8003068fff795fdb9e702b0bde8f08700bfcd
:100ed800e51d4000f8a34020f4a34020381c400042
:040ee80000120e40a6
:020000040000fa
:020000040040ba
:100eec002de9f04103220021012000f0bfff06464e
:100efc00214b186000222149092000f0f9fc4ff425
:100f0c0000711f4801f0e9f91b4d1e4f07f1300825
:100f1c0086b34ff0ff3421462868fff7bbfc01284d
:100f2c00f9d1194c4ff0ff312068fff7b3fc2c219d
:100f3c00384600f0d3f800231a4619462068fff70c
:100f4c0055fd01f099f9044601f096f9001b0928aa
:100f5c00fad90d4c4ff0ff312068fff79bfc2c2188
:100f6c00404600f0bbf800231a4619462068fff7ec
:100f7c003dfdcde7bde8f081fca34020d91e40002b
:0c0f8c00000e0e40281a4000f4a3402084
:020000040000fa
:020000040040ba
:100f9800244b1b681bb1244b01221a60704710b503
:100fa800214b00221a60214b1b681b6b1a68b2f197
:100fb800a53f03d15a68b2f1a53f23d01b4b18684f
:100fc8001968343101f0c6f8194b1b68b3fa83f37a
:100fd800dbb2c3f11f03174a9900c81802eb80005f
:100fe800446864684460194402460832944212d046
:100ff80003eb83030f4a02eb83035b68da680b4b4e
:101008001a6010bd9a68b2f1a53fd7d1db68b3f179
:10101800a53fd3d1d8e760680a46064901eb8202aa
:101028005060e5e7cca34020f0a34020b8a34020bf
:08103800d4a3402000a24020d7
:020000040000fa
:020000040040ba
:10104000002849d038b50446c26a24490968c96aeb
:101050008a4238d28169002905db20490968c96aba
:10106000c1f10501816102eb82021d4901eb82029f
:101070006169914205d0194a1268d26ae262012080
:1010800029e0251d284600f0a9ff38b915490b684d
:10109000e06a0122824023ea02030b600f4b1b68c7
:1010a000d86ae0620f4a1168012404fa00f30b4386
:1010b000136000eb80002946094b03eb800001f030
:1010c0006ef8204607e0054a1268406cd36a9842e1
:1010d0002cbf0020012038bd00207047b8a340205d
:0810e00000a24020d4a340202f
:020000040000fa
:020000040040ba
:1010e8002de9f041002945d08c46234b1e69002488
:1010f800224d1a46dff888e00fe030f81470d5f872
:10110800048018f4003f14bf2ef811700ef8017017
:101118009360631c013463452ad26b6813f400336f
:1011280010d0d76891684b1cb34228bf00239f4258
:10113800e3d100f0bfff10b1104b02229a602046a5
:10114800bde8f081d2f80c809768791cb14228bfbd
:1011580019468845edd0035dd5f8048018f4003fa2
:1011680014bf2ef817300ef807309160631cd1e7d2
:101178001c46dee70c46dce7b4a2402000800240b3
:0411880000a0402063
:020000040000fa
:020000040040ba
:10118c0070b504460e461c4b1d681c4b1868043089
:10119c0000f01eff48b9194b1a6819490b68d06a40
:1011ac000122824023ea02030b60b4f1ff3f00d11d
:1011bc006eb92c44114b1b685c60a5420ed9114bc7
:1011cc0018680e4b1968043100f0d2fd70bd0b4b42
:1011dc00196804310c4800f0dcfff7e70b4b18687a
:1011ec00064b1968043100f0c3fd094b1b68a34280
:1011fc00ecd9074b1c60e9e7eca34020b8a34020d6
:10120c00d4a34020c0a340204ca34020bca340202a
:04121c00dca34020ef
:020000040000fa
:020000040040ba
:1012200010b582b0194c1a4b01930123009300238f
:101230004ff4806221461748fff7c6f8164b01931a
:101240000223009300234ff4806204f10c01134841
:10125000fff7baf8124b01930323009300234ff4d6
:10126000806204f118010f48fff7aef80e4b0193ae
:101270000423009300234ff4806204f124010b48ff
:10128000fff7a2f800f0d4fa02b010bd181e40001b
:101290009ca3402027204000a0a34020c122400062
:1012a000a4a34020c9224000a8a34020d12240008e
:020000040000fa
:020000040040ba
:1012b0001e4b1f4a9342f0b438bf002103d203f8fb
:1012c000011b9342fbd11b4ad2e9000150ea010302
:1012d0004ff0000610d09468034602f10c076cb979
:1012e00021b1014403f8016b9942fbd13a46d2e99e
:1012f000000150ea0103eed1f0bc704759b101f191
:101300000c030c38801a1a443b461c1813f8015b76
:1013100025709342f9d111f0030318bf012303eba9
:10132000910107eb81073a46e1e700bf000040204a
:0813300000004020880140008c
:020000040000fa
:020000040040ba
:10133800002838d038b50446426c914238bf11466f
:10134800c26a8a4202d0806c012800d038bde162ae
:10135800a069002802dbc1f10501a16102eb82024c
:10136800114901eb820261699142efd1251d28469e
:1013780000f030fe38b90d490b68e06a012282405e
:1013880023ea02030b60e06a084a116801238340dc
:101398000b43136000eb80002946034b03eb8000ee
:1013a80000f0f9fed2e7704700a24020d4a3402005
:020000040000fa
:020000040040ba
:1013b80070b5054600f04afe95f8454064b2002c29
:1013c80011dd6b6a7bb105f1240606e000f05cffd5
:1013d800013c64b23cb16b6a2bb1304600f066f850
:1013e8000028f5d0f2e7ff2385f8453000f008ff24
:1013f80000f02cfe95f8444064b2002c11dd2b69f6
:101408007bb105f1100606e000f03eff013c64b236
:101418003cb12b692bb1304600f048f80028f5d0d4
:0e142800f2e7ff2385f8443000f0eafe70bdc5
:020000040000fa
:020000040040ba
:02143600fee7cf
:020000040000fa
:020000040040ba
:10143800002835d038b50446826c013a8264c06a07
:10144800616c884200d00ab1002038bd251d2846ad
:1014580000f0c0fd70b9e26a02eb82039b001149fb
:10146800cb583bb910480368012101fa02f223ea7c
:1014780002020260606ce062c0f10503a3610a4adf
:101488001168012404fa00f30b43136000eb800099
:101498002946044b03eb800000f07dfe2046d4e78c
:0c14a8000020704700a24020d4a3402088
:020000040000fa
:020000040040ba
:1014b40038b5c368dc6804f11805284600f08cfdd3
:1014c400134b1b68e3b9251d284600f085fde06a2f
:1014d400104a1168012383400b43136000eb800022
:1014e40029460d4b03eb800000f057fe0b4b1b68a5
:1014f400e26adb6a9a4208d90120094b186005e0c8
:101504002946084800f049fef0e7002038bd00bf36
:10151400cca34020d4a3402000a24020b8a3402064
:08152400f0a3402038a3402091
:020000040000fa
:020000040040ba
:10152c0070b504461646856b026c5ab903681bb13c
:10153c0000200135a56370bd8068fff777ff00239d
:10154c00a360f6e76eb9406800f039fe6368226c60
:10155c0013446360a268934219d3236863603046d6
:10156c00e7e7c06800f02bfe226c5242e36813449c
:10157c00e36021688b4202d2a3681a44e2600db189
:10158c00022e01d00020d4e7013d0020d1e73046e7
:02159c00cfe797
:020000040000fa
:020000040040ba
:02159e00fee766
:020000040000fa
:020000040040ba
:1015a00038b504460d4600f055fd2268216ce36b0a
:1015b00003fb01f3d018a0600020a06362605b1af7
:1015c0001344e360ff2384f8443084f84530a5b920
:1015d00023691bb900f018fe012038bd04f110008a
:1015e000fff768ff0028f5d0084b4ff080521a60d3
:1015f000bff34f8fbff36f8fece704f1100000f0e3
:10160000c3fd04f1240000f0bffde3e704ed00e0ba
:020000040000fa
:020000040040ba
:1016100080b5164c164f174edff860802368bbb1bb
:1016200000f018fdfb68dd68281d00f0d7fc33686a
:10163000013b33602368013b236000f0e5fd286b2c
:1016400000f057fe284600f054fe2368002be7d137
:10165000094b1b68012be1d94ff08053c8f80030cb
:10166000bff34f8fbff36f8fd8e700bfc8a34020f1
:1016700060a34020c4a3402000a2402004ed00e06d
:020000040000fa
:020000040040ba
:1016800018494ff486730b6050230b604ff40c63c2
:101690004b6051230b62144b00221a629a62da6289
:1016a00083f8342083f83c209a6383f83d201a6045
:1016b0009a60da601a751a779a614b6813f4003fe2
:1016c00009d0094b08221a634ff480721a61054b46
:1016d000e1229a607047044b10221a634ff40072a3
:0c16e0001a61f4e700800240b4a2402030
:020000040000fa
:020000040040ba
:1016ec0038b5044610f0070f02d020f00704083478
:1016fc0000f09efd124b1b687bb1124b1b681c4407
:10170c0049f6f77294420ed8a3420fd3fff704fbad
:10171c0000f029fd0025284638bd094a0a4b23f064
:10172c0007031360e9e7fff7f7faf1e7044a1568d6
:10173c001d44044b1c60fff7effa002debd1e7e7db
:0c174c00b0a34020b4a3402008004020bf
:020000040000fa
:020000040040ba
:101758002de9f041174d4ff0ff36174f07f12008dc
:1017680011e031462868fff797f80c2107f130009f
:10177800fff7b6fc00231a4619462868fff738f920
:101788000a2000f011fb31462868fff785f80c2184
:101798004046fff7a5fc00231a4619462868fff7bc
:1017a80027f900f06bfd044600f068fd001b632874
:0c17b800fad9d6e7f4a34020001d400041
:020000040000fa
:020000040040ba
:1017c4002de9f041174d4ff0ff36174f07f1180878
:1017d40010e031462868fff761f817214046fff70b
:1017e40081fc00231a4619462868fff703f9fa20fa
:1017f40000f0dcfa31462868fff750f81721384624
:10180400fff770fc00231a4619462868fff7f2f820
:1018140000f036fd044600f033fd001b0928fad918
:0c182400d7e700bff4a34020a81e40003e
:020000040000fa
:020000040040ba
:1018300000b583b0124b019300230093802211491d
:101840001148fef7c1fd012802d003b05df804fb8a
:101850004ff0200372b683f31188bff36f8fbff38d
:101860004f8f62b6094b4ff0ff321a60084b0122ce
:101870001a60084b00221a6000f0baf9e5e700bfd1
:10188000d8a34020d822400011164000dca34020fd
:08189000e8a34020eca3402076
:020000040000fa
:020000040040ba
:10189800164b174a9a629a6e12f0020ffbd0134a3f
:1018a800136b23f07003136313469a6e12f0080f3c
:1018b800fbd00e4a136b23f4407343f48073136315
:1018c80013469a6e12f0080ffbd0084a136b23f0e8
:1018d800030343f00203136313469a6e12f0080fd2
:1018e800fbd0024b4ff457321a61704700060e4086
:0418f800013f182074
:020000040000fa
:020000040040ba
:1018fc00f0b4c0f34715154c635d2c446678b342c5
:10190c001fd21d4603eb4304114f37f92440844288
:10191c000ed00133dbb2b34215d21d4603eb4303a9
:10192c000b4c34f92330834202d00020f0bc7047ba
:10193c00074b6800441903eb84046160a26001202a
:10194c00f4e70020f2e70020f0e700bf90a340206e
:04195c0084a3402000
:020000040000fa
:020000040040ba
:10196000eff30980bff36f8f154b1a681ef0100f4d
:1019700008bf20ed108a20e9f04f10602de9090022
:101980004ff0200072b680f31188bff34f8fbff382
:101990006f8f62b6fff700fb4ff0000080f31188f5
:1019a00009bc19680868b0e8f04f1ef0100f08bfb6
:1019b000b0ec108a80f30988bff36f8f704700bfc7
:0419c000b8a3402068
:020000040000fa
:020000040040ba
:1019c40038b5eff311844ff0200372b683f3118816
:1019d400bff36f8fbff34f8f62b6826bc36b9342bb
:1019e4001ad990f845305bb201328263b3f1ff3ffc
:1019f40005d001335bb280f8453001200de0436a25
:101a04000bb9012009e00d462430fff751fd3db12b
:101a140030b10120286000e0002084f3118838bd33
:041a24000120fae7bc
:020000040000fa
:020000040040ba
:101a280020202020202020202020202020202020ae
:101a3800202020202020202020202020202020209e
:101a480054736b342d5034203c2d0d0a00000000d7
:101a5800202020202020202020202020202020207e
:101a6800202020202020202020202020202020206e
:101a780054736b342d5034202d3e0d0a000000bfe6
:020000040000fa
:020000040040ba
:101a880070b504460d4600f0e1fa124b1a682b684f
:101a9800b3f1ff3f16d061680f4800682668864298
:101aa80001d0914213d9501a834203d800232b60e6
:101ab800012408e09b1a0b442b60204600f03efbf3
:101ac800002400e0002400f09bfb204670bd0124a8
:0c1ad800f9e700bfeca34020e0a3402091
:020000040000fa
:020000040040ba
:101ae4000e4a38b5002313600d4a0e4c13600e4a9b
:101af4000e4d13600e4a13600e4a13600e4a536271
:101b040013610123936000f0f3fb00f0f1fbac429e
:101b140000d338bd54f8043b9847f8e704a44020a8
:101b240070a24020740140006ca240207801400063
:0c1b340064a2402068a2402074a240205f
:020000040000fa
:020000040040ba
:101b400038b5c46c856c114b03445b0a1049ca5c00
:101b50000b445b789a4218d202eb42030d4931f9eb
:101b6000230000f01f0101238b402c4023420cd0a6
:101b700002eb4203074901eb83035c682cb102ebe3
:101b8000420201eb82029168a04738bd00f2f1bf2a
:081b900090a3402084a3402033
:020000040000fa
:020000040040ba
:101b9800f0b4124ad36a956a0022114fdff844c0a4
:101ba8000e4e08e01cf8034084540133346b9c4209
:101bb80098bf00230132ab420bd0914209d97c680f
:101bc80014f4003feed03cf8134020f812400133e3
:101bd800ece70249cb621046f0bc7047b4a2402043
:081be8000080024074a34020bc
:020000040000fa
:020000040040ba
:101bf00010b50e4b1a6842f460021a601a6842f07f
:101c000060421a6000f0d6f90024094b1c6000f015
:101c1000f1fa084a136843f04043136000f0b6f944
:101c2000fff7baf900f0edf9204610bd20ed00e015
:081c3000aca3402034ef00e0fa
:020000040000fa
:020000040040ba
:101c3800202020202020202020202020202020209c
:101c480020202020202054736b332d5033203c2d2e
:101c58000d0a0000202020202020202020202020e5
:101c68002020202020202020202054736b332d504a
:081c780033202d3e0d0a00008f
:020000040000fa
:020000040040ba
:101c800010b5054c237833b9044b13b10448aff3b6
:101c900000800123237010bdf4a24020000000004a
:101ca0000000000008b5034b1bb103490348aff324
:101cb000008008bd00000000f8a2402000000000e5
:020000040000fa
:020000040040ba
:101cc0000d4bd96821f4e0610904090c0b4a0a4361
:101cd000da60bff35f8f62b6e02283f82320a3f5ba
:101ce000406383f80a234ff48061196083f80e2360
:101cf0004ff480421a60704700ed00e00000fa05e2
:020000040000fa
:020000040040ba
:101d0000436f756c64206e6f7420637265617465d7
:101d1000206d75746578206c6f636b0d0a00000090
:101d200054736b312d5031203c2d0d0a0000000002
:101d300054736b312d5031202d3e0d0a000000bf31
:020000040000fa
:020000040040ba
:101d400008b500f06bfafff7a7fdfef773ff4ff43d
:101d50000043094a5360b03a5360fff791fc00f02a
:101d60009df900f0fdf800f099fa00f09dfa00f0fe
:0c1d7000a1fafff7a5ff08bd00190e4006
:020000040000fa
:020000040040ba
:101d7c0030b40d68b5f1ff3f02d000f1080202e06b
:101d8c00026904e01a4653681c68ac42fad95368dd
:101d9c004b6099608a60516008610368013303608d
:041dac0030bc704790
:020000040000fa
:020000040040ba
:101db00010b540b90a4b4ff080521a60bff34f8ff5
:101dc000bff36f8f10bd044600f038fa00212046a3
:101dd000fff7dcf9fef7a6ff0028f3d1eae700bf22
:041de00004ed00e02e
:020000040000fa
:020000040040ba
:101de40000b1704700b583b001a9084b1868fff72c
:101df400e7fd019b3bb1064b4ff080521a60bff3e5
:101e04004f8fbff36f8f03b05df804fbf8a340203e
:041e140004ed00e0f9
:020000040000fa
:020000040040ba
:101e18005441534b315f5461736b73005441534bbe
:101e2800325f5461736b73005441534b335f546199
:101e3800736b73005441534b345f5461736b73007d
:020000040000fa
:020000040040ba
:101e480008b54ff0200372b683f31188bff36f8f84
:101e5800bff34f8f62b6fef75ffe18b1034b4ff02a
:101e680080521a60002383f3118808bd04ed00e056
:020000040000fa
:020000040040ba
:101e780070b506460d4601fb00f04830fff732fc0e
:101e8800044648b155b100f148032360e663256470
:101e980001212046fff780fb204670bd0346f4e78a
:020000040000fa
:020000040040ba
:101ea800202020202020202020202054736b322d39
:101eb8005032203c2d0d0a002020202020202020f8
:101ec80020202054736b322d5032202d3e0d0a00f5
:020000040000fa
:020000040040ba
:101ed80000b583b001a9084b1868fff76ffd019b97
:101ee8003bb1064b4ff080521a60bff34f8fbff3e0
:101ef8006f8f03b05df804fbfca3402004ed00e005
:020000040000fa
:020000040040ba
:101f08004ff0807340f8043c21f0010140f8081cb0
:101f1800054b40f80c3c40f8202c6ff0020340f8c9
:0c1f2800243c4438704700bf03204000f8
:020000040000fa
:020000040040ba
:101f3400084b1b681b6823b9074b4ff0ff321a602c
:101f44007047044b1b68db68db685a68024b1a60f5
:0c1f5400704700bfbca34020dca340206d
:020000040000fa
:020000040040ba
:101f600008b5074b00221a70012000f085f8054bd8
:101f7000186000b108bd1d210348fff7b5f8f9e767
:0c1f800014a44020f4a34020001d4000e9
:020000040000fa
:020000040040ba
:101f8c0008480068006880f308884ff0000080f370
:101f9c00148862b661b6bff34f8fbff36f8f00df4b
:081fac0000bf000008ed00e099
:020000040000fa
:020000040040ba
:101fb400054b00221a6005490a60054a054911606b
:101fc40007221a60704700bf10e000e018e000e04c
:081fd40014e000e0df930400bb
:020000040000fa
:020000040040ba
:101fdc000369416882688a60416851605a6882422c
:101fec0006d0002202611a68013a1a60186870471c
:061ffc0082685a60f5e75f
:020000040000fa
:020000040040ba
:1020020082b0002301934ff0200372b683f311884c
:10201200bff36f8fbff34f8f62b6019b002bfcd0d3
:0420220002b0704751
:020000040000fa
:020000040040ba
:0820260008b5fff796fbfce78b
:020000040000fa
:020000040040ba
:02202e00fee7cb
:020000040000fa
:020000040040ba
:10203000074b19680868b0e8f04f80f30988bff3d0
:102040006f8f4ff0000080f311887047aff300806e
:04205000b8a34020d1
:020000040000fa
:020000040040ba
:102054004ff0200372b683f31188bff36f8fbff381
:102064004f8f62b6024a136801331360704700bf92
:04207400aca34020b9
:020000040000fa
:020000040040ba
:1020780010b5024600210120fff7fafe044638b1e8
:10208800002181600160c1600b460a46fef7b0fc82
:04209800204610bd11
:020000040000fa
:020000040040ba
:10209c00054b4ff480321a63044a4ff4000111636c
:1020ac004ff400721a63704700120e40000e0e407f
:020000040000fa
:020000040040ba
:1020bc00054bd8689b68984201d8181a7047024a99
:0c20cc0012691344181a7047b4a2402097
:020000040000fa
:020000040040ba
:1020d800054bd86a9b6a984201d8181a7047024a79
:0c20e800126b1344181a7047b4a2402079
:020000040000fa
:020000040040ba
:1020f40010b50c46044b19681831fff73dfe012159
:0c2104002046fff741f810bdb8a34020b2
:020000040000fa
:020000040040ba
:10211000054b1b6823b1044b1a68936c013393641d
:0c212000014b1868704700bfb8a34020b6
:020000040000fa
:020000040040ba
:10212c00044b93f8342083f8340083f83c101046a9
:08213c00704700bfb4a240206f
:020000040000fa
:020000040040ba
:10214400034b1b680360034b1b684360704700bf6d
:08215400e0a34020eca34020b1
:020000040000fa
:020000040040ba
:10215c004ff0200372b683f31188bff36f8fbff378
:06216c004f8f62b6fee792
:020000040000fa
:020000040040ba
:102172004ff0200372b683f31188bff36f8fbff362
:062182004f8f62b6fee77c
:020000040000fa
:020000040040ba
:1021880000f1080343604ff0ff328260c3600361cf
:0621980000230360704704
:020000040000fa
:020000040040ba
:10219e0043684b609a688a60516099600861036871
:0621ae00013303607047dd
:020000040000fa
:020000040040ba
:1021b40010b50446fff74cffa46b00f023f8b4fa03
:0621c40084f0400910bd8b
:020000040000fa
:020000040040ba
:1021ca0010b5431e0a44914200d110bd11f8014bcb
:0621da0003f8014ff7e7d6
:020000040000fa
:020000040040ba
:1021e00010b5034b1c69fff769ff013c201a10bdb5
:0421f000b4a2402035
:020000040000fa
:020000040040ba
:1021f400dff80c00016841f47001016070470000d1
:0422040088ed00e081
:020000040000fa
:020000040040ba
:10220800034a1368013b13600bb983f311887047c5
:04221800aca3402013
:020000040000fa
:020000040040ba
:10221c00014b024a1a607047000c0e400006000485
:020000040000fa
:020000040040ba
:10222c0008b50248fff786fc08bd00bf000e0e4043
:020000040000fa
:020000040040ba
:10223c00024a136801331360704700bfcca34020df
:020000040000fa
:020000040040ba
:10224c0002440346934200d1704703f8011bf9e79f
:020000040000fa
:020000040040ba
:0e225c0008b50020fff76efdfef7dcfffce783
:020000040000fa
:020000040040ba
:02226a00fee78d
:020000040000fa
:020000040040ba
:0c226c0008b1014a90637047b4a2402002
:020000040000fa
:020000040040ba
:0c227800014b186259627047b4a240206c
:020000040000fa
:020000040040ba
:0c228400014b1868704700bfeca340201d
:020000040000fa
:020000040040ba
:0c229000014b01221a607047f0a34020af
:020000040000fa
:020000040040ba
:0c229c00014b00221a70704710a4402073
:020000040000fa
:020000040040ba
:0c22a800014b00221a7070470ca440206b
:020000040000fa
:020000040040ba
:0c22b400014b00221a70704708a4402063
:020000040000fa
:020000040040ba
:0822c00008b5fff77ffafce707
:020000040000fa
:020000040040ba
:0822c80008b5fef79dfdfce7df
:020000040000fa
:020000040040ba
:0822d00008b5fef70bfefce768
:020000040000fa
:020000040040ba
:0822d80049444c45000000bf21
:020000040000fa
:020000040040ba
:0622e000002303617047ba
:020000040000fa
:020000040040ba
:0422e60001647047d8
:020000040000fa
:020000040040ba
:0222ea00fee70d
:020000040000fa
:020000040040ba
:0222ec00fee70b
:020000040000fa
:020000040040ba
:0222ee00fee709
:020000040000fa
:020000040040ba
:0222f000704735
:020000040000fa
:020000040040ba
:0222f200704733
:020000040000fa
:020000040040ba
:0222f400704731
:020000040000fa
:02000004d0002a
:0400000002000000fa
:00000001FF
